{
	"contracts/ERC721A.sol": {
		"ERC721A": {
			"abi": [
				{
					"inputs": [
						{
							"internalType": "string",
							"name": "name_",
							"type": "string"
						},
						{
							"internalType": "string",
							"name": "symbol_",
							"type": "string"
						},
						{
							"internalType": "uint256",
							"name": "maxBatchSize_",
							"type": "uint256"
						},
						{
							"internalType": "uint256",
							"name": "collectionSize_",
							"type": "uint256"
						}
					],
					"stateMutability": "nonpayable",
					"type": "constructor"
				},
				{
					"anonymous": false,
					"inputs": [
						{
							"indexed": true,
							"internalType": "address",
							"name": "owner",
							"type": "address"
						},
						{
							"indexed": true,
							"internalType": "address",
							"name": "approved",
							"type": "address"
						},
						{
							"indexed": true,
							"internalType": "uint256",
							"name": "tokenId",
							"type": "uint256"
						}
					],
					"name": "Approval",
					"type": "event"
				},
				{
					"anonymous": false,
					"inputs": [
						{
							"indexed": true,
							"internalType": "address",
							"name": "owner",
							"type": "address"
						},
						{
							"indexed": true,
							"internalType": "address",
							"name": "operator",
							"type": "address"
						},
						{
							"indexed": false,
							"internalType": "bool",
							"name": "approved",
							"type": "bool"
						}
					],
					"name": "ApprovalForAll",
					"type": "event"
				},
				{
					"anonymous": false,
					"inputs": [
						{
							"indexed": true,
							"internalType": "address",
							"name": "from",
							"type": "address"
						},
						{
							"indexed": true,
							"internalType": "address",
							"name": "to",
							"type": "address"
						},
						{
							"indexed": true,
							"internalType": "uint256",
							"name": "tokenId",
							"type": "uint256"
						}
					],
					"name": "Transfer",
					"type": "event"
				},
				{
					"inputs": [
						{
							"internalType": "address",
							"name": "to",
							"type": "address"
						},
						{
							"internalType": "uint256",
							"name": "tokenId",
							"type": "uint256"
						}
					],
					"name": "approve",
					"outputs": [],
					"stateMutability": "nonpayable",
					"type": "function"
				},
				{
					"inputs": [
						{
							"internalType": "address",
							"name": "owner",
							"type": "address"
						}
					],
					"name": "balanceOf",
					"outputs": [
						{
							"internalType": "uint256",
							"name": "",
							"type": "uint256"
						}
					],
					"stateMutability": "view",
					"type": "function"
				},
				{
					"inputs": [
						{
							"internalType": "uint256",
							"name": "tokenId",
							"type": "uint256"
						}
					],
					"name": "getApproved",
					"outputs": [
						{
							"internalType": "address",
							"name": "",
							"type": "address"
						}
					],
					"stateMutability": "view",
					"type": "function"
				},
				{
					"inputs": [
						{
							"internalType": "address",
							"name": "owner",
							"type": "address"
						},
						{
							"internalType": "address",
							"name": "operator",
							"type": "address"
						}
					],
					"name": "isApprovedForAll",
					"outputs": [
						{
							"internalType": "bool",
							"name": "",
							"type": "bool"
						}
					],
					"stateMutability": "view",
					"type": "function"
				},
				{
					"inputs": [],
					"name": "name",
					"outputs": [
						{
							"internalType": "string",
							"name": "",
							"type": "string"
						}
					],
					"stateMutability": "view",
					"type": "function"
				},
				{
					"inputs": [],
					"name": "nextOwnerToExplicitlySet",
					"outputs": [
						{
							"internalType": "uint256",
							"name": "",
							"type": "uint256"
						}
					],
					"stateMutability": "view",
					"type": "function"
				},
				{
					"inputs": [
						{
							"internalType": "uint256",
							"name": "tokenId",
							"type": "uint256"
						}
					],
					"name": "ownerOf",
					"outputs": [
						{
							"internalType": "address",
							"name": "",
							"type": "address"
						}
					],
					"stateMutability": "view",
					"type": "function"
				},
				{
					"inputs": [
						{
							"internalType": "address",
							"name": "from",
							"type": "address"
						},
						{
							"internalType": "address",
							"name": "to",
							"type": "address"
						},
						{
							"internalType": "uint256",
							"name": "tokenId",
							"type": "uint256"
						}
					],
					"name": "safeTransferFrom",
					"outputs": [],
					"stateMutability": "nonpayable",
					"type": "function"
				},
				{
					"inputs": [
						{
							"internalType": "address",
							"name": "from",
							"type": "address"
						},
						{
							"internalType": "address",
							"name": "to",
							"type": "address"
						},
						{
							"internalType": "uint256",
							"name": "tokenId",
							"type": "uint256"
						},
						{
							"internalType": "bytes",
							"name": "_data",
							"type": "bytes"
						}
					],
					"name": "safeTransferFrom",
					"outputs": [],
					"stateMutability": "nonpayable",
					"type": "function"
				},
				{
					"inputs": [
						{
							"internalType": "address",
							"name": "operator",
							"type": "address"
						},
						{
							"internalType": "bool",
							"name": "approved",
							"type": "bool"
						}
					],
					"name": "setApprovalForAll",
					"outputs": [],
					"stateMutability": "nonpayable",
					"type": "function"
				},
				{
					"inputs": [
						{
							"internalType": "bytes4",
							"name": "interfaceId",
							"type": "bytes4"
						}
					],
					"name": "supportsInterface",
					"outputs": [
						{
							"internalType": "bool",
							"name": "",
							"type": "bool"
						}
					],
					"stateMutability": "view",
					"type": "function"
				},
				{
					"inputs": [],
					"name": "symbol",
					"outputs": [
						{
							"internalType": "string",
							"name": "",
							"type": "string"
						}
					],
					"stateMutability": "view",
					"type": "function"
				},
				{
					"inputs": [
						{
							"internalType": "uint256",
							"name": "index",
							"type": "uint256"
						}
					],
					"name": "tokenByIndex",
					"outputs": [
						{
							"internalType": "uint256",
							"name": "",
							"type": "uint256"
						}
					],
					"stateMutability": "view",
					"type": "function"
				},
				{
					"inputs": [
						{
							"internalType": "address",
							"name": "owner",
							"type": "address"
						},
						{
							"internalType": "uint256",
							"name": "index",
							"type": "uint256"
						}
					],
					"name": "tokenOfOwnerByIndex",
					"outputs": [
						{
							"internalType": "uint256",
							"name": "",
							"type": "uint256"
						}
					],
					"stateMutability": "view",
					"type": "function"
				},
				{
					"inputs": [
						{
							"internalType": "uint256",
							"name": "tokenId",
							"type": "uint256"
						}
					],
					"name": "tokenURI",
					"outputs": [
						{
							"internalType": "string",
							"name": "",
							"type": "string"
						}
					],
					"stateMutability": "view",
					"type": "function"
				},
				{
					"inputs": [],
					"name": "totalSupply",
					"outputs": [
						{
							"internalType": "uint256",
							"name": "",
							"type": "uint256"
						}
					],
					"stateMutability": "view",
					"type": "function"
				},
				{
					"inputs": [
						{
							"internalType": "address",
							"name": "from",
							"type": "address"
						},
						{
							"internalType": "address",
							"name": "to",
							"type": "address"
						},
						{
							"internalType": "uint256",
							"name": "tokenId",
							"type": "uint256"
						}
					],
					"name": "transferFrom",
					"outputs": [],
					"stateMutability": "nonpayable",
					"type": "function"
				}
			],
			"devdoc": {
				"details": "Implementation of https://eips.ethereum.org/EIPS/eip-721[ERC721] Non-Fungible Token Standard, including the Metadata and Enumerable extension. Built to optimize for lower gas during batch mints. Assumes serials are sequentially minted starting at 0 (e.g. 0, 1, 2, 3..). Assumes the number of issuable tokens (collection size) is capped and fits in a uint128. Does not support burning tokens to address(0).",
				"kind": "dev",
				"methods": {
					"approve(address,uint256)": {
						"details": "See {IERC721-approve}."
					},
					"balanceOf(address)": {
						"details": "See {IERC721-balanceOf}."
					},
					"constructor": {
						"details": "`maxBatchSize` refers to how much a minter can mint at a time. `collectionSize_` refers to how many tokens are in the collection."
					},
					"getApproved(uint256)": {
						"details": "See {IERC721-getApproved}."
					},
					"isApprovedForAll(address,address)": {
						"details": "See {IERC721-isApprovedForAll}."
					},
					"name()": {
						"details": "See {IERC721Metadata-name}."
					},
					"ownerOf(uint256)": {
						"details": "See {IERC721-ownerOf}."
					},
					"safeTransferFrom(address,address,uint256)": {
						"details": "See {IERC721-safeTransferFrom}."
					},
					"safeTransferFrom(address,address,uint256,bytes)": {
						"details": "See {IERC721-safeTransferFrom}."
					},
					"setApprovalForAll(address,bool)": {
						"details": "See {IERC721-setApprovalForAll}."
					},
					"supportsInterface(bytes4)": {
						"details": "See {IERC165-supportsInterface}."
					},
					"symbol()": {
						"details": "See {IERC721Metadata-symbol}."
					},
					"tokenByIndex(uint256)": {
						"details": "See {IERC721Enumerable-tokenByIndex}."
					},
					"tokenOfOwnerByIndex(address,uint256)": {
						"details": "See {IERC721Enumerable-tokenOfOwnerByIndex}. This read function is O(collectionSize). If calling from a separate contract, be sure to test gas first. It may also degrade with extremely large collection sizes (e.g >> 10000), test for your use case."
					},
					"tokenURI(uint256)": {
						"details": "See {IERC721Metadata-tokenURI}."
					},
					"totalSupply()": {
						"details": "See {IERC721Enumerable-totalSupply}."
					},
					"transferFrom(address,address,uint256)": {
						"details": "See {IERC721-transferFrom}."
					}
				},
				"version": 1
			},
			"evm": {
				"assembly": "    /* \"contracts/ERC721A.sol\":1055:16043  contract ERC721A is... */\n  mstore(0x40, 0xc0)\n    /* \"contracts/ERC721A.sol\":1391:1392  0 */\n  0x00\n    /* \"contracts/ERC721A.sol\":1360:1392  uint256 private currentIndex = 0 */\n  dup1\n  sstore\n    /* \"contracts/ERC721A.sol\":12824:12825  0 */\n  0x00\n    /* \"contracts/ERC721A.sol\":12782:12825  uint256 public nextOwnerToExplicitlySet = 0 */\n  0x07\n  sstore\n    /* \"contracts/ERC721A.sol\":2285:2705  constructor(... */\n  callvalue\n  dup1\n  iszero\n  tag_1\n  jumpi\n  0x00\n  dup1\n  revert\ntag_1:\n  pop\n  mload(0x40)\n  sub(codesize, bytecodeSize)\n  dup1\n  bytecodeSize\n  dup4\n  codecopy\n  dup2\n  dup2\n  add\n  0x40\n  mstore\n  dup2\n  add\n  swap1\n  tag_2\n  swap2\n  swap1\n  tag_3\n  jump\t// in\ntag_2:\n    /* \"contracts/ERC721A.sol\":2448:2449  0 */\n  0x00\n    /* \"contracts/ERC721A.sol\":2430:2445  collectionSize_ */\n  dup2\n    /* \"contracts/ERC721A.sol\":2430:2449  collectionSize_ > 0 */\n  gt\n    /* \"contracts/ERC721A.sol\":2415:2511  require(... */\n  tag_6\n  jumpi\n  mload(0x40)\n  0x08c379a000000000000000000000000000000000000000000000000000000000\n  dup2\n  mstore\n  0x04\n  add\n  tag_7\n  swap1\n  tag_8\n  jump\t// in\ntag_7:\n  mload(0x40)\n  dup1\n  swap2\n  sub\n  swap1\n  revert\ntag_6:\n    /* \"contracts/ERC721A.sol\":2541:2542  0 */\n  0x00\n    /* \"contracts/ERC721A.sol\":2525:2538  maxBatchSize_ */\n  dup3\n    /* \"contracts/ERC721A.sol\":2525:2542  maxBatchSize_ > 0 */\n  gt\n    /* \"contracts/ERC721A.sol\":2517:2586  require(maxBatchSize_ > 0, \"ERC721A: max batch size must be nonzero\") */\n  tag_9\n  jumpi\n  mload(0x40)\n  0x08c379a000000000000000000000000000000000000000000000000000000000\n  dup2\n  mstore\n  0x04\n  add\n  tag_10\n  swap1\n  tag_11\n  jump\t// in\ntag_10:\n  mload(0x40)\n  dup1\n  swap2\n  sub\n  swap1\n  revert\ntag_9:\n    /* \"contracts/ERC721A.sol\":2600:2605  name_ */\n  dup4\n    /* \"contracts/ERC721A.sol\":2592:2597  _name */\n  0x01\n    /* \"contracts/ERC721A.sol\":2592:2605  _name = name_ */\n  swap1\n  dup1\n  mload\n  swap1\n  0x20\n  add\n  swap1\n  tag_12\n  swap3\n  swap2\n  swap1\n  tag_13\n  jump\t// in\ntag_12:\n  pop\n    /* \"contracts/ERC721A.sol\":2621:2628  symbol_ */\n  dup3\n    /* \"contracts/ERC721A.sol\":2611:2618  _symbol */\n  0x02\n    /* \"contracts/ERC721A.sol\":2611:2628  _symbol = symbol_ */\n  swap1\n  dup1\n  mload\n  swap1\n  0x20\n  add\n  swap1\n  tag_14\n  swap3\n  swap2\n  swap1\n  tag_13\n  jump\t// in\ntag_14:\n  pop\n    /* \"contracts/ERC721A.sol\":2649:2662  maxBatchSize_ */\n  dup2\n    /* \"contracts/ERC721A.sol\":2634:2662  maxBatchSize = maxBatchSize_ */\n  0xa0\n  dup2\n  dup2\n  mstore\n  pop\n  pop\n    /* \"contracts/ERC721A.sol\":2685:2700  collectionSize_ */\n  dup1\n    /* \"contracts/ERC721A.sol\":2668:2700  collectionSize = collectionSize_ */\n  0x80\n  dup2\n  dup2\n  mstore\n  pop\n  pop\n    /* \"contracts/ERC721A.sol\":2285:2705  constructor(... */\n  pop\n  pop\n  pop\n  pop\n    /* \"contracts/ERC721A.sol\":1055:16043  contract ERC721A is... */\n  jump(tag_15)\ntag_13:\n  dup3\n  dup1\n  sload\n  tag_16\n  swap1\n  tag_17\n  jump\t// in\ntag_16:\n  swap1\n  0x00\n  mstore\n  keccak256(0x00, 0x20)\n  swap1\n  0x1f\n  add\n  0x20\n  swap1\n  div\n  dup2\n  add\n  swap3\n  dup3\n  tag_19\n  jumpi\n  0x00\n  dup6\n  sstore\n  jump(tag_18)\ntag_19:\n  dup3\n  0x1f\n  lt\n  tag_20\n  jumpi\n  dup1\n  mload\n  not(0xff)\n  and\n  dup4\n  dup1\n  add\n  or\n  dup6\n  sstore\n  jump(tag_18)\ntag_20:\n  dup3\n  dup1\n  add\n  0x01\n  add\n  dup6\n  sstore\n  dup3\n  iszero\n  tag_18\n  jumpi\n  swap2\n  dup3\n  add\ntag_21:\n  dup3\n  dup2\n  gt\n  iszero\n  tag_22\n  jumpi\n  dup3\n  mload\n  dup3\n  sstore\n  swap2\n  0x20\n  add\n  swap2\n  swap1\n  0x01\n  add\n  swap1\n  jump(tag_21)\ntag_22:\ntag_18:\n  pop\n  swap1\n  pop\n  tag_23\n  swap2\n  swap1\n  tag_24\n  jump\t// in\ntag_23:\n  pop\n  swap1\n  jump\t// out\ntag_24:\ntag_25:\n  dup1\n  dup3\n  gt\n  iszero\n  tag_26\n  jumpi\n  0x00\n  dup2\n  0x00\n  swap1\n  sstore\n  pop\n  0x01\n  add\n  jump(tag_25)\ntag_26:\n  pop\n  swap1\n  jump\t// out\n    /* \"#utility.yul\":7:428   */\ntag_28:\n    /* \"#utility.yul\":96:101   */\n  0x00\n    /* \"#utility.yul\":121:187   */\n  tag_30\n    /* \"#utility.yul\":137:186   */\n  tag_31\n    /* \"#utility.yul\":179:185   */\n  dup5\n    /* \"#utility.yul\":137:186   */\n  tag_32\n  jump\t// in\ntag_31:\n    /* \"#utility.yul\":121:187   */\n  tag_33\n  jump\t// in\ntag_30:\n    /* \"#utility.yul\":112:187   */\n  swap1\n  pop\n    /* \"#utility.yul\":210:216   */\n  dup3\n    /* \"#utility.yul\":203:208   */\n  dup2\n    /* \"#utility.yul\":196:217   */\n  mstore\n    /* \"#utility.yul\":248:252   */\n  0x20\n    /* \"#utility.yul\":241:246   */\n  dup2\n    /* \"#utility.yul\":237:253   */\n  add\n    /* \"#utility.yul\":286:289   */\n  dup5\n    /* \"#utility.yul\":277:283   */\n  dup5\n    /* \"#utility.yul\":272:275   */\n  dup5\n    /* \"#utility.yul\":268:284   */\n  add\n    /* \"#utility.yul\":265:290   */\n  gt\n    /* \"#utility.yul\":262:374   */\n  iszero\n  tag_34\n  jumpi\n    /* \"#utility.yul\":293:372   */\n  tag_35\n  tag_36\n  jump\t// in\ntag_35:\n    /* \"#utility.yul\":262:374   */\ntag_34:\n    /* \"#utility.yul\":383:422   */\n  tag_37\n    /* \"#utility.yul\":415:421   */\n  dup5\n    /* \"#utility.yul\":410:413   */\n  dup3\n    /* \"#utility.yul\":405:408   */\n  dup6\n    /* \"#utility.yul\":383:422   */\n  tag_38\n  jump\t// in\ntag_37:\n    /* \"#utility.yul\":102:428   */\n  pop\n    /* \"#utility.yul\":7:428   */\n  swap4\n  swap3\n  pop\n  pop\n  pop\n  jump\t// out\n    /* \"#utility.yul\":448:803   */\ntag_39:\n    /* \"#utility.yul\":515:520   */\n  0x00\n    /* \"#utility.yul\":564:567   */\n  dup3\n    /* \"#utility.yul\":557:561   */\n  0x1f\n    /* \"#utility.yul\":549:555   */\n  dup4\n    /* \"#utility.yul\":545:562   */\n  add\n    /* \"#utility.yul\":541:568   */\n  slt\n    /* \"#utility.yul\":531:653   */\n  tag_41\n  jumpi\n    /* \"#utility.yul\":572:651   */\n  tag_42\n  tag_43\n  jump\t// in\ntag_42:\n    /* \"#utility.yul\":531:653   */\ntag_41:\n    /* \"#utility.yul\":682:688   */\n  dup2\n    /* \"#utility.yul\":676:689   */\n  mload\n    /* \"#utility.yul\":707:797   */\n  tag_44\n    /* \"#utility.yul\":793:796   */\n  dup5\n    /* \"#utility.yul\":785:791   */\n  dup3\n    /* \"#utility.yul\":778:782   */\n  0x20\n    /* \"#utility.yul\":770:776   */\n  dup7\n    /* \"#utility.yul\":766:783   */\n  add\n    /* \"#utility.yul\":707:797   */\n  tag_28\n  jump\t// in\ntag_44:\n    /* \"#utility.yul\":698:797   */\n  swap2\n  pop\n    /* \"#utility.yul\":521:803   */\n  pop\n    /* \"#utility.yul\":448:803   */\n  swap3\n  swap2\n  pop\n  pop\n  jump\t// out\n    /* \"#utility.yul\":809:952   */\ntag_45:\n    /* \"#utility.yul\":866:871   */\n  0x00\n    /* \"#utility.yul\":897:903   */\n  dup2\n    /* \"#utility.yul\":891:904   */\n  mload\n    /* \"#utility.yul\":882:904   */\n  swap1\n  pop\n    /* \"#utility.yul\":913:946   */\n  tag_47\n    /* \"#utility.yul\":940:945   */\n  dup2\n    /* \"#utility.yul\":913:946   */\n  tag_48\n  jump\t// in\ntag_47:\n    /* \"#utility.yul\":809:952   */\n  swap3\n  swap2\n  pop\n  pop\n  jump\t// out\n    /* \"#utility.yul\":958:2124   */\ntag_3:\n    /* \"#utility.yul\":1075:1081   */\n  0x00\n    /* \"#utility.yul\":1083:1089   */\n  dup1\n    /* \"#utility.yul\":1091:1097   */\n  0x00\n    /* \"#utility.yul\":1099:1105   */\n  dup1\n    /* \"#utility.yul\":1148:1151   */\n  0x80\n    /* \"#utility.yul\":1136:1145   */\n  dup6\n    /* \"#utility.yul\":1127:1134   */\n  dup8\n    /* \"#utility.yul\":1123:1146   */\n  sub\n    /* \"#utility.yul\":1119:1152   */\n  slt\n    /* \"#utility.yul\":1116:1236   */\n  iszero\n  tag_50\n  jumpi\n    /* \"#utility.yul\":1155:1234   */\n  tag_51\n  tag_52\n  jump\t// in\ntag_51:\n    /* \"#utility.yul\":1116:1236   */\ntag_50:\n    /* \"#utility.yul\":1296:1297   */\n  0x00\n    /* \"#utility.yul\":1285:1294   */\n  dup6\n    /* \"#utility.yul\":1281:1298   */\n  add\n    /* \"#utility.yul\":1275:1299   */\n  mload\n    /* \"#utility.yul\":1326:1344   */\n  0xffffffffffffffff\n    /* \"#utility.yul\":1318:1324   */\n  dup2\n    /* \"#utility.yul\":1315:1345   */\n  gt\n    /* \"#utility.yul\":1312:1429   */\n  iszero\n  tag_53\n  jumpi\n    /* \"#utility.yul\":1348:1427   */\n  tag_54\n  tag_55\n  jump\t// in\ntag_54:\n    /* \"#utility.yul\":1312:1429   */\ntag_53:\n    /* \"#utility.yul\":1453:1527   */\n  tag_56\n    /* \"#utility.yul\":1519:1526   */\n  dup8\n    /* \"#utility.yul\":1510:1516   */\n  dup3\n    /* \"#utility.yul\":1499:1508   */\n  dup9\n    /* \"#utility.yul\":1495:1517   */\n  add\n    /* \"#utility.yul\":1453:1527   */\n  tag_39\n  jump\t// in\ntag_56:\n    /* \"#utility.yul\":1443:1527   */\n  swap5\n  pop\n    /* \"#utility.yul\":1246:1537   */\n  pop\n    /* \"#utility.yul\":1597:1599   */\n  0x20\n    /* \"#utility.yul\":1586:1595   */\n  dup6\n    /* \"#utility.yul\":1582:1600   */\n  add\n    /* \"#utility.yul\":1576:1601   */\n  mload\n    /* \"#utility.yul\":1628:1646   */\n  0xffffffffffffffff\n    /* \"#utility.yul\":1620:1626   */\n  dup2\n    /* \"#utility.yul\":1617:1647   */\n  gt\n    /* \"#utility.yul\":1614:1731   */\n  iszero\n  tag_57\n  jumpi\n    /* \"#utility.yul\":1650:1729   */\n  tag_58\n  tag_55\n  jump\t// in\ntag_58:\n    /* \"#utility.yul\":1614:1731   */\ntag_57:\n    /* \"#utility.yul\":1755:1829   */\n  tag_59\n    /* \"#utility.yul\":1821:1828   */\n  dup8\n    /* \"#utility.yul\":1812:1818   */\n  dup3\n    /* \"#utility.yul\":1801:1810   */\n  dup9\n    /* \"#utility.yul\":1797:1819   */\n  add\n    /* \"#utility.yul\":1755:1829   */\n  tag_39\n  jump\t// in\ntag_59:\n    /* \"#utility.yul\":1745:1829   */\n  swap4\n  pop\n    /* \"#utility.yul\":1547:1839   */\n  pop\n    /* \"#utility.yul\":1878:1880   */\n  0x40\n    /* \"#utility.yul\":1904:1968   */\n  tag_60\n    /* \"#utility.yul\":1960:1967   */\n  dup8\n    /* \"#utility.yul\":1951:1957   */\n  dup3\n    /* \"#utility.yul\":1940:1949   */\n  dup9\n    /* \"#utility.yul\":1936:1958   */\n  add\n    /* \"#utility.yul\":1904:1968   */\n  tag_45\n  jump\t// in\ntag_60:\n    /* \"#utility.yul\":1894:1968   */\n  swap3\n  pop\n    /* \"#utility.yul\":1849:1978   */\n  pop\n    /* \"#utility.yul\":2017:2019   */\n  0x60\n    /* \"#utility.yul\":2043:2107   */\n  tag_61\n    /* \"#utility.yul\":2099:2106   */\n  dup8\n    /* \"#utility.yul\":2090:2096   */\n  dup3\n    /* \"#utility.yul\":2079:2088   */\n  dup9\n    /* \"#utility.yul\":2075:2097   */\n  add\n    /* \"#utility.yul\":2043:2107   */\n  tag_45\n  jump\t// in\ntag_61:\n    /* \"#utility.yul\":2033:2107   */\n  swap2\n  pop\n    /* \"#utility.yul\":1988:2117   */\n  pop\n    /* \"#utility.yul\":958:2124   */\n  swap3\n  swap6\n  swap2\n  swap5\n  pop\n  swap3\n  pop\n  jump\t// out\n    /* \"#utility.yul\":2130:2496   */\ntag_62:\n    /* \"#utility.yul\":2272:2275   */\n  0x00\n    /* \"#utility.yul\":2293:2360   */\n  tag_64\n    /* \"#utility.yul\":2357:2359   */\n  0x27\n    /* \"#utility.yul\":2352:2355   */\n  dup4\n    /* \"#utility.yul\":2293:2360   */\n  tag_65\n  jump\t// in\ntag_64:\n    /* \"#utility.yul\":2286:2360   */\n  swap2\n  pop\n    /* \"#utility.yul\":2369:2462   */\n  tag_66\n    /* \"#utility.yul\":2458:2461   */\n  dup3\n    /* \"#utility.yul\":2369:2462   */\n  tag_67\n  jump\t// in\ntag_66:\n    /* \"#utility.yul\":2487:2489   */\n  0x40\n    /* \"#utility.yul\":2482:2485   */\n  dup3\n    /* \"#utility.yul\":2478:2490   */\n  add\n    /* \"#utility.yul\":2471:2490   */\n  swap1\n  pop\n    /* \"#utility.yul\":2130:2496   */\n  swap2\n  swap1\n  pop\n  jump\t// out\n    /* \"#utility.yul\":2502:2868   */\ntag_68:\n    /* \"#utility.yul\":2644:2647   */\n  0x00\n    /* \"#utility.yul\":2665:2732   */\n  tag_70\n    /* \"#utility.yul\":2729:2731   */\n  0x2e\n    /* \"#utility.yul\":2724:2727   */\n  dup4\n    /* \"#utility.yul\":2665:2732   */\n  tag_65\n  jump\t// in\ntag_70:\n    /* \"#utility.yul\":2658:2732   */\n  swap2\n  pop\n    /* \"#utility.yul\":2741:2834   */\n  tag_71\n    /* \"#utility.yul\":2830:2833   */\n  dup3\n    /* \"#utility.yul\":2741:2834   */\n  tag_72\n  jump\t// in\ntag_71:\n    /* \"#utility.yul\":2859:2861   */\n  0x40\n    /* \"#utility.yul\":2854:2857   */\n  dup3\n    /* \"#utility.yul\":2850:2862   */\n  add\n    /* \"#utility.yul\":2843:2862   */\n  swap1\n  pop\n    /* \"#utility.yul\":2502:2868   */\n  swap2\n  swap1\n  pop\n  jump\t// out\n    /* \"#utility.yul\":2874:3293   */\ntag_11:\n    /* \"#utility.yul\":3040:3044   */\n  0x00\n    /* \"#utility.yul\":3078:3080   */\n  0x20\n    /* \"#utility.yul\":3067:3076   */\n  dup3\n    /* \"#utility.yul\":3063:3081   */\n  add\n    /* \"#utility.yul\":3055:3081   */\n  swap1\n  pop\n    /* \"#utility.yul\":3127:3136   */\n  dup2\n    /* \"#utility.yul\":3121:3125   */\n  dup2\n    /* \"#utility.yul\":3117:3137   */\n  sub\n    /* \"#utility.yul\":3113:3114   */\n  0x00\n    /* \"#utility.yul\":3102:3111   */\n  dup4\n    /* \"#utility.yul\":3098:3115   */\n  add\n    /* \"#utility.yul\":3091:3138   */\n  mstore\n    /* \"#utility.yul\":3155:3286   */\n  tag_74\n    /* \"#utility.yul\":3281:3285   */\n  dup2\n    /* \"#utility.yul\":3155:3286   */\n  tag_62\n  jump\t// in\ntag_74:\n    /* \"#utility.yul\":3147:3286   */\n  swap1\n  pop\n    /* \"#utility.yul\":2874:3293   */\n  swap2\n  swap1\n  pop\n  jump\t// out\n    /* \"#utility.yul\":3299:3718   */\ntag_8:\n    /* \"#utility.yul\":3465:3469   */\n  0x00\n    /* \"#utility.yul\":3503:3505   */\n  0x20\n    /* \"#utility.yul\":3492:3501   */\n  dup3\n    /* \"#utility.yul\":3488:3506   */\n  add\n    /* \"#utility.yul\":3480:3506   */\n  swap1\n  pop\n    /* \"#utility.yul\":3552:3561   */\n  dup2\n    /* \"#utility.yul\":3546:3550   */\n  dup2\n    /* \"#utility.yul\":3542:3562   */\n  sub\n    /* \"#utility.yul\":3538:3539   */\n  0x00\n    /* \"#utility.yul\":3527:3536   */\n  dup4\n    /* \"#utility.yul\":3523:3540   */\n  add\n    /* \"#utility.yul\":3516:3563   */\n  mstore\n    /* \"#utility.yul\":3580:3711   */\n  tag_76\n    /* \"#utility.yul\":3706:3710   */\n  dup2\n    /* \"#utility.yul\":3580:3711   */\n  tag_68\n  jump\t// in\ntag_76:\n    /* \"#utility.yul\":3572:3711   */\n  swap1\n  pop\n    /* \"#utility.yul\":3299:3718   */\n  swap2\n  swap1\n  pop\n  jump\t// out\n    /* \"#utility.yul\":3724:3853   */\ntag_33:\n    /* \"#utility.yul\":3758:3764   */\n  0x00\n    /* \"#utility.yul\":3785:3805   */\n  tag_78\n  tag_79\n  jump\t// in\ntag_78:\n    /* \"#utility.yul\":3775:3805   */\n  swap1\n  pop\n    /* \"#utility.yul\":3814:3847   */\n  tag_80\n    /* \"#utility.yul\":3842:3846   */\n  dup3\n    /* \"#utility.yul\":3834:3840   */\n  dup3\n    /* \"#utility.yul\":3814:3847   */\n  tag_81\n  jump\t// in\ntag_80:\n    /* \"#utility.yul\":3724:3853   */\n  swap2\n  swap1\n  pop\n  jump\t// out\n    /* \"#utility.yul\":3859:3934   */\ntag_79:\n    /* \"#utility.yul\":3892:3898   */\n  0x00\n    /* \"#utility.yul\":3925:3927   */\n  0x40\n    /* \"#utility.yul\":3919:3928   */\n  mload\n    /* \"#utility.yul\":3909:3928   */\n  swap1\n  pop\n    /* \"#utility.yul\":3859:3934   */\n  swap1\n  jump\t// out\n    /* \"#utility.yul\":3940:4248   */\ntag_32:\n    /* \"#utility.yul\":4002:4006   */\n  0x00\n    /* \"#utility.yul\":4092:4110   */\n  0xffffffffffffffff\n    /* \"#utility.yul\":4084:4090   */\n  dup3\n    /* \"#utility.yul\":4081:4111   */\n  gt\n    /* \"#utility.yul\":4078:4134   */\n  iszero\n  tag_84\n  jumpi\n    /* \"#utility.yul\":4114:4132   */\n  tag_85\n  tag_86\n  jump\t// in\ntag_85:\n    /* \"#utility.yul\":4078:4134   */\ntag_84:\n    /* \"#utility.yul\":4152:4181   */\n  tag_87\n    /* \"#utility.yul\":4174:4180   */\n  dup3\n    /* \"#utility.yul\":4152:4181   */\n  tag_88\n  jump\t// in\ntag_87:\n    /* \"#utility.yul\":4144:4181   */\n  swap1\n  pop\n    /* \"#utility.yul\":4236:4240   */\n  0x20\n    /* \"#utility.yul\":4230:4234   */\n  dup2\n    /* \"#utility.yul\":4226:4241   */\n  add\n    /* \"#utility.yul\":4218:4241   */\n  swap1\n  pop\n    /* \"#utility.yul\":3940:4248   */\n  swap2\n  swap1\n  pop\n  jump\t// out\n    /* \"#utility.yul\":4254:4423   */\ntag_65:\n    /* \"#utility.yul\":4338:4349   */\n  0x00\n    /* \"#utility.yul\":4372:4378   */\n  dup3\n    /* \"#utility.yul\":4367:4370   */\n  dup3\n    /* \"#utility.yul\":4360:4379   */\n  mstore\n    /* \"#utility.yul\":4412:4416   */\n  0x20\n    /* \"#utility.yul\":4407:4410   */\n  dup3\n    /* \"#utility.yul\":4403:4417   */\n  add\n    /* \"#utility.yul\":4388:4417   */\n  swap1\n  pop\n    /* \"#utility.yul\":4254:4423   */\n  swap3\n  swap2\n  pop\n  pop\n  jump\t// out\n    /* \"#utility.yul\":4429:4506   */\ntag_90:\n    /* \"#utility.yul\":4466:4473   */\n  0x00\n    /* \"#utility.yul\":4495:4500   */\n  dup2\n    /* \"#utility.yul\":4484:4500   */\n  swap1\n  pop\n    /* \"#utility.yul\":4429:4506   */\n  swap2\n  swap1\n  pop\n  jump\t// out\n    /* \"#utility.yul\":4512:4819   */\ntag_38:\n    /* \"#utility.yul\":4580:4581   */\n  0x00\n    /* \"#utility.yul\":4590:4703   */\ntag_93:\n    /* \"#utility.yul\":4604:4610   */\n  dup4\n    /* \"#utility.yul\":4601:4602   */\n  dup2\n    /* \"#utility.yul\":4598:4611   */\n  lt\n    /* \"#utility.yul\":4590:4703   */\n  iszero\n  tag_95\n  jumpi\n    /* \"#utility.yul\":4689:4690   */\n  dup1\n    /* \"#utility.yul\":4684:4687   */\n  dup3\n    /* \"#utility.yul\":4680:4691   */\n  add\n    /* \"#utility.yul\":4674:4692   */\n  mload\n    /* \"#utility.yul\":4670:4671   */\n  dup2\n    /* \"#utility.yul\":4665:4668   */\n  dup5\n    /* \"#utility.yul\":4661:4672   */\n  add\n    /* \"#utility.yul\":4654:4693   */\n  mstore\n    /* \"#utility.yul\":4626:4628   */\n  0x20\n    /* \"#utility.yul\":4623:4624   */\n  dup2\n    /* \"#utility.yul\":4619:4629   */\n  add\n    /* \"#utility.yul\":4614:4629   */\n  swap1\n  pop\n    /* \"#utility.yul\":4590:4703   */\n  jump(tag_93)\ntag_95:\n    /* \"#utility.yul\":4721:4727   */\n  dup4\n    /* \"#utility.yul\":4718:4719   */\n  dup2\n    /* \"#utility.yul\":4715:4728   */\n  gt\n    /* \"#utility.yul\":4712:4813   */\n  iszero\n  tag_96\n  jumpi\n    /* \"#utility.yul\":4801:4802   */\n  0x00\n    /* \"#utility.yul\":4792:4798   */\n  dup5\n    /* \"#utility.yul\":4787:4790   */\n  dup5\n    /* \"#utility.yul\":4783:4799   */\n  add\n    /* \"#utility.yul\":4776:4803   */\n  mstore\n    /* \"#utility.yul\":4712:4813   */\ntag_96:\n    /* \"#utility.yul\":4561:4819   */\n  pop\n    /* \"#utility.yul\":4512:4819   */\n  pop\n  pop\n  pop\n  jump\t// out\n    /* \"#utility.yul\":4825:5145   */\ntag_17:\n    /* \"#utility.yul\":4869:4875   */\n  0x00\n    /* \"#utility.yul\":4906:4907   */\n  0x02\n    /* \"#utility.yul\":4900:4904   */\n  dup3\n    /* \"#utility.yul\":4896:4908   */\n  div\n    /* \"#utility.yul\":4886:4908   */\n  swap1\n  pop\n    /* \"#utility.yul\":4953:4954   */\n  0x01\n    /* \"#utility.yul\":4947:4951   */\n  dup3\n    /* \"#utility.yul\":4943:4955   */\n  and\n    /* \"#utility.yul\":4974:4992   */\n  dup1\n    /* \"#utility.yul\":4964:5045   */\n  tag_98\n  jumpi\n    /* \"#utility.yul\":5030:5034   */\n  0x7f\n    /* \"#utility.yul\":5022:5028   */\n  dup3\n    /* \"#utility.yul\":5018:5035   */\n  and\n    /* \"#utility.yul\":5008:5035   */\n  swap2\n  pop\n    /* \"#utility.yul\":4964:5045   */\ntag_98:\n    /* \"#utility.yul\":5092:5094   */\n  0x20\n    /* \"#utility.yul\":5084:5090   */\n  dup3\n    /* \"#utility.yul\":5081:5095   */\n  lt\n    /* \"#utility.yul\":5061:5079   */\n  dup2\n    /* \"#utility.yul\":5058:5096   */\n  eq\n    /* \"#utility.yul\":5055:5139   */\n  iszero\n  tag_99\n  jumpi\n    /* \"#utility.yul\":5111:5129   */\n  tag_100\n  tag_101\n  jump\t// in\ntag_100:\n    /* \"#utility.yul\":5055:5139   */\ntag_99:\n    /* \"#utility.yul\":4876:5145   */\n  pop\n    /* \"#utility.yul\":4825:5145   */\n  swap2\n  swap1\n  pop\n  jump\t// out\n    /* \"#utility.yul\":5151:5432   */\ntag_81:\n    /* \"#utility.yul\":5234:5261   */\n  tag_103\n    /* \"#utility.yul\":5256:5260   */\n  dup3\n    /* \"#utility.yul\":5234:5261   */\n  tag_88\n  jump\t// in\ntag_103:\n    /* \"#utility.yul\":5226:5232   */\n  dup2\n    /* \"#utility.yul\":5222:5262   */\n  add\n    /* \"#utility.yul\":5364:5370   */\n  dup2\n    /* \"#utility.yul\":5352:5362   */\n  dup2\n    /* \"#utility.yul\":5349:5371   */\n  lt\n    /* \"#utility.yul\":5328:5346   */\n  0xffffffffffffffff\n    /* \"#utility.yul\":5316:5326   */\n  dup3\n    /* \"#utility.yul\":5313:5347   */\n  gt\n    /* \"#utility.yul\":5310:5372   */\n  or\n    /* \"#utility.yul\":5307:5395   */\n  iszero\n  tag_104\n  jumpi\n    /* \"#utility.yul\":5375:5393   */\n  tag_105\n  tag_86\n  jump\t// in\ntag_105:\n    /* \"#utility.yul\":5307:5395   */\ntag_104:\n    /* \"#utility.yul\":5415:5425   */\n  dup1\n    /* \"#utility.yul\":5411:5413   */\n  0x40\n    /* \"#utility.yul\":5404:5426   */\n  mstore\n    /* \"#utility.yul\":5194:5432   */\n  pop\n    /* \"#utility.yul\":5151:5432   */\n  pop\n  pop\n  jump\t// out\n    /* \"#utility.yul\":5438:5618   */\ntag_101:\n    /* \"#utility.yul\":5486:5563   */\n  0x4e487b7100000000000000000000000000000000000000000000000000000000\n    /* \"#utility.yul\":5483:5484   */\n  0x00\n    /* \"#utility.yul\":5476:5564   */\n  mstore\n    /* \"#utility.yul\":5583:5587   */\n  0x22\n    /* \"#utility.yul\":5580:5581   */\n  0x04\n    /* \"#utility.yul\":5573:5588   */\n  mstore\n    /* \"#utility.yul\":5607:5611   */\n  0x24\n    /* \"#utility.yul\":5604:5605   */\n  0x00\n    /* \"#utility.yul\":5597:5612   */\n  revert\n    /* \"#utility.yul\":5624:5804   */\ntag_86:\n    /* \"#utility.yul\":5672:5749   */\n  0x4e487b7100000000000000000000000000000000000000000000000000000000\n    /* \"#utility.yul\":5669:5670   */\n  0x00\n    /* \"#utility.yul\":5662:5750   */\n  mstore\n    /* \"#utility.yul\":5769:5773   */\n  0x41\n    /* \"#utility.yul\":5766:5767   */\n  0x04\n    /* \"#utility.yul\":5759:5774   */\n  mstore\n    /* \"#utility.yul\":5793:5797   */\n  0x24\n    /* \"#utility.yul\":5790:5791   */\n  0x00\n    /* \"#utility.yul\":5783:5798   */\n  revert\n    /* \"#utility.yul\":5810:5927   */\ntag_43:\n    /* \"#utility.yul\":5919:5920   */\n  0x00\n    /* \"#utility.yul\":5916:5917   */\n  dup1\n    /* \"#utility.yul\":5909:5921   */\n  revert\n    /* \"#utility.yul\":5933:6050   */\ntag_36:\n    /* \"#utility.yul\":6042:6043   */\n  0x00\n    /* \"#utility.yul\":6039:6040   */\n  dup1\n    /* \"#utility.yul\":6032:6044   */\n  revert\n    /* \"#utility.yul\":6056:6173   */\ntag_55:\n    /* \"#utility.yul\":6165:6166   */\n  0x00\n    /* \"#utility.yul\":6162:6163   */\n  dup1\n    /* \"#utility.yul\":6155:6167   */\n  revert\n    /* \"#utility.yul\":6179:6296   */\ntag_52:\n    /* \"#utility.yul\":6288:6289   */\n  0x00\n    /* \"#utility.yul\":6285:6286   */\n  dup1\n    /* \"#utility.yul\":6278:6290   */\n  revert\n    /* \"#utility.yul\":6302:6404   */\ntag_88:\n    /* \"#utility.yul\":6343:6349   */\n  0x00\n    /* \"#utility.yul\":6394:6396   */\n  0x1f\n    /* \"#utility.yul\":6390:6397   */\n  not\n    /* \"#utility.yul\":6385:6387   */\n  0x1f\n    /* \"#utility.yul\":6378:6383   */\n  dup4\n    /* \"#utility.yul\":6374:6388   */\n  add\n    /* \"#utility.yul\":6370:6398   */\n  and\n    /* \"#utility.yul\":6360:6398   */\n  swap1\n  pop\n    /* \"#utility.yul\":6302:6404   */\n  swap2\n  swap1\n  pop\n  jump\t// out\n    /* \"#utility.yul\":6410:6636   */\ntag_67:\n    /* \"#utility.yul\":6550:6584   */\n  0x455243373231413a206d61782062617463682073697a65206d75737420626520\n    /* \"#utility.yul\":6546:6547   */\n  0x00\n    /* \"#utility.yul\":6538:6544   */\n  dup3\n    /* \"#utility.yul\":6534:6548   */\n  add\n    /* \"#utility.yul\":6527:6585   */\n  mstore\n    /* \"#utility.yul\":6619:6628   */\n  0x6e6f6e7a65726f00000000000000000000000000000000000000000000000000\n    /* \"#utility.yul\":6614:6616   */\n  0x20\n    /* \"#utility.yul\":6606:6612   */\n  dup3\n    /* \"#utility.yul\":6602:6617   */\n  add\n    /* \"#utility.yul\":6595:6629   */\n  mstore\n    /* \"#utility.yul\":6410:6636   */\n  pop\n  jump\t// out\n    /* \"#utility.yul\":6642:6875   */\ntag_72:\n    /* \"#utility.yul\":6782:6816   */\n  0x455243373231413a20636f6c6c656374696f6e206d7573742068617665206120\n    /* \"#utility.yul\":6778:6779   */\n  0x00\n    /* \"#utility.yul\":6770:6776   */\n  dup3\n    /* \"#utility.yul\":6766:6780   */\n  add\n    /* \"#utility.yul\":6759:6817   */\n  mstore\n    /* \"#utility.yul\":6851:6867   */\n  0x6e6f6e7a65726f20737570706c79000000000000000000000000000000000000\n    /* \"#utility.yul\":6846:6848   */\n  0x20\n    /* \"#utility.yul\":6838:6844   */\n  dup3\n    /* \"#utility.yul\":6834:6849   */\n  add\n    /* \"#utility.yul\":6827:6868   */\n  mstore\n    /* \"#utility.yul\":6642:6875   */\n  pop\n  jump\t// out\n    /* \"#utility.yul\":6881:7003   */\ntag_48:\n    /* \"#utility.yul\":6954:6978   */\n  tag_116\n    /* \"#utility.yul\":6972:6977   */\n  dup2\n    /* \"#utility.yul\":6954:6978   */\n  tag_90\n  jump\t// in\ntag_116:\n    /* \"#utility.yul\":6947:6952   */\n  dup2\n    /* \"#utility.yul\":6944:6979   */\n  eq\n    /* \"#utility.yul\":6934:6997   */\n  tag_117\n  jumpi\n    /* \"#utility.yul\":6993:6994   */\n  0x00\n    /* \"#utility.yul\":6990:6991   */\n  dup1\n    /* \"#utility.yul\":6983:6995   */\n  revert\n    /* \"#utility.yul\":6934:6997   */\ntag_117:\n    /* \"#utility.yul\":6881:7003   */\n  pop\n  jump\t// out\n    /* \"contracts/ERC721A.sol\":1055:16043  contract ERC721A is... */\ntag_15:\n  mload(0x80)\n  mload(0xa0)\n  codecopy(0x00, dataOffset(sub_0), dataSize(sub_0))\n  0x00\n  assignImmutable(\"0xe216240695da412145d9df04d3b0c5fca4d43b99b7d0d5386b61bbf0097f7efd\")\n  0x00\n  assignImmutable(\"0x588e5ad3f145f9d841773d4229bac23d743ef980914ad5d2b613712259f67f55\")\n  return(0x00, dataSize(sub_0))\nstop\n\nsub_0: assembly {\n        /* \"contracts/ERC721A.sol\":1055:16043  contract ERC721A is... */\n      mstore(0x40, 0x80)\n      callvalue\n      dup1\n      iszero\n      tag_1\n      jumpi\n      0x00\n      dup1\n      revert\n    tag_1:\n      pop\n      jumpi(tag_2, lt(calldatasize, 0x04))\n      shr(0xe0, calldataload(0x00))\n      dup1\n      0x4f6ccce7\n      gt\n      tag_20\n      jumpi\n      dup1\n      0xa22cb465\n      gt\n      tag_21\n      jumpi\n      dup1\n      0xa22cb465\n      eq\n      tag_15\n      jumpi\n      dup1\n      0xb88d4fde\n      eq\n      tag_16\n      jumpi\n      dup1\n      0xc87b56dd\n      eq\n      tag_17\n      jumpi\n      dup1\n      0xd7224ba0\n      eq\n      tag_18\n      jumpi\n      dup1\n      0xe985e9c5\n      eq\n      tag_19\n      jumpi\n      jump(tag_2)\n    tag_21:\n      dup1\n      0x4f6ccce7\n      eq\n      tag_11\n      jumpi\n      dup1\n      0x6352211e\n      eq\n      tag_12\n      jumpi\n      dup1\n      0x70a08231\n      eq\n      tag_13\n      jumpi\n      dup1\n      0x95d89b41\n      eq\n      tag_14\n      jumpi\n      jump(tag_2)\n    tag_20:\n      dup1\n      0x18160ddd\n      gt\n      tag_22\n      jumpi\n      dup1\n      0x18160ddd\n      eq\n      tag_7\n      jumpi\n      dup1\n      0x23b872dd\n      eq\n      tag_8\n      jumpi\n      dup1\n      0x2f745c59\n      eq\n      tag_9\n      jumpi\n      dup1\n      0x42842e0e\n      eq\n      tag_10\n      jumpi\n      jump(tag_2)\n    tag_22:\n      dup1\n      0x01ffc9a7\n      eq\n      tag_3\n      jumpi\n      dup1\n      0x06fdde03\n      eq\n      tag_4\n      jumpi\n      dup1\n      0x081812fc\n      eq\n      tag_5\n      jumpi\n      dup1\n      0x095ea7b3\n      eq\n      tag_6\n      jumpi\n    tag_2:\n      0x00\n      dup1\n      revert\n        /* \"contracts/ERC721A.sol\":4162:4520  function supportsInterface(bytes4 interfaceId)... */\n    tag_3:\n      tag_23\n      0x04\n      dup1\n      calldatasize\n      sub\n      dup2\n      add\n      swap1\n      tag_24\n      swap2\n      swap1\n      tag_25\n      jump\t// in\n    tag_24:\n      tag_26\n      jump\t// in\n    tag_23:\n      mload(0x40)\n      tag_27\n      swap2\n      swap1\n      tag_28\n      jump\t// in\n    tag_27:\n      mload(0x40)\n      dup1\n      swap2\n      sub\n      swap1\n      return\n        /* \"contracts/ERC721A.sol\":5826:5918  function name() public view virtual override returns (string memory) {... */\n    tag_4:\n      tag_29\n      tag_30\n      jump\t// in\n    tag_29:\n      mload(0x40)\n      tag_31\n      swap2\n      swap1\n      tag_32\n      jump\t// in\n    tag_31:\n      mload(0x40)\n      dup1\n      swap2\n      sub\n      swap1\n      return\n        /* \"contracts/ERC721A.sol\":7291:7491  function getApproved(uint256 tokenId) public view override returns (address) {... */\n    tag_5:\n      tag_33\n      0x04\n      dup1\n      calldatasize\n      sub\n      dup2\n      add\n      swap1\n      tag_34\n      swap2\n      swap1\n      tag_35\n      jump\t// in\n    tag_34:\n      tag_36\n      jump\t// in\n    tag_33:\n      mload(0x40)\n      tag_37\n      swap2\n      swap1\n      tag_38\n      jump\t// in\n    tag_37:\n      mload(0x40)\n      dup1\n      swap2\n      sub\n      swap1\n      return\n        /* \"contracts/ERC721A.sol\":6869:7238  function approve(address to, uint256 tokenId) public override {... */\n    tag_6:\n      tag_39\n      0x04\n      dup1\n      calldatasize\n      sub\n      dup2\n      add\n      swap1\n      tag_40\n      swap2\n      swap1\n      tag_41\n      jump\t// in\n    tag_40:\n      tag_42\n      jump\t// in\n    tag_39:\n      stop\n        /* \"contracts/ERC721A.sol\":2768:2860  function totalSupply() public view override returns (uint256) {... */\n    tag_7:\n      tag_43\n      tag_44\n      jump\t// in\n    tag_43:\n      mload(0x40)\n      tag_45\n      swap2\n      swap1\n      tag_46\n      jump\t// in\n    tag_45:\n      mload(0x40)\n      dup1\n      swap2\n      sub\n      swap1\n      return\n        /* \"contracts/ERC721A.sol\":8109:8245  function transferFrom(... */\n    tag_8:\n      tag_47\n      0x04\n      dup1\n      calldatasize\n      sub\n      dup2\n      add\n      swap1\n      tag_48\n      swap2\n      swap1\n      tag_49\n      jump\t// in\n    tag_48:\n      tag_50\n      jump\t// in\n    tag_47:\n      stop\n        /* \"contracts/ERC721A.sol\":3382:4103  function tokenOfOwnerByIndex(address owner, uint256 index)... */\n    tag_9:\n      tag_51\n      0x04\n      dup1\n      calldatasize\n      sub\n      dup2\n      add\n      swap1\n      tag_52\n      swap2\n      swap1\n      tag_41\n      jump\t// in\n    tag_52:\n      tag_53\n      jump\t// in\n    tag_51:\n      mload(0x40)\n      tag_54\n      swap2\n      swap1\n      tag_46\n      jump\t// in\n    tag_54:\n      mload(0x40)\n      dup1\n      swap2\n      sub\n      swap1\n      return\n        /* \"contracts/ERC721A.sol\":8303:8454  function safeTransferFrom(... */\n    tag_10:\n      tag_55\n      0x04\n      dup1\n      calldatasize\n      sub\n      dup2\n      add\n      swap1\n      tag_56\n      swap2\n      swap1\n      tag_49\n      jump\t// in\n    tag_56:\n      tag_57\n      jump\t// in\n    tag_55:\n      stop\n        /* \"contracts/ERC721A.sol\":2924:3098  function tokenByIndex(uint256 index) public view override returns (uint256) {... */\n    tag_11:\n      tag_58\n      0x04\n      dup1\n      calldatasize\n      sub\n      dup2\n      add\n      swap1\n      tag_59\n      swap2\n      swap1\n      tag_35\n      jump\t// in\n    tag_59:\n      tag_60\n      jump\t// in\n    tag_58:\n      mload(0x40)\n      tag_61\n      swap2\n      swap1\n      tag_46\n      jump\t// in\n    tag_61:\n      mload(0x40)\n      dup1\n      swap2\n      sub\n      swap1\n      return\n        /* \"contracts/ERC721A.sol\":5656:5772  function ownerOf(uint256 tokenId) public view override returns (address) {... */\n    tag_12:\n      tag_62\n      0x04\n      dup1\n      calldatasize\n      sub\n      dup2\n      add\n      swap1\n      tag_63\n      swap2\n      swap1\n      tag_35\n      jump\t// in\n    tag_63:\n      tag_64\n      jump\t// in\n    tag_62:\n      mload(0x40)\n      tag_65\n      swap2\n      swap1\n      tag_38\n      jump\t// in\n    tag_65:\n      mload(0x40)\n      dup1\n      swap2\n      sub\n      swap1\n      return\n        /* \"contracts/ERC721A.sol\":4571:4779  function balanceOf(address owner) public view override returns (uint256) {... */\n    tag_13:\n      tag_66\n      0x04\n      dup1\n      calldatasize\n      sub\n      dup2\n      add\n      swap1\n      tag_67\n      swap2\n      swap1\n      tag_68\n      jump\t// in\n    tag_67:\n      tag_69\n      jump\t// in\n    tag_66:\n      mload(0x40)\n      tag_70\n      swap2\n      swap1\n      tag_46\n      jump\t// in\n    tag_70:\n      mload(0x40)\n      dup1\n      swap2\n      sub\n      swap1\n      return\n        /* \"contracts/ERC721A.sol\":5974:6070  function symbol() public view virtual override returns (string memory) {... */\n    tag_14:\n      tag_71\n      tag_72\n      jump\t// in\n    tag_71:\n      mload(0x40)\n      tag_73\n      swap2\n      swap1\n      tag_32\n      jump\t// in\n    tag_73:\n      mload(0x40)\n      dup1\n      swap2\n      sub\n      swap1\n      return\n        /* \"contracts/ERC721A.sol\":7550:7819  function setApprovalForAll(address operator, bool approved) public override {... */\n    tag_15:\n      tag_74\n      0x04\n      dup1\n      calldatasize\n      sub\n      dup2\n      add\n      swap1\n      tag_75\n      swap2\n      swap1\n      tag_76\n      jump\t// in\n    tag_75:\n      tag_77\n      jump\t// in\n    tag_74:\n      stop\n        /* \"contracts/ERC721A.sol\":8512:8812  function safeTransferFrom(... */\n    tag_16:\n      tag_78\n      0x04\n      dup1\n      calldatasize\n      sub\n      dup2\n      add\n      swap1\n      tag_79\n      swap2\n      swap1\n      tag_80\n      jump\t// in\n    tag_79:\n      tag_81\n      jump\t// in\n    tag_78:\n      stop\n        /* \"contracts/ERC721A.sol\":6128:6505  function tokenURI(uint256 tokenId)... */\n    tag_17:\n      tag_82\n      0x04\n      dup1\n      calldatasize\n      sub\n      dup2\n      add\n      swap1\n      tag_83\n      swap2\n      swap1\n      tag_35\n      jump\t// in\n    tag_83:\n      tag_84\n      jump\t// in\n    tag_82:\n      mload(0x40)\n      tag_85\n      swap2\n      swap1\n      tag_32\n      jump\t// in\n    tag_85:\n      mload(0x40)\n      dup1\n      swap2\n      sub\n      swap1\n      return\n        /* \"contracts/ERC721A.sol\":12782:12825  uint256 public nextOwnerToExplicitlySet = 0 */\n    tag_18:\n      tag_86\n      tag_87\n      jump\t// in\n    tag_86:\n      mload(0x40)\n      tag_88\n      swap2\n      swap1\n      tag_46\n      jump\t// in\n    tag_88:\n      mload(0x40)\n      dup1\n      swap2\n      sub\n      swap1\n      return\n        /* \"contracts/ERC721A.sol\":7877:8055  function isApprovedForAll(address owner, address operator)... */\n    tag_19:\n      tag_89\n      0x04\n      dup1\n      calldatasize\n      sub\n      dup2\n      add\n      swap1\n      tag_90\n      swap2\n      swap1\n      tag_91\n      jump\t// in\n    tag_90:\n      tag_92\n      jump\t// in\n    tag_89:\n      mload(0x40)\n      tag_93\n      swap2\n      swap1\n      tag_28\n      jump\t// in\n    tag_93:\n      mload(0x40)\n      dup1\n      swap2\n      sub\n      swap1\n      return\n        /* \"contracts/ERC721A.sol\":4162:4520  function supportsInterface(bytes4 interfaceId)... */\n    tag_26:\n        /* \"contracts/ERC721A.sol\":4284:4288  bool */\n      0x00\n        /* \"contracts/ERC721A.sol\":4326:4351  type(IERC721).interfaceId */\n      0x80ac58cd00000000000000000000000000000000000000000000000000000000\n        /* \"contracts/ERC721A.sol\":4311:4351  interfaceId == type(IERC721).interfaceId */\n      not(0xffffffffffffffffffffffffffffffffffffffffffffffffffffffff)\n      and\n        /* \"contracts/ERC721A.sol\":4311:4322  interfaceId */\n      dup3\n        /* \"contracts/ERC721A.sol\":4311:4351  interfaceId == type(IERC721).interfaceId */\n      not(0xffffffffffffffffffffffffffffffffffffffffffffffffffffffff)\n      and\n      eq\n        /* \"contracts/ERC721A.sol\":4311:4409  interfaceId == type(IERC721).interfaceId ||... */\n      dup1\n      tag_95\n      jumpi\n      pop\n        /* \"contracts/ERC721A.sol\":4376:4409  type(IERC721Metadata).interfaceId */\n      0x5b5e139f00000000000000000000000000000000000000000000000000000000\n        /* \"contracts/ERC721A.sol\":4361:4409  interfaceId == type(IERC721Metadata).interfaceId */\n      not(0xffffffffffffffffffffffffffffffffffffffffffffffffffffffff)\n      and\n        /* \"contracts/ERC721A.sol\":4361:4372  interfaceId */\n      dup3\n        /* \"contracts/ERC721A.sol\":4361:4409  interfaceId == type(IERC721Metadata).interfaceId */\n      not(0xffffffffffffffffffffffffffffffffffffffffffffffffffffffff)\n      and\n      eq\n        /* \"contracts/ERC721A.sol\":4311:4409  interfaceId == type(IERC721).interfaceId ||... */\n    tag_95:\n        /* \"contracts/ERC721A.sol\":4311:4469  interfaceId == type(IERC721).interfaceId ||... */\n      dup1\n      tag_96\n      jumpi\n      pop\n        /* \"contracts/ERC721A.sol\":4434:4469  type(IERC721Enumerable).interfaceId */\n      0x780e9d6300000000000000000000000000000000000000000000000000000000\n        /* \"contracts/ERC721A.sol\":4419:4469  interfaceId == type(IERC721Enumerable).interfaceId */\n      not(0xffffffffffffffffffffffffffffffffffffffffffffffffffffffff)\n      and\n        /* \"contracts/ERC721A.sol\":4419:4430  interfaceId */\n      dup3\n        /* \"contracts/ERC721A.sol\":4419:4469  interfaceId == type(IERC721Enumerable).interfaceId */\n      not(0xffffffffffffffffffffffffffffffffffffffffffffffffffffffff)\n      and\n      eq\n        /* \"contracts/ERC721A.sol\":4311:4469  interfaceId == type(IERC721).interfaceId ||... */\n    tag_96:\n        /* \"contracts/ERC721A.sol\":4311:4515  interfaceId == type(IERC721).interfaceId ||... */\n      dup1\n      tag_97\n      jumpi\n      pop\n        /* \"contracts/ERC721A.sol\":4479:4515  super.supportsInterface(interfaceId) */\n      tag_98\n        /* \"contracts/ERC721A.sol\":4503:4514  interfaceId */\n      dup3\n        /* \"contracts/ERC721A.sol\":4479:4502  super.supportsInterface */\n      tag_99\n        /* \"contracts/ERC721A.sol\":4479:4515  super.supportsInterface(interfaceId) */\n      jump\t// in\n    tag_98:\n        /* \"contracts/ERC721A.sol\":4311:4515  interfaceId == type(IERC721).interfaceId ||... */\n    tag_97:\n        /* \"contracts/ERC721A.sol\":4298:4515  return... */\n      swap1\n      pop\n        /* \"contracts/ERC721A.sol\":4162:4520  function supportsInterface(bytes4 interfaceId)... */\n      swap2\n      swap1\n      pop\n      jump\t// out\n        /* \"contracts/ERC721A.sol\":5826:5918  function name() public view virtual override returns (string memory) {... */\n    tag_30:\n        /* \"contracts/ERC721A.sol\":5880:5893  string memory */\n      0x60\n        /* \"contracts/ERC721A.sol\":5908:5913  _name */\n      0x01\n        /* \"contracts/ERC721A.sol\":5901:5913  return _name */\n      dup1\n      sload\n      tag_101\n      swap1\n      tag_102\n      jump\t// in\n    tag_101:\n      dup1\n      0x1f\n      add\n      0x20\n      dup1\n      swap2\n      div\n      mul\n      0x20\n      add\n      mload(0x40)\n      swap1\n      dup2\n      add\n      0x40\n      mstore\n      dup1\n      swap3\n      swap2\n      swap1\n      dup2\n      dup2\n      mstore\n      0x20\n      add\n      dup3\n      dup1\n      sload\n      tag_103\n      swap1\n      tag_102\n      jump\t// in\n    tag_103:\n      dup1\n      iszero\n      tag_104\n      jumpi\n      dup1\n      0x1f\n      lt\n      tag_105\n      jumpi\n      0x0100\n      dup1\n      dup4\n      sload\n      div\n      mul\n      dup4\n      mstore\n      swap2\n      0x20\n      add\n      swap2\n      jump(tag_104)\n    tag_105:\n      dup3\n      add\n      swap2\n      swap1\n      0x00\n      mstore\n      keccak256(0x00, 0x20)\n      swap1\n    tag_106:\n      dup2\n      sload\n      dup2\n      mstore\n      swap1\n      0x01\n      add\n      swap1\n      0x20\n      add\n      dup1\n      dup4\n      gt\n      tag_106\n      jumpi\n      dup3\n      swap1\n      sub\n      0x1f\n      and\n      dup3\n      add\n      swap2\n    tag_104:\n      pop\n      pop\n      pop\n      pop\n      pop\n      swap1\n      pop\n        /* \"contracts/ERC721A.sol\":5826:5918  function name() public view virtual override returns (string memory) {... */\n      swap1\n      jump\t// out\n        /* \"contracts/ERC721A.sol\":7291:7491  function getApproved(uint256 tokenId) public view override returns (address) {... */\n    tag_36:\n        /* \"contracts/ERC721A.sol\":7359:7366  address */\n      0x00\n        /* \"contracts/ERC721A.sol\":7382:7398  _exists(tokenId) */\n      tag_108\n        /* \"contracts/ERC721A.sol\":7390:7397  tokenId */\n      dup3\n        /* \"contracts/ERC721A.sol\":7382:7389  _exists */\n      tag_109\n        /* \"contracts/ERC721A.sol\":7382:7398  _exists(tokenId) */\n      jump\t// in\n    tag_108:\n        /* \"contracts/ERC721A.sol\":7374:7448  require(_exists(tokenId), \"ERC721A: approved query for nonexistent token\") */\n      tag_110\n      jumpi\n      mload(0x40)\n      0x08c379a000000000000000000000000000000000000000000000000000000000\n      dup2\n      mstore\n      0x04\n      add\n      tag_111\n      swap1\n      tag_112\n      jump\t// in\n    tag_111:\n      mload(0x40)\n      dup1\n      swap2\n      sub\n      swap1\n      revert\n    tag_110:\n        /* \"contracts/ERC721A.sol\":7462:7477  _tokenApprovals */\n      0x05\n        /* \"contracts/ERC721A.sol\":7462:7486  _tokenApprovals[tokenId] */\n      0x00\n        /* \"contracts/ERC721A.sol\":7478:7485  tokenId */\n      dup4\n        /* \"contracts/ERC721A.sol\":7462:7486  _tokenApprovals[tokenId] */\n      dup2\n      mstore\n      0x20\n      add\n      swap1\n      dup2\n      mstore\n      0x20\n      add\n      0x00\n      keccak256\n      0x00\n      swap1\n      sload\n      swap1\n      0x0100\n      exp\n      swap1\n      div\n      0xffffffffffffffffffffffffffffffffffffffff\n      and\n        /* \"contracts/ERC721A.sol\":7455:7486  return _tokenApprovals[tokenId] */\n      swap1\n      pop\n        /* \"contracts/ERC721A.sol\":7291:7491  function getApproved(uint256 tokenId) public view override returns (address) {... */\n      swap2\n      swap1\n      pop\n      jump\t// out\n        /* \"contracts/ERC721A.sol\":6869:7238  function approve(address to, uint256 tokenId) public override {... */\n    tag_42:\n        /* \"contracts/ERC721A.sol\":6937:6950  address owner */\n      0x00\n        /* \"contracts/ERC721A.sol\":6953:6977  ERC721A.ownerOf(tokenId) */\n      tag_114\n        /* \"contracts/ERC721A.sol\":6969:6976  tokenId */\n      dup3\n        /* \"contracts/ERC721A.sol\":6953:6968  ERC721A.ownerOf */\n      tag_64\n        /* \"contracts/ERC721A.sol\":6953:6977  ERC721A.ownerOf(tokenId) */\n      jump\t// in\n    tag_114:\n        /* \"contracts/ERC721A.sol\":6937:6977  address owner = ERC721A.ownerOf(tokenId) */\n      swap1\n      pop\n        /* \"contracts/ERC721A.sol\":6997:7002  owner */\n      dup1\n        /* \"contracts/ERC721A.sol\":6991:7002  to != owner */\n      0xffffffffffffffffffffffffffffffffffffffff\n      and\n        /* \"contracts/ERC721A.sol\":6991:6993  to */\n      dup4\n        /* \"contracts/ERC721A.sol\":6991:7002  to != owner */\n      0xffffffffffffffffffffffffffffffffffffffff\n      and\n      eq\n      iszero\n        /* \"contracts/ERC721A.sol\":6983:7041  require(to != owner, \"ERC721A: approval to current owner\") */\n      tag_115\n      jumpi\n      mload(0x40)\n      0x08c379a000000000000000000000000000000000000000000000000000000000\n      dup2\n      mstore\n      0x04\n      add\n      tag_116\n      swap1\n      tag_117\n      jump\t// in\n    tag_116:\n      mload(0x40)\n      dup1\n      swap2\n      sub\n      swap1\n      revert\n    tag_115:\n        /* \"contracts/ERC721A.sol\":7079:7084  owner */\n      dup1\n        /* \"contracts/ERC721A.sol\":7063:7084  _msgSender() == owner */\n      0xffffffffffffffffffffffffffffffffffffffff\n      and\n        /* \"contracts/ERC721A.sol\":7063:7075  _msgSender() */\n      tag_118\n        /* \"contracts/ERC721A.sol\":7063:7073  _msgSender */\n      tag_119\n        /* \"contracts/ERC721A.sol\":7063:7075  _msgSender() */\n      jump\t// in\n    tag_118:\n        /* \"contracts/ERC721A.sol\":7063:7084  _msgSender() == owner */\n      0xffffffffffffffffffffffffffffffffffffffff\n      and\n      eq\n        /* \"contracts/ERC721A.sol\":7063:7125  _msgSender() == owner || isApprovedForAll(owner, _msgSender()) */\n      dup1\n      tag_120\n      jumpi\n      pop\n        /* \"contracts/ERC721A.sol\":7088:7125  isApprovedForAll(owner, _msgSender()) */\n      tag_121\n        /* \"contracts/ERC721A.sol\":7105:7110  owner */\n      dup2\n        /* \"contracts/ERC721A.sol\":7112:7124  _msgSender() */\n      tag_122\n        /* \"contracts/ERC721A.sol\":7112:7122  _msgSender */\n      tag_119\n        /* \"contracts/ERC721A.sol\":7112:7124  _msgSender() */\n      jump\t// in\n    tag_122:\n        /* \"contracts/ERC721A.sol\":7088:7104  isApprovedForAll */\n      tag_92\n        /* \"contracts/ERC721A.sol\":7088:7125  isApprovedForAll(owner, _msgSender()) */\n      jump\t// in\n    tag_121:\n        /* \"contracts/ERC721A.sol\":7063:7125  _msgSender() == owner || isApprovedForAll(owner, _msgSender()) */\n    tag_120:\n        /* \"contracts/ERC721A.sol\":7048:7198  require(... */\n      tag_123\n      jumpi\n      mload(0x40)\n      0x08c379a000000000000000000000000000000000000000000000000000000000\n      dup2\n      mstore\n      0x04\n      add\n      tag_124\n      swap1\n      tag_125\n      jump\t// in\n    tag_124:\n      mload(0x40)\n      dup1\n      swap2\n      sub\n      swap1\n      revert\n    tag_123:\n        /* \"contracts/ERC721A.sol\":7205:7233  _approve(to, tokenId, owner) */\n      tag_126\n        /* \"contracts/ERC721A.sol\":7214:7216  to */\n      dup4\n        /* \"contracts/ERC721A.sol\":7218:7225  tokenId */\n      dup4\n        /* \"contracts/ERC721A.sol\":7227:7232  owner */\n      dup4\n        /* \"contracts/ERC721A.sol\":7205:7213  _approve */\n      tag_127\n        /* \"contracts/ERC721A.sol\":7205:7233  _approve(to, tokenId, owner) */\n      jump\t// in\n    tag_126:\n        /* \"contracts/ERC721A.sol\":6931:7238  {... */\n      pop\n        /* \"contracts/ERC721A.sol\":6869:7238  function approve(address to, uint256 tokenId) public override {... */\n      pop\n      pop\n      jump\t// out\n        /* \"contracts/ERC721A.sol\":2768:2860  function totalSupply() public view override returns (uint256) {... */\n    tag_44:\n        /* \"contracts/ERC721A.sol\":2821:2828  uint256 */\n      0x00\n        /* \"contracts/ERC721A.sol\":2843:2855  currentIndex */\n      dup1\n      sload\n        /* \"contracts/ERC721A.sol\":2836:2855  return currentIndex */\n      swap1\n      pop\n        /* \"contracts/ERC721A.sol\":2768:2860  function totalSupply() public view override returns (uint256) {... */\n      swap1\n      jump\t// out\n        /* \"contracts/ERC721A.sol\":8109:8245  function transferFrom(... */\n    tag_50:\n        /* \"contracts/ERC721A.sol\":8212:8240  _transfer(from, to, tokenId) */\n      tag_130\n        /* \"contracts/ERC721A.sol\":8222:8226  from */\n      dup4\n        /* \"contracts/ERC721A.sol\":8228:8230  to */\n      dup4\n        /* \"contracts/ERC721A.sol\":8232:8239  tokenId */\n      dup4\n        /* \"contracts/ERC721A.sol\":8212:8221  _transfer */\n      tag_131\n        /* \"contracts/ERC721A.sol\":8212:8240  _transfer(from, to, tokenId) */\n      jump\t// in\n    tag_130:\n        /* \"contracts/ERC721A.sol\":8109:8245  function transferFrom(... */\n      pop\n      pop\n      pop\n      jump\t// out\n        /* \"contracts/ERC721A.sol\":3382:4103  function tokenOfOwnerByIndex(address owner, uint256 index)... */\n    tag_53:\n        /* \"contracts/ERC721A.sol\":3487:3494  uint256 */\n      0x00\n        /* \"contracts/ERC721A.sol\":3520:3536  balanceOf(owner) */\n      tag_133\n        /* \"contracts/ERC721A.sol\":3530:3535  owner */\n      dup4\n        /* \"contracts/ERC721A.sol\":3520:3529  balanceOf */\n      tag_69\n        /* \"contracts/ERC721A.sol\":3520:3536  balanceOf(owner) */\n      jump\t// in\n    tag_133:\n        /* \"contracts/ERC721A.sol\":3512:3517  index */\n      dup3\n        /* \"contracts/ERC721A.sol\":3512:3536  index < balanceOf(owner) */\n      lt\n        /* \"contracts/ERC721A.sol\":3504:3575  require(index < balanceOf(owner), \"ERC721A: owner index out of bounds\") */\n      tag_134\n      jumpi\n      mload(0x40)\n      0x08c379a000000000000000000000000000000000000000000000000000000000\n      dup2\n      mstore\n      0x04\n      add\n      tag_135\n      swap1\n      tag_136\n      jump\t// in\n    tag_135:\n      mload(0x40)\n      dup1\n      swap2\n      sub\n      swap1\n      revert\n    tag_134:\n        /* \"contracts/ERC721A.sol\":3581:3603  uint256 numMintedSoFar */\n      0x00\n        /* \"contracts/ERC721A.sol\":3606:3619  totalSupply() */\n      tag_137\n        /* \"contracts/ERC721A.sol\":3606:3617  totalSupply */\n      tag_44\n        /* \"contracts/ERC721A.sol\":3606:3619  totalSupply() */\n      jump\t// in\n    tag_137:\n        /* \"contracts/ERC721A.sol\":3581:3619  uint256 numMintedSoFar = totalSupply() */\n      swap1\n      pop\n        /* \"contracts/ERC721A.sol\":3625:3644  uint256 tokenIdsIdx */\n      0x00\n        /* \"contracts/ERC721A.sol\":3654:3679  address currOwnershipAddr */\n      dup1\n        /* \"contracts/ERC721A.sol\":3703:3712  uint256 i */\n      0x00\n        /* \"contracts/ERC721A.sol\":3698:4037  for (uint256 i = 0; i < numMintedSoFar; i++) {... */\n    tag_138:\n        /* \"contracts/ERC721A.sol\":3722:3736  numMintedSoFar */\n      dup4\n        /* \"contracts/ERC721A.sol\":3718:3719  i */\n      dup2\n        /* \"contracts/ERC721A.sol\":3718:3736  i < numMintedSoFar */\n      lt\n        /* \"contracts/ERC721A.sol\":3698:4037  for (uint256 i = 0; i < numMintedSoFar; i++) {... */\n      iszero\n      tag_139\n      jumpi\n        /* \"contracts/ERC721A.sol\":3751:3782  TokenOwnership memory ownership */\n      0x00\n        /* \"contracts/ERC721A.sol\":3785:3796  _ownerships */\n      0x03\n        /* \"contracts/ERC721A.sol\":3785:3799  _ownerships[i] */\n      0x00\n        /* \"contracts/ERC721A.sol\":3797:3798  i */\n      dup4\n        /* \"contracts/ERC721A.sol\":3785:3799  _ownerships[i] */\n      dup2\n      mstore\n      0x20\n      add\n      swap1\n      dup2\n      mstore\n      0x20\n      add\n      0x00\n      keccak256\n        /* \"contracts/ERC721A.sol\":3751:3799  TokenOwnership memory ownership = _ownerships[i] */\n      mload(0x40)\n      dup1\n      0x40\n      add\n      0x40\n      mstore\n      swap1\n      dup2\n      0x00\n      dup3\n      add\n      0x00\n      swap1\n      sload\n      swap1\n      0x0100\n      exp\n      swap1\n      div\n      0xffffffffffffffffffffffffffffffffffffffff\n      and\n      0xffffffffffffffffffffffffffffffffffffffff\n      and\n      0xffffffffffffffffffffffffffffffffffffffff\n      and\n      dup2\n      mstore\n      0x20\n      add\n      0x00\n      dup3\n      add\n      0x14\n      swap1\n      sload\n      swap1\n      0x0100\n      exp\n      swap1\n      div\n      0xffffffffffffffff\n      and\n      0xffffffffffffffff\n      and\n      0xffffffffffffffff\n      and\n      dup2\n      mstore\n      pop\n      pop\n      swap1\n      pop\n        /* \"contracts/ERC721A.sol\":3837:3838  0 */\n      0x00\n        /* \"contracts/ERC721A.sol\":3811:3839  ownership.addr != address(0) */\n      0xffffffffffffffffffffffffffffffffffffffff\n      and\n        /* \"contracts/ERC721A.sol\":3811:3820  ownership */\n      dup2\n        /* \"contracts/ERC721A.sol\":3811:3825  ownership.addr */\n      0x00\n      add\n      mload\n        /* \"contracts/ERC721A.sol\":3811:3839  ownership.addr != address(0) */\n      0xffffffffffffffffffffffffffffffffffffffff\n      and\n      eq\n        /* \"contracts/ERC721A.sol\":3807:3894  if (ownership.addr != address(0)) {... */\n      tag_141\n      jumpi\n        /* \"contracts/ERC721A.sol\":3871:3880  ownership */\n      dup1\n        /* \"contracts/ERC721A.sol\":3871:3885  ownership.addr */\n      0x00\n      add\n      mload\n        /* \"contracts/ERC721A.sol\":3851:3885  currOwnershipAddr = ownership.addr */\n      swap3\n      pop\n        /* \"contracts/ERC721A.sol\":3807:3894  if (ownership.addr != address(0)) {... */\n    tag_141:\n        /* \"contracts/ERC721A.sol\":3926:3931  owner */\n      dup8\n        /* \"contracts/ERC721A.sol\":3905:3931  currOwnershipAddr == owner */\n      0xffffffffffffffffffffffffffffffffffffffff\n      and\n        /* \"contracts/ERC721A.sol\":3905:3922  currOwnershipAddr */\n      dup4\n        /* \"contracts/ERC721A.sol\":3905:3931  currOwnershipAddr == owner */\n      0xffffffffffffffffffffffffffffffffffffffff\n      and\n      eq\n        /* \"contracts/ERC721A.sol\":3901:4031  if (currOwnershipAddr == owner) {... */\n      iszero\n      tag_142\n      jumpi\n        /* \"contracts/ERC721A.sol\":3962:3967  index */\n      dup7\n        /* \"contracts/ERC721A.sol\":3947:3958  tokenIdsIdx */\n      dup5\n        /* \"contracts/ERC721A.sol\":3947:3967  tokenIdsIdx == index */\n      eq\n        /* \"contracts/ERC721A.sol\":3943:4000  if (tokenIdsIdx == index) {... */\n      iszero\n      tag_143\n      jumpi\n        /* \"contracts/ERC721A.sol\":3988:3989  i */\n      dup2\n        /* \"contracts/ERC721A.sol\":3981:3989  return i */\n      swap6\n      pop\n      pop\n      pop\n      pop\n      pop\n      pop\n      jump(tag_132)\n        /* \"contracts/ERC721A.sol\":3943:4000  if (tokenIdsIdx == index) {... */\n    tag_143:\n        /* \"contracts/ERC721A.sol\":4009:4022  tokenIdsIdx++ */\n      dup4\n      dup1\n      tag_144\n      swap1\n      tag_145\n      jump\t// in\n    tag_144:\n      swap5\n      pop\n      pop\n        /* \"contracts/ERC721A.sol\":3901:4031  if (currOwnershipAddr == owner) {... */\n    tag_142:\n        /* \"contracts/ERC721A.sol\":3743:4037  {... */\n      pop\n        /* \"contracts/ERC721A.sol\":3738:3741  i++ */\n      dup1\n      dup1\n      tag_146\n      swap1\n      tag_145\n      jump\t// in\n    tag_146:\n      swap2\n      pop\n      pop\n        /* \"contracts/ERC721A.sol\":3698:4037  for (uint256 i = 0; i < numMintedSoFar; i++) {... */\n      jump(tag_138)\n    tag_139:\n      pop\n        /* \"contracts/ERC721A.sol\":4042:4098  revert(\"ERC721A: unable to get token of owner by index\") */\n      mload(0x40)\n      0x08c379a000000000000000000000000000000000000000000000000000000000\n      dup2\n      mstore\n      0x04\n      add\n      tag_147\n      swap1\n      tag_148\n      jump\t// in\n    tag_147:\n      mload(0x40)\n      dup1\n      swap2\n      sub\n      swap1\n      revert\n        /* \"contracts/ERC721A.sol\":3382:4103  function tokenOfOwnerByIndex(address owner, uint256 index)... */\n    tag_132:\n      swap3\n      swap2\n      pop\n      pop\n      jump\t// out\n        /* \"contracts/ERC721A.sol\":8303:8454  function safeTransferFrom(... */\n    tag_57:\n        /* \"contracts/ERC721A.sol\":8410:8449  safeTransferFrom(from, to, tokenId, \"\") */\n      tag_150\n        /* \"contracts/ERC721A.sol\":8427:8431  from */\n      dup4\n        /* \"contracts/ERC721A.sol\":8433:8435  to */\n      dup4\n        /* \"contracts/ERC721A.sol\":8437:8444  tokenId */\n      dup4\n        /* \"contracts/ERC721A.sol\":8410:8449  safeTransferFrom(from, to, tokenId, \"\") */\n      mload(0x40)\n      dup1\n      0x20\n      add\n      0x40\n      mstore\n      dup1\n      0x00\n      dup2\n      mstore\n      pop\n        /* \"contracts/ERC721A.sol\":8410:8426  safeTransferFrom */\n      tag_81\n        /* \"contracts/ERC721A.sol\":8410:8449  safeTransferFrom(from, to, tokenId, \"\") */\n      jump\t// in\n    tag_150:\n        /* \"contracts/ERC721A.sol\":8303:8454  function safeTransferFrom(... */\n      pop\n      pop\n      pop\n      jump\t// out\n        /* \"contracts/ERC721A.sol\":2924:3098  function tokenByIndex(uint256 index) public view override returns (uint256) {... */\n    tag_60:\n        /* \"contracts/ERC721A.sol\":2991:2998  uint256 */\n      0x00\n        /* \"contracts/ERC721A.sol\":3022:3035  totalSupply() */\n      tag_152\n        /* \"contracts/ERC721A.sol\":3022:3033  totalSupply */\n      tag_44\n        /* \"contracts/ERC721A.sol\":3022:3035  totalSupply() */\n      jump\t// in\n    tag_152:\n        /* \"contracts/ERC721A.sol\":3014:3019  index */\n      dup3\n        /* \"contracts/ERC721A.sol\":3014:3035  index < totalSupply() */\n      lt\n        /* \"contracts/ERC721A.sol\":3006:3075  require(index < totalSupply(), \"ERC721A: global index out of bounds\") */\n      tag_153\n      jumpi\n      mload(0x40)\n      0x08c379a000000000000000000000000000000000000000000000000000000000\n      dup2\n      mstore\n      0x04\n      add\n      tag_154\n      swap1\n      tag_155\n      jump\t// in\n    tag_154:\n      mload(0x40)\n      dup1\n      swap2\n      sub\n      swap1\n      revert\n    tag_153:\n        /* \"contracts/ERC721A.sol\":3088:3093  index */\n      dup2\n        /* \"contracts/ERC721A.sol\":3081:3093  return index */\n      swap1\n      pop\n        /* \"contracts/ERC721A.sol\":2924:3098  function tokenByIndex(uint256 index) public view override returns (uint256) {... */\n      swap2\n      swap1\n      pop\n      jump\t// out\n        /* \"contracts/ERC721A.sol\":5656:5772  function ownerOf(uint256 tokenId) public view override returns (address) {... */\n    tag_64:\n        /* \"contracts/ERC721A.sol\":5720:5727  address */\n      0x00\n        /* \"contracts/ERC721A.sol\":5742:5762  ownershipOf(tokenId) */\n      tag_157\n        /* \"contracts/ERC721A.sol\":5754:5761  tokenId */\n      dup3\n        /* \"contracts/ERC721A.sol\":5742:5753  ownershipOf */\n      tag_158\n        /* \"contracts/ERC721A.sol\":5742:5762  ownershipOf(tokenId) */\n      jump\t// in\n    tag_157:\n        /* \"contracts/ERC721A.sol\":5742:5767  ownershipOf(tokenId).addr */\n      0x00\n      add\n      mload\n        /* \"contracts/ERC721A.sol\":5735:5767  return ownershipOf(tokenId).addr */\n      swap1\n      pop\n        /* \"contracts/ERC721A.sol\":5656:5772  function ownerOf(uint256 tokenId) public view override returns (address) {... */\n      swap2\n      swap1\n      pop\n      jump\t// out\n        /* \"contracts/ERC721A.sol\":4571:4779  function balanceOf(address owner) public view override returns (uint256) {... */\n    tag_69:\n        /* \"contracts/ERC721A.sol\":4635:4642  uint256 */\n      0x00\n        /* \"contracts/ERC721A.sol\":4675:4676  0 */\n      dup1\n        /* \"contracts/ERC721A.sol\":4658:4677  owner != address(0) */\n      0xffffffffffffffffffffffffffffffffffffffff\n      and\n        /* \"contracts/ERC721A.sol\":4658:4663  owner */\n      dup3\n        /* \"contracts/ERC721A.sol\":4658:4677  owner != address(0) */\n      0xffffffffffffffffffffffffffffffffffffffff\n      and\n      eq\n      iszero\n        /* \"contracts/ERC721A.sol\":4650:4725  require(owner != address(0), \"ERC721A: balance query for the zero address\") */\n      tag_160\n      jumpi\n      mload(0x40)\n      0x08c379a000000000000000000000000000000000000000000000000000000000\n      dup2\n      mstore\n      0x04\n      add\n      tag_161\n      swap1\n      tag_162\n      jump\t// in\n    tag_161:\n      mload(0x40)\n      dup1\n      swap2\n      sub\n      swap1\n      revert\n    tag_160:\n        /* \"contracts/ERC721A.sol\":4746:4758  _addressData */\n      0x04\n        /* \"contracts/ERC721A.sol\":4746:4765  _addressData[owner] */\n      0x00\n        /* \"contracts/ERC721A.sol\":4759:4764  owner */\n      dup4\n        /* \"contracts/ERC721A.sol\":4746:4765  _addressData[owner] */\n      0xffffffffffffffffffffffffffffffffffffffff\n      and\n      0xffffffffffffffffffffffffffffffffffffffff\n      and\n      dup2\n      mstore\n      0x20\n      add\n      swap1\n      dup2\n      mstore\n      0x20\n      add\n      0x00\n      keccak256\n        /* \"contracts/ERC721A.sol\":4746:4773  _addressData[owner].balance */\n      0x00\n      add\n      0x00\n      swap1\n      sload\n      swap1\n      0x0100\n      exp\n      swap1\n      div\n      0xffffffffffffffffffffffffffffffff\n      and\n        /* \"contracts/ERC721A.sol\":4738:4774  uint256(_addressData[owner].balance) */\n      0xffffffffffffffffffffffffffffffff\n      and\n        /* \"contracts/ERC721A.sol\":4731:4774  return uint256(_addressData[owner].balance) */\n      swap1\n      pop\n        /* \"contracts/ERC721A.sol\":4571:4779  function balanceOf(address owner) public view override returns (uint256) {... */\n      swap2\n      swap1\n      pop\n      jump\t// out\n        /* \"contracts/ERC721A.sol\":5974:6070  function symbol() public view virtual override returns (string memory) {... */\n    tag_72:\n        /* \"contracts/ERC721A.sol\":6030:6043  string memory */\n      0x60\n        /* \"contracts/ERC721A.sol\":6058:6065  _symbol */\n      0x02\n        /* \"contracts/ERC721A.sol\":6051:6065  return _symbol */\n      dup1\n      sload\n      tag_164\n      swap1\n      tag_102\n      jump\t// in\n    tag_164:\n      dup1\n      0x1f\n      add\n      0x20\n      dup1\n      swap2\n      div\n      mul\n      0x20\n      add\n      mload(0x40)\n      swap1\n      dup2\n      add\n      0x40\n      mstore\n      dup1\n      swap3\n      swap2\n      swap1\n      dup2\n      dup2\n      mstore\n      0x20\n      add\n      dup3\n      dup1\n      sload\n      tag_165\n      swap1\n      tag_102\n      jump\t// in\n    tag_165:\n      dup1\n      iszero\n      tag_166\n      jumpi\n      dup1\n      0x1f\n      lt\n      tag_167\n      jumpi\n      0x0100\n      dup1\n      dup4\n      sload\n      div\n      mul\n      dup4\n      mstore\n      swap2\n      0x20\n      add\n      swap2\n      jump(tag_166)\n    tag_167:\n      dup3\n      add\n      swap2\n      swap1\n      0x00\n      mstore\n      keccak256(0x00, 0x20)\n      swap1\n    tag_168:\n      dup2\n      sload\n      dup2\n      mstore\n      swap1\n      0x01\n      add\n      swap1\n      0x20\n      add\n      dup1\n      dup4\n      gt\n      tag_168\n      jumpi\n      dup3\n      swap1\n      sub\n      0x1f\n      and\n      dup3\n      add\n      swap2\n    tag_166:\n      pop\n      pop\n      pop\n      pop\n      pop\n      swap1\n      pop\n        /* \"contracts/ERC721A.sol\":5974:6070  function symbol() public view virtual override returns (string memory) {... */\n      swap1\n      jump\t// out\n        /* \"contracts/ERC721A.sol\":7550:7819  function setApprovalForAll(address operator, bool approved) public override {... */\n    tag_77:\n        /* \"contracts/ERC721A.sol\":7652:7664  _msgSender() */\n      tag_170\n        /* \"contracts/ERC721A.sol\":7652:7662  _msgSender */\n      tag_119\n        /* \"contracts/ERC721A.sol\":7652:7664  _msgSender() */\n      jump\t// in\n    tag_170:\n        /* \"contracts/ERC721A.sol\":7640:7664  operator != _msgSender() */\n      0xffffffffffffffffffffffffffffffffffffffff\n      and\n        /* \"contracts/ERC721A.sol\":7640:7648  operator */\n      dup3\n        /* \"contracts/ERC721A.sol\":7640:7664  operator != _msgSender() */\n      0xffffffffffffffffffffffffffffffffffffffff\n      and\n      eq\n      iszero\n        /* \"contracts/ERC721A.sol\":7632:7695  require(operator != _msgSender(), \"ERC721A: approve to caller\") */\n      tag_171\n      jumpi\n      mload(0x40)\n      0x08c379a000000000000000000000000000000000000000000000000000000000\n      dup2\n      mstore\n      0x04\n      add\n      tag_172\n      swap1\n      tag_173\n      jump\t// in\n    tag_172:\n      mload(0x40)\n      dup1\n      swap2\n      sub\n      swap1\n      revert\n    tag_171:\n        /* \"contracts/ERC721A.sol\":7747:7755  approved */\n      dup1\n        /* \"contracts/ERC721A.sol\":7702:7720  _operatorApprovals */\n      0x06\n        /* \"contracts/ERC721A.sol\":7702:7734  _operatorApprovals[_msgSender()] */\n      0x00\n        /* \"contracts/ERC721A.sol\":7721:7733  _msgSender() */\n      tag_174\n        /* \"contracts/ERC721A.sol\":7721:7731  _msgSender */\n      tag_119\n        /* \"contracts/ERC721A.sol\":7721:7733  _msgSender() */\n      jump\t// in\n    tag_174:\n        /* \"contracts/ERC721A.sol\":7702:7734  _operatorApprovals[_msgSender()] */\n      0xffffffffffffffffffffffffffffffffffffffff\n      and\n      0xffffffffffffffffffffffffffffffffffffffff\n      and\n      dup2\n      mstore\n      0x20\n      add\n      swap1\n      dup2\n      mstore\n      0x20\n      add\n      0x00\n      keccak256\n        /* \"contracts/ERC721A.sol\":7702:7744  _operatorApprovals[_msgSender()][operator] */\n      0x00\n        /* \"contracts/ERC721A.sol\":7735:7743  operator */\n      dup5\n        /* \"contracts/ERC721A.sol\":7702:7744  _operatorApprovals[_msgSender()][operator] */\n      0xffffffffffffffffffffffffffffffffffffffff\n      and\n      0xffffffffffffffffffffffffffffffffffffffff\n      and\n      dup2\n      mstore\n      0x20\n      add\n      swap1\n      dup2\n      mstore\n      0x20\n      add\n      0x00\n      keccak256\n      0x00\n        /* \"contracts/ERC721A.sol\":7702:7755  _operatorApprovals[_msgSender()][operator] = approved */\n      0x0100\n      exp\n      dup2\n      sload\n      dup2\n      0xff\n      mul\n      not\n      and\n      swap1\n      dup4\n      iszero\n      iszero\n      mul\n      or\n      swap1\n      sstore\n      pop\n        /* \"contracts/ERC721A.sol\":7795:7803  operator */\n      dup2\n        /* \"contracts/ERC721A.sol\":7766:7814  ApprovalForAll(_msgSender(), operator, approved) */\n      0xffffffffffffffffffffffffffffffffffffffff\n      and\n        /* \"contracts/ERC721A.sol\":7781:7793  _msgSender() */\n      tag_175\n        /* \"contracts/ERC721A.sol\":7781:7791  _msgSender */\n      tag_119\n        /* \"contracts/ERC721A.sol\":7781:7793  _msgSender() */\n      jump\t// in\n    tag_175:\n        /* \"contracts/ERC721A.sol\":7766:7814  ApprovalForAll(_msgSender(), operator, approved) */\n      0xffffffffffffffffffffffffffffffffffffffff\n      and\n      0x17307eab39ab6107e8899845ad3d59bd9653f200f220920489ca2b5937696c31\n        /* \"contracts/ERC721A.sol\":7805:7813  approved */\n      dup4\n        /* \"contracts/ERC721A.sol\":7766:7814  ApprovalForAll(_msgSender(), operator, approved) */\n      mload(0x40)\n      tag_176\n      swap2\n      swap1\n      tag_28\n      jump\t// in\n    tag_176:\n      mload(0x40)\n      dup1\n      swap2\n      sub\n      swap1\n      log3\n        /* \"contracts/ERC721A.sol\":7550:7819  function setApprovalForAll(address operator, bool approved) public override {... */\n      pop\n      pop\n      jump\t// out\n        /* \"contracts/ERC721A.sol\":8512:8812  function safeTransferFrom(... */\n    tag_81:\n        /* \"contracts/ERC721A.sol\":8643:8671  _transfer(from, to, tokenId) */\n      tag_178\n        /* \"contracts/ERC721A.sol\":8653:8657  from */\n      dup5\n        /* \"contracts/ERC721A.sol\":8659:8661  to */\n      dup5\n        /* \"contracts/ERC721A.sol\":8663:8670  tokenId */\n      dup5\n        /* \"contracts/ERC721A.sol\":8643:8652  _transfer */\n      tag_131\n        /* \"contracts/ERC721A.sol\":8643:8671  _transfer(from, to, tokenId) */\n      jump\t// in\n    tag_178:\n        /* \"contracts/ERC721A.sol\":8692:8740  _checkOnERC721Received(from, to, tokenId, _data) */\n      tag_179\n        /* \"contracts/ERC721A.sol\":8715:8719  from */\n      dup5\n        /* \"contracts/ERC721A.sol\":8721:8723  to */\n      dup5\n        /* \"contracts/ERC721A.sol\":8725:8732  tokenId */\n      dup5\n        /* \"contracts/ERC721A.sol\":8734:8739  _data */\n      dup5\n        /* \"contracts/ERC721A.sol\":8692:8714  _checkOnERC721Received */\n      tag_180\n        /* \"contracts/ERC721A.sol\":8692:8740  _checkOnERC721Received(from, to, tokenId, _data) */\n      jump\t// in\n    tag_179:\n        /* \"contracts/ERC721A.sol\":8677:8807  require(... */\n      tag_181\n      jumpi\n      mload(0x40)\n      0x08c379a000000000000000000000000000000000000000000000000000000000\n      dup2\n      mstore\n      0x04\n      add\n      tag_182\n      swap1\n      tag_183\n      jump\t// in\n    tag_182:\n      mload(0x40)\n      dup1\n      swap2\n      sub\n      swap1\n      revert\n    tag_181:\n        /* \"contracts/ERC721A.sol\":8512:8812  function safeTransferFrom(... */\n      pop\n      pop\n      pop\n      pop\n      jump\t// out\n        /* \"contracts/ERC721A.sol\":6128:6505  function tokenURI(uint256 tokenId)... */\n    tag_84:\n        /* \"contracts/ERC721A.sol\":6221:6234  string memory */\n      0x60\n        /* \"contracts/ERC721A.sol\":6259:6275  _exists(tokenId) */\n      tag_185\n        /* \"contracts/ERC721A.sol\":6267:6274  tokenId */\n      dup3\n        /* \"contracts/ERC721A.sol\":6259:6266  _exists */\n      tag_109\n        /* \"contracts/ERC721A.sol\":6259:6275  _exists(tokenId) */\n      jump\t// in\n    tag_185:\n        /* \"contracts/ERC721A.sol\":6244:6338  require(... */\n      tag_186\n      jumpi\n      mload(0x40)\n      0x08c379a000000000000000000000000000000000000000000000000000000000\n      dup2\n      mstore\n      0x04\n      add\n      tag_187\n      swap1\n      tag_188\n      jump\t// in\n    tag_187:\n      mload(0x40)\n      dup1\n      swap2\n      sub\n      swap1\n      revert\n    tag_186:\n        /* \"contracts/ERC721A.sol\":6345:6366  string memory baseURI */\n      0x00\n        /* \"contracts/ERC721A.sol\":6369:6379  _baseURI() */\n      tag_189\n        /* \"contracts/ERC721A.sol\":6369:6377  _baseURI */\n      tag_190\n        /* \"contracts/ERC721A.sol\":6369:6379  _baseURI() */\n      jump\t// in\n    tag_189:\n        /* \"contracts/ERC721A.sol\":6345:6379  string memory baseURI = _baseURI() */\n      swap1\n      pop\n        /* \"contracts/ERC721A.sol\":6422:6423  0 */\n      0x00\n        /* \"contracts/ERC721A.sol\":6404:6411  baseURI */\n      dup2\n        /* \"contracts/ERC721A.sol\":6398:6419  bytes(baseURI).length */\n      mload\n        /* \"contracts/ERC721A.sol\":6398:6423  bytes(baseURI).length > 0 */\n      gt\n        /* \"contracts/ERC721A.sol\":6398:6500  bytes(baseURI).length > 0... */\n      tag_191\n      jumpi\n      mload(0x40)\n      dup1\n      0x20\n      add\n      0x40\n      mstore\n      dup1\n      0x00\n      dup2\n      mstore\n      pop\n      jump(tag_192)\n    tag_191:\n        /* \"contracts/ERC721A.sol\":6458:6465  baseURI */\n      dup1\n        /* \"contracts/ERC721A.sol\":6467:6485  tokenId.toString() */\n      tag_193\n        /* \"contracts/ERC721A.sol\":6467:6474  tokenId */\n      dup5\n        /* \"contracts/ERC721A.sol\":6467:6483  tokenId.toString */\n      tag_194\n        /* \"contracts/ERC721A.sol\":6467:6485  tokenId.toString() */\n      jump\t// in\n    tag_193:\n        /* \"contracts/ERC721A.sol\":6441:6486  abi.encodePacked(baseURI, tokenId.toString()) */\n      add(0x20, mload(0x40))\n      tag_195\n      swap3\n      swap2\n      swap1\n      tag_196\n      jump\t// in\n    tag_195:\n      mload(0x40)\n      0x20\n      dup2\n      dup4\n      sub\n      sub\n      dup2\n      mstore\n      swap1\n      0x40\n      mstore\n        /* \"contracts/ERC721A.sol\":6398:6500  bytes(baseURI).length > 0... */\n    tag_192:\n        /* \"contracts/ERC721A.sol\":6385:6500  return... */\n      swap2\n      pop\n      pop\n        /* \"contracts/ERC721A.sol\":6128:6505  function tokenURI(uint256 tokenId)... */\n      swap2\n      swap1\n      pop\n      jump\t// out\n        /* \"contracts/ERC721A.sol\":12782:12825  uint256 public nextOwnerToExplicitlySet = 0 */\n    tag_87:\n      sload(0x07)\n      dup2\n      jump\t// out\n        /* \"contracts/ERC721A.sol\":7877:8055  function isApprovedForAll(address owner, address operator)... */\n    tag_92:\n        /* \"contracts/ERC721A.sol\":7994:7998  bool */\n      0x00\n        /* \"contracts/ERC721A.sol\":8015:8033  _operatorApprovals */\n      0x06\n        /* \"contracts/ERC721A.sol\":8015:8040  _operatorApprovals[owner] */\n      0x00\n        /* \"contracts/ERC721A.sol\":8034:8039  owner */\n      dup5\n        /* \"contracts/ERC721A.sol\":8015:8040  _operatorApprovals[owner] */\n      0xffffffffffffffffffffffffffffffffffffffff\n      and\n      0xffffffffffffffffffffffffffffffffffffffff\n      and\n      dup2\n      mstore\n      0x20\n      add\n      swap1\n      dup2\n      mstore\n      0x20\n      add\n      0x00\n      keccak256\n        /* \"contracts/ERC721A.sol\":8015:8050  _operatorApprovals[owner][operator] */\n      0x00\n        /* \"contracts/ERC721A.sol\":8041:8049  operator */\n      dup4\n        /* \"contracts/ERC721A.sol\":8015:8050  _operatorApprovals[owner][operator] */\n      0xffffffffffffffffffffffffffffffffffffffff\n      and\n      0xffffffffffffffffffffffffffffffffffffffff\n      and\n      dup2\n      mstore\n      0x20\n      add\n      swap1\n      dup2\n      mstore\n      0x20\n      add\n      0x00\n      keccak256\n      0x00\n      swap1\n      sload\n      swap1\n      0x0100\n      exp\n      swap1\n      div\n      0xff\n      and\n        /* \"contracts/ERC721A.sol\":8008:8050  return _operatorApprovals[owner][operator] */\n      swap1\n      pop\n        /* \"contracts/ERC721A.sol\":7877:8055  function isApprovedForAll(address owner, address operator)... */\n      swap3\n      swap2\n      pop\n      pop\n      jump\t// out\n        /* \"@openzeppelin/contracts@4.3.3/utils/introspection/ERC165.sol\":763:918  function supportsInterface(bytes4 interfaceId) public view virtual override returns (bool) {... */\n    tag_99:\n        /* \"@openzeppelin/contracts@4.3.3/utils/introspection/ERC165.sol\":848:852  bool */\n      0x00\n        /* \"@openzeppelin/contracts@4.3.3/utils/introspection/ERC165.sol\":886:911  type(IERC165).interfaceId */\n      0x01ffc9a700000000000000000000000000000000000000000000000000000000\n        /* \"@openzeppelin/contracts@4.3.3/utils/introspection/ERC165.sol\":871:911  interfaceId == type(IERC165).interfaceId */\n      not(0xffffffffffffffffffffffffffffffffffffffffffffffffffffffff)\n      and\n        /* \"@openzeppelin/contracts@4.3.3/utils/introspection/ERC165.sol\":871:882  interfaceId */\n      dup3\n        /* \"@openzeppelin/contracts@4.3.3/utils/introspection/ERC165.sol\":871:911  interfaceId == type(IERC165).interfaceId */\n      not(0xffffffffffffffffffffffffffffffffffffffffffffffffffffffff)\n      and\n      eq\n        /* \"@openzeppelin/contracts@4.3.3/utils/introspection/ERC165.sol\":864:911  return interfaceId == type(IERC165).interfaceId */\n      swap1\n      pop\n        /* \"@openzeppelin/contracts@4.3.3/utils/introspection/ERC165.sol\":763:918  function supportsInterface(bytes4 interfaceId) public view virtual override returns (bool) {... */\n      swap2\n      swap1\n      pop\n      jump\t// out\n        /* \"contracts/ERC721A.sol\":9042:9145  function _exists(uint256 tokenId) internal view returns (bool) {... */\n    tag_109:\n        /* \"contracts/ERC721A.sol\":9099:9103  bool */\n      0x00\n        /* \"contracts/ERC721A.sol\":9128:9140  currentIndex */\n      dup1\n      sload\n        /* \"contracts/ERC721A.sol\":9118:9125  tokenId */\n      dup3\n        /* \"contracts/ERC721A.sol\":9118:9140  tokenId < currentIndex */\n      lt\n        /* \"contracts/ERC721A.sol\":9111:9140  return tokenId < currentIndex */\n      swap1\n      pop\n        /* \"contracts/ERC721A.sol\":9042:9145  function _exists(uint256 tokenId) internal view returns (bool) {... */\n      swap2\n      swap1\n      pop\n      jump\t// out\n        /* \"@openzeppelin/contracts@4.3.3/utils/Context.sol\":587:683  function _msgSender() internal view virtual returns (address) {... */\n    tag_119:\n        /* \"@openzeppelin/contracts@4.3.3/utils/Context.sol\":640:647  address */\n      0x00\n        /* \"@openzeppelin/contracts@4.3.3/utils/Context.sol\":666:676  msg.sender */\n      caller\n        /* \"@openzeppelin/contracts@4.3.3/utils/Context.sol\":659:676  return msg.sender */\n      swap1\n      pop\n        /* \"@openzeppelin/contracts@4.3.3/utils/Context.sol\":587:683  function _msgSender() internal view virtual returns (address) {... */\n      swap1\n      jump\t// out\n        /* \"contracts/ERC721A.sol\":12613:12778  function _approve(... */\n    tag_127:\n        /* \"contracts/ERC721A.sol\":12732:12734  to */\n      dup3\n        /* \"contracts/ERC721A.sol\":12705:12720  _tokenApprovals */\n      0x05\n        /* \"contracts/ERC721A.sol\":12705:12729  _tokenApprovals[tokenId] */\n      0x00\n        /* \"contracts/ERC721A.sol\":12721:12728  tokenId */\n      dup5\n        /* \"contracts/ERC721A.sol\":12705:12729  _tokenApprovals[tokenId] */\n      dup2\n      mstore\n      0x20\n      add\n      swap1\n      dup2\n      mstore\n      0x20\n      add\n      0x00\n      keccak256\n      0x00\n        /* \"contracts/ERC721A.sol\":12705:12734  _tokenApprovals[tokenId] = to */\n      0x0100\n      exp\n      dup2\n      sload\n      dup2\n      0xffffffffffffffffffffffffffffffffffffffff\n      mul\n      not\n      and\n      swap1\n      dup4\n      0xffffffffffffffffffffffffffffffffffffffff\n      and\n      mul\n      or\n      swap1\n      sstore\n      pop\n        /* \"contracts/ERC721A.sol\":12765:12772  tokenId */\n      dup2\n        /* \"contracts/ERC721A.sol\":12761:12763  to */\n      dup4\n        /* \"contracts/ERC721A.sol\":12745:12773  Approval(owner, to, tokenId) */\n      0xffffffffffffffffffffffffffffffffffffffff\n      and\n        /* \"contracts/ERC721A.sol\":12754:12759  owner */\n      dup3\n        /* \"contracts/ERC721A.sol\":12745:12773  Approval(owner, to, tokenId) */\n      0xffffffffffffffffffffffffffffffffffffffff\n      and\n      0x8c5be1e5ebec7d5bd14f71427d1e84f3dd0314c0f7b2291e5b200ac8c7c3b925\n      mload(0x40)\n      mload(0x40)\n      dup1\n      swap2\n      sub\n      swap1\n      log4\n        /* \"contracts/ERC721A.sol\":12613:12778  function _approve(... */\n      pop\n      pop\n      pop\n      jump\t// out\n        /* \"contracts/ERC721A.sol\":11030:12514  function _transfer(... */\n    tag_131:\n        /* \"contracts/ERC721A.sol\":11122:11157  TokenOwnership memory prevOwnership */\n      0x00\n        /* \"contracts/ERC721A.sol\":11160:11180  ownershipOf(tokenId) */\n      tag_203\n        /* \"contracts/ERC721A.sol\":11172:11179  tokenId */\n      dup3\n        /* \"contracts/ERC721A.sol\":11160:11171  ownershipOf */\n      tag_158\n        /* \"contracts/ERC721A.sol\":11160:11180  ownershipOf(tokenId) */\n      jump\t// in\n    tag_203:\n        /* \"contracts/ERC721A.sol\":11122:11180  TokenOwnership memory prevOwnership = ownershipOf(tokenId) */\n      swap1\n      pop\n        /* \"contracts/ERC721A.sol\":11187:11209  bool isApprovedOrOwner */\n      0x00\n        /* \"contracts/ERC721A.sol\":11229:11242  prevOwnership */\n      dup2\n        /* \"contracts/ERC721A.sol\":11229:11247  prevOwnership.addr */\n      0x00\n      add\n      mload\n        /* \"contracts/ERC721A.sol\":11213:11247  _msgSender() == prevOwnership.addr */\n      0xffffffffffffffffffffffffffffffffffffffff\n      and\n        /* \"contracts/ERC721A.sol\":11213:11225  _msgSender() */\n      tag_204\n        /* \"contracts/ERC721A.sol\":11213:11223  _msgSender */\n      tag_119\n        /* \"contracts/ERC721A.sol\":11213:11225  _msgSender() */\n      jump\t// in\n    tag_204:\n        /* \"contracts/ERC721A.sol\":11213:11247  _msgSender() == prevOwnership.addr */\n      0xffffffffffffffffffffffffffffffffffffffff\n      and\n      eq\n        /* \"contracts/ERC721A.sol\":11213:11293  _msgSender() == prevOwnership.addr ||... */\n      dup1\n      tag_205\n      jumpi\n      pop\n        /* \"contracts/ERC721A.sol\":11281:11293  _msgSender() */\n      tag_206\n        /* \"contracts/ERC721A.sol\":11281:11291  _msgSender */\n      tag_119\n        /* \"contracts/ERC721A.sol\":11281:11293  _msgSender() */\n      jump\t// in\n    tag_206:\n        /* \"contracts/ERC721A.sol\":11257:11293  getApproved(tokenId) == _msgSender() */\n      0xffffffffffffffffffffffffffffffffffffffff\n      and\n        /* \"contracts/ERC721A.sol\":11257:11277  getApproved(tokenId) */\n      tag_207\n        /* \"contracts/ERC721A.sol\":11269:11276  tokenId */\n      dup5\n        /* \"contracts/ERC721A.sol\":11257:11268  getApproved */\n      tag_36\n        /* \"contracts/ERC721A.sol\":11257:11277  getApproved(tokenId) */\n      jump\t// in\n    tag_207:\n        /* \"contracts/ERC721A.sol\":11257:11293  getApproved(tokenId) == _msgSender() */\n      0xffffffffffffffffffffffffffffffffffffffff\n      and\n      eq\n        /* \"contracts/ERC721A.sol\":11213:11293  _msgSender() == prevOwnership.addr ||... */\n    tag_205:\n        /* \"contracts/ERC721A.sol\":11213:11353  _msgSender() == prevOwnership.addr ||... */\n      dup1\n      tag_208\n      jumpi\n      pop\n        /* \"contracts/ERC721A.sol\":11303:11353  isApprovedForAll(prevOwnership.addr, _msgSender()) */\n      tag_209\n        /* \"contracts/ERC721A.sol\":11320:11333  prevOwnership */\n      dup3\n        /* \"contracts/ERC721A.sol\":11320:11338  prevOwnership.addr */\n      0x00\n      add\n      mload\n        /* \"contracts/ERC721A.sol\":11340:11352  _msgSender() */\n      tag_210\n        /* \"contracts/ERC721A.sol\":11340:11350  _msgSender */\n      tag_119\n        /* \"contracts/ERC721A.sol\":11340:11352  _msgSender() */\n      jump\t// in\n    tag_210:\n        /* \"contracts/ERC721A.sol\":11303:11319  isApprovedForAll */\n      tag_92\n        /* \"contracts/ERC721A.sol\":11303:11353  isApprovedForAll(prevOwnership.addr, _msgSender()) */\n      jump\t// in\n    tag_209:\n        /* \"contracts/ERC721A.sol\":11213:11353  _msgSender() == prevOwnership.addr ||... */\n    tag_208:\n        /* \"contracts/ERC721A.sol\":11187:11354  bool isApprovedOrOwner = (_msgSender() == prevOwnership.addr ||... */\n      swap1\n      pop\n        /* \"contracts/ERC721A.sol\":11376:11393  isApprovedOrOwner */\n      dup1\n        /* \"contracts/ERC721A.sol\":11361:11459  require(... */\n      tag_211\n      jumpi\n      mload(0x40)\n      0x08c379a000000000000000000000000000000000000000000000000000000000\n      dup2\n      mstore\n      0x04\n      add\n      tag_212\n      swap1\n      tag_213\n      jump\t// in\n    tag_212:\n      mload(0x40)\n      dup1\n      swap2\n      sub\n      swap1\n      revert\n    tag_211:\n        /* \"contracts/ERC721A.sol\":11503:11507  from */\n      dup5\n        /* \"contracts/ERC721A.sol\":11481:11507  prevOwnership.addr == from */\n      0xffffffffffffffffffffffffffffffffffffffff\n      and\n        /* \"contracts/ERC721A.sol\":11481:11494  prevOwnership */\n      dup3\n        /* \"contracts/ERC721A.sol\":11481:11499  prevOwnership.addr */\n      0x00\n      add\n      mload\n        /* \"contracts/ERC721A.sol\":11481:11507  prevOwnership.addr == from */\n      0xffffffffffffffffffffffffffffffffffffffff\n      and\n      eq\n        /* \"contracts/ERC721A.sol\":11466:11561  require(... */\n      tag_214\n      jumpi\n      mload(0x40)\n      0x08c379a000000000000000000000000000000000000000000000000000000000\n      dup2\n      mstore\n      0x04\n      add\n      tag_215\n      swap1\n      tag_216\n      jump\t// in\n    tag_215:\n      mload(0x40)\n      dup1\n      swap2\n      sub\n      swap1\n      revert\n    tag_214:\n        /* \"contracts/ERC721A.sol\":11589:11590  0 */\n      0x00\n        /* \"contracts/ERC721A.sol\":11575:11591  to != address(0) */\n      0xffffffffffffffffffffffffffffffffffffffff\n      and\n        /* \"contracts/ERC721A.sol\":11575:11577  to */\n      dup5\n        /* \"contracts/ERC721A.sol\":11575:11591  to != address(0) */\n      0xffffffffffffffffffffffffffffffffffffffff\n      and\n      eq\n      iszero\n        /* \"contracts/ERC721A.sol\":11567:11633  require(to != address(0), \"ERC721A: transfer to the zero address\") */\n      tag_217\n      jumpi\n      mload(0x40)\n      0x08c379a000000000000000000000000000000000000000000000000000000000\n      dup2\n      mstore\n      0x04\n      add\n      tag_218\n      swap1\n      tag_219\n      jump\t// in\n    tag_218:\n      mload(0x40)\n      dup1\n      swap2\n      sub\n      swap1\n      revert\n    tag_217:\n        /* \"contracts/ERC721A.sol\":11640:11683  _beforeTokenTransfers(from, to, tokenId, 1) */\n      tag_220\n        /* \"contracts/ERC721A.sol\":11662:11666  from */\n      dup6\n        /* \"contracts/ERC721A.sol\":11668:11670  to */\n      dup6\n        /* \"contracts/ERC721A.sol\":11672:11679  tokenId */\n      dup6\n        /* \"contracts/ERC721A.sol\":11681:11682  1 */\n      0x01\n        /* \"contracts/ERC721A.sol\":11640:11661  _beforeTokenTransfers */\n      tag_221\n        /* \"contracts/ERC721A.sol\":11640:11683  _beforeTokenTransfers(from, to, tokenId, 1) */\n      jump\t// in\n    tag_220:\n        /* \"contracts/ERC721A.sol\":11737:11786  _approve(address(0), tokenId, prevOwnership.addr) */\n      tag_222\n        /* \"contracts/ERC721A.sol\":11754:11755  0 */\n      0x00\n        /* \"contracts/ERC721A.sol\":11758:11765  tokenId */\n      dup5\n        /* \"contracts/ERC721A.sol\":11767:11780  prevOwnership */\n      dup5\n        /* \"contracts/ERC721A.sol\":11767:11785  prevOwnership.addr */\n      0x00\n      add\n      mload\n        /* \"contracts/ERC721A.sol\":11737:11745  _approve */\n      tag_127\n        /* \"contracts/ERC721A.sol\":11737:11786  _approve(address(0), tokenId, prevOwnership.addr) */\n      jump\t// in\n    tag_222:\n        /* \"contracts/ERC721A.sol\":11823:11824  1 */\n      0x01\n        /* \"contracts/ERC721A.sol\":11793:11805  _addressData */\n      0x04\n        /* \"contracts/ERC721A.sol\":11793:11811  _addressData[from] */\n      0x00\n        /* \"contracts/ERC721A.sol\":11806:11810  from */\n      dup8\n        /* \"contracts/ERC721A.sol\":11793:11811  _addressData[from] */\n      0xffffffffffffffffffffffffffffffffffffffff\n      and\n      0xffffffffffffffffffffffffffffffffffffffff\n      and\n      dup2\n      mstore\n      0x20\n      add\n      swap1\n      dup2\n      mstore\n      0x20\n      add\n      0x00\n      keccak256\n        /* \"contracts/ERC721A.sol\":11793:11819  _addressData[from].balance */\n      0x00\n      add\n      0x00\n        /* \"contracts/ERC721A.sol\":11793:11824  _addressData[from].balance -= 1 */\n      dup3\n      dup3\n      dup3\n      swap1\n      sload\n      swap1\n      0x0100\n      exp\n      swap1\n      div\n      0xffffffffffffffffffffffffffffffff\n      and\n      tag_223\n      swap2\n      swap1\n      tag_224\n      jump\t// in\n    tag_223:\n      swap3\n      pop\n      0x0100\n      exp\n      dup2\n      sload\n      dup2\n      0xffffffffffffffffffffffffffffffff\n      mul\n      not\n      and\n      swap1\n      dup4\n      0xffffffffffffffffffffffffffffffff\n      and\n      mul\n      or\n      swap1\n      sstore\n      pop\n        /* \"contracts/ERC721A.sol\":11858:11859  1 */\n      0x01\n        /* \"contracts/ERC721A.sol\":11830:11842  _addressData */\n      0x04\n        /* \"contracts/ERC721A.sol\":11830:11846  _addressData[to] */\n      0x00\n        /* \"contracts/ERC721A.sol\":11843:11845  to */\n      dup7\n        /* \"contracts/ERC721A.sol\":11830:11846  _addressData[to] */\n      0xffffffffffffffffffffffffffffffffffffffff\n      and\n      0xffffffffffffffffffffffffffffffffffffffff\n      and\n      dup2\n      mstore\n      0x20\n      add\n      swap1\n      dup2\n      mstore\n      0x20\n      add\n      0x00\n      keccak256\n        /* \"contracts/ERC721A.sol\":11830:11854  _addressData[to].balance */\n      0x00\n      add\n      0x00\n        /* \"contracts/ERC721A.sol\":11830:11859  _addressData[to].balance += 1 */\n      dup3\n      dup3\n      dup3\n      swap1\n      sload\n      swap1\n      0x0100\n      exp\n      swap1\n      div\n      0xffffffffffffffffffffffffffffffff\n      and\n      tag_225\n      swap2\n      swap1\n      tag_226\n      jump\t// in\n    tag_225:\n      swap3\n      pop\n      0x0100\n      exp\n      dup2\n      sload\n      dup2\n      0xffffffffffffffffffffffffffffffff\n      mul\n      not\n      and\n      swap1\n      dup4\n      0xffffffffffffffffffffffffffffffff\n      and\n      mul\n      or\n      swap1\n      sstore\n      pop\n        /* \"contracts/ERC721A.sol\":11888:11931  TokenOwnership(to, uint64(block.timestamp)) */\n      mload(0x40)\n      dup1\n      0x40\n      add\n      0x40\n      mstore\n      dup1\n        /* \"contracts/ERC721A.sol\":11903:11905  to */\n      dup6\n        /* \"contracts/ERC721A.sol\":11888:11931  TokenOwnership(to, uint64(block.timestamp)) */\n      0xffffffffffffffffffffffffffffffffffffffff\n      and\n      dup2\n      mstore\n      0x20\n      add\n        /* \"contracts/ERC721A.sol\":11914:11929  block.timestamp */\n      timestamp\n        /* \"contracts/ERC721A.sol\":11888:11931  TokenOwnership(to, uint64(block.timestamp)) */\n      0xffffffffffffffff\n      and\n      dup2\n      mstore\n      pop\n        /* \"contracts/ERC721A.sol\":11865:11876  _ownerships */\n      0x03\n        /* \"contracts/ERC721A.sol\":11865:11885  _ownerships[tokenId] */\n      0x00\n        /* \"contracts/ERC721A.sol\":11877:11884  tokenId */\n      dup6\n        /* \"contracts/ERC721A.sol\":11865:11885  _ownerships[tokenId] */\n      dup2\n      mstore\n      0x20\n      add\n      swap1\n      dup2\n      mstore\n      0x20\n      add\n      0x00\n      keccak256\n        /* \"contracts/ERC721A.sol\":11865:11931  _ownerships[tokenId] = TokenOwnership(to, uint64(block.timestamp)) */\n      0x00\n      dup3\n      add\n      mload\n      dup2\n      0x00\n      add\n      exp(0x0100, 0x00)\n      dup2\n      sload\n      dup2\n      0xffffffffffffffffffffffffffffffffffffffff\n      mul\n      not\n      and\n      swap1\n      dup4\n      0xffffffffffffffffffffffffffffffffffffffff\n      and\n      mul\n      or\n      swap1\n      sstore\n      pop\n      0x20\n      dup3\n      add\n      mload\n      dup2\n      0x00\n      add\n      exp(0x0100, 0x14)\n      dup2\n      sload\n      dup2\n      0xffffffffffffffff\n      mul\n      not\n      and\n      swap1\n      dup4\n      0xffffffffffffffff\n      and\n      mul\n      or\n      swap1\n      sstore\n      pop\n      swap1\n      pop\n      pop\n        /* \"contracts/ERC721A.sol\":12155:12174  uint256 nextTokenId */\n      0x00\n        /* \"contracts/ERC721A.sol\":12187:12188  1 */\n      0x01\n        /* \"contracts/ERC721A.sol\":12177:12184  tokenId */\n      dup5\n        /* \"contracts/ERC721A.sol\":12177:12188  tokenId + 1 */\n      tag_227\n      swap2\n      swap1\n      tag_228\n      jump\t// in\n    tag_227:\n        /* \"contracts/ERC721A.sol\":12155:12188  uint256 nextTokenId = tokenId + 1 */\n      swap1\n      pop\n        /* \"contracts/ERC721A.sol\":12239:12240  0 */\n      0x00\n        /* \"contracts/ERC721A.sol\":12198:12241  _ownerships[nextTokenId].addr == address(0) */\n      0xffffffffffffffffffffffffffffffffffffffff\n      and\n        /* \"contracts/ERC721A.sol\":12198:12209  _ownerships */\n      0x03\n        /* \"contracts/ERC721A.sol\":12198:12222  _ownerships[nextTokenId] */\n      0x00\n        /* \"contracts/ERC721A.sol\":12210:12221  nextTokenId */\n      dup4\n        /* \"contracts/ERC721A.sol\":12198:12222  _ownerships[nextTokenId] */\n      dup2\n      mstore\n      0x20\n      add\n      swap1\n      dup2\n      mstore\n      0x20\n      add\n      0x00\n      keccak256\n        /* \"contracts/ERC721A.sol\":12198:12227  _ownerships[nextTokenId].addr */\n      0x00\n      add\n      0x00\n      swap1\n      sload\n      swap1\n      0x0100\n      exp\n      swap1\n      div\n      0xffffffffffffffffffffffffffffffffffffffff\n      and\n        /* \"contracts/ERC721A.sol\":12198:12241  _ownerships[nextTokenId].addr == address(0) */\n      0xffffffffffffffffffffffffffffffffffffffff\n      and\n      eq\n        /* \"contracts/ERC721A.sol\":12194:12423  if (_ownerships[nextTokenId].addr == address(0)) {... */\n      iszero\n      tag_229\n      jumpi\n        /* \"contracts/ERC721A.sol\":12255:12275  _exists(nextTokenId) */\n      tag_230\n        /* \"contracts/ERC721A.sol\":12263:12274  nextTokenId */\n      dup2\n        /* \"contracts/ERC721A.sol\":12255:12262  _exists */\n      tag_109\n        /* \"contracts/ERC721A.sol\":12255:12275  _exists(nextTokenId) */\n      jump\t// in\n    tag_230:\n        /* \"contracts/ERC721A.sol\":12251:12417  if (_exists(nextTokenId)) {... */\n      iszero\n      tag_231\n      jumpi\n        /* \"contracts/ERC721A.sol\":12314:12408  TokenOwnership(... */\n      mload(0x40)\n      dup1\n      0x40\n      add\n      0x40\n      mstore\n      dup1\n        /* \"contracts/ERC721A.sol\":12340:12353  prevOwnership */\n      dup5\n        /* \"contracts/ERC721A.sol\":12340:12358  prevOwnership.addr */\n      0x00\n      add\n      mload\n        /* \"contracts/ERC721A.sol\":12314:12408  TokenOwnership(... */\n      0xffffffffffffffffffffffffffffffffffffffff\n      and\n      dup2\n      mstore\n      0x20\n      add\n        /* \"contracts/ERC721A.sol\":12370:12383  prevOwnership */\n      dup5\n        /* \"contracts/ERC721A.sol\":12370:12398  prevOwnership.startTimestamp */\n      0x20\n      add\n      mload\n        /* \"contracts/ERC721A.sol\":12314:12408  TokenOwnership(... */\n      0xffffffffffffffff\n      and\n      dup2\n      mstore\n      pop\n        /* \"contracts/ERC721A.sol\":12287:12298  _ownerships */\n      0x03\n        /* \"contracts/ERC721A.sol\":12287:12311  _ownerships[nextTokenId] */\n      0x00\n        /* \"contracts/ERC721A.sol\":12299:12310  nextTokenId */\n      dup4\n        /* \"contracts/ERC721A.sol\":12287:12311  _ownerships[nextTokenId] */\n      dup2\n      mstore\n      0x20\n      add\n      swap1\n      dup2\n      mstore\n      0x20\n      add\n      0x00\n      keccak256\n        /* \"contracts/ERC721A.sol\":12287:12408  _ownerships[nextTokenId] = TokenOwnership(... */\n      0x00\n      dup3\n      add\n      mload\n      dup2\n      0x00\n      add\n      exp(0x0100, 0x00)\n      dup2\n      sload\n      dup2\n      0xffffffffffffffffffffffffffffffffffffffff\n      mul\n      not\n      and\n      swap1\n      dup4\n      0xffffffffffffffffffffffffffffffffffffffff\n      and\n      mul\n      or\n      swap1\n      sstore\n      pop\n      0x20\n      dup3\n      add\n      mload\n      dup2\n      0x00\n      add\n      exp(0x0100, 0x14)\n      dup2\n      sload\n      dup2\n      0xffffffffffffffff\n      mul\n      not\n      and\n      swap1\n      dup4\n      0xffffffffffffffff\n      and\n      mul\n      or\n      swap1\n      sstore\n      pop\n      swap1\n      pop\n      pop\n        /* \"contracts/ERC721A.sol\":12251:12417  if (_exists(nextTokenId)) {... */\n    tag_231:\n        /* \"contracts/ERC721A.sol\":12194:12423  if (_ownerships[nextTokenId].addr == address(0)) {... */\n    tag_229:\n        /* \"contracts/ERC721A.sol\":12453:12460  tokenId */\n      dup4\n        /* \"contracts/ERC721A.sol\":12449:12451  to */\n      dup6\n        /* \"contracts/ERC721A.sol\":12434:12461  Transfer(from, to, tokenId) */\n      0xffffffffffffffffffffffffffffffffffffffff\n      and\n        /* \"contracts/ERC721A.sol\":12443:12447  from */\n      dup8\n        /* \"contracts/ERC721A.sol\":12434:12461  Transfer(from, to, tokenId) */\n      0xffffffffffffffffffffffffffffffffffffffff\n      and\n      0xddf252ad1be2c89b69c2b068fc378daa952ba7f163c4a11628f55a4df523b3ef\n      mload(0x40)\n      mload(0x40)\n      dup1\n      swap2\n      sub\n      swap1\n      log4\n        /* \"contracts/ERC721A.sol\":12467:12509  _afterTokenTransfers(from, to, tokenId, 1) */\n      tag_232\n        /* \"contracts/ERC721A.sol\":12488:12492  from */\n      dup7\n        /* \"contracts/ERC721A.sol\":12494:12496  to */\n      dup7\n        /* \"contracts/ERC721A.sol\":12498:12505  tokenId */\n      dup7\n        /* \"contracts/ERC721A.sol\":12507:12508  1 */\n      0x01\n        /* \"contracts/ERC721A.sol\":12467:12487  _afterTokenTransfers */\n      tag_233\n        /* \"contracts/ERC721A.sol\":12467:12509  _afterTokenTransfers(from, to, tokenId, 1) */\n      jump\t// in\n    tag_232:\n        /* \"contracts/ERC721A.sol\":11116:12514  {... */\n      pop\n      pop\n      pop\n        /* \"contracts/ERC721A.sol\":11030:12514  function _transfer(... */\n      pop\n      pop\n      pop\n      jump\t// out\n        /* \"contracts/ERC721A.sol\":5021:5607  function ownershipOf(uint256 tokenId)... */\n    tag_158:\n        /* \"contracts/ERC721A.sol\":5094:5115  TokenOwnership memory */\n      tag_234\n      tag_235\n      jump\t// in\n    tag_234:\n        /* \"contracts/ERC721A.sol\":5133:5149  _exists(tokenId) */\n      tag_237\n        /* \"contracts/ERC721A.sol\":5141:5148  tokenId */\n      dup3\n        /* \"contracts/ERC721A.sol\":5133:5140  _exists */\n      tag_109\n        /* \"contracts/ERC721A.sol\":5133:5149  _exists(tokenId) */\n      jump\t// in\n    tag_237:\n        /* \"contracts/ERC721A.sol\":5125:5196  require(_exists(tokenId), \"ERC721A: owner query for nonexistent token\") */\n      tag_238\n      jumpi\n      mload(0x40)\n      0x08c379a000000000000000000000000000000000000000000000000000000000\n      dup2\n      mstore\n      0x04\n      add\n      tag_239\n      swap1\n      tag_240\n      jump\t// in\n    tag_239:\n      mload(0x40)\n      dup1\n      swap2\n      sub\n      swap1\n      revert\n    tag_238:\n        /* \"contracts/ERC721A.sol\":5203:5229  uint256 lowestTokenToCheck */\n      0x00\n        /* \"contracts/ERC721A.sol\":5250:5262  maxBatchSize */\n      immutable(\"0xe216240695da412145d9df04d3b0c5fca4d43b99b7d0d5386b61bbf0097f7efd\")\n        /* \"contracts/ERC721A.sol\":5239:5246  tokenId */\n      dup4\n        /* \"contracts/ERC721A.sol\":5239:5262  tokenId >= maxBatchSize */\n      lt\n        /* \"contracts/ERC721A.sol\":5235:5326  if (tokenId >= maxBatchSize) {... */\n      tag_241\n      jumpi\n        /* \"contracts/ERC721A.sol\":5318:5319  1 */\n      0x01\n        /* \"contracts/ERC721A.sol\":5303:5315  maxBatchSize */\n      immutable(\"0xe216240695da412145d9df04d3b0c5fca4d43b99b7d0d5386b61bbf0097f7efd\")\n        /* \"contracts/ERC721A.sol\":5293:5300  tokenId */\n      dup5\n        /* \"contracts/ERC721A.sol\":5293:5315  tokenId - maxBatchSize */\n      tag_242\n      swap2\n      swap1\n      tag_243\n      jump\t// in\n    tag_242:\n        /* \"contracts/ERC721A.sol\":5293:5319  tokenId - maxBatchSize + 1 */\n      tag_244\n      swap2\n      swap1\n      tag_228\n      jump\t// in\n    tag_244:\n        /* \"contracts/ERC721A.sol\":5272:5319  lowestTokenToCheck = tokenId - maxBatchSize + 1 */\n      swap1\n      pop\n        /* \"contracts/ERC721A.sol\":5235:5326  if (tokenId >= maxBatchSize) {... */\n    tag_241:\n        /* \"contracts/ERC721A.sol\":5337:5349  uint256 curr */\n      0x00\n        /* \"contracts/ERC721A.sol\":5352:5359  tokenId */\n      dup4\n        /* \"contracts/ERC721A.sol\":5337:5359  uint256 curr = tokenId */\n      swap1\n      pop\n        /* \"contracts/ERC721A.sol\":5332:5539  for (uint256 curr = tokenId; curr >= lowestTokenToCheck; curr--) {... */\n    tag_245:\n        /* \"contracts/ERC721A.sol\":5369:5387  lowestTokenToCheck */\n      dup2\n        /* \"contracts/ERC721A.sol\":5361:5365  curr */\n      dup2\n        /* \"contracts/ERC721A.sol\":5361:5387  curr >= lowestTokenToCheck */\n      lt\n        /* \"contracts/ERC721A.sol\":5332:5539  for (uint256 curr = tokenId; curr >= lowestTokenToCheck; curr--) {... */\n      tag_246\n      jumpi\n        /* \"contracts/ERC721A.sol\":5405:5436  TokenOwnership memory ownership */\n      0x00\n        /* \"contracts/ERC721A.sol\":5439:5450  _ownerships */\n      0x03\n        /* \"contracts/ERC721A.sol\":5439:5456  _ownerships[curr] */\n      0x00\n        /* \"contracts/ERC721A.sol\":5451:5455  curr */\n      dup4\n        /* \"contracts/ERC721A.sol\":5439:5456  _ownerships[curr] */\n      dup2\n      mstore\n      0x20\n      add\n      swap1\n      dup2\n      mstore\n      0x20\n      add\n      0x00\n      keccak256\n        /* \"contracts/ERC721A.sol\":5405:5456  TokenOwnership memory ownership = _ownerships[curr] */\n      mload(0x40)\n      dup1\n      0x40\n      add\n      0x40\n      mstore\n      swap1\n      dup2\n      0x00\n      dup3\n      add\n      0x00\n      swap1\n      sload\n      swap1\n      0x0100\n      exp\n      swap1\n      div\n      0xffffffffffffffffffffffffffffffffffffffff\n      and\n      0xffffffffffffffffffffffffffffffffffffffff\n      and\n      0xffffffffffffffffffffffffffffffffffffffff\n      and\n      dup2\n      mstore\n      0x20\n      add\n      0x00\n      dup3\n      add\n      0x14\n      swap1\n      sload\n      swap1\n      0x0100\n      exp\n      swap1\n      div\n      0xffffffffffffffff\n      and\n      0xffffffffffffffff\n      and\n      0xffffffffffffffff\n      and\n      dup2\n      mstore\n      pop\n      pop\n      swap1\n      pop\n        /* \"contracts/ERC721A.sol\":5494:5495  0 */\n      0x00\n        /* \"contracts/ERC721A.sol\":5468:5496  ownership.addr != address(0) */\n      0xffffffffffffffffffffffffffffffffffffffff\n      and\n        /* \"contracts/ERC721A.sol\":5468:5477  ownership */\n      dup2\n        /* \"contracts/ERC721A.sol\":5468:5482  ownership.addr */\n      0x00\n      add\n      mload\n        /* \"contracts/ERC721A.sol\":5468:5496  ownership.addr != address(0) */\n      0xffffffffffffffffffffffffffffffffffffffff\n      and\n      eq\n        /* \"contracts/ERC721A.sol\":5464:5533  if (ownership.addr != address(0)) {... */\n      tag_248\n      jumpi\n        /* \"contracts/ERC721A.sol\":5515:5524  ownership */\n      dup1\n        /* \"contracts/ERC721A.sol\":5508:5524  return ownership */\n      swap4\n      pop\n      pop\n      pop\n      pop\n      jump(tag_236)\n        /* \"contracts/ERC721A.sol\":5464:5533  if (ownership.addr != address(0)) {... */\n    tag_248:\n        /* \"contracts/ERC721A.sol\":5397:5539  {... */\n      pop\n        /* \"contracts/ERC721A.sol\":5389:5395  curr-- */\n      dup1\n      dup1\n      tag_249\n      swap1\n      tag_250\n      jump\t// in\n    tag_249:\n      swap2\n      pop\n      pop\n        /* \"contracts/ERC721A.sol\":5332:5539  for (uint256 curr = tokenId; curr >= lowestTokenToCheck; curr--) {... */\n      jump(tag_245)\n    tag_246:\n      pop\n        /* \"contracts/ERC721A.sol\":5545:5602  revert(\"ERC721A: unable to determine the owner of token\") */\n      mload(0x40)\n      0x08c379a000000000000000000000000000000000000000000000000000000000\n      dup2\n      mstore\n      0x04\n      add\n      tag_251\n      swap1\n      tag_252\n      jump\t// in\n    tag_251:\n      mload(0x40)\n      dup1\n      swap2\n      sub\n      swap1\n      revert\n        /* \"contracts/ERC721A.sol\":5021:5607  function ownershipOf(uint256 tokenId)... */\n    tag_236:\n      swap2\n      swap1\n      pop\n      jump\t// out\n        /* \"contracts/ERC721A.sol\":14283:14950  function _checkOnERC721Received(... */\n    tag_180:\n        /* \"contracts/ERC721A.sol\":14415:14419  bool */\n      0x00\n        /* \"contracts/ERC721A.sol\":14431:14446  to.isContract() */\n      tag_254\n        /* \"contracts/ERC721A.sol\":14431:14433  to */\n      dup5\n        /* \"contracts/ERC721A.sol\":14431:14444  to.isContract */\n      0xffffffffffffffffffffffffffffffffffffffff\n      and\n      tag_255\n        /* \"contracts/ERC721A.sol\":14431:14446  to.isContract() */\n      jump\t// in\n    tag_254:\n        /* \"contracts/ERC721A.sol\":14427:14946  if (to.isContract()) {... */\n      iszero\n      tag_256\n      jumpi\n        /* \"contracts/ERC721A.sol\":14484:14486  to */\n      dup4\n        /* \"contracts/ERC721A.sol\":14468:14504  IERC721Receiver(to).onERC721Received */\n      0xffffffffffffffffffffffffffffffffffffffff\n      and\n      0x150b7a02\n        /* \"contracts/ERC721A.sol\":14505:14517  _msgSender() */\n      tag_257\n        /* \"contracts/ERC721A.sol\":14505:14515  _msgSender */\n      tag_119\n        /* \"contracts/ERC721A.sol\":14505:14517  _msgSender() */\n      jump\t// in\n    tag_257:\n        /* \"contracts/ERC721A.sol\":14519:14523  from */\n      dup8\n        /* \"contracts/ERC721A.sol\":14525:14532  tokenId */\n      dup7\n        /* \"contracts/ERC721A.sol\":14534:14539  _data */\n      dup7\n        /* \"contracts/ERC721A.sol\":14468:14540  IERC721Receiver(to).onERC721Received(_msgSender(), from, tokenId, _data) */\n      mload(0x40)\n      dup6\n      0xffffffff\n      and\n      0xe0\n      shl\n      dup2\n      mstore\n      0x04\n      add\n      tag_258\n      swap5\n      swap4\n      swap3\n      swap2\n      swap1\n      tag_259\n      jump\t// in\n    tag_258:\n      0x20\n      mload(0x40)\n      dup1\n      dup4\n      sub\n      dup2\n      0x00\n      dup8\n      dup1\n      extcodesize\n      iszero\n      dup1\n      iszero\n      tag_260\n      jumpi\n      0x00\n      dup1\n      revert\n    tag_260:\n      pop\n      gas\n      call\n      swap3\n      pop\n      pop\n      pop\n      dup1\n      iszero\n      tag_261\n      jumpi\n      pop\n      mload(0x40)\n      returndatasize\n      not(0x1f)\n      0x1f\n      dup3\n      add\n      and\n      dup3\n      add\n      dup1\n      0x40\n      mstore\n      pop\n      dup2\n      add\n      swap1\n      tag_262\n      swap2\n      swap1\n      tag_263\n      jump\t// in\n    tag_262:\n      0x01\n    tag_261:\n        /* \"contracts/ERC721A.sol\":14456:14908  try... */\n      tag_264\n      jumpi\n      returndatasize\n      dup1\n      0x00\n      dup2\n      eq\n      tag_269\n      jumpi\n      mload(0x40)\n      swap2\n      pop\n      and(add(returndatasize, 0x3f), not(0x1f))\n      dup3\n      add\n      0x40\n      mstore\n      returndatasize\n      dup3\n      mstore\n      returndatasize\n      0x00\n      0x20\n      dup5\n      add\n      returndatacopy\n      jump(tag_268)\n    tag_269:\n      0x60\n      swap2\n      pop\n    tag_268:\n      pop\n        /* \"contracts/ERC721A.sol\":14712:14713  0 */\n      0x00\n        /* \"contracts/ERC721A.sol\":14695:14701  reason */\n      dup2\n        /* \"contracts/ERC721A.sol\":14695:14708  reason.length */\n      mload\n        /* \"contracts/ERC721A.sol\":14695:14713  reason.length == 0 */\n      eq\n        /* \"contracts/ERC721A.sol\":14691:14900  if (reason.length == 0) {... */\n      iszero\n      tag_270\n      jumpi\n        /* \"contracts/ERC721A.sol\":14727:14788  revert(\"ERC721A: transfer to non ERC721Receiver implementer\") */\n      mload(0x40)\n      0x08c379a000000000000000000000000000000000000000000000000000000000\n      dup2\n      mstore\n      0x04\n      add\n      tag_271\n      swap1\n      tag_183\n      jump\t// in\n    tag_271:\n      mload(0x40)\n      dup1\n      swap2\n      sub\n      swap1\n      revert\n        /* \"contracts/ERC721A.sol\":14691:14900  if (reason.length == 0) {... */\n    tag_270:\n        /* \"contracts/ERC721A.sol\":14870:14876  reason */\n      dup1\n        /* \"contracts/ERC721A.sol\":14864:14877  mload(reason) */\n      mload\n        /* \"contracts/ERC721A.sol\":14855:14861  reason */\n      dup2\n        /* \"contracts/ERC721A.sol\":14851:14853  32 */\n      0x20\n        /* \"contracts/ERC721A.sol\":14847:14862  add(32, reason) */\n      add\n        /* \"contracts/ERC721A.sol\":14840:14878  revert(add(32, reason), mload(reason)) */\n      revert\n        /* \"contracts/ERC721A.sol\":14456:14908  try... */\n    tag_264:\n        /* \"contracts/ERC721A.sol\":14598:14643  IERC721Receiver(to).onERC721Received.selector */\n      shl(0xe0, 0x150b7a02)\n        /* \"contracts/ERC721A.sol\":14588:14643  retval == IERC721Receiver(to).onERC721Received.selector */\n      not(0xffffffffffffffffffffffffffffffffffffffffffffffffffffffff)\n      and\n        /* \"contracts/ERC721A.sol\":14588:14594  retval */\n      dup2\n        /* \"contracts/ERC721A.sol\":14588:14643  retval == IERC721Receiver(to).onERC721Received.selector */\n      not(0xffffffffffffffffffffffffffffffffffffffffffffffffffffffff)\n      and\n      eq\n        /* \"contracts/ERC721A.sol\":14581:14643  return retval == IERC721Receiver(to).onERC721Received.selector */\n      swap2\n      pop\n      pop\n      jump(tag_253)\n        /* \"contracts/ERC721A.sol\":14427:14946  if (to.isContract()) {... */\n    tag_256:\n        /* \"contracts/ERC721A.sol\":14935:14939  true */\n      0x01\n        /* \"contracts/ERC721A.sol\":14928:14939  return true */\n      swap1\n      pop\n        /* \"contracts/ERC721A.sol\":14283:14950  function _checkOnERC721Received(... */\n    tag_253:\n      swap5\n      swap4\n      pop\n      pop\n      pop\n      pop\n      jump\t// out\n        /* \"contracts/ERC721A.sol\":6734:6820  function _baseURI() internal view virtual returns (string memory) {... */\n    tag_190:\n        /* \"contracts/ERC721A.sol\":6785:6798  string memory */\n      0x60\n        /* \"contracts/ERC721A.sol\":6806:6815  return \"\" */\n      mload(0x40)\n      dup1\n      0x20\n      add\n      0x40\n      mstore\n      dup1\n      0x00\n      dup2\n      mstore\n      pop\n      swap1\n      pop\n        /* \"contracts/ERC721A.sol\":6734:6820  function _baseURI() internal view virtual returns (string memory) {... */\n      swap1\n      jump\t// out\n        /* \"@openzeppelin/contracts@4.3.3/utils/Strings.sol\":275:978  function toString(uint256 value) internal pure returns (string memory) {... */\n    tag_194:\n        /* \"@openzeppelin/contracts@4.3.3/utils/Strings.sol\":331:344  string memory */\n      0x60\n        /* \"@openzeppelin/contracts@4.3.3/utils/Strings.sol\":557:558  0 */\n      0x00\n        /* \"@openzeppelin/contracts@4.3.3/utils/Strings.sol\":548:553  value */\n      dup3\n        /* \"@openzeppelin/contracts@4.3.3/utils/Strings.sol\":548:558  value == 0 */\n      eq\n        /* \"@openzeppelin/contracts@4.3.3/utils/Strings.sol\":544:595  if (value == 0) {... */\n      iszero\n      tag_277\n      jumpi\n        /* \"@openzeppelin/contracts@4.3.3/utils/Strings.sol\":574:584  return \"0\" */\n      mload(0x40)\n      dup1\n      0x40\n      add\n      0x40\n      mstore\n      dup1\n      0x01\n      dup2\n      mstore\n      0x20\n      add\n      0x3000000000000000000000000000000000000000000000000000000000000000\n      dup2\n      mstore\n      pop\n      swap1\n      pop\n      jump(tag_276)\n        /* \"@openzeppelin/contracts@4.3.3/utils/Strings.sol\":544:595  if (value == 0) {... */\n    tag_277:\n        /* \"@openzeppelin/contracts@4.3.3/utils/Strings.sol\":604:616  uint256 temp */\n      0x00\n        /* \"@openzeppelin/contracts@4.3.3/utils/Strings.sol\":619:624  value */\n      dup3\n        /* \"@openzeppelin/contracts@4.3.3/utils/Strings.sol\":604:624  uint256 temp = value */\n      swap1\n      pop\n        /* \"@openzeppelin/contracts@4.3.3/utils/Strings.sol\":634:648  uint256 digits */\n      0x00\n        /* \"@openzeppelin/contracts@4.3.3/utils/Strings.sol\":658:733  while (temp != 0) {... */\n    tag_278:\n        /* \"@openzeppelin/contracts@4.3.3/utils/Strings.sol\":673:674  0 */\n      0x00\n        /* \"@openzeppelin/contracts@4.3.3/utils/Strings.sol\":665:669  temp */\n      dup3\n        /* \"@openzeppelin/contracts@4.3.3/utils/Strings.sol\":665:674  temp != 0 */\n      eq\n        /* \"@openzeppelin/contracts@4.3.3/utils/Strings.sol\":658:733  while (temp != 0) {... */\n      tag_279\n      jumpi\n        /* \"@openzeppelin/contracts@4.3.3/utils/Strings.sol\":690:698  digits++ */\n      dup1\n      dup1\n      tag_280\n      swap1\n      tag_145\n      jump\t// in\n    tag_280:\n      swap2\n      pop\n      pop\n        /* \"@openzeppelin/contracts@4.3.3/utils/Strings.sol\":720:722  10 */\n      0x0a\n        /* \"@openzeppelin/contracts@4.3.3/utils/Strings.sol\":712:722  temp /= 10 */\n      dup3\n      tag_281\n      swap2\n      swap1\n      tag_282\n      jump\t// in\n    tag_281:\n      swap2\n      pop\n        /* \"@openzeppelin/contracts@4.3.3/utils/Strings.sol\":658:733  while (temp != 0) {... */\n      jump(tag_278)\n    tag_279:\n        /* \"@openzeppelin/contracts@4.3.3/utils/Strings.sol\":742:761  bytes memory buffer */\n      0x00\n        /* \"@openzeppelin/contracts@4.3.3/utils/Strings.sol\":774:780  digits */\n      dup2\n        /* \"@openzeppelin/contracts@4.3.3/utils/Strings.sol\":764:781  new bytes(digits) */\n      0xffffffffffffffff\n      dup2\n      gt\n      iszero\n      tag_283\n      jumpi\n      tag_284\n      tag_285\n      jump\t// in\n    tag_284:\n    tag_283:\n      mload(0x40)\n      swap1\n      dup1\n      dup3\n      mstore\n      dup1\n      0x1f\n      add\n      not(0x1f)\n      and\n      0x20\n      add\n      dup3\n      add\n      0x40\n      mstore\n      dup1\n      iszero\n      tag_286\n      jumpi\n      dup2\n      0x20\n      add\n      0x01\n      dup3\n      mul\n      dup1\n      calldatasize\n      dup4\n      calldatacopy\n      dup1\n      dup3\n      add\n      swap2\n      pop\n      pop\n      swap1\n      pop\n    tag_286:\n      pop\n        /* \"@openzeppelin/contracts@4.3.3/utils/Strings.sol\":742:781  bytes memory buffer = new bytes(digits) */\n      swap1\n      pop\n        /* \"@openzeppelin/contracts@4.3.3/utils/Strings.sol\":791:941  while (value != 0) {... */\n    tag_287:\n        /* \"@openzeppelin/contracts@4.3.3/utils/Strings.sol\":807:808  0 */\n      0x00\n        /* \"@openzeppelin/contracts@4.3.3/utils/Strings.sol\":798:803  value */\n      dup6\n        /* \"@openzeppelin/contracts@4.3.3/utils/Strings.sol\":798:808  value != 0 */\n      eq\n        /* \"@openzeppelin/contracts@4.3.3/utils/Strings.sol\":791:941  while (value != 0) {... */\n      tag_288\n      jumpi\n        /* \"@openzeppelin/contracts@4.3.3/utils/Strings.sol\":834:835  1 */\n      0x01\n        /* \"@openzeppelin/contracts@4.3.3/utils/Strings.sol\":824:835  digits -= 1 */\n      dup3\n      tag_289\n      swap2\n      swap1\n      tag_243\n      jump\t// in\n    tag_289:\n      swap2\n      pop\n        /* \"@openzeppelin/contracts@4.3.3/utils/Strings.sol\":900:902  10 */\n      0x0a\n        /* \"@openzeppelin/contracts@4.3.3/utils/Strings.sol\":892:897  value */\n      dup6\n        /* \"@openzeppelin/contracts@4.3.3/utils/Strings.sol\":892:902  value % 10 */\n      tag_290\n      swap2\n      swap1\n      tag_291\n      jump\t// in\n    tag_290:\n        /* \"@openzeppelin/contracts@4.3.3/utils/Strings.sol\":879:881  48 */\n      0x30\n        /* \"@openzeppelin/contracts@4.3.3/utils/Strings.sol\":879:903  48 + uint256(value % 10) */\n      tag_292\n      swap2\n      swap1\n      tag_228\n      jump\t// in\n    tag_292:\n        /* \"@openzeppelin/contracts@4.3.3/utils/Strings.sol\":866:905  bytes1(uint8(48 + uint256(value % 10))) */\n      0xf8\n      shl\n        /* \"@openzeppelin/contracts@4.3.3/utils/Strings.sol\":849:855  buffer */\n      dup2\n        /* \"@openzeppelin/contracts@4.3.3/utils/Strings.sol\":856:862  digits */\n      dup4\n        /* \"@openzeppelin/contracts@4.3.3/utils/Strings.sol\":849:863  buffer[digits] */\n      dup2\n      mload\n      dup2\n      lt\n      tag_293\n      jumpi\n      tag_294\n      tag_295\n      jump\t// in\n    tag_294:\n    tag_293:\n      0x20\n      add\n      add\n        /* \"@openzeppelin/contracts@4.3.3/utils/Strings.sol\":849:905  buffer[digits] = bytes1(uint8(48 + uint256(value % 10))) */\n      swap1\n      not(0xffffffffffffffffffffffffffffffffffffffffffffffffffffffffffffff)\n      and\n      swap1\n      dup2\n      0x00\n      byte\n      swap1\n      mstore8\n      pop\n        /* \"@openzeppelin/contracts@4.3.3/utils/Strings.sol\":928:930  10 */\n      0x0a\n        /* \"@openzeppelin/contracts@4.3.3/utils/Strings.sol\":919:930  value /= 10 */\n      dup6\n      tag_296\n      swap2\n      swap1\n      tag_282\n      jump\t// in\n    tag_296:\n      swap5\n      pop\n        /* \"@openzeppelin/contracts@4.3.3/utils/Strings.sol\":791:941  while (value != 0) {... */\n      jump(tag_287)\n    tag_288:\n        /* \"@openzeppelin/contracts@4.3.3/utils/Strings.sol\":964:970  buffer */\n      dup1\n        /* \"@openzeppelin/contracts@4.3.3/utils/Strings.sol\":950:971  return string(buffer) */\n      swap4\n      pop\n      pop\n      pop\n      pop\n        /* \"@openzeppelin/contracts@4.3.3/utils/Strings.sol\":275:978  function toString(uint256 value) internal pure returns (string memory) {... */\n    tag_276:\n      swap2\n      swap1\n      pop\n      jump\t// out\n        /* \"contracts/ERC721A.sol\":15398:15534  function _beforeTokenTransfers(... */\n    tag_221:\n      pop\n      pop\n      pop\n      pop\n      jump\t// out\n        /* \"contracts/ERC721A.sol\":15906:16041  function _afterTokenTransfers(... */\n    tag_233:\n      pop\n      pop\n      pop\n      pop\n      jump\t// out\n        /* \"@openzeppelin/contracts@4.3.3/utils/Address.sol\":718:1095  function isContract(address account) internal view returns (bool) {... */\n    tag_255:\n        /* \"@openzeppelin/contracts@4.3.3/utils/Address.sol\":778:782  bool */\n      0x00\n        /* \"@openzeppelin/contracts@4.3.3/utils/Address.sol\":981:993  uint256 size */\n      dup1\n        /* \"@openzeppelin/contracts@4.3.3/utils/Address.sol\":1046:1053  account */\n      dup3\n        /* \"@openzeppelin/contracts@4.3.3/utils/Address.sol\":1034:1054  extcodesize(account) */\n      extcodesize\n        /* \"@openzeppelin/contracts@4.3.3/utils/Address.sol\":1026:1054  size := extcodesize(account) */\n      swap1\n      pop\n        /* \"@openzeppelin/contracts@4.3.3/utils/Address.sol\":1087:1088  0 */\n      0x00\n        /* \"@openzeppelin/contracts@4.3.3/utils/Address.sol\":1080:1084  size */\n      dup2\n        /* \"@openzeppelin/contracts@4.3.3/utils/Address.sol\":1080:1088  size > 0 */\n      gt\n        /* \"@openzeppelin/contracts@4.3.3/utils/Address.sol\":1073:1088  return size > 0 */\n      swap2\n      pop\n      pop\n        /* \"@openzeppelin/contracts@4.3.3/utils/Address.sol\":718:1095  function isContract(address account) internal view returns (bool) {... */\n      swap2\n      swap1\n      pop\n      jump\t// out\n    tag_235:\n      mload(0x40)\n      dup1\n      0x40\n      add\n      0x40\n      mstore\n      dup1\n      and(0xffffffffffffffffffffffffffffffffffffffff, 0x00)\n      dup2\n      mstore\n      0x20\n      add\n      and(0xffffffffffffffff, 0x00)\n      dup2\n      mstore\n      pop\n      swap1\n      jump\t// out\n        /* \"#utility.yul\":7:417   */\n    tag_301:\n        /* \"#utility.yul\":84:89   */\n      0x00\n        /* \"#utility.yul\":109:174   */\n      tag_303\n        /* \"#utility.yul\":125:173   */\n      tag_304\n        /* \"#utility.yul\":166:172   */\n      dup5\n        /* \"#utility.yul\":125:173   */\n      tag_305\n      jump\t// in\n    tag_304:\n        /* \"#utility.yul\":109:174   */\n      tag_306\n      jump\t// in\n    tag_303:\n        /* \"#utility.yul\":100:174   */\n      swap1\n      pop\n        /* \"#utility.yul\":197:203   */\n      dup3\n        /* \"#utility.yul\":190:195   */\n      dup2\n        /* \"#utility.yul\":183:204   */\n      mstore\n        /* \"#utility.yul\":235:239   */\n      0x20\n        /* \"#utility.yul\":228:233   */\n      dup2\n        /* \"#utility.yul\":224:240   */\n      add\n        /* \"#utility.yul\":273:276   */\n      dup5\n        /* \"#utility.yul\":264:270   */\n      dup5\n        /* \"#utility.yul\":259:262   */\n      dup5\n        /* \"#utility.yul\":255:271   */\n      add\n        /* \"#utility.yul\":252:277   */\n      gt\n        /* \"#utility.yul\":249:361   */\n      iszero\n      tag_307\n      jumpi\n        /* \"#utility.yul\":280:359   */\n      tag_308\n      tag_309\n      jump\t// in\n    tag_308:\n        /* \"#utility.yul\":249:361   */\n    tag_307:\n        /* \"#utility.yul\":370:411   */\n      tag_310\n        /* \"#utility.yul\":404:410   */\n      dup5\n        /* \"#utility.yul\":399:402   */\n      dup3\n        /* \"#utility.yul\":394:397   */\n      dup6\n        /* \"#utility.yul\":370:411   */\n      tag_311\n      jump\t// in\n    tag_310:\n        /* \"#utility.yul\":90:417   */\n      pop\n        /* \"#utility.yul\":7:417   */\n      swap4\n      swap3\n      pop\n      pop\n      pop\n      jump\t// out\n        /* \"#utility.yul\":423:562   */\n    tag_312:\n        /* \"#utility.yul\":469:474   */\n      0x00\n        /* \"#utility.yul\":507:513   */\n      dup2\n        /* \"#utility.yul\":494:514   */\n      calldataload\n        /* \"#utility.yul\":485:514   */\n      swap1\n      pop\n        /* \"#utility.yul\":523:556   */\n      tag_314\n        /* \"#utility.yul\":550:555   */\n      dup2\n        /* \"#utility.yul\":523:556   */\n      tag_315\n      jump\t// in\n    tag_314:\n        /* \"#utility.yul\":423:562   */\n      swap3\n      swap2\n      pop\n      pop\n      jump\t// out\n        /* \"#utility.yul\":568:701   */\n    tag_316:\n        /* \"#utility.yul\":611:616   */\n      0x00\n        /* \"#utility.yul\":649:655   */\n      dup2\n        /* \"#utility.yul\":636:656   */\n      calldataload\n        /* \"#utility.yul\":627:656   */\n      swap1\n      pop\n        /* \"#utility.yul\":665:695   */\n      tag_318\n        /* \"#utility.yul\":689:694   */\n      dup2\n        /* \"#utility.yul\":665:695   */\n      tag_319\n      jump\t// in\n    tag_318:\n        /* \"#utility.yul\":568:701   */\n      swap3\n      swap2\n      pop\n      pop\n      jump\t// out\n        /* \"#utility.yul\":707:844   */\n    tag_320:\n        /* \"#utility.yul\":752:757   */\n      0x00\n        /* \"#utility.yul\":790:796   */\n      dup2\n        /* \"#utility.yul\":777:797   */\n      calldataload\n        /* \"#utility.yul\":768:797   */\n      swap1\n      pop\n        /* \"#utility.yul\":806:838   */\n      tag_322\n        /* \"#utility.yul\":832:837   */\n      dup2\n        /* \"#utility.yul\":806:838   */\n      tag_323\n      jump\t// in\n    tag_322:\n        /* \"#utility.yul\":707:844   */\n      swap3\n      swap2\n      pop\n      pop\n      jump\t// out\n        /* \"#utility.yul\":850:991   */\n    tag_324:\n        /* \"#utility.yul\":906:911   */\n      0x00\n        /* \"#utility.yul\":937:943   */\n      dup2\n        /* \"#utility.yul\":931:944   */\n      mload\n        /* \"#utility.yul\":922:944   */\n      swap1\n      pop\n        /* \"#utility.yul\":953:985   */\n      tag_326\n        /* \"#utility.yul\":979:984   */\n      dup2\n        /* \"#utility.yul\":953:985   */\n      tag_323\n      jump\t// in\n    tag_326:\n        /* \"#utility.yul\":850:991   */\n      swap3\n      swap2\n      pop\n      pop\n      jump\t// out\n        /* \"#utility.yul\":1010:1348   */\n    tag_327:\n        /* \"#utility.yul\":1065:1070   */\n      0x00\n        /* \"#utility.yul\":1114:1117   */\n      dup3\n        /* \"#utility.yul\":1107:1111   */\n      0x1f\n        /* \"#utility.yul\":1099:1105   */\n      dup4\n        /* \"#utility.yul\":1095:1112   */\n      add\n        /* \"#utility.yul\":1091:1118   */\n      slt\n        /* \"#utility.yul\":1081:1203   */\n      tag_329\n      jumpi\n        /* \"#utility.yul\":1122:1201   */\n      tag_330\n      tag_331\n      jump\t// in\n    tag_330:\n        /* \"#utility.yul\":1081:1203   */\n    tag_329:\n        /* \"#utility.yul\":1239:1245   */\n      dup2\n        /* \"#utility.yul\":1226:1246   */\n      calldataload\n        /* \"#utility.yul\":1264:1342   */\n      tag_332\n        /* \"#utility.yul\":1338:1341   */\n      dup5\n        /* \"#utility.yul\":1330:1336   */\n      dup3\n        /* \"#utility.yul\":1323:1327   */\n      0x20\n        /* \"#utility.yul\":1315:1321   */\n      dup7\n        /* \"#utility.yul\":1311:1328   */\n      add\n        /* \"#utility.yul\":1264:1342   */\n      tag_301\n      jump\t// in\n    tag_332:\n        /* \"#utility.yul\":1255:1342   */\n      swap2\n      pop\n        /* \"#utility.yul\":1071:1348   */\n      pop\n        /* \"#utility.yul\":1010:1348   */\n      swap3\n      swap2\n      pop\n      pop\n      jump\t// out\n        /* \"#utility.yul\":1354:1493   */\n    tag_333:\n        /* \"#utility.yul\":1400:1405   */\n      0x00\n        /* \"#utility.yul\":1438:1444   */\n      dup2\n        /* \"#utility.yul\":1425:1445   */\n      calldataload\n        /* \"#utility.yul\":1416:1445   */\n      swap1\n      pop\n        /* \"#utility.yul\":1454:1487   */\n      tag_335\n        /* \"#utility.yul\":1481:1486   */\n      dup2\n        /* \"#utility.yul\":1454:1487   */\n      tag_336\n      jump\t// in\n    tag_335:\n        /* \"#utility.yul\":1354:1493   */\n      swap3\n      swap2\n      pop\n      pop\n      jump\t// out\n        /* \"#utility.yul\":1499:1828   */\n    tag_68:\n        /* \"#utility.yul\":1558:1564   */\n      0x00\n        /* \"#utility.yul\":1607:1609   */\n      0x20\n        /* \"#utility.yul\":1595:1604   */\n      dup3\n        /* \"#utility.yul\":1586:1593   */\n      dup5\n        /* \"#utility.yul\":1582:1605   */\n      sub\n        /* \"#utility.yul\":1578:1610   */\n      slt\n        /* \"#utility.yul\":1575:1694   */\n      iszero\n      tag_338\n      jumpi\n        /* \"#utility.yul\":1613:1692   */\n      tag_339\n      tag_340\n      jump\t// in\n    tag_339:\n        /* \"#utility.yul\":1575:1694   */\n    tag_338:\n        /* \"#utility.yul\":1733:1734   */\n      0x00\n        /* \"#utility.yul\":1758:1811   */\n      tag_341\n        /* \"#utility.yul\":1803:1810   */\n      dup5\n        /* \"#utility.yul\":1794:1800   */\n      dup3\n        /* \"#utility.yul\":1783:1792   */\n      dup6\n        /* \"#utility.yul\":1779:1801   */\n      add\n        /* \"#utility.yul\":1758:1811   */\n      tag_312\n      jump\t// in\n    tag_341:\n        /* \"#utility.yul\":1748:1811   */\n      swap2\n      pop\n        /* \"#utility.yul\":1704:1821   */\n      pop\n        /* \"#utility.yul\":1499:1828   */\n      swap3\n      swap2\n      pop\n      pop\n      jump\t// out\n        /* \"#utility.yul\":1834:2308   */\n    tag_91:\n        /* \"#utility.yul\":1902:1908   */\n      0x00\n        /* \"#utility.yul\":1910:1916   */\n      dup1\n        /* \"#utility.yul\":1959:1961   */\n      0x40\n        /* \"#utility.yul\":1947:1956   */\n      dup4\n        /* \"#utility.yul\":1938:1945   */\n      dup6\n        /* \"#utility.yul\":1934:1957   */\n      sub\n        /* \"#utility.yul\":1930:1962   */\n      slt\n        /* \"#utility.yul\":1927:2046   */\n      iszero\n      tag_343\n      jumpi\n        /* \"#utility.yul\":1965:2044   */\n      tag_344\n      tag_340\n      jump\t// in\n    tag_344:\n        /* \"#utility.yul\":1927:2046   */\n    tag_343:\n        /* \"#utility.yul\":2085:2086   */\n      0x00\n        /* \"#utility.yul\":2110:2163   */\n      tag_345\n        /* \"#utility.yul\":2155:2162   */\n      dup6\n        /* \"#utility.yul\":2146:2152   */\n      dup3\n        /* \"#utility.yul\":2135:2144   */\n      dup7\n        /* \"#utility.yul\":2131:2153   */\n      add\n        /* \"#utility.yul\":2110:2163   */\n      tag_312\n      jump\t// in\n    tag_345:\n        /* \"#utility.yul\":2100:2163   */\n      swap3\n      pop\n        /* \"#utility.yul\":2056:2173   */\n      pop\n        /* \"#utility.yul\":2212:2214   */\n      0x20\n        /* \"#utility.yul\":2238:2291   */\n      tag_346\n        /* \"#utility.yul\":2283:2290   */\n      dup6\n        /* \"#utility.yul\":2274:2280   */\n      dup3\n        /* \"#utility.yul\":2263:2272   */\n      dup7\n        /* \"#utility.yul\":2259:2281   */\n      add\n        /* \"#utility.yul\":2238:2291   */\n      tag_312\n      jump\t// in\n    tag_346:\n        /* \"#utility.yul\":2228:2291   */\n      swap2\n      pop\n        /* \"#utility.yul\":2183:2301   */\n      pop\n        /* \"#utility.yul\":1834:2308   */\n      swap3\n      pop\n      swap3\n      swap1\n      pop\n      jump\t// out\n        /* \"#utility.yul\":2314:2933   */\n    tag_49:\n        /* \"#utility.yul\":2391:2397   */\n      0x00\n        /* \"#utility.yul\":2399:2405   */\n      dup1\n        /* \"#utility.yul\":2407:2413   */\n      0x00\n        /* \"#utility.yul\":2456:2458   */\n      0x60\n        /* \"#utility.yul\":2444:2453   */\n      dup5\n        /* \"#utility.yul\":2435:2442   */\n      dup7\n        /* \"#utility.yul\":2431:2454   */\n      sub\n        /* \"#utility.yul\":2427:2459   */\n      slt\n        /* \"#utility.yul\":2424:2543   */\n      iszero\n      tag_348\n      jumpi\n        /* \"#utility.yul\":2462:2541   */\n      tag_349\n      tag_340\n      jump\t// in\n    tag_349:\n        /* \"#utility.yul\":2424:2543   */\n    tag_348:\n        /* \"#utility.yul\":2582:2583   */\n      0x00\n        /* \"#utility.yul\":2607:2660   */\n      tag_350\n        /* \"#utility.yul\":2652:2659   */\n      dup7\n        /* \"#utility.yul\":2643:2649   */\n      dup3\n        /* \"#utility.yul\":2632:2641   */\n      dup8\n        /* \"#utility.yul\":2628:2650   */\n      add\n        /* \"#utility.yul\":2607:2660   */\n      tag_312\n      jump\t// in\n    tag_350:\n        /* \"#utility.yul\":2597:2660   */\n      swap4\n      pop\n        /* \"#utility.yul\":2553:2670   */\n      pop\n        /* \"#utility.yul\":2709:2711   */\n      0x20\n        /* \"#utility.yul\":2735:2788   */\n      tag_351\n        /* \"#utility.yul\":2780:2787   */\n      dup7\n        /* \"#utility.yul\":2771:2777   */\n      dup3\n        /* \"#utility.yul\":2760:2769   */\n      dup8\n        /* \"#utility.yul\":2756:2778   */\n      add\n        /* \"#utility.yul\":2735:2788   */\n      tag_312\n      jump\t// in\n    tag_351:\n        /* \"#utility.yul\":2725:2788   */\n      swap3\n      pop\n        /* \"#utility.yul\":2680:2798   */\n      pop\n        /* \"#utility.yul\":2837:2839   */\n      0x40\n        /* \"#utility.yul\":2863:2916   */\n      tag_352\n        /* \"#utility.yul\":2908:2915   */\n      dup7\n        /* \"#utility.yul\":2899:2905   */\n      dup3\n        /* \"#utility.yul\":2888:2897   */\n      dup8\n        /* \"#utility.yul\":2884:2906   */\n      add\n        /* \"#utility.yul\":2863:2916   */\n      tag_333\n      jump\t// in\n    tag_352:\n        /* \"#utility.yul\":2853:2916   */\n      swap2\n      pop\n        /* \"#utility.yul\":2808:2926   */\n      pop\n        /* \"#utility.yul\":2314:2933   */\n      swap3\n      pop\n      swap3\n      pop\n      swap3\n      jump\t// out\n        /* \"#utility.yul\":2939:3882   */\n    tag_80:\n        /* \"#utility.yul\":3034:3040   */\n      0x00\n        /* \"#utility.yul\":3042:3048   */\n      dup1\n        /* \"#utility.yul\":3050:3056   */\n      0x00\n        /* \"#utility.yul\":3058:3064   */\n      dup1\n        /* \"#utility.yul\":3107:3110   */\n      0x80\n        /* \"#utility.yul\":3095:3104   */\n      dup6\n        /* \"#utility.yul\":3086:3093   */\n      dup8\n        /* \"#utility.yul\":3082:3105   */\n      sub\n        /* \"#utility.yul\":3078:3111   */\n      slt\n        /* \"#utility.yul\":3075:3195   */\n      iszero\n      tag_354\n      jumpi\n        /* \"#utility.yul\":3114:3193   */\n      tag_355\n      tag_340\n      jump\t// in\n    tag_355:\n        /* \"#utility.yul\":3075:3195   */\n    tag_354:\n        /* \"#utility.yul\":3234:3235   */\n      0x00\n        /* \"#utility.yul\":3259:3312   */\n      tag_356\n        /* \"#utility.yul\":3304:3311   */\n      dup8\n        /* \"#utility.yul\":3295:3301   */\n      dup3\n        /* \"#utility.yul\":3284:3293   */\n      dup9\n        /* \"#utility.yul\":3280:3302   */\n      add\n        /* \"#utility.yul\":3259:3312   */\n      tag_312\n      jump\t// in\n    tag_356:\n        /* \"#utility.yul\":3249:3312   */\n      swap5\n      pop\n        /* \"#utility.yul\":3205:3322   */\n      pop\n        /* \"#utility.yul\":3361:3363   */\n      0x20\n        /* \"#utility.yul\":3387:3440   */\n      tag_357\n        /* \"#utility.yul\":3432:3439   */\n      dup8\n        /* \"#utility.yul\":3423:3429   */\n      dup3\n        /* \"#utility.yul\":3412:3421   */\n      dup9\n        /* \"#utility.yul\":3408:3430   */\n      add\n        /* \"#utility.yul\":3387:3440   */\n      tag_312\n      jump\t// in\n    tag_357:\n        /* \"#utility.yul\":3377:3440   */\n      swap4\n      pop\n        /* \"#utility.yul\":3332:3450   */\n      pop\n        /* \"#utility.yul\":3489:3491   */\n      0x40\n        /* \"#utility.yul\":3515:3568   */\n      tag_358\n        /* \"#utility.yul\":3560:3567   */\n      dup8\n        /* \"#utility.yul\":3551:3557   */\n      dup3\n        /* \"#utility.yul\":3540:3549   */\n      dup9\n        /* \"#utility.yul\":3536:3558   */\n      add\n        /* \"#utility.yul\":3515:3568   */\n      tag_333\n      jump\t// in\n    tag_358:\n        /* \"#utility.yul\":3505:3568   */\n      swap3\n      pop\n        /* \"#utility.yul\":3460:3578   */\n      pop\n        /* \"#utility.yul\":3645:3647   */\n      0x60\n        /* \"#utility.yul\":3634:3643   */\n      dup6\n        /* \"#utility.yul\":3630:3648   */\n      add\n        /* \"#utility.yul\":3617:3649   */\n      calldataload\n        /* \"#utility.yul\":3676:3694   */\n      0xffffffffffffffff\n        /* \"#utility.yul\":3668:3674   */\n      dup2\n        /* \"#utility.yul\":3665:3695   */\n      gt\n        /* \"#utility.yul\":3662:3779   */\n      iszero\n      tag_359\n      jumpi\n        /* \"#utility.yul\":3698:3777   */\n      tag_360\n      tag_361\n      jump\t// in\n    tag_360:\n        /* \"#utility.yul\":3662:3779   */\n    tag_359:\n        /* \"#utility.yul\":3803:3865   */\n      tag_362\n        /* \"#utility.yul\":3857:3864   */\n      dup8\n        /* \"#utility.yul\":3848:3854   */\n      dup3\n        /* \"#utility.yul\":3837:3846   */\n      dup9\n        /* \"#utility.yul\":3833:3855   */\n      add\n        /* \"#utility.yul\":3803:3865   */\n      tag_327\n      jump\t// in\n    tag_362:\n        /* \"#utility.yul\":3793:3865   */\n      swap2\n      pop\n        /* \"#utility.yul\":3588:3875   */\n      pop\n        /* \"#utility.yul\":2939:3882   */\n      swap3\n      swap6\n      swap2\n      swap5\n      pop\n      swap3\n      pop\n      jump\t// out\n        /* \"#utility.yul\":3888:4356   */\n    tag_76:\n        /* \"#utility.yul\":3953:3959   */\n      0x00\n        /* \"#utility.yul\":3961:3967   */\n      dup1\n        /* \"#utility.yul\":4010:4012   */\n      0x40\n        /* \"#utility.yul\":3998:4007   */\n      dup4\n        /* \"#utility.yul\":3989:3996   */\n      dup6\n        /* \"#utility.yul\":3985:4008   */\n      sub\n        /* \"#utility.yul\":3981:4013   */\n      slt\n        /* \"#utility.yul\":3978:4097   */\n      iszero\n      tag_364\n      jumpi\n        /* \"#utility.yul\":4016:4095   */\n      tag_365\n      tag_340\n      jump\t// in\n    tag_365:\n        /* \"#utility.yul\":3978:4097   */\n    tag_364:\n        /* \"#utility.yul\":4136:4137   */\n      0x00\n        /* \"#utility.yul\":4161:4214   */\n      tag_366\n        /* \"#utility.yul\":4206:4213   */\n      dup6\n        /* \"#utility.yul\":4197:4203   */\n      dup3\n        /* \"#utility.yul\":4186:4195   */\n      dup7\n        /* \"#utility.yul\":4182:4204   */\n      add\n        /* \"#utility.yul\":4161:4214   */\n      tag_312\n      jump\t// in\n    tag_366:\n        /* \"#utility.yul\":4151:4214   */\n      swap3\n      pop\n        /* \"#utility.yul\":4107:4224   */\n      pop\n        /* \"#utility.yul\":4263:4265   */\n      0x20\n        /* \"#utility.yul\":4289:4339   */\n      tag_367\n        /* \"#utility.yul\":4331:4338   */\n      dup6\n        /* \"#utility.yul\":4322:4328   */\n      dup3\n        /* \"#utility.yul\":4311:4320   */\n      dup7\n        /* \"#utility.yul\":4307:4329   */\n      add\n        /* \"#utility.yul\":4289:4339   */\n      tag_316\n      jump\t// in\n    tag_367:\n        /* \"#utility.yul\":4279:4339   */\n      swap2\n      pop\n        /* \"#utility.yul\":4234:4349   */\n      pop\n        /* \"#utility.yul\":3888:4356   */\n      swap3\n      pop\n      swap3\n      swap1\n      pop\n      jump\t// out\n        /* \"#utility.yul\":4362:4836   */\n    tag_41:\n        /* \"#utility.yul\":4430:4436   */\n      0x00\n        /* \"#utility.yul\":4438:4444   */\n      dup1\n        /* \"#utility.yul\":4487:4489   */\n      0x40\n        /* \"#utility.yul\":4475:4484   */\n      dup4\n        /* \"#utility.yul\":4466:4473   */\n      dup6\n        /* \"#utility.yul\":4462:4485   */\n      sub\n        /* \"#utility.yul\":4458:4490   */\n      slt\n        /* \"#utility.yul\":4455:4574   */\n      iszero\n      tag_369\n      jumpi\n        /* \"#utility.yul\":4493:4572   */\n      tag_370\n      tag_340\n      jump\t// in\n    tag_370:\n        /* \"#utility.yul\":4455:4574   */\n    tag_369:\n        /* \"#utility.yul\":4613:4614   */\n      0x00\n        /* \"#utility.yul\":4638:4691   */\n      tag_371\n        /* \"#utility.yul\":4683:4690   */\n      dup6\n        /* \"#utility.yul\":4674:4680   */\n      dup3\n        /* \"#utility.yul\":4663:4672   */\n      dup7\n        /* \"#utility.yul\":4659:4681   */\n      add\n        /* \"#utility.yul\":4638:4691   */\n      tag_312\n      jump\t// in\n    tag_371:\n        /* \"#utility.yul\":4628:4691   */\n      swap3\n      pop\n        /* \"#utility.yul\":4584:4701   */\n      pop\n        /* \"#utility.yul\":4740:4742   */\n      0x20\n        /* \"#utility.yul\":4766:4819   */\n      tag_372\n        /* \"#utility.yul\":4811:4818   */\n      dup6\n        /* \"#utility.yul\":4802:4808   */\n      dup3\n        /* \"#utility.yul\":4791:4800   */\n      dup7\n        /* \"#utility.yul\":4787:4809   */\n      add\n        /* \"#utility.yul\":4766:4819   */\n      tag_333\n      jump\t// in\n    tag_372:\n        /* \"#utility.yul\":4756:4819   */\n      swap2\n      pop\n        /* \"#utility.yul\":4711:4829   */\n      pop\n        /* \"#utility.yul\":4362:4836   */\n      swap3\n      pop\n      swap3\n      swap1\n      pop\n      jump\t// out\n        /* \"#utility.yul\":4842:5169   */\n    tag_25:\n        /* \"#utility.yul\":4900:4906   */\n      0x00\n        /* \"#utility.yul\":4949:4951   */\n      0x20\n        /* \"#utility.yul\":4937:4946   */\n      dup3\n        /* \"#utility.yul\":4928:4935   */\n      dup5\n        /* \"#utility.yul\":4924:4947   */\n      sub\n        /* \"#utility.yul\":4920:4952   */\n      slt\n        /* \"#utility.yul\":4917:5036   */\n      iszero\n      tag_374\n      jumpi\n        /* \"#utility.yul\":4955:5034   */\n      tag_375\n      tag_340\n      jump\t// in\n    tag_375:\n        /* \"#utility.yul\":4917:5036   */\n    tag_374:\n        /* \"#utility.yul\":5075:5076   */\n      0x00\n        /* \"#utility.yul\":5100:5152   */\n      tag_376\n        /* \"#utility.yul\":5144:5151   */\n      dup5\n        /* \"#utility.yul\":5135:5141   */\n      dup3\n        /* \"#utility.yul\":5124:5133   */\n      dup6\n        /* \"#utility.yul\":5120:5142   */\n      add\n        /* \"#utility.yul\":5100:5152   */\n      tag_320\n      jump\t// in\n    tag_376:\n        /* \"#utility.yul\":5090:5152   */\n      swap2\n      pop\n        /* \"#utility.yul\":5046:5162   */\n      pop\n        /* \"#utility.yul\":4842:5169   */\n      swap3\n      swap2\n      pop\n      pop\n      jump\t// out\n        /* \"#utility.yul\":5175:5524   */\n    tag_263:\n        /* \"#utility.yul\":5244:5250   */\n      0x00\n        /* \"#utility.yul\":5293:5295   */\n      0x20\n        /* \"#utility.yul\":5281:5290   */\n      dup3\n        /* \"#utility.yul\":5272:5279   */\n      dup5\n        /* \"#utility.yul\":5268:5291   */\n      sub\n        /* \"#utility.yul\":5264:5296   */\n      slt\n        /* \"#utility.yul\":5261:5380   */\n      iszero\n      tag_378\n      jumpi\n        /* \"#utility.yul\":5299:5378   */\n      tag_379\n      tag_340\n      jump\t// in\n    tag_379:\n        /* \"#utility.yul\":5261:5380   */\n    tag_378:\n        /* \"#utility.yul\":5419:5420   */\n      0x00\n        /* \"#utility.yul\":5444:5507   */\n      tag_380\n        /* \"#utility.yul\":5499:5506   */\n      dup5\n        /* \"#utility.yul\":5490:5496   */\n      dup3\n        /* \"#utility.yul\":5479:5488   */\n      dup6\n        /* \"#utility.yul\":5475:5497   */\n      add\n        /* \"#utility.yul\":5444:5507   */\n      tag_324\n      jump\t// in\n    tag_380:\n        /* \"#utility.yul\":5434:5507   */\n      swap2\n      pop\n        /* \"#utility.yul\":5390:5517   */\n      pop\n        /* \"#utility.yul\":5175:5524   */\n      swap3\n      swap2\n      pop\n      pop\n      jump\t// out\n        /* \"#utility.yul\":5530:5859   */\n    tag_35:\n        /* \"#utility.yul\":5589:5595   */\n      0x00\n        /* \"#utility.yul\":5638:5640   */\n      0x20\n        /* \"#utility.yul\":5626:5635   */\n      dup3\n        /* \"#utility.yul\":5617:5624   */\n      dup5\n        /* \"#utility.yul\":5613:5636   */\n      sub\n        /* \"#utility.yul\":5609:5641   */\n      slt\n        /* \"#utility.yul\":5606:5725   */\n      iszero\n      tag_382\n      jumpi\n        /* \"#utility.yul\":5644:5723   */\n      tag_383\n      tag_340\n      jump\t// in\n    tag_383:\n        /* \"#utility.yul\":5606:5725   */\n    tag_382:\n        /* \"#utility.yul\":5764:5765   */\n      0x00\n        /* \"#utility.yul\":5789:5842   */\n      tag_384\n        /* \"#utility.yul\":5834:5841   */\n      dup5\n        /* \"#utility.yul\":5825:5831   */\n      dup3\n        /* \"#utility.yul\":5814:5823   */\n      dup6\n        /* \"#utility.yul\":5810:5832   */\n      add\n        /* \"#utility.yul\":5789:5842   */\n      tag_333\n      jump\t// in\n    tag_384:\n        /* \"#utility.yul\":5779:5842   */\n      swap2\n      pop\n        /* \"#utility.yul\":5735:5852   */\n      pop\n        /* \"#utility.yul\":5530:5859   */\n      swap3\n      swap2\n      pop\n      pop\n      jump\t// out\n        /* \"#utility.yul\":5865:5983   */\n    tag_385:\n        /* \"#utility.yul\":5952:5976   */\n      tag_387\n        /* \"#utility.yul\":5970:5975   */\n      dup2\n        /* \"#utility.yul\":5952:5976   */\n      tag_388\n      jump\t// in\n    tag_387:\n        /* \"#utility.yul\":5947:5950   */\n      dup3\n        /* \"#utility.yul\":5940:5977   */\n      mstore\n        /* \"#utility.yul\":5865:5983   */\n      pop\n      pop\n      jump\t// out\n        /* \"#utility.yul\":5989:6098   */\n    tag_389:\n        /* \"#utility.yul\":6070:6091   */\n      tag_391\n        /* \"#utility.yul\":6085:6090   */\n      dup2\n        /* \"#utility.yul\":6070:6091   */\n      tag_392\n      jump\t// in\n    tag_391:\n        /* \"#utility.yul\":6065:6068   */\n      dup3\n        /* \"#utility.yul\":6058:6092   */\n      mstore\n        /* \"#utility.yul\":5989:6098   */\n      pop\n      pop\n      jump\t// out\n        /* \"#utility.yul\":6104:6464   */\n    tag_393:\n        /* \"#utility.yul\":6190:6193   */\n      0x00\n        /* \"#utility.yul\":6218:6256   */\n      tag_395\n        /* \"#utility.yul\":6250:6255   */\n      dup3\n        /* \"#utility.yul\":6218:6256   */\n      tag_396\n      jump\t// in\n    tag_395:\n        /* \"#utility.yul\":6272:6342   */\n      tag_397\n        /* \"#utility.yul\":6335:6341   */\n      dup2\n        /* \"#utility.yul\":6330:6333   */\n      dup6\n        /* \"#utility.yul\":6272:6342   */\n      tag_398\n      jump\t// in\n    tag_397:\n        /* \"#utility.yul\":6265:6342   */\n      swap4\n      pop\n        /* \"#utility.yul\":6351:6403   */\n      tag_399\n        /* \"#utility.yul\":6396:6402   */\n      dup2\n        /* \"#utility.yul\":6391:6394   */\n      dup6\n        /* \"#utility.yul\":6384:6388   */\n      0x20\n        /* \"#utility.yul\":6377:6382   */\n      dup7\n        /* \"#utility.yul\":6373:6389   */\n      add\n        /* \"#utility.yul\":6351:6403   */\n      tag_400\n      jump\t// in\n    tag_399:\n        /* \"#utility.yul\":6428:6457   */\n      tag_401\n        /* \"#utility.yul\":6450:6456   */\n      dup2\n        /* \"#utility.yul\":6428:6457   */\n      tag_402\n      jump\t// in\n    tag_401:\n        /* \"#utility.yul\":6423:6426   */\n      dup5\n        /* \"#utility.yul\":6419:6458   */\n      add\n        /* \"#utility.yul\":6412:6458   */\n      swap2\n      pop\n        /* \"#utility.yul\":6194:6464   */\n      pop\n        /* \"#utility.yul\":6104:6464   */\n      swap3\n      swap2\n      pop\n      pop\n      jump\t// out\n        /* \"#utility.yul\":6470:6834   */\n    tag_403:\n        /* \"#utility.yul\":6558:6561   */\n      0x00\n        /* \"#utility.yul\":6586:6625   */\n      tag_405\n        /* \"#utility.yul\":6619:6624   */\n      dup3\n        /* \"#utility.yul\":6586:6625   */\n      tag_406\n      jump\t// in\n    tag_405:\n        /* \"#utility.yul\":6641:6712   */\n      tag_407\n        /* \"#utility.yul\":6705:6711   */\n      dup2\n        /* \"#utility.yul\":6700:6703   */\n      dup6\n        /* \"#utility.yul\":6641:6712   */\n      tag_408\n      jump\t// in\n    tag_407:\n        /* \"#utility.yul\":6634:6712   */\n      swap4\n      pop\n        /* \"#utility.yul\":6721:6773   */\n      tag_409\n        /* \"#utility.yul\":6766:6772   */\n      dup2\n        /* \"#utility.yul\":6761:6764   */\n      dup6\n        /* \"#utility.yul\":6754:6758   */\n      0x20\n        /* \"#utility.yul\":6747:6752   */\n      dup7\n        /* \"#utility.yul\":6743:6759   */\n      add\n        /* \"#utility.yul\":6721:6773   */\n      tag_400\n      jump\t// in\n    tag_409:\n        /* \"#utility.yul\":6798:6827   */\n      tag_410\n        /* \"#utility.yul\":6820:6826   */\n      dup2\n        /* \"#utility.yul\":6798:6827   */\n      tag_402\n      jump\t// in\n    tag_410:\n        /* \"#utility.yul\":6793:6796   */\n      dup5\n        /* \"#utility.yul\":6789:6828   */\n      add\n        /* \"#utility.yul\":6782:6828   */\n      swap2\n      pop\n        /* \"#utility.yul\":6562:6834   */\n      pop\n        /* \"#utility.yul\":6470:6834   */\n      swap3\n      swap2\n      pop\n      pop\n      jump\t// out\n        /* \"#utility.yul\":6840:7217   */\n    tag_411:\n        /* \"#utility.yul\":6946:6949   */\n      0x00\n        /* \"#utility.yul\":6974:7013   */\n      tag_413\n        /* \"#utility.yul\":7007:7012   */\n      dup3\n        /* \"#utility.yul\":6974:7013   */\n      tag_406\n      jump\t// in\n    tag_413:\n        /* \"#utility.yul\":7029:7118   */\n      tag_414\n        /* \"#utility.yul\":7111:7117   */\n      dup2\n        /* \"#utility.yul\":7106:7109   */\n      dup6\n        /* \"#utility.yul\":7029:7118   */\n      tag_415\n      jump\t// in\n    tag_414:\n        /* \"#utility.yul\":7022:7118   */\n      swap4\n      pop\n        /* \"#utility.yul\":7127:7179   */\n      tag_416\n        /* \"#utility.yul\":7172:7178   */\n      dup2\n        /* \"#utility.yul\":7167:7170   */\n      dup6\n        /* \"#utility.yul\":7160:7164   */\n      0x20\n        /* \"#utility.yul\":7153:7158   */\n      dup7\n        /* \"#utility.yul\":7149:7165   */\n      add\n        /* \"#utility.yul\":7127:7179   */\n      tag_400\n      jump\t// in\n    tag_416:\n        /* \"#utility.yul\":7204:7210   */\n      dup1\n        /* \"#utility.yul\":7199:7202   */\n      dup5\n        /* \"#utility.yul\":7195:7211   */\n      add\n        /* \"#utility.yul\":7188:7211   */\n      swap2\n      pop\n        /* \"#utility.yul\":6950:7217   */\n      pop\n        /* \"#utility.yul\":6840:7217   */\n      swap3\n      swap2\n      pop\n      pop\n      jump\t// out\n        /* \"#utility.yul\":7223:7589   */\n    tag_417:\n        /* \"#utility.yul\":7365:7368   */\n      0x00\n        /* \"#utility.yul\":7386:7453   */\n      tag_419\n        /* \"#utility.yul\":7450:7452   */\n      0x22\n        /* \"#utility.yul\":7445:7448   */\n      dup4\n        /* \"#utility.yul\":7386:7453   */\n      tag_408\n      jump\t// in\n    tag_419:\n        /* \"#utility.yul\":7379:7453   */\n      swap2\n      pop\n        /* \"#utility.yul\":7462:7555   */\n      tag_420\n        /* \"#utility.yul\":7551:7554   */\n      dup3\n        /* \"#utility.yul\":7462:7555   */\n      tag_421\n      jump\t// in\n    tag_420:\n        /* \"#utility.yul\":7580:7582   */\n      0x40\n        /* \"#utility.yul\":7575:7578   */\n      dup3\n        /* \"#utility.yul\":7571:7583   */\n      add\n        /* \"#utility.yul\":7564:7583   */\n      swap1\n      pop\n        /* \"#utility.yul\":7223:7589   */\n      swap2\n      swap1\n      pop\n      jump\t// out\n        /* \"#utility.yul\":7595:7961   */\n    tag_422:\n        /* \"#utility.yul\":7737:7740   */\n      0x00\n        /* \"#utility.yul\":7758:7825   */\n      tag_424\n        /* \"#utility.yul\":7822:7824   */\n      0x2a\n        /* \"#utility.yul\":7817:7820   */\n      dup4\n        /* \"#utility.yul\":7758:7825   */\n      tag_408\n      jump\t// in\n    tag_424:\n        /* \"#utility.yul\":7751:7825   */\n      swap2\n      pop\n        /* \"#utility.yul\":7834:7927   */\n      tag_425\n        /* \"#utility.yul\":7923:7926   */\n      dup3\n        /* \"#utility.yul\":7834:7927   */\n      tag_426\n      jump\t// in\n    tag_425:\n        /* \"#utility.yul\":7952:7954   */\n      0x40\n        /* \"#utility.yul\":7947:7950   */\n      dup3\n        /* \"#utility.yul\":7943:7955   */\n      add\n        /* \"#utility.yul\":7936:7955   */\n      swap1\n      pop\n        /* \"#utility.yul\":7595:7961   */\n      swap2\n      swap1\n      pop\n      jump\t// out\n        /* \"#utility.yul\":7967:8333   */\n    tag_427:\n        /* \"#utility.yul\":8109:8112   */\n      0x00\n        /* \"#utility.yul\":8130:8197   */\n      tag_429\n        /* \"#utility.yul\":8194:8196   */\n      0x23\n        /* \"#utility.yul\":8189:8192   */\n      dup4\n        /* \"#utility.yul\":8130:8197   */\n      tag_408\n      jump\t// in\n    tag_429:\n        /* \"#utility.yul\":8123:8197   */\n      swap2\n      pop\n        /* \"#utility.yul\":8206:8299   */\n      tag_430\n        /* \"#utility.yul\":8295:8298   */\n      dup3\n        /* \"#utility.yul\":8206:8299   */\n      tag_431\n      jump\t// in\n    tag_430:\n        /* \"#utility.yul\":8324:8326   */\n      0x40\n        /* \"#utility.yul\":8319:8322   */\n      dup3\n        /* \"#utility.yul\":8315:8327   */\n      add\n        /* \"#utility.yul\":8308:8327   */\n      swap1\n      pop\n        /* \"#utility.yul\":7967:8333   */\n      swap2\n      swap1\n      pop\n      jump\t// out\n        /* \"#utility.yul\":8339:8705   */\n    tag_432:\n        /* \"#utility.yul\":8481:8484   */\n      0x00\n        /* \"#utility.yul\":8502:8569   */\n      tag_434\n        /* \"#utility.yul\":8566:8568   */\n      0x25\n        /* \"#utility.yul\":8561:8564   */\n      dup4\n        /* \"#utility.yul\":8502:8569   */\n      tag_408\n      jump\t// in\n    tag_434:\n        /* \"#utility.yul\":8495:8569   */\n      swap2\n      pop\n        /* \"#utility.yul\":8578:8671   */\n      tag_435\n        /* \"#utility.yul\":8667:8670   */\n      dup3\n        /* \"#utility.yul\":8578:8671   */\n      tag_436\n      jump\t// in\n    tag_435:\n        /* \"#utility.yul\":8696:8698   */\n      0x40\n        /* \"#utility.yul\":8691:8694   */\n      dup3\n        /* \"#utility.yul\":8687:8699   */\n      add\n        /* \"#utility.yul\":8680:8699   */\n      swap1\n      pop\n        /* \"#utility.yul\":8339:8705   */\n      swap2\n      swap1\n      pop\n      jump\t// out\n        /* \"#utility.yul\":8711:9077   */\n    tag_437:\n        /* \"#utility.yul\":8853:8856   */\n      0x00\n        /* \"#utility.yul\":8874:8941   */\n      tag_439\n        /* \"#utility.yul\":8938:8940   */\n      0x39\n        /* \"#utility.yul\":8933:8936   */\n      dup4\n        /* \"#utility.yul\":8874:8941   */\n      tag_408\n      jump\t// in\n    tag_439:\n        /* \"#utility.yul\":8867:8941   */\n      swap2\n      pop\n        /* \"#utility.yul\":8950:9043   */\n      tag_440\n        /* \"#utility.yul\":9039:9042   */\n      dup3\n        /* \"#utility.yul\":8950:9043   */\n      tag_441\n      jump\t// in\n    tag_440:\n        /* \"#utility.yul\":9068:9070   */\n      0x40\n        /* \"#utility.yul\":9063:9066   */\n      dup3\n        /* \"#utility.yul\":9059:9071   */\n      add\n        /* \"#utility.yul\":9052:9071   */\n      swap1\n      pop\n        /* \"#utility.yul\":8711:9077   */\n      swap2\n      swap1\n      pop\n      jump\t// out\n        /* \"#utility.yul\":9083:9449   */\n    tag_442:\n        /* \"#utility.yul\":9225:9228   */\n      0x00\n        /* \"#utility.yul\":9246:9313   */\n      tag_444\n        /* \"#utility.yul\":9310:9312   */\n      0x2b\n        /* \"#utility.yul\":9305:9308   */\n      dup4\n        /* \"#utility.yul\":9246:9313   */\n      tag_408\n      jump\t// in\n    tag_444:\n        /* \"#utility.yul\":9239:9313   */\n      swap2\n      pop\n        /* \"#utility.yul\":9322:9415   */\n      tag_445\n        /* \"#utility.yul\":9411:9414   */\n      dup3\n        /* \"#utility.yul\":9322:9415   */\n      tag_446\n      jump\t// in\n    tag_445:\n        /* \"#utility.yul\":9440:9442   */\n      0x40\n        /* \"#utility.yul\":9435:9438   */\n      dup3\n        /* \"#utility.yul\":9431:9443   */\n      add\n        /* \"#utility.yul\":9424:9443   */\n      swap1\n      pop\n        /* \"#utility.yul\":9083:9449   */\n      swap2\n      swap1\n      pop\n      jump\t// out\n        /* \"#utility.yul\":9455:9821   */\n    tag_447:\n        /* \"#utility.yul\":9597:9600   */\n      0x00\n        /* \"#utility.yul\":9618:9685   */\n      tag_449\n        /* \"#utility.yul\":9682:9684   */\n      0x26\n        /* \"#utility.yul\":9677:9680   */\n      dup4\n        /* \"#utility.yul\":9618:9685   */\n      tag_408\n      jump\t// in\n    tag_449:\n        /* \"#utility.yul\":9611:9685   */\n      swap2\n      pop\n        /* \"#utility.yul\":9694:9787   */\n      tag_450\n        /* \"#utility.yul\":9783:9786   */\n      dup3\n        /* \"#utility.yul\":9694:9787   */\n      tag_451\n      jump\t// in\n    tag_450:\n        /* \"#utility.yul\":9812:9814   */\n      0x40\n        /* \"#utility.yul\":9807:9810   */\n      dup3\n        /* \"#utility.yul\":9803:9815   */\n      add\n        /* \"#utility.yul\":9796:9815   */\n      swap1\n      pop\n        /* \"#utility.yul\":9455:9821   */\n      swap2\n      swap1\n      pop\n      jump\t// out\n        /* \"#utility.yul\":9827:10193   */\n    tag_452:\n        /* \"#utility.yul\":9969:9972   */\n      0x00\n        /* \"#utility.yul\":9990:10057   */\n      tag_454\n        /* \"#utility.yul\":10054:10056   */\n      0x2f\n        /* \"#utility.yul\":10049:10052   */\n      dup4\n        /* \"#utility.yul\":9990:10057   */\n      tag_408\n      jump\t// in\n    tag_454:\n        /* \"#utility.yul\":9983:10057   */\n      swap2\n      pop\n        /* \"#utility.yul\":10066:10159   */\n      tag_455\n        /* \"#utility.yul\":10155:10158   */\n      dup3\n        /* \"#utility.yul\":10066:10159   */\n      tag_456\n      jump\t// in\n    tag_455:\n        /* \"#utility.yul\":10184:10186   */\n      0x40\n        /* \"#utility.yul\":10179:10182   */\n      dup3\n        /* \"#utility.yul\":10175:10187   */\n      add\n        /* \"#utility.yul\":10168:10187   */\n      swap1\n      pop\n        /* \"#utility.yul\":9827:10193   */\n      swap2\n      swap1\n      pop\n      jump\t// out\n        /* \"#utility.yul\":10199:10565   */\n    tag_457:\n        /* \"#utility.yul\":10341:10344   */\n      0x00\n        /* \"#utility.yul\":10362:10429   */\n      tag_459\n        /* \"#utility.yul\":10426:10428   */\n      0x1a\n        /* \"#utility.yul\":10421:10424   */\n      dup4\n        /* \"#utility.yul\":10362:10429   */\n      tag_408\n      jump\t// in\n    tag_459:\n        /* \"#utility.yul\":10355:10429   */\n      swap2\n      pop\n        /* \"#utility.yul\":10438:10531   */\n      tag_460\n        /* \"#utility.yul\":10527:10530   */\n      dup3\n        /* \"#utility.yul\":10438:10531   */\n      tag_461\n      jump\t// in\n    tag_460:\n        /* \"#utility.yul\":10556:10558   */\n      0x20\n        /* \"#utility.yul\":10551:10554   */\n      dup3\n        /* \"#utility.yul\":10547:10559   */\n      add\n        /* \"#utility.yul\":10540:10559   */\n      swap1\n      pop\n        /* \"#utility.yul\":10199:10565   */\n      swap2\n      swap1\n      pop\n      jump\t// out\n        /* \"#utility.yul\":10571:10937   */\n    tag_462:\n        /* \"#utility.yul\":10713:10716   */\n      0x00\n        /* \"#utility.yul\":10734:10801   */\n      tag_464\n        /* \"#utility.yul\":10798:10800   */\n      0x32\n        /* \"#utility.yul\":10793:10796   */\n      dup4\n        /* \"#utility.yul\":10734:10801   */\n      tag_408\n      jump\t// in\n    tag_464:\n        /* \"#utility.yul\":10727:10801   */\n      swap2\n      pop\n        /* \"#utility.yul\":10810:10903   */\n      tag_465\n        /* \"#utility.yul\":10899:10902   */\n      dup3\n        /* \"#utility.yul\":10810:10903   */\n      tag_466\n      jump\t// in\n    tag_465:\n        /* \"#utility.yul\":10928:10930   */\n      0x40\n        /* \"#utility.yul\":10923:10926   */\n      dup3\n        /* \"#utility.yul\":10919:10931   */\n      add\n        /* \"#utility.yul\":10912:10931   */\n      swap1\n      pop\n        /* \"#utility.yul\":10571:10937   */\n      swap2\n      swap1\n      pop\n      jump\t// out\n        /* \"#utility.yul\":10943:11309   */\n    tag_467:\n        /* \"#utility.yul\":11085:11088   */\n      0x00\n        /* \"#utility.yul\":11106:11173   */\n      tag_469\n        /* \"#utility.yul\":11170:11172   */\n      0x22\n        /* \"#utility.yul\":11165:11168   */\n      dup4\n        /* \"#utility.yul\":11106:11173   */\n      tag_408\n      jump\t// in\n    tag_469:\n        /* \"#utility.yul\":11099:11173   */\n      swap2\n      pop\n        /* \"#utility.yul\":11182:11275   */\n      tag_470\n        /* \"#utility.yul\":11271:11274   */\n      dup3\n        /* \"#utility.yul\":11182:11275   */\n      tag_471\n      jump\t// in\n    tag_470:\n        /* \"#utility.yul\":11300:11302   */\n      0x40\n        /* \"#utility.yul\":11295:11298   */\n      dup3\n        /* \"#utility.yul\":11291:11303   */\n      add\n        /* \"#utility.yul\":11284:11303   */\n      swap1\n      pop\n        /* \"#utility.yul\":10943:11309   */\n      swap2\n      swap1\n      pop\n      jump\t// out\n        /* \"#utility.yul\":11315:11681   */\n    tag_472:\n        /* \"#utility.yul\":11457:11460   */\n      0x00\n        /* \"#utility.yul\":11478:11545   */\n      tag_474\n        /* \"#utility.yul\":11542:11544   */\n      0x33\n        /* \"#utility.yul\":11537:11540   */\n      dup4\n        /* \"#utility.yul\":11478:11545   */\n      tag_408\n      jump\t// in\n    tag_474:\n        /* \"#utility.yul\":11471:11545   */\n      swap2\n      pop\n        /* \"#utility.yul\":11554:11647   */\n      tag_475\n        /* \"#utility.yul\":11643:11646   */\n      dup3\n        /* \"#utility.yul\":11554:11647   */\n      tag_476\n      jump\t// in\n    tag_475:\n        /* \"#utility.yul\":11672:11674   */\n      0x40\n        /* \"#utility.yul\":11667:11670   */\n      dup3\n        /* \"#utility.yul\":11663:11675   */\n      add\n        /* \"#utility.yul\":11656:11675   */\n      swap1\n      pop\n        /* \"#utility.yul\":11315:11681   */\n      swap2\n      swap1\n      pop\n      jump\t// out\n        /* \"#utility.yul\":11687:12053   */\n    tag_477:\n        /* \"#utility.yul\":11829:11832   */\n      0x00\n        /* \"#utility.yul\":11850:11917   */\n      tag_479\n        /* \"#utility.yul\":11914:11916   */\n      0x2e\n        /* \"#utility.yul\":11909:11912   */\n      dup4\n        /* \"#utility.yul\":11850:11917   */\n      tag_408\n      jump\t// in\n    tag_479:\n        /* \"#utility.yul\":11843:11917   */\n      swap2\n      pop\n        /* \"#utility.yul\":11926:12019   */\n      tag_480\n        /* \"#utility.yul\":12015:12018   */\n      dup3\n        /* \"#utility.yul\":11926:12019   */\n      tag_481\n      jump\t// in\n    tag_480:\n        /* \"#utility.yul\":12044:12046   */\n      0x40\n        /* \"#utility.yul\":12039:12042   */\n      dup3\n        /* \"#utility.yul\":12035:12047   */\n      add\n        /* \"#utility.yul\":12028:12047   */\n      swap1\n      pop\n        /* \"#utility.yul\":11687:12053   */\n      swap2\n      swap1\n      pop\n      jump\t// out\n        /* \"#utility.yul\":12059:12425   */\n    tag_482:\n        /* \"#utility.yul\":12201:12204   */\n      0x00\n        /* \"#utility.yul\":12222:12289   */\n      tag_484\n        /* \"#utility.yul\":12286:12288   */\n      0x2f\n        /* \"#utility.yul\":12281:12284   */\n      dup4\n        /* \"#utility.yul\":12222:12289   */\n      tag_408\n      jump\t// in\n    tag_484:\n        /* \"#utility.yul\":12215:12289   */\n      swap2\n      pop\n        /* \"#utility.yul\":12298:12391   */\n      tag_485\n        /* \"#utility.yul\":12387:12390   */\n      dup3\n        /* \"#utility.yul\":12298:12391   */\n      tag_486\n      jump\t// in\n    tag_485:\n        /* \"#utility.yul\":12416:12418   */\n      0x40\n        /* \"#utility.yul\":12411:12414   */\n      dup3\n        /* \"#utility.yul\":12407:12419   */\n      add\n        /* \"#utility.yul\":12400:12419   */\n      swap1\n      pop\n        /* \"#utility.yul\":12059:12425   */\n      swap2\n      swap1\n      pop\n      jump\t// out\n        /* \"#utility.yul\":12431:12797   */\n    tag_487:\n        /* \"#utility.yul\":12573:12576   */\n      0x00\n        /* \"#utility.yul\":12594:12661   */\n      tag_489\n        /* \"#utility.yul\":12658:12660   */\n      0x2d\n        /* \"#utility.yul\":12653:12656   */\n      dup4\n        /* \"#utility.yul\":12594:12661   */\n      tag_408\n      jump\t// in\n    tag_489:\n        /* \"#utility.yul\":12587:12661   */\n      swap2\n      pop\n        /* \"#utility.yul\":12670:12763   */\n      tag_490\n        /* \"#utility.yul\":12759:12762   */\n      dup3\n        /* \"#utility.yul\":12670:12763   */\n      tag_491\n      jump\t// in\n    tag_490:\n        /* \"#utility.yul\":12788:12790   */\n      0x40\n        /* \"#utility.yul\":12783:12786   */\n      dup3\n        /* \"#utility.yul\":12779:12791   */\n      add\n        /* \"#utility.yul\":12772:12791   */\n      swap1\n      pop\n        /* \"#utility.yul\":12431:12797   */\n      swap2\n      swap1\n      pop\n      jump\t// out\n        /* \"#utility.yul\":12803:12921   */\n    tag_492:\n        /* \"#utility.yul\":12890:12914   */\n      tag_494\n        /* \"#utility.yul\":12908:12913   */\n      dup2\n        /* \"#utility.yul\":12890:12914   */\n      tag_495\n      jump\t// in\n    tag_494:\n        /* \"#utility.yul\":12885:12888   */\n      dup3\n        /* \"#utility.yul\":12878:12915   */\n      mstore\n        /* \"#utility.yul\":12803:12921   */\n      pop\n      pop\n      jump\t// out\n        /* \"#utility.yul\":12927:13362   */\n    tag_196:\n        /* \"#utility.yul\":13107:13110   */\n      0x00\n        /* \"#utility.yul\":13129:13224   */\n      tag_497\n        /* \"#utility.yul\":13220:13223   */\n      dup3\n        /* \"#utility.yul\":13211:13217   */\n      dup6\n        /* \"#utility.yul\":13129:13224   */\n      tag_411\n      jump\t// in\n    tag_497:\n        /* \"#utility.yul\":13122:13224   */\n      swap2\n      pop\n        /* \"#utility.yul\":13241:13336   */\n      tag_498\n        /* \"#utility.yul\":13332:13335   */\n      dup3\n        /* \"#utility.yul\":13323:13329   */\n      dup5\n        /* \"#utility.yul\":13241:13336   */\n      tag_411\n      jump\t// in\n    tag_498:\n        /* \"#utility.yul\":13234:13336   */\n      swap2\n      pop\n        /* \"#utility.yul\":13353:13356   */\n      dup2\n        /* \"#utility.yul\":13346:13356   */\n      swap1\n      pop\n        /* \"#utility.yul\":12927:13362   */\n      swap4\n      swap3\n      pop\n      pop\n      pop\n      jump\t// out\n        /* \"#utility.yul\":13368:13590   */\n    tag_38:\n        /* \"#utility.yul\":13461:13465   */\n      0x00\n        /* \"#utility.yul\":13499:13501   */\n      0x20\n        /* \"#utility.yul\":13488:13497   */\n      dup3\n        /* \"#utility.yul\":13484:13502   */\n      add\n        /* \"#utility.yul\":13476:13502   */\n      swap1\n      pop\n        /* \"#utility.yul\":13512:13583   */\n      tag_500\n        /* \"#utility.yul\":13580:13581   */\n      0x00\n        /* \"#utility.yul\":13569:13578   */\n      dup4\n        /* \"#utility.yul\":13565:13582   */\n      add\n        /* \"#utility.yul\":13556:13562   */\n      dup5\n        /* \"#utility.yul\":13512:13583   */\n      tag_385\n      jump\t// in\n    tag_500:\n        /* \"#utility.yul\":13368:13590   */\n      swap3\n      swap2\n      pop\n      pop\n      jump\t// out\n        /* \"#utility.yul\":13596:14236   */\n    tag_259:\n        /* \"#utility.yul\":13791:13795   */\n      0x00\n        /* \"#utility.yul\":13829:13832   */\n      0x80\n        /* \"#utility.yul\":13818:13827   */\n      dup3\n        /* \"#utility.yul\":13814:13833   */\n      add\n        /* \"#utility.yul\":13806:13833   */\n      swap1\n      pop\n        /* \"#utility.yul\":13843:13914   */\n      tag_502\n        /* \"#utility.yul\":13911:13912   */\n      0x00\n        /* \"#utility.yul\":13900:13909   */\n      dup4\n        /* \"#utility.yul\":13896:13913   */\n      add\n        /* \"#utility.yul\":13887:13893   */\n      dup8\n        /* \"#utility.yul\":13843:13914   */\n      tag_385\n      jump\t// in\n    tag_502:\n        /* \"#utility.yul\":13924:13996   */\n      tag_503\n        /* \"#utility.yul\":13992:13994   */\n      0x20\n        /* \"#utility.yul\":13981:13990   */\n      dup4\n        /* \"#utility.yul\":13977:13995   */\n      add\n        /* \"#utility.yul\":13968:13974   */\n      dup7\n        /* \"#utility.yul\":13924:13996   */\n      tag_385\n      jump\t// in\n    tag_503:\n        /* \"#utility.yul\":14006:14078   */\n      tag_504\n        /* \"#utility.yul\":14074:14076   */\n      0x40\n        /* \"#utility.yul\":14063:14072   */\n      dup4\n        /* \"#utility.yul\":14059:14077   */\n      add\n        /* \"#utility.yul\":14050:14056   */\n      dup6\n        /* \"#utility.yul\":14006:14078   */\n      tag_492\n      jump\t// in\n    tag_504:\n        /* \"#utility.yul\":14125:14134   */\n      dup2\n        /* \"#utility.yul\":14119:14123   */\n      dup2\n        /* \"#utility.yul\":14115:14135   */\n      sub\n        /* \"#utility.yul\":14110:14112   */\n      0x60\n        /* \"#utility.yul\":14099:14108   */\n      dup4\n        /* \"#utility.yul\":14095:14113   */\n      add\n        /* \"#utility.yul\":14088:14136   */\n      mstore\n        /* \"#utility.yul\":14153:14229   */\n      tag_505\n        /* \"#utility.yul\":14224:14228   */\n      dup2\n        /* \"#utility.yul\":14215:14221   */\n      dup5\n        /* \"#utility.yul\":14153:14229   */\n      tag_393\n      jump\t// in\n    tag_505:\n        /* \"#utility.yul\":14145:14229   */\n      swap1\n      pop\n        /* \"#utility.yul\":13596:14236   */\n      swap6\n      swap5\n      pop\n      pop\n      pop\n      pop\n      pop\n      jump\t// out\n        /* \"#utility.yul\":14242:14452   */\n    tag_28:\n        /* \"#utility.yul\":14329:14333   */\n      0x00\n        /* \"#utility.yul\":14367:14369   */\n      0x20\n        /* \"#utility.yul\":14356:14365   */\n      dup3\n        /* \"#utility.yul\":14352:14370   */\n      add\n        /* \"#utility.yul\":14344:14370   */\n      swap1\n      pop\n        /* \"#utility.yul\":14380:14445   */\n      tag_507\n        /* \"#utility.yul\":14442:14443   */\n      0x00\n        /* \"#utility.yul\":14431:14440   */\n      dup4\n        /* \"#utility.yul\":14427:14444   */\n      add\n        /* \"#utility.yul\":14418:14424   */\n      dup5\n        /* \"#utility.yul\":14380:14445   */\n      tag_389\n      jump\t// in\n    tag_507:\n        /* \"#utility.yul\":14242:14452   */\n      swap3\n      swap2\n      pop\n      pop\n      jump\t// out\n        /* \"#utility.yul\":14458:14771   */\n    tag_32:\n        /* \"#utility.yul\":14571:14575   */\n      0x00\n        /* \"#utility.yul\":14609:14611   */\n      0x20\n        /* \"#utility.yul\":14598:14607   */\n      dup3\n        /* \"#utility.yul\":14594:14612   */\n      add\n        /* \"#utility.yul\":14586:14612   */\n      swap1\n      pop\n        /* \"#utility.yul\":14658:14667   */\n      dup2\n        /* \"#utility.yul\":14652:14656   */\n      dup2\n        /* \"#utility.yul\":14648:14668   */\n      sub\n        /* \"#utility.yul\":14644:14645   */\n      0x00\n        /* \"#utility.yul\":14633:14642   */\n      dup4\n        /* \"#utility.yul\":14629:14646   */\n      add\n        /* \"#utility.yul\":14622:14669   */\n      mstore\n        /* \"#utility.yul\":14686:14764   */\n      tag_509\n        /* \"#utility.yul\":14759:14763   */\n      dup2\n        /* \"#utility.yul\":14750:14756   */\n      dup5\n        /* \"#utility.yul\":14686:14764   */\n      tag_403\n      jump\t// in\n    tag_509:\n        /* \"#utility.yul\":14678:14764   */\n      swap1\n      pop\n        /* \"#utility.yul\":14458:14771   */\n      swap3\n      swap2\n      pop\n      pop\n      jump\t// out\n        /* \"#utility.yul\":14777:15196   */\n    tag_136:\n        /* \"#utility.yul\":14943:14947   */\n      0x00\n        /* \"#utility.yul\":14981:14983   */\n      0x20\n        /* \"#utility.yul\":14970:14979   */\n      dup3\n        /* \"#utility.yul\":14966:14984   */\n      add\n        /* \"#utility.yul\":14958:14984   */\n      swap1\n      pop\n        /* \"#utility.yul\":15030:15039   */\n      dup2\n        /* \"#utility.yul\":15024:15028   */\n      dup2\n        /* \"#utility.yul\":15020:15040   */\n      sub\n        /* \"#utility.yul\":15016:15017   */\n      0x00\n        /* \"#utility.yul\":15005:15014   */\n      dup4\n        /* \"#utility.yul\":15001:15018   */\n      add\n        /* \"#utility.yul\":14994:15041   */\n      mstore\n        /* \"#utility.yul\":15058:15189   */\n      tag_511\n        /* \"#utility.yul\":15184:15188   */\n      dup2\n        /* \"#utility.yul\":15058:15189   */\n      tag_417\n      jump\t// in\n    tag_511:\n        /* \"#utility.yul\":15050:15189   */\n      swap1\n      pop\n        /* \"#utility.yul\":14777:15196   */\n      swap2\n      swap1\n      pop\n      jump\t// out\n        /* \"#utility.yul\":15202:15621   */\n    tag_240:\n        /* \"#utility.yul\":15368:15372   */\n      0x00\n        /* \"#utility.yul\":15406:15408   */\n      0x20\n        /* \"#utility.yul\":15395:15404   */\n      dup3\n        /* \"#utility.yul\":15391:15409   */\n      add\n        /* \"#utility.yul\":15383:15409   */\n      swap1\n      pop\n        /* \"#utility.yul\":15455:15464   */\n      dup2\n        /* \"#utility.yul\":15449:15453   */\n      dup2\n        /* \"#utility.yul\":15445:15465   */\n      sub\n        /* \"#utility.yul\":15441:15442   */\n      0x00\n        /* \"#utility.yul\":15430:15439   */\n      dup4\n        /* \"#utility.yul\":15426:15443   */\n      add\n        /* \"#utility.yul\":15419:15466   */\n      mstore\n        /* \"#utility.yul\":15483:15614   */\n      tag_513\n        /* \"#utility.yul\":15609:15613   */\n      dup2\n        /* \"#utility.yul\":15483:15614   */\n      tag_422\n      jump\t// in\n    tag_513:\n        /* \"#utility.yul\":15475:15614   */\n      swap1\n      pop\n        /* \"#utility.yul\":15202:15621   */\n      swap2\n      swap1\n      pop\n      jump\t// out\n        /* \"#utility.yul\":15627:16046   */\n    tag_155:\n        /* \"#utility.yul\":15793:15797   */\n      0x00\n        /* \"#utility.yul\":15831:15833   */\n      0x20\n        /* \"#utility.yul\":15820:15829   */\n      dup3\n        /* \"#utility.yul\":15816:15834   */\n      add\n        /* \"#utility.yul\":15808:15834   */\n      swap1\n      pop\n        /* \"#utility.yul\":15880:15889   */\n      dup2\n        /* \"#utility.yul\":15874:15878   */\n      dup2\n        /* \"#utility.yul\":15870:15890   */\n      sub\n        /* \"#utility.yul\":15866:15867   */\n      0x00\n        /* \"#utility.yul\":15855:15864   */\n      dup4\n        /* \"#utility.yul\":15851:15868   */\n      add\n        /* \"#utility.yul\":15844:15891   */\n      mstore\n        /* \"#utility.yul\":15908:16039   */\n      tag_515\n        /* \"#utility.yul\":16034:16038   */\n      dup2\n        /* \"#utility.yul\":15908:16039   */\n      tag_427\n      jump\t// in\n    tag_515:\n        /* \"#utility.yul\":15900:16039   */\n      swap1\n      pop\n        /* \"#utility.yul\":15627:16046   */\n      swap2\n      swap1\n      pop\n      jump\t// out\n        /* \"#utility.yul\":16052:16471   */\n    tag_219:\n        /* \"#utility.yul\":16218:16222   */\n      0x00\n        /* \"#utility.yul\":16256:16258   */\n      0x20\n        /* \"#utility.yul\":16245:16254   */\n      dup3\n        /* \"#utility.yul\":16241:16259   */\n      add\n        /* \"#utility.yul\":16233:16259   */\n      swap1\n      pop\n        /* \"#utility.yul\":16305:16314   */\n      dup2\n        /* \"#utility.yul\":16299:16303   */\n      dup2\n        /* \"#utility.yul\":16295:16315   */\n      sub\n        /* \"#utility.yul\":16291:16292   */\n      0x00\n        /* \"#utility.yul\":16280:16289   */\n      dup4\n        /* \"#utility.yul\":16276:16293   */\n      add\n        /* \"#utility.yul\":16269:16316   */\n      mstore\n        /* \"#utility.yul\":16333:16464   */\n      tag_517\n        /* \"#utility.yul\":16459:16463   */\n      dup2\n        /* \"#utility.yul\":16333:16464   */\n      tag_432\n      jump\t// in\n    tag_517:\n        /* \"#utility.yul\":16325:16464   */\n      swap1\n      pop\n        /* \"#utility.yul\":16052:16471   */\n      swap2\n      swap1\n      pop\n      jump\t// out\n        /* \"#utility.yul\":16477:16896   */\n    tag_125:\n        /* \"#utility.yul\":16643:16647   */\n      0x00\n        /* \"#utility.yul\":16681:16683   */\n      0x20\n        /* \"#utility.yul\":16670:16679   */\n      dup3\n        /* \"#utility.yul\":16666:16684   */\n      add\n        /* \"#utility.yul\":16658:16684   */\n      swap1\n      pop\n        /* \"#utility.yul\":16730:16739   */\n      dup2\n        /* \"#utility.yul\":16724:16728   */\n      dup2\n        /* \"#utility.yul\":16720:16740   */\n      sub\n        /* \"#utility.yul\":16716:16717   */\n      0x00\n        /* \"#utility.yul\":16705:16714   */\n      dup4\n        /* \"#utility.yul\":16701:16718   */\n      add\n        /* \"#utility.yul\":16694:16741   */\n      mstore\n        /* \"#utility.yul\":16758:16889   */\n      tag_519\n        /* \"#utility.yul\":16884:16888   */\n      dup2\n        /* \"#utility.yul\":16758:16889   */\n      tag_437\n      jump\t// in\n    tag_519:\n        /* \"#utility.yul\":16750:16889   */\n      swap1\n      pop\n        /* \"#utility.yul\":16477:16896   */\n      swap2\n      swap1\n      pop\n      jump\t// out\n        /* \"#utility.yul\":16902:17321   */\n    tag_162:\n        /* \"#utility.yul\":17068:17072   */\n      0x00\n        /* \"#utility.yul\":17106:17108   */\n      0x20\n        /* \"#utility.yul\":17095:17104   */\n      dup3\n        /* \"#utility.yul\":17091:17109   */\n      add\n        /* \"#utility.yul\":17083:17109   */\n      swap1\n      pop\n        /* \"#utility.yul\":17155:17164   */\n      dup2\n        /* \"#utility.yul\":17149:17153   */\n      dup2\n        /* \"#utility.yul\":17145:17165   */\n      sub\n        /* \"#utility.yul\":17141:17142   */\n      0x00\n        /* \"#utility.yul\":17130:17139   */\n      dup4\n        /* \"#utility.yul\":17126:17143   */\n      add\n        /* \"#utility.yul\":17119:17166   */\n      mstore\n        /* \"#utility.yul\":17183:17314   */\n      tag_521\n        /* \"#utility.yul\":17309:17313   */\n      dup2\n        /* \"#utility.yul\":17183:17314   */\n      tag_442\n      jump\t// in\n    tag_521:\n        /* \"#utility.yul\":17175:17314   */\n      swap1\n      pop\n        /* \"#utility.yul\":16902:17321   */\n      swap2\n      swap1\n      pop\n      jump\t// out\n        /* \"#utility.yul\":17327:17746   */\n    tag_216:\n        /* \"#utility.yul\":17493:17497   */\n      0x00\n        /* \"#utility.yul\":17531:17533   */\n      0x20\n        /* \"#utility.yul\":17520:17529   */\n      dup3\n        /* \"#utility.yul\":17516:17534   */\n      add\n        /* \"#utility.yul\":17508:17534   */\n      swap1\n      pop\n        /* \"#utility.yul\":17580:17589   */\n      dup2\n        /* \"#utility.yul\":17574:17578   */\n      dup2\n        /* \"#utility.yul\":17570:17590   */\n      sub\n        /* \"#utility.yul\":17566:17567   */\n      0x00\n        /* \"#utility.yul\":17555:17564   */\n      dup4\n        /* \"#utility.yul\":17551:17568   */\n      add\n        /* \"#utility.yul\":17544:17591   */\n      mstore\n        /* \"#utility.yul\":17608:17739   */\n      tag_523\n        /* \"#utility.yul\":17734:17738   */\n      dup2\n        /* \"#utility.yul\":17608:17739   */\n      tag_447\n      jump\t// in\n    tag_523:\n        /* \"#utility.yul\":17600:17739   */\n      swap1\n      pop\n        /* \"#utility.yul\":17327:17746   */\n      swap2\n      swap1\n      pop\n      jump\t// out\n        /* \"#utility.yul\":17752:18171   */\n    tag_188:\n        /* \"#utility.yul\":17918:17922   */\n      0x00\n        /* \"#utility.yul\":17956:17958   */\n      0x20\n        /* \"#utility.yul\":17945:17954   */\n      dup3\n        /* \"#utility.yul\":17941:17959   */\n      add\n        /* \"#utility.yul\":17933:17959   */\n      swap1\n      pop\n        /* \"#utility.yul\":18005:18014   */\n      dup2\n        /* \"#utility.yul\":17999:18003   */\n      dup2\n        /* \"#utility.yul\":17995:18015   */\n      sub\n        /* \"#utility.yul\":17991:17992   */\n      0x00\n        /* \"#utility.yul\":17980:17989   */\n      dup4\n        /* \"#utility.yul\":17976:17993   */\n      add\n        /* \"#utility.yul\":17969:18016   */\n      mstore\n        /* \"#utility.yul\":18033:18164   */\n      tag_525\n        /* \"#utility.yul\":18159:18163   */\n      dup2\n        /* \"#utility.yul\":18033:18164   */\n      tag_452\n      jump\t// in\n    tag_525:\n        /* \"#utility.yul\":18025:18164   */\n      swap1\n      pop\n        /* \"#utility.yul\":17752:18171   */\n      swap2\n      swap1\n      pop\n      jump\t// out\n        /* \"#utility.yul\":18177:18596   */\n    tag_173:\n        /* \"#utility.yul\":18343:18347   */\n      0x00\n        /* \"#utility.yul\":18381:18383   */\n      0x20\n        /* \"#utility.yul\":18370:18379   */\n      dup3\n        /* \"#utility.yul\":18366:18384   */\n      add\n        /* \"#utility.yul\":18358:18384   */\n      swap1\n      pop\n        /* \"#utility.yul\":18430:18439   */\n      dup2\n        /* \"#utility.yul\":18424:18428   */\n      dup2\n        /* \"#utility.yul\":18420:18440   */\n      sub\n        /* \"#utility.yul\":18416:18417   */\n      0x00\n        /* \"#utility.yul\":18405:18414   */\n      dup4\n        /* \"#utility.yul\":18401:18418   */\n      add\n        /* \"#utility.yul\":18394:18441   */\n      mstore\n        /* \"#utility.yul\":18458:18589   */\n      tag_527\n        /* \"#utility.yul\":18584:18588   */\n      dup2\n        /* \"#utility.yul\":18458:18589   */\n      tag_457\n      jump\t// in\n    tag_527:\n        /* \"#utility.yul\":18450:18589   */\n      swap1\n      pop\n        /* \"#utility.yul\":18177:18596   */\n      swap2\n      swap1\n      pop\n      jump\t// out\n        /* \"#utility.yul\":18602:19021   */\n    tag_213:\n        /* \"#utility.yul\":18768:18772   */\n      0x00\n        /* \"#utility.yul\":18806:18808   */\n      0x20\n        /* \"#utility.yul\":18795:18804   */\n      dup3\n        /* \"#utility.yul\":18791:18809   */\n      add\n        /* \"#utility.yul\":18783:18809   */\n      swap1\n      pop\n        /* \"#utility.yul\":18855:18864   */\n      dup2\n        /* \"#utility.yul\":18849:18853   */\n      dup2\n        /* \"#utility.yul\":18845:18865   */\n      sub\n        /* \"#utility.yul\":18841:18842   */\n      0x00\n        /* \"#utility.yul\":18830:18839   */\n      dup4\n        /* \"#utility.yul\":18826:18843   */\n      add\n        /* \"#utility.yul\":18819:18866   */\n      mstore\n        /* \"#utility.yul\":18883:19014   */\n      tag_529\n        /* \"#utility.yul\":19009:19013   */\n      dup2\n        /* \"#utility.yul\":18883:19014   */\n      tag_462\n      jump\t// in\n    tag_529:\n        /* \"#utility.yul\":18875:19014   */\n      swap1\n      pop\n        /* \"#utility.yul\":18602:19021   */\n      swap2\n      swap1\n      pop\n      jump\t// out\n        /* \"#utility.yul\":19027:19446   */\n    tag_117:\n        /* \"#utility.yul\":19193:19197   */\n      0x00\n        /* \"#utility.yul\":19231:19233   */\n      0x20\n        /* \"#utility.yul\":19220:19229   */\n      dup3\n        /* \"#utility.yul\":19216:19234   */\n      add\n        /* \"#utility.yul\":19208:19234   */\n      swap1\n      pop\n        /* \"#utility.yul\":19280:19289   */\n      dup2\n        /* \"#utility.yul\":19274:19278   */\n      dup2\n        /* \"#utility.yul\":19270:19290   */\n      sub\n        /* \"#utility.yul\":19266:19267   */\n      0x00\n        /* \"#utility.yul\":19255:19264   */\n      dup4\n        /* \"#utility.yul\":19251:19268   */\n      add\n        /* \"#utility.yul\":19244:19291   */\n      mstore\n        /* \"#utility.yul\":19308:19439   */\n      tag_531\n        /* \"#utility.yul\":19434:19438   */\n      dup2\n        /* \"#utility.yul\":19308:19439   */\n      tag_467\n      jump\t// in\n    tag_531:\n        /* \"#utility.yul\":19300:19439   */\n      swap1\n      pop\n        /* \"#utility.yul\":19027:19446   */\n      swap2\n      swap1\n      pop\n      jump\t// out\n        /* \"#utility.yul\":19452:19871   */\n    tag_183:\n        /* \"#utility.yul\":19618:19622   */\n      0x00\n        /* \"#utility.yul\":19656:19658   */\n      0x20\n        /* \"#utility.yul\":19645:19654   */\n      dup3\n        /* \"#utility.yul\":19641:19659   */\n      add\n        /* \"#utility.yul\":19633:19659   */\n      swap1\n      pop\n        /* \"#utility.yul\":19705:19714   */\n      dup2\n        /* \"#utility.yul\":19699:19703   */\n      dup2\n        /* \"#utility.yul\":19695:19715   */\n      sub\n        /* \"#utility.yul\":19691:19692   */\n      0x00\n        /* \"#utility.yul\":19680:19689   */\n      dup4\n        /* \"#utility.yul\":19676:19693   */\n      add\n        /* \"#utility.yul\":19669:19716   */\n      mstore\n        /* \"#utility.yul\":19733:19864   */\n      tag_533\n        /* \"#utility.yul\":19859:19863   */\n      dup2\n        /* \"#utility.yul\":19733:19864   */\n      tag_472\n      jump\t// in\n    tag_533:\n        /* \"#utility.yul\":19725:19864   */\n      swap1\n      pop\n        /* \"#utility.yul\":19452:19871   */\n      swap2\n      swap1\n      pop\n      jump\t// out\n        /* \"#utility.yul\":19877:20296   */\n    tag_148:\n        /* \"#utility.yul\":20043:20047   */\n      0x00\n        /* \"#utility.yul\":20081:20083   */\n      0x20\n        /* \"#utility.yul\":20070:20079   */\n      dup3\n        /* \"#utility.yul\":20066:20084   */\n      add\n        /* \"#utility.yul\":20058:20084   */\n      swap1\n      pop\n        /* \"#utility.yul\":20130:20139   */\n      dup2\n        /* \"#utility.yul\":20124:20128   */\n      dup2\n        /* \"#utility.yul\":20120:20140   */\n      sub\n        /* \"#utility.yul\":20116:20117   */\n      0x00\n        /* \"#utility.yul\":20105:20114   */\n      dup4\n        /* \"#utility.yul\":20101:20118   */\n      add\n        /* \"#utility.yul\":20094:20141   */\n      mstore\n        /* \"#utility.yul\":20158:20289   */\n      tag_535\n        /* \"#utility.yul\":20284:20288   */\n      dup2\n        /* \"#utility.yul\":20158:20289   */\n      tag_477\n      jump\t// in\n    tag_535:\n        /* \"#utility.yul\":20150:20289   */\n      swap1\n      pop\n        /* \"#utility.yul\":19877:20296   */\n      swap2\n      swap1\n      pop\n      jump\t// out\n        /* \"#utility.yul\":20302:20721   */\n    tag_252:\n        /* \"#utility.yul\":20468:20472   */\n      0x00\n        /* \"#utility.yul\":20506:20508   */\n      0x20\n        /* \"#utility.yul\":20495:20504   */\n      dup3\n        /* \"#utility.yul\":20491:20509   */\n      add\n        /* \"#utility.yul\":20483:20509   */\n      swap1\n      pop\n        /* \"#utility.yul\":20555:20564   */\n      dup2\n        /* \"#utility.yul\":20549:20553   */\n      dup2\n        /* \"#utility.yul\":20545:20565   */\n      sub\n        /* \"#utility.yul\":20541:20542   */\n      0x00\n        /* \"#utility.yul\":20530:20539   */\n      dup4\n        /* \"#utility.yul\":20526:20543   */\n      add\n        /* \"#utility.yul\":20519:20566   */\n      mstore\n        /* \"#utility.yul\":20583:20714   */\n      tag_537\n        /* \"#utility.yul\":20709:20713   */\n      dup2\n        /* \"#utility.yul\":20583:20714   */\n      tag_482\n      jump\t// in\n    tag_537:\n        /* \"#utility.yul\":20575:20714   */\n      swap1\n      pop\n        /* \"#utility.yul\":20302:20721   */\n      swap2\n      swap1\n      pop\n      jump\t// out\n        /* \"#utility.yul\":20727:21146   */\n    tag_112:\n        /* \"#utility.yul\":20893:20897   */\n      0x00\n        /* \"#utility.yul\":20931:20933   */\n      0x20\n        /* \"#utility.yul\":20920:20929   */\n      dup3\n        /* \"#utility.yul\":20916:20934   */\n      add\n        /* \"#utility.yul\":20908:20934   */\n      swap1\n      pop\n        /* \"#utility.yul\":20980:20989   */\n      dup2\n        /* \"#utility.yul\":20974:20978   */\n      dup2\n        /* \"#utility.yul\":20970:20990   */\n      sub\n        /* \"#utility.yul\":20966:20967   */\n      0x00\n        /* \"#utility.yul\":20955:20964   */\n      dup4\n        /* \"#utility.yul\":20951:20968   */\n      add\n        /* \"#utility.yul\":20944:20991   */\n      mstore\n        /* \"#utility.yul\":21008:21139   */\n      tag_539\n        /* \"#utility.yul\":21134:21138   */\n      dup2\n        /* \"#utility.yul\":21008:21139   */\n      tag_487\n      jump\t// in\n    tag_539:\n        /* \"#utility.yul\":21000:21139   */\n      swap1\n      pop\n        /* \"#utility.yul\":20727:21146   */\n      swap2\n      swap1\n      pop\n      jump\t// out\n        /* \"#utility.yul\":21152:21374   */\n    tag_46:\n        /* \"#utility.yul\":21245:21249   */\n      0x00\n        /* \"#utility.yul\":21283:21285   */\n      0x20\n        /* \"#utility.yul\":21272:21281   */\n      dup3\n        /* \"#utility.yul\":21268:21286   */\n      add\n        /* \"#utility.yul\":21260:21286   */\n      swap1\n      pop\n        /* \"#utility.yul\":21296:21367   */\n      tag_541\n        /* \"#utility.yul\":21364:21365   */\n      0x00\n        /* \"#utility.yul\":21353:21362   */\n      dup4\n        /* \"#utility.yul\":21349:21366   */\n      add\n        /* \"#utility.yul\":21340:21346   */\n      dup5\n        /* \"#utility.yul\":21296:21367   */\n      tag_492\n      jump\t// in\n    tag_541:\n        /* \"#utility.yul\":21152:21374   */\n      swap3\n      swap2\n      pop\n      pop\n      jump\t// out\n        /* \"#utility.yul\":21380:21509   */\n    tag_306:\n        /* \"#utility.yul\":21414:21420   */\n      0x00\n        /* \"#utility.yul\":21441:21461   */\n      tag_543\n      tag_544\n      jump\t// in\n    tag_543:\n        /* \"#utility.yul\":21431:21461   */\n      swap1\n      pop\n        /* \"#utility.yul\":21470:21503   */\n      tag_545\n        /* \"#utility.yul\":21498:21502   */\n      dup3\n        /* \"#utility.yul\":21490:21496   */\n      dup3\n        /* \"#utility.yul\":21470:21503   */\n      tag_546\n      jump\t// in\n    tag_545:\n        /* \"#utility.yul\":21380:21509   */\n      swap2\n      swap1\n      pop\n      jump\t// out\n        /* \"#utility.yul\":21515:21590   */\n    tag_544:\n        /* \"#utility.yul\":21548:21554   */\n      0x00\n        /* \"#utility.yul\":21581:21583   */\n      0x40\n        /* \"#utility.yul\":21575:21584   */\n      mload\n        /* \"#utility.yul\":21565:21584   */\n      swap1\n      pop\n        /* \"#utility.yul\":21515:21590   */\n      swap1\n      jump\t// out\n        /* \"#utility.yul\":21596:21903   */\n    tag_305:\n        /* \"#utility.yul\":21657:21661   */\n      0x00\n        /* \"#utility.yul\":21747:21765   */\n      0xffffffffffffffff\n        /* \"#utility.yul\":21739:21745   */\n      dup3\n        /* \"#utility.yul\":21736:21766   */\n      gt\n        /* \"#utility.yul\":21733:21789   */\n      iszero\n      tag_549\n      jumpi\n        /* \"#utility.yul\":21769:21787   */\n      tag_550\n      tag_285\n      jump\t// in\n    tag_550:\n        /* \"#utility.yul\":21733:21789   */\n    tag_549:\n        /* \"#utility.yul\":21807:21836   */\n      tag_551\n        /* \"#utility.yul\":21829:21835   */\n      dup3\n        /* \"#utility.yul\":21807:21836   */\n      tag_402\n      jump\t// in\n    tag_551:\n        /* \"#utility.yul\":21799:21836   */\n      swap1\n      pop\n        /* \"#utility.yul\":21891:21895   */\n      0x20\n        /* \"#utility.yul\":21885:21889   */\n      dup2\n        /* \"#utility.yul\":21881:21896   */\n      add\n        /* \"#utility.yul\":21873:21896   */\n      swap1\n      pop\n        /* \"#utility.yul\":21596:21903   */\n      swap2\n      swap1\n      pop\n      jump\t// out\n        /* \"#utility.yul\":21909:22007   */\n    tag_396:\n        /* \"#utility.yul\":21960:21966   */\n      0x00\n        /* \"#utility.yul\":21994:21999   */\n      dup2\n        /* \"#utility.yul\":21988:22000   */\n      mload\n        /* \"#utility.yul\":21978:22000   */\n      swap1\n      pop\n        /* \"#utility.yul\":21909:22007   */\n      swap2\n      swap1\n      pop\n      jump\t// out\n        /* \"#utility.yul\":22013:22112   */\n    tag_406:\n        /* \"#utility.yul\":22065:22071   */\n      0x00\n        /* \"#utility.yul\":22099:22104   */\n      dup2\n        /* \"#utility.yul\":22093:22105   */\n      mload\n        /* \"#utility.yul\":22083:22105   */\n      swap1\n      pop\n        /* \"#utility.yul\":22013:22112   */\n      swap2\n      swap1\n      pop\n      jump\t// out\n        /* \"#utility.yul\":22118:22286   */\n    tag_398:\n        /* \"#utility.yul\":22201:22212   */\n      0x00\n        /* \"#utility.yul\":22235:22241   */\n      dup3\n        /* \"#utility.yul\":22230:22233   */\n      dup3\n        /* \"#utility.yul\":22223:22242   */\n      mstore\n        /* \"#utility.yul\":22275:22279   */\n      0x20\n        /* \"#utility.yul\":22270:22273   */\n      dup3\n        /* \"#utility.yul\":22266:22280   */\n      add\n        /* \"#utility.yul\":22251:22280   */\n      swap1\n      pop\n        /* \"#utility.yul\":22118:22286   */\n      swap3\n      swap2\n      pop\n      pop\n      jump\t// out\n        /* \"#utility.yul\":22292:22461   */\n    tag_408:\n        /* \"#utility.yul\":22376:22387   */\n      0x00\n        /* \"#utility.yul\":22410:22416   */\n      dup3\n        /* \"#utility.yul\":22405:22408   */\n      dup3\n        /* \"#utility.yul\":22398:22417   */\n      mstore\n        /* \"#utility.yul\":22450:22454   */\n      0x20\n        /* \"#utility.yul\":22445:22448   */\n      dup3\n        /* \"#utility.yul\":22441:22455   */\n      add\n        /* \"#utility.yul\":22426:22455   */\n      swap1\n      pop\n        /* \"#utility.yul\":22292:22461   */\n      swap3\n      swap2\n      pop\n      pop\n      jump\t// out\n        /* \"#utility.yul\":22467:22615   */\n    tag_415:\n        /* \"#utility.yul\":22569:22580   */\n      0x00\n        /* \"#utility.yul\":22606:22609   */\n      dup2\n        /* \"#utility.yul\":22591:22609   */\n      swap1\n      pop\n        /* \"#utility.yul\":22467:22615   */\n      swap3\n      swap2\n      pop\n      pop\n      jump\t// out\n        /* \"#utility.yul\":22621:22894   */\n    tag_226:\n        /* \"#utility.yul\":22661:22664   */\n      0x00\n        /* \"#utility.yul\":22680:22700   */\n      tag_558\n        /* \"#utility.yul\":22698:22699   */\n      dup3\n        /* \"#utility.yul\":22680:22700   */\n      tag_559\n      jump\t// in\n    tag_558:\n        /* \"#utility.yul\":22675:22700   */\n      swap2\n      pop\n        /* \"#utility.yul\":22714:22734   */\n      tag_560\n        /* \"#utility.yul\":22732:22733   */\n      dup4\n        /* \"#utility.yul\":22714:22734   */\n      tag_559\n      jump\t// in\n    tag_560:\n        /* \"#utility.yul\":22709:22734   */\n      swap3\n      pop\n        /* \"#utility.yul\":22836:22837   */\n      dup3\n        /* \"#utility.yul\":22800:22834   */\n      0xffffffffffffffffffffffffffffffff\n        /* \"#utility.yul\":22796:22838   */\n      sub\n        /* \"#utility.yul\":22793:22794   */\n      dup3\n        /* \"#utility.yul\":22790:22839   */\n      gt\n        /* \"#utility.yul\":22787:22862   */\n      iszero\n      tag_561\n      jumpi\n        /* \"#utility.yul\":22842:22860   */\n      tag_562\n      tag_563\n      jump\t// in\n    tag_562:\n        /* \"#utility.yul\":22787:22862   */\n    tag_561:\n        /* \"#utility.yul\":22886:22887   */\n      dup3\n        /* \"#utility.yul\":22883:22884   */\n      dup3\n        /* \"#utility.yul\":22879:22888   */\n      add\n        /* \"#utility.yul\":22872:22888   */\n      swap1\n      pop\n        /* \"#utility.yul\":22621:22894   */\n      swap3\n      swap2\n      pop\n      pop\n      jump\t// out\n        /* \"#utility.yul\":22900:23205   */\n    tag_228:\n        /* \"#utility.yul\":22940:22943   */\n      0x00\n        /* \"#utility.yul\":22959:22979   */\n      tag_565\n        /* \"#utility.yul\":22977:22978   */\n      dup3\n        /* \"#utility.yul\":22959:22979   */\n      tag_495\n      jump\t// in\n    tag_565:\n        /* \"#utility.yul\":22954:22979   */\n      swap2\n      pop\n        /* \"#utility.yul\":22993:23013   */\n      tag_566\n        /* \"#utility.yul\":23011:23012   */\n      dup4\n        /* \"#utility.yul\":22993:23013   */\n      tag_495\n      jump\t// in\n    tag_566:\n        /* \"#utility.yul\":22988:23013   */\n      swap3\n      pop\n        /* \"#utility.yul\":23147:23148   */\n      dup3\n        /* \"#utility.yul\":23079:23145   */\n      0xffffffffffffffffffffffffffffffffffffffffffffffffffffffffffffffff\n        /* \"#utility.yul\":23075:23149   */\n      sub\n        /* \"#utility.yul\":23072:23073   */\n      dup3\n        /* \"#utility.yul\":23069:23150   */\n      gt\n        /* \"#utility.yul\":23066:23173   */\n      iszero\n      tag_567\n      jumpi\n        /* \"#utility.yul\":23153:23171   */\n      tag_568\n      tag_563\n      jump\t// in\n    tag_568:\n        /* \"#utility.yul\":23066:23173   */\n    tag_567:\n        /* \"#utility.yul\":23197:23198   */\n      dup3\n        /* \"#utility.yul\":23194:23195   */\n      dup3\n        /* \"#utility.yul\":23190:23199   */\n      add\n        /* \"#utility.yul\":23183:23199   */\n      swap1\n      pop\n        /* \"#utility.yul\":22900:23205   */\n      swap3\n      swap2\n      pop\n      pop\n      jump\t// out\n        /* \"#utility.yul\":23211:23396   */\n    tag_282:\n        /* \"#utility.yul\":23251:23252   */\n      0x00\n        /* \"#utility.yul\":23268:23288   */\n      tag_570\n        /* \"#utility.yul\":23286:23287   */\n      dup3\n        /* \"#utility.yul\":23268:23288   */\n      tag_495\n      jump\t// in\n    tag_570:\n        /* \"#utility.yul\":23263:23288   */\n      swap2\n      pop\n        /* \"#utility.yul\":23302:23322   */\n      tag_571\n        /* \"#utility.yul\":23320:23321   */\n      dup4\n        /* \"#utility.yul\":23302:23322   */\n      tag_495\n      jump\t// in\n    tag_571:\n        /* \"#utility.yul\":23297:23322   */\n      swap3\n      pop\n        /* \"#utility.yul\":23341:23342   */\n      dup3\n        /* \"#utility.yul\":23331:23366   */\n      tag_572\n      jumpi\n        /* \"#utility.yul\":23346:23364   */\n      tag_573\n      tag_574\n      jump\t// in\n    tag_573:\n        /* \"#utility.yul\":23331:23366   */\n    tag_572:\n        /* \"#utility.yul\":23388:23389   */\n      dup3\n        /* \"#utility.yul\":23385:23386   */\n      dup3\n        /* \"#utility.yul\":23381:23390   */\n      div\n        /* \"#utility.yul\":23376:23390   */\n      swap1\n      pop\n        /* \"#utility.yul\":23211:23396   */\n      swap3\n      swap2\n      pop\n      pop\n      jump\t// out\n        /* \"#utility.yul\":23402:23593   */\n    tag_224:\n        /* \"#utility.yul\":23442:23446   */\n      0x00\n        /* \"#utility.yul\":23462:23482   */\n      tag_576\n        /* \"#utility.yul\":23480:23481   */\n      dup3\n        /* \"#utility.yul\":23462:23482   */\n      tag_559\n      jump\t// in\n    tag_576:\n        /* \"#utility.yul\":23457:23482   */\n      swap2\n      pop\n        /* \"#utility.yul\":23496:23516   */\n      tag_577\n        /* \"#utility.yul\":23514:23515   */\n      dup4\n        /* \"#utility.yul\":23496:23516   */\n      tag_559\n      jump\t// in\n    tag_577:\n        /* \"#utility.yul\":23491:23516   */\n      swap3\n      pop\n        /* \"#utility.yul\":23535:23536   */\n      dup3\n        /* \"#utility.yul\":23532:23533   */\n      dup3\n        /* \"#utility.yul\":23529:23537   */\n      lt\n        /* \"#utility.yul\":23526:23560   */\n      iszero\n      tag_578\n      jumpi\n        /* \"#utility.yul\":23540:23558   */\n      tag_579\n      tag_563\n      jump\t// in\n    tag_579:\n        /* \"#utility.yul\":23526:23560   */\n    tag_578:\n        /* \"#utility.yul\":23585:23586   */\n      dup3\n        /* \"#utility.yul\":23582:23583   */\n      dup3\n        /* \"#utility.yul\":23578:23587   */\n      sub\n        /* \"#utility.yul\":23570:23587   */\n      swap1\n      pop\n        /* \"#utility.yul\":23402:23593   */\n      swap3\n      swap2\n      pop\n      pop\n      jump\t// out\n        /* \"#utility.yul\":23599:23790   */\n    tag_243:\n        /* \"#utility.yul\":23639:23643   */\n      0x00\n        /* \"#utility.yul\":23659:23679   */\n      tag_581\n        /* \"#utility.yul\":23677:23678   */\n      dup3\n        /* \"#utility.yul\":23659:23679   */\n      tag_495\n      jump\t// in\n    tag_581:\n        /* \"#utility.yul\":23654:23679   */\n      swap2\n      pop\n        /* \"#utility.yul\":23693:23713   */\n      tag_582\n        /* \"#utility.yul\":23711:23712   */\n      dup4\n        /* \"#utility.yul\":23693:23713   */\n      tag_495\n      jump\t// in\n    tag_582:\n        /* \"#utility.yul\":23688:23713   */\n      swap3\n      pop\n        /* \"#utility.yul\":23732:23733   */\n      dup3\n        /* \"#utility.yul\":23729:23730   */\n      dup3\n        /* \"#utility.yul\":23726:23734   */\n      lt\n        /* \"#utility.yul\":23723:23757   */\n      iszero\n      tag_583\n      jumpi\n        /* \"#utility.yul\":23737:23755   */\n      tag_584\n      tag_563\n      jump\t// in\n    tag_584:\n        /* \"#utility.yul\":23723:23757   */\n    tag_583:\n        /* \"#utility.yul\":23782:23783   */\n      dup3\n        /* \"#utility.yul\":23779:23780   */\n      dup3\n        /* \"#utility.yul\":23775:23784   */\n      sub\n        /* \"#utility.yul\":23767:23784   */\n      swap1\n      pop\n        /* \"#utility.yul\":23599:23790   */\n      swap3\n      swap2\n      pop\n      pop\n      jump\t// out\n        /* \"#utility.yul\":23796:23892   */\n    tag_388:\n        /* \"#utility.yul\":23833:23840   */\n      0x00\n        /* \"#utility.yul\":23862:23886   */\n      tag_586\n        /* \"#utility.yul\":23880:23885   */\n      dup3\n        /* \"#utility.yul\":23862:23886   */\n      tag_587\n      jump\t// in\n    tag_586:\n        /* \"#utility.yul\":23851:23886   */\n      swap1\n      pop\n        /* \"#utility.yul\":23796:23892   */\n      swap2\n      swap1\n      pop\n      jump\t// out\n        /* \"#utility.yul\":23898:23988   */\n    tag_392:\n        /* \"#utility.yul\":23932:23939   */\n      0x00\n        /* \"#utility.yul\":23975:23980   */\n      dup2\n        /* \"#utility.yul\":23968:23981   */\n      iszero\n        /* \"#utility.yul\":23961:23982   */\n      iszero\n        /* \"#utility.yul\":23950:23982   */\n      swap1\n      pop\n        /* \"#utility.yul\":23898:23988   */\n      swap2\n      swap1\n      pop\n      jump\t// out\n        /* \"#utility.yul\":23994:24143   */\n    tag_589:\n        /* \"#utility.yul\":24030:24037   */\n      0x00\n        /* \"#utility.yul\":24070:24136   */\n      0xffffffff00000000000000000000000000000000000000000000000000000000\n        /* \"#utility.yul\":24063:24068   */\n      dup3\n        /* \"#utility.yul\":24059:24137   */\n      and\n        /* \"#utility.yul\":24048:24137   */\n      swap1\n      pop\n        /* \"#utility.yul\":23994:24143   */\n      swap2\n      swap1\n      pop\n      jump\t// out\n        /* \"#utility.yul\":24149:24267   */\n    tag_559:\n        /* \"#utility.yul\":24186:24193   */\n      0x00\n        /* \"#utility.yul\":24226:24260   */\n      0xffffffffffffffffffffffffffffffff\n        /* \"#utility.yul\":24219:24224   */\n      dup3\n        /* \"#utility.yul\":24215:24261   */\n      and\n        /* \"#utility.yul\":24204:24261   */\n      swap1\n      pop\n        /* \"#utility.yul\":24149:24267   */\n      swap2\n      swap1\n      pop\n      jump\t// out\n        /* \"#utility.yul\":24273:24399   */\n    tag_587:\n        /* \"#utility.yul\":24310:24317   */\n      0x00\n        /* \"#utility.yul\":24350:24392   */\n      0xffffffffffffffffffffffffffffffffffffffff\n        /* \"#utility.yul\":24343:24348   */\n      dup3\n        /* \"#utility.yul\":24339:24393   */\n      and\n        /* \"#utility.yul\":24328:24393   */\n      swap1\n      pop\n        /* \"#utility.yul\":24273:24399   */\n      swap2\n      swap1\n      pop\n      jump\t// out\n        /* \"#utility.yul\":24405:24482   */\n    tag_495:\n        /* \"#utility.yul\":24442:24449   */\n      0x00\n        /* \"#utility.yul\":24471:24476   */\n      dup2\n        /* \"#utility.yul\":24460:24476   */\n      swap1\n      pop\n        /* \"#utility.yul\":24405:24482   */\n      swap2\n      swap1\n      pop\n      jump\t// out\n        /* \"#utility.yul\":24488:24642   */\n    tag_311:\n        /* \"#utility.yul\":24572:24578   */\n      dup3\n        /* \"#utility.yul\":24567:24570   */\n      dup2\n        /* \"#utility.yul\":24562:24565   */\n      dup4\n        /* \"#utility.yul\":24549:24579   */\n      calldatacopy\n        /* \"#utility.yul\":24634:24635   */\n      0x00\n        /* \"#utility.yul\":24625:24631   */\n      dup4\n        /* \"#utility.yul\":24620:24623   */\n      dup4\n        /* \"#utility.yul\":24616:24632   */\n      add\n        /* \"#utility.yul\":24609:24636   */\n      mstore\n        /* \"#utility.yul\":24488:24642   */\n      pop\n      pop\n      pop\n      jump\t// out\n        /* \"#utility.yul\":24648:24955   */\n    tag_400:\n        /* \"#utility.yul\":24716:24717   */\n      0x00\n        /* \"#utility.yul\":24726:24839   */\n    tag_596:\n        /* \"#utility.yul\":24740:24746   */\n      dup4\n        /* \"#utility.yul\":24737:24738   */\n      dup2\n        /* \"#utility.yul\":24734:24747   */\n      lt\n        /* \"#utility.yul\":24726:24839   */\n      iszero\n      tag_598\n      jumpi\n        /* \"#utility.yul\":24825:24826   */\n      dup1\n        /* \"#utility.yul\":24820:24823   */\n      dup3\n        /* \"#utility.yul\":24816:24827   */\n      add\n        /* \"#utility.yul\":24810:24828   */\n      mload\n        /* \"#utility.yul\":24806:24807   */\n      dup2\n        /* \"#utility.yul\":24801:24804   */\n      dup5\n        /* \"#utility.yul\":24797:24808   */\n      add\n        /* \"#utility.yul\":24790:24829   */\n      mstore\n        /* \"#utility.yul\":24762:24764   */\n      0x20\n        /* \"#utility.yul\":24759:24760   */\n      dup2\n        /* \"#utility.yul\":24755:24765   */\n      add\n        /* \"#utility.yul\":24750:24765   */\n      swap1\n      pop\n        /* \"#utility.yul\":24726:24839   */\n      jump(tag_596)\n    tag_598:\n        /* \"#utility.yul\":24857:24863   */\n      dup4\n        /* \"#utility.yul\":24854:24855   */\n      dup2\n        /* \"#utility.yul\":24851:24864   */\n      gt\n        /* \"#utility.yul\":24848:24949   */\n      iszero\n      tag_599\n      jumpi\n        /* \"#utility.yul\":24937:24938   */\n      0x00\n        /* \"#utility.yul\":24928:24934   */\n      dup5\n        /* \"#utility.yul\":24923:24926   */\n      dup5\n        /* \"#utility.yul\":24919:24935   */\n      add\n        /* \"#utility.yul\":24912:24939   */\n      mstore\n        /* \"#utility.yul\":24848:24949   */\n    tag_599:\n        /* \"#utility.yul\":24697:24955   */\n      pop\n        /* \"#utility.yul\":24648:24955   */\n      pop\n      pop\n      pop\n      jump\t// out\n        /* \"#utility.yul\":24961:25132   */\n    tag_250:\n        /* \"#utility.yul\":25000:25003   */\n      0x00\n        /* \"#utility.yul\":25023:25047   */\n      tag_601\n        /* \"#utility.yul\":25041:25046   */\n      dup3\n        /* \"#utility.yul\":25023:25047   */\n      tag_495\n      jump\t// in\n    tag_601:\n        /* \"#utility.yul\":25014:25047   */\n      swap2\n      pop\n        /* \"#utility.yul\":25069:25073   */\n      0x00\n        /* \"#utility.yul\":25062:25067   */\n      dup3\n        /* \"#utility.yul\":25059:25074   */\n      eq\n        /* \"#utility.yul\":25056:25097   */\n      iszero\n      tag_602\n      jumpi\n        /* \"#utility.yul\":25077:25095   */\n      tag_603\n      tag_563\n      jump\t// in\n    tag_603:\n        /* \"#utility.yul\":25056:25097   */\n    tag_602:\n        /* \"#utility.yul\":25124:25125   */\n      0x01\n        /* \"#utility.yul\":25117:25122   */\n      dup3\n        /* \"#utility.yul\":25113:25126   */\n      sub\n        /* \"#utility.yul\":25106:25126   */\n      swap1\n      pop\n        /* \"#utility.yul\":24961:25132   */\n      swap2\n      swap1\n      pop\n      jump\t// out\n        /* \"#utility.yul\":25138:25458   */\n    tag_102:\n        /* \"#utility.yul\":25182:25188   */\n      0x00\n        /* \"#utility.yul\":25219:25220   */\n      0x02\n        /* \"#utility.yul\":25213:25217   */\n      dup3\n        /* \"#utility.yul\":25209:25221   */\n      div\n        /* \"#utility.yul\":25199:25221   */\n      swap1\n      pop\n        /* \"#utility.yul\":25266:25267   */\n      0x01\n        /* \"#utility.yul\":25260:25264   */\n      dup3\n        /* \"#utility.yul\":25256:25268   */\n      and\n        /* \"#utility.yul\":25287:25305   */\n      dup1\n        /* \"#utility.yul\":25277:25358   */\n      tag_605\n      jumpi\n        /* \"#utility.yul\":25343:25347   */\n      0x7f\n        /* \"#utility.yul\":25335:25341   */\n      dup3\n        /* \"#utility.yul\":25331:25348   */\n      and\n        /* \"#utility.yul\":25321:25348   */\n      swap2\n      pop\n        /* \"#utility.yul\":25277:25358   */\n    tag_605:\n        /* \"#utility.yul\":25405:25407   */\n      0x20\n        /* \"#utility.yul\":25397:25403   */\n      dup3\n        /* \"#utility.yul\":25394:25408   */\n      lt\n        /* \"#utility.yul\":25374:25392   */\n      dup2\n        /* \"#utility.yul\":25371:25409   */\n      eq\n        /* \"#utility.yul\":25368:25452   */\n      iszero\n      tag_606\n      jumpi\n        /* \"#utility.yul\":25424:25442   */\n      tag_607\n      tag_608\n      jump\t// in\n    tag_607:\n        /* \"#utility.yul\":25368:25452   */\n    tag_606:\n        /* \"#utility.yul\":25189:25458   */\n      pop\n        /* \"#utility.yul\":25138:25458   */\n      swap2\n      swap1\n      pop\n      jump\t// out\n        /* \"#utility.yul\":25464:25745   */\n    tag_546:\n        /* \"#utility.yul\":25547:25574   */\n      tag_610\n        /* \"#utility.yul\":25569:25573   */\n      dup3\n        /* \"#utility.yul\":25547:25574   */\n      tag_402\n      jump\t// in\n    tag_610:\n        /* \"#utility.yul\":25539:25545   */\n      dup2\n        /* \"#utility.yul\":25535:25575   */\n      add\n        /* \"#utility.yul\":25677:25683   */\n      dup2\n        /* \"#utility.yul\":25665:25675   */\n      dup2\n        /* \"#utility.yul\":25662:25684   */\n      lt\n        /* \"#utility.yul\":25641:25659   */\n      0xffffffffffffffff\n        /* \"#utility.yul\":25629:25639   */\n      dup3\n        /* \"#utility.yul\":25626:25660   */\n      gt\n        /* \"#utility.yul\":25623:25685   */\n      or\n        /* \"#utility.yul\":25620:25708   */\n      iszero\n      tag_611\n      jumpi\n        /* \"#utility.yul\":25688:25706   */\n      tag_612\n      tag_285\n      jump\t// in\n    tag_612:\n        /* \"#utility.yul\":25620:25708   */\n    tag_611:\n        /* \"#utility.yul\":25728:25738   */\n      dup1\n        /* \"#utility.yul\":25724:25726   */\n      0x40\n        /* \"#utility.yul\":25717:25739   */\n      mstore\n        /* \"#utility.yul\":25507:25745   */\n      pop\n        /* \"#utility.yul\":25464:25745   */\n      pop\n      pop\n      jump\t// out\n        /* \"#utility.yul\":25751:25984   */\n    tag_145:\n        /* \"#utility.yul\":25790:25793   */\n      0x00\n        /* \"#utility.yul\":25813:25837   */\n      tag_614\n        /* \"#utility.yul\":25831:25836   */\n      dup3\n        /* \"#utility.yul\":25813:25837   */\n      tag_495\n      jump\t// in\n    tag_614:\n        /* \"#utility.yul\":25804:25837   */\n      swap2\n      pop\n        /* \"#utility.yul\":25859:25925   */\n      0xffffffffffffffffffffffffffffffffffffffffffffffffffffffffffffffff\n        /* \"#utility.yul\":25852:25857   */\n      dup3\n        /* \"#utility.yul\":25849:25926   */\n      eq\n        /* \"#utility.yul\":25846:25949   */\n      iszero\n      tag_615\n      jumpi\n        /* \"#utility.yul\":25929:25947   */\n      tag_616\n      tag_563\n      jump\t// in\n    tag_616:\n        /* \"#utility.yul\":25846:25949   */\n    tag_615:\n        /* \"#utility.yul\":25976:25977   */\n      0x01\n        /* \"#utility.yul\":25969:25974   */\n      dup3\n        /* \"#utility.yul\":25965:25978   */\n      add\n        /* \"#utility.yul\":25958:25978   */\n      swap1\n      pop\n        /* \"#utility.yul\":25751:25984   */\n      swap2\n      swap1\n      pop\n      jump\t// out\n        /* \"#utility.yul\":25990:26166   */\n    tag_291:\n        /* \"#utility.yul\":26022:26023   */\n      0x00\n        /* \"#utility.yul\":26039:26059   */\n      tag_618\n        /* \"#utility.yul\":26057:26058   */\n      dup3\n        /* \"#utility.yul\":26039:26059   */\n      tag_495\n      jump\t// in\n    tag_618:\n        /* \"#utility.yul\":26034:26059   */\n      swap2\n      pop\n        /* \"#utility.yul\":26073:26093   */\n      tag_619\n        /* \"#utility.yul\":26091:26092   */\n      dup4\n        /* \"#utility.yul\":26073:26093   */\n      tag_495\n      jump\t// in\n    tag_619:\n        /* \"#utility.yul\":26068:26093   */\n      swap3\n      pop\n        /* \"#utility.yul\":26112:26113   */\n      dup3\n        /* \"#utility.yul\":26102:26137   */\n      tag_620\n      jumpi\n        /* \"#utility.yul\":26117:26135   */\n      tag_621\n      tag_574\n      jump\t// in\n    tag_621:\n        /* \"#utility.yul\":26102:26137   */\n    tag_620:\n        /* \"#utility.yul\":26158:26159   */\n      dup3\n        /* \"#utility.yul\":26155:26156   */\n      dup3\n        /* \"#utility.yul\":26151:26160   */\n      mod\n        /* \"#utility.yul\":26146:26160   */\n      swap1\n      pop\n        /* \"#utility.yul\":25990:26166   */\n      swap3\n      swap2\n      pop\n      pop\n      jump\t// out\n        /* \"#utility.yul\":26172:26352   */\n    tag_563:\n        /* \"#utility.yul\":26220:26297   */\n      0x4e487b7100000000000000000000000000000000000000000000000000000000\n        /* \"#utility.yul\":26217:26218   */\n      0x00\n        /* \"#utility.yul\":26210:26298   */\n      mstore\n        /* \"#utility.yul\":26317:26321   */\n      0x11\n        /* \"#utility.yul\":26314:26315   */\n      0x04\n        /* \"#utility.yul\":26307:26322   */\n      mstore\n        /* \"#utility.yul\":26341:26345   */\n      0x24\n        /* \"#utility.yul\":26338:26339   */\n      0x00\n        /* \"#utility.yul\":26331:26346   */\n      revert\n        /* \"#utility.yul\":26358:26538   */\n    tag_574:\n        /* \"#utility.yul\":26406:26483   */\n      0x4e487b7100000000000000000000000000000000000000000000000000000000\n        /* \"#utility.yul\":26403:26404   */\n      0x00\n        /* \"#utility.yul\":26396:26484   */\n      mstore\n        /* \"#utility.yul\":26503:26507   */\n      0x12\n        /* \"#utility.yul\":26500:26501   */\n      0x04\n        /* \"#utility.yul\":26493:26508   */\n      mstore\n        /* \"#utility.yul\":26527:26531   */\n      0x24\n        /* \"#utility.yul\":26524:26525   */\n      0x00\n        /* \"#utility.yul\":26517:26532   */\n      revert\n        /* \"#utility.yul\":26544:26724   */\n    tag_608:\n        /* \"#utility.yul\":26592:26669   */\n      0x4e487b7100000000000000000000000000000000000000000000000000000000\n        /* \"#utility.yul\":26589:26590   */\n      0x00\n        /* \"#utility.yul\":26582:26670   */\n      mstore\n        /* \"#utility.yul\":26689:26693   */\n      0x22\n        /* \"#utility.yul\":26686:26687   */\n      0x04\n        /* \"#utility.yul\":26679:26694   */\n      mstore\n        /* \"#utility.yul\":26713:26717   */\n      0x24\n        /* \"#utility.yul\":26710:26711   */\n      0x00\n        /* \"#utility.yul\":26703:26718   */\n      revert\n        /* \"#utility.yul\":26730:26910   */\n    tag_295:\n        /* \"#utility.yul\":26778:26855   */\n      0x4e487b7100000000000000000000000000000000000000000000000000000000\n        /* \"#utility.yul\":26775:26776   */\n      0x00\n        /* \"#utility.yul\":26768:26856   */\n      mstore\n        /* \"#utility.yul\":26875:26879   */\n      0x32\n        /* \"#utility.yul\":26872:26873   */\n      0x04\n        /* \"#utility.yul\":26865:26880   */\n      mstore\n        /* \"#utility.yul\":26899:26903   */\n      0x24\n        /* \"#utility.yul\":26896:26897   */\n      0x00\n        /* \"#utility.yul\":26889:26904   */\n      revert\n        /* \"#utility.yul\":26916:27096   */\n    tag_285:\n        /* \"#utility.yul\":26964:27041   */\n      0x4e487b7100000000000000000000000000000000000000000000000000000000\n        /* \"#utility.yul\":26961:26962   */\n      0x00\n        /* \"#utility.yul\":26954:27042   */\n      mstore\n        /* \"#utility.yul\":27061:27065   */\n      0x41\n        /* \"#utility.yul\":27058:27059   */\n      0x04\n        /* \"#utility.yul\":27051:27066   */\n      mstore\n        /* \"#utility.yul\":27085:27089   */\n      0x24\n        /* \"#utility.yul\":27082:27083   */\n      0x00\n        /* \"#utility.yul\":27075:27090   */\n      revert\n        /* \"#utility.yul\":27102:27219   */\n    tag_331:\n        /* \"#utility.yul\":27211:27212   */\n      0x00\n        /* \"#utility.yul\":27208:27209   */\n      dup1\n        /* \"#utility.yul\":27201:27213   */\n      revert\n        /* \"#utility.yul\":27225:27342   */\n    tag_309:\n        /* \"#utility.yul\":27334:27335   */\n      0x00\n        /* \"#utility.yul\":27331:27332   */\n      dup1\n        /* \"#utility.yul\":27324:27336   */\n      revert\n        /* \"#utility.yul\":27348:27465   */\n    tag_361:\n        /* \"#utility.yul\":27457:27458   */\n      0x00\n        /* \"#utility.yul\":27454:27455   */\n      dup1\n        /* \"#utility.yul\":27447:27459   */\n      revert\n        /* \"#utility.yul\":27471:27588   */\n    tag_340:\n        /* \"#utility.yul\":27580:27581   */\n      0x00\n        /* \"#utility.yul\":27577:27578   */\n      dup1\n        /* \"#utility.yul\":27570:27582   */\n      revert\n        /* \"#utility.yul\":27594:27696   */\n    tag_402:\n        /* \"#utility.yul\":27635:27641   */\n      0x00\n        /* \"#utility.yul\":27686:27688   */\n      0x1f\n        /* \"#utility.yul\":27682:27689   */\n      not\n        /* \"#utility.yul\":27677:27679   */\n      0x1f\n        /* \"#utility.yul\":27670:27675   */\n      dup4\n        /* \"#utility.yul\":27666:27680   */\n      add\n        /* \"#utility.yul\":27662:27690   */\n      and\n        /* \"#utility.yul\":27652:27690   */\n      swap1\n      pop\n        /* \"#utility.yul\":27594:27696   */\n      swap2\n      swap1\n      pop\n      jump\t// out\n        /* \"#utility.yul\":27702:27923   */\n    tag_421:\n        /* \"#utility.yul\":27842:27876   */\n      0x455243373231413a206f776e657220696e646578206f7574206f6620626f756e\n        /* \"#utility.yul\":27838:27839   */\n      0x00\n        /* \"#utility.yul\":27830:27836   */\n      dup3\n        /* \"#utility.yul\":27826:27840   */\n      add\n        /* \"#utility.yul\":27819:27877   */\n      mstore\n        /* \"#utility.yul\":27911:27915   */\n      0x6473000000000000000000000000000000000000000000000000000000000000\n        /* \"#utility.yul\":27906:27908   */\n      0x20\n        /* \"#utility.yul\":27898:27904   */\n      dup3\n        /* \"#utility.yul\":27894:27909   */\n      add\n        /* \"#utility.yul\":27887:27916   */\n      mstore\n        /* \"#utility.yul\":27702:27923   */\n      pop\n      jump\t// out\n        /* \"#utility.yul\":27929:28158   */\n    tag_426:\n        /* \"#utility.yul\":28069:28103   */\n      0x455243373231413a206f776e657220717565727920666f72206e6f6e65786973\n        /* \"#utility.yul\":28065:28066   */\n      0x00\n        /* \"#utility.yul\":28057:28063   */\n      dup3\n        /* \"#utility.yul\":28053:28067   */\n      add\n        /* \"#utility.yul\":28046:28104   */\n      mstore\n        /* \"#utility.yul\":28138:28150   */\n      0x74656e7420746f6b656e00000000000000000000000000000000000000000000\n        /* \"#utility.yul\":28133:28135   */\n      0x20\n        /* \"#utility.yul\":28125:28131   */\n      dup3\n        /* \"#utility.yul\":28121:28136   */\n      add\n        /* \"#utility.yul\":28114:28151   */\n      mstore\n        /* \"#utility.yul\":27929:28158   */\n      pop\n      jump\t// out\n        /* \"#utility.yul\":28164:28386   */\n    tag_431:\n        /* \"#utility.yul\":28304:28338   */\n      0x455243373231413a20676c6f62616c20696e646578206f7574206f6620626f75\n        /* \"#utility.yul\":28300:28301   */\n      0x00\n        /* \"#utility.yul\":28292:28298   */\n      dup3\n        /* \"#utility.yul\":28288:28302   */\n      add\n        /* \"#utility.yul\":28281:28339   */\n      mstore\n        /* \"#utility.yul\":28373:28378   */\n      0x6e64730000000000000000000000000000000000000000000000000000000000\n        /* \"#utility.yul\":28368:28370   */\n      0x20\n        /* \"#utility.yul\":28360:28366   */\n      dup3\n        /* \"#utility.yul\":28356:28371   */\n      add\n        /* \"#utility.yul\":28349:28379   */\n      mstore\n        /* \"#utility.yul\":28164:28386   */\n      pop\n      jump\t// out\n        /* \"#utility.yul\":28392:28616   */\n    tag_436:\n        /* \"#utility.yul\":28532:28566   */\n      0x455243373231413a207472616e7366657220746f20746865207a65726f206164\n        /* \"#utility.yul\":28528:28529   */\n      0x00\n        /* \"#utility.yul\":28520:28526   */\n      dup3\n        /* \"#utility.yul\":28516:28530   */\n      add\n        /* \"#utility.yul\":28509:28567   */\n      mstore\n        /* \"#utility.yul\":28601:28608   */\n      0x6472657373000000000000000000000000000000000000000000000000000000\n        /* \"#utility.yul\":28596:28598   */\n      0x20\n        /* \"#utility.yul\":28588:28594   */\n      dup3\n        /* \"#utility.yul\":28584:28599   */\n      add\n        /* \"#utility.yul\":28577:28609   */\n      mstore\n        /* \"#utility.yul\":28392:28616   */\n      pop\n      jump\t// out\n        /* \"#utility.yul\":28622:28866   */\n    tag_441:\n        /* \"#utility.yul\":28762:28796   */\n      0x455243373231413a20617070726f76652063616c6c6572206973206e6f74206f\n        /* \"#utility.yul\":28758:28759   */\n      0x00\n        /* \"#utility.yul\":28750:28756   */\n      dup3\n        /* \"#utility.yul\":28746:28760   */\n      add\n        /* \"#utility.yul\":28739:28797   */\n      mstore\n        /* \"#utility.yul\":28831:28858   */\n      0x776e6572206e6f7220617070726f76656420666f7220616c6c00000000000000\n        /* \"#utility.yul\":28826:28828   */\n      0x20\n        /* \"#utility.yul\":28818:28824   */\n      dup3\n        /* \"#utility.yul\":28814:28829   */\n      add\n        /* \"#utility.yul\":28807:28859   */\n      mstore\n        /* \"#utility.yul\":28622:28866   */\n      pop\n      jump\t// out\n        /* \"#utility.yul\":28872:29102   */\n    tag_446:\n        /* \"#utility.yul\":29012:29046   */\n      0x455243373231413a2062616c616e636520717565727920666f7220746865207a\n        /* \"#utility.yul\":29008:29009   */\n      0x00\n        /* \"#utility.yul\":29000:29006   */\n      dup3\n        /* \"#utility.yul\":28996:29010   */\n      add\n        /* \"#utility.yul\":28989:29047   */\n      mstore\n        /* \"#utility.yul\":29081:29094   */\n      0x65726f2061646472657373000000000000000000000000000000000000000000\n        /* \"#utility.yul\":29076:29078   */\n      0x20\n        /* \"#utility.yul\":29068:29074   */\n      dup3\n        /* \"#utility.yul\":29064:29079   */\n      add\n        /* \"#utility.yul\":29057:29095   */\n      mstore\n        /* \"#utility.yul\":28872:29102   */\n      pop\n      jump\t// out\n        /* \"#utility.yul\":29108:29333   */\n    tag_451:\n        /* \"#utility.yul\":29248:29282   */\n      0x455243373231413a207472616e736665722066726f6d20696e636f7272656374\n        /* \"#utility.yul\":29244:29245   */\n      0x00\n        /* \"#utility.yul\":29236:29242   */\n      dup3\n        /* \"#utility.yul\":29232:29246   */\n      add\n        /* \"#utility.yul\":29225:29283   */\n      mstore\n        /* \"#utility.yul\":29317:29325   */\n      0x206f776e65720000000000000000000000000000000000000000000000000000\n        /* \"#utility.yul\":29312:29314   */\n      0x20\n        /* \"#utility.yul\":29304:29310   */\n      dup3\n        /* \"#utility.yul\":29300:29315   */\n      add\n        /* \"#utility.yul\":29293:29326   */\n      mstore\n        /* \"#utility.yul\":29108:29333   */\n      pop\n      jump\t// out\n        /* \"#utility.yul\":29339:29573   */\n    tag_456:\n        /* \"#utility.yul\":29479:29513   */\n      0x4552433732314d657461646174613a2055524920717565727920666f72206e6f\n        /* \"#utility.yul\":29475:29476   */\n      0x00\n        /* \"#utility.yul\":29467:29473   */\n      dup3\n        /* \"#utility.yul\":29463:29477   */\n      add\n        /* \"#utility.yul\":29456:29514   */\n      mstore\n        /* \"#utility.yul\":29548:29565   */\n      0x6e6578697374656e7420746f6b656e0000000000000000000000000000000000\n        /* \"#utility.yul\":29543:29545   */\n      0x20\n        /* \"#utility.yul\":29535:29541   */\n      dup3\n        /* \"#utility.yul\":29531:29546   */\n      add\n        /* \"#utility.yul\":29524:29566   */\n      mstore\n        /* \"#utility.yul\":29339:29573   */\n      pop\n      jump\t// out\n        /* \"#utility.yul\":29579:29755   */\n    tag_461:\n        /* \"#utility.yul\":29719:29747   */\n      0x455243373231413a20617070726f766520746f2063616c6c6572000000000000\n        /* \"#utility.yul\":29715:29716   */\n      0x00\n        /* \"#utility.yul\":29707:29713   */\n      dup3\n        /* \"#utility.yul\":29703:29717   */\n      add\n        /* \"#utility.yul\":29696:29748   */\n      mstore\n        /* \"#utility.yul\":29579:29755   */\n      pop\n      jump\t// out\n        /* \"#utility.yul\":29761:29998   */\n    tag_466:\n        /* \"#utility.yul\":29901:29935   */\n      0x455243373231413a207472616e736665722063616c6c6572206973206e6f7420\n        /* \"#utility.yul\":29897:29898   */\n      0x00\n        /* \"#utility.yul\":29889:29895   */\n      dup3\n        /* \"#utility.yul\":29885:29899   */\n      add\n        /* \"#utility.yul\":29878:29936   */\n      mstore\n        /* \"#utility.yul\":29970:29990   */\n      0x6f776e6572206e6f7220617070726f7665640000000000000000000000000000\n        /* \"#utility.yul\":29965:29967   */\n      0x20\n        /* \"#utility.yul\":29957:29963   */\n      dup3\n        /* \"#utility.yul\":29953:29968   */\n      add\n        /* \"#utility.yul\":29946:29991   */\n      mstore\n        /* \"#utility.yul\":29761:29998   */\n      pop\n      jump\t// out\n        /* \"#utility.yul\":30004:30225   */\n    tag_471:\n        /* \"#utility.yul\":30144:30178   */\n      0x455243373231413a20617070726f76616c20746f2063757272656e74206f776e\n        /* \"#utility.yul\":30140:30141   */\n      0x00\n        /* \"#utility.yul\":30132:30138   */\n      dup3\n        /* \"#utility.yul\":30128:30142   */\n      add\n        /* \"#utility.yul\":30121:30179   */\n      mstore\n        /* \"#utility.yul\":30213:30217   */\n      0x6572000000000000000000000000000000000000000000000000000000000000\n        /* \"#utility.yul\":30208:30210   */\n      0x20\n        /* \"#utility.yul\":30200:30206   */\n      dup3\n        /* \"#utility.yul\":30196:30211   */\n      add\n        /* \"#utility.yul\":30189:30218   */\n      mstore\n        /* \"#utility.yul\":30004:30225   */\n      pop\n      jump\t// out\n        /* \"#utility.yul\":30231:30469   */\n    tag_476:\n        /* \"#utility.yul\":30371:30405   */\n      0x455243373231413a207472616e7366657220746f206e6f6e2045524337323152\n        /* \"#utility.yul\":30367:30368   */\n      0x00\n        /* \"#utility.yul\":30359:30365   */\n      dup3\n        /* \"#utility.yul\":30355:30369   */\n      add\n        /* \"#utility.yul\":30348:30406   */\n      mstore\n        /* \"#utility.yul\":30440:30461   */\n      0x6563656976657220696d706c656d656e74657200000000000000000000000000\n        /* \"#utility.yul\":30435:30437   */\n      0x20\n        /* \"#utility.yul\":30427:30433   */\n      dup3\n        /* \"#utility.yul\":30423:30438   */\n      add\n        /* \"#utility.yul\":30416:30462   */\n      mstore\n        /* \"#utility.yul\":30231:30469   */\n      pop\n      jump\t// out\n        /* \"#utility.yul\":30475:30708   */\n    tag_481:\n        /* \"#utility.yul\":30615:30649   */\n      0x455243373231413a20756e61626c6520746f2067657420746f6b656e206f6620\n        /* \"#utility.yul\":30611:30612   */\n      0x00\n        /* \"#utility.yul\":30603:30609   */\n      dup3\n        /* \"#utility.yul\":30599:30613   */\n      add\n        /* \"#utility.yul\":30592:30650   */\n      mstore\n        /* \"#utility.yul\":30684:30700   */\n      0x6f776e657220627920696e646578000000000000000000000000000000000000\n        /* \"#utility.yul\":30679:30681   */\n      0x20\n        /* \"#utility.yul\":30671:30677   */\n      dup3\n        /* \"#utility.yul\":30667:30682   */\n      add\n        /* \"#utility.yul\":30660:30701   */\n      mstore\n        /* \"#utility.yul\":30475:30708   */\n      pop\n      jump\t// out\n        /* \"#utility.yul\":30714:30948   */\n    tag_486:\n        /* \"#utility.yul\":30854:30888   */\n      0x455243373231413a20756e61626c6520746f2064657465726d696e6520746865\n        /* \"#utility.yul\":30850:30851   */\n      0x00\n        /* \"#utility.yul\":30842:30848   */\n      dup3\n        /* \"#utility.yul\":30838:30852   */\n      add\n        /* \"#utility.yul\":30831:30889   */\n      mstore\n        /* \"#utility.yul\":30923:30940   */\n      0x206f776e6572206f6620746f6b656e0000000000000000000000000000000000\n        /* \"#utility.yul\":30918:30920   */\n      0x20\n        /* \"#utility.yul\":30910:30916   */\n      dup3\n        /* \"#utility.yul\":30906:30921   */\n      add\n        /* \"#utility.yul\":30899:30941   */\n      mstore\n        /* \"#utility.yul\":30714:30948   */\n      pop\n      jump\t// out\n        /* \"#utility.yul\":30954:31186   */\n    tag_491:\n        /* \"#utility.yul\":31094:31128   */\n      0x455243373231413a20617070726f76656420717565727920666f72206e6f6e65\n        /* \"#utility.yul\":31090:31091   */\n      0x00\n        /* \"#utility.yul\":31082:31088   */\n      dup3\n        /* \"#utility.yul\":31078:31092   */\n      add\n        /* \"#utility.yul\":31071:31129   */\n      mstore\n        /* \"#utility.yul\":31163:31178   */\n      0x78697374656e7420746f6b656e00000000000000000000000000000000000000\n        /* \"#utility.yul\":31158:31160   */\n      0x20\n        /* \"#utility.yul\":31150:31156   */\n      dup3\n        /* \"#utility.yul\":31146:31161   */\n      add\n        /* \"#utility.yul\":31139:31179   */\n      mstore\n        /* \"#utility.yul\":30954:31186   */\n      pop\n      jump\t// out\n        /* \"#utility.yul\":31192:31314   */\n    tag_315:\n        /* \"#utility.yul\":31265:31289   */\n      tag_648\n        /* \"#utility.yul\":31283:31288   */\n      dup2\n        /* \"#utility.yul\":31265:31289   */\n      tag_388\n      jump\t// in\n    tag_648:\n        /* \"#utility.yul\":31258:31263   */\n      dup2\n        /* \"#utility.yul\":31255:31290   */\n      eq\n        /* \"#utility.yul\":31245:31308   */\n      tag_649\n      jumpi\n        /* \"#utility.yul\":31304:31305   */\n      0x00\n        /* \"#utility.yul\":31301:31302   */\n      dup1\n        /* \"#utility.yul\":31294:31306   */\n      revert\n        /* \"#utility.yul\":31245:31308   */\n    tag_649:\n        /* \"#utility.yul\":31192:31314   */\n      pop\n      jump\t// out\n        /* \"#utility.yul\":31320:31436   */\n    tag_319:\n        /* \"#utility.yul\":31390:31411   */\n      tag_651\n        /* \"#utility.yul\":31405:31410   */\n      dup2\n        /* \"#utility.yul\":31390:31411   */\n      tag_392\n      jump\t// in\n    tag_651:\n        /* \"#utility.yul\":31383:31388   */\n      dup2\n        /* \"#utility.yul\":31380:31412   */\n      eq\n        /* \"#utility.yul\":31370:31430   */\n      tag_652\n      jumpi\n        /* \"#utility.yul\":31426:31427   */\n      0x00\n        /* \"#utility.yul\":31423:31424   */\n      dup1\n        /* \"#utility.yul\":31416:31428   */\n      revert\n        /* \"#utility.yul\":31370:31430   */\n    tag_652:\n        /* \"#utility.yul\":31320:31436   */\n      pop\n      jump\t// out\n        /* \"#utility.yul\":31442:31562   */\n    tag_323:\n        /* \"#utility.yul\":31514:31537   */\n      tag_654\n        /* \"#utility.yul\":31531:31536   */\n      dup2\n        /* \"#utility.yul\":31514:31537   */\n      tag_589\n      jump\t// in\n    tag_654:\n        /* \"#utility.yul\":31507:31512   */\n      dup2\n        /* \"#utility.yul\":31504:31538   */\n      eq\n        /* \"#utility.yul\":31494:31556   */\n      tag_655\n      jumpi\n        /* \"#utility.yul\":31552:31553   */\n      0x00\n        /* \"#utility.yul\":31549:31550   */\n      dup1\n        /* \"#utility.yul\":31542:31554   */\n      revert\n        /* \"#utility.yul\":31494:31556   */\n    tag_655:\n        /* \"#utility.yul\":31442:31562   */\n      pop\n      jump\t// out\n        /* \"#utility.yul\":31568:31690   */\n    tag_336:\n        /* \"#utility.yul\":31641:31665   */\n      tag_657\n        /* \"#utility.yul\":31659:31664   */\n      dup2\n        /* \"#utility.yul\":31641:31665   */\n      tag_495\n      jump\t// in\n    tag_657:\n        /* \"#utility.yul\":31634:31639   */\n      dup2\n        /* \"#utility.yul\":31631:31666   */\n      eq\n        /* \"#utility.yul\":31621:31684   */\n      tag_658\n      jumpi\n        /* \"#utility.yul\":31680:31681   */\n      0x00\n        /* \"#utility.yul\":31677:31678   */\n      dup1\n        /* \"#utility.yul\":31670:31682   */\n      revert\n        /* \"#utility.yul\":31621:31684   */\n    tag_658:\n        /* \"#utility.yul\":31568:31690   */\n      pop\n      jump\t// out\n\n    auxdata: 0xa2646970667358221220886b943185a9e6ac1972d40a2891ace1ce204a1213628b769b7827888bfc51d464736f6c63430008070033\n}\n",
				"bytecode": {
					"linkReferences": {},
					"object": "60c06040526000805560006007553480156200001a57600080fd5b50604051620033433803806200334383398181016040528101906200004091906200025d565b6000811162000086576040517f08c379a00000000000000000000000000000000000000000000000000000000081526004016200007d906200037d565b60405180910390fd5b60008211620000cc576040517f08c379a0000000000000000000000000000000000000000000000000000000008152600401620000c3906200035b565b60405180910390fd5b8360019080519060200190620000e492919062000118565b508260029080519060200190620000fd92919062000118565b508160a08181525050806080818152505050505050620005f6565b82805462000126906200044f565b90600052602060002090601f0160209004810192826200014a576000855562000196565b82601f106200016557805160ff191683800117855562000196565b8280016001018555821562000196579182015b828111156200019557825182559160200191906001019062000178565b5b509050620001a59190620001a9565b5090565b5b80821115620001c4576000816000905550600101620001aa565b5090565b6000620001df620001d984620003c8565b6200039f565b905082815260208101848484011115620001fe57620001fd6200051e565b5b6200020b84828562000419565b509392505050565b600082601f8301126200022b576200022a62000519565b5b81516200023d848260208601620001c8565b91505092915050565b6000815190506200025781620005dc565b92915050565b600080600080608085870312156200027a576200027962000528565b5b600085015167ffffffffffffffff8111156200029b576200029a62000523565b5b620002a98782880162000213565b945050602085015167ffffffffffffffff811115620002cd57620002cc62000523565b5b620002db8782880162000213565b9350506040620002ee8782880162000246565b9250506060620003018782880162000246565b91505092959194509250565b60006200031c602783620003fe565b915062000329826200053e565b604082019050919050565b600062000343602e83620003fe565b915062000350826200058d565b604082019050919050565b6000602082019050818103600083015262000376816200030d565b9050919050565b60006020820190508181036000830152620003988162000334565b9050919050565b6000620003ab620003be565b9050620003b9828262000485565b919050565b6000604051905090565b600067ffffffffffffffff821115620003e657620003e5620004ea565b5b620003f1826200052d565b9050602081019050919050565b600082825260208201905092915050565b6000819050919050565b60005b83811015620004395780820151818401526020810190506200041c565b8381111562000449576000848401525b50505050565b600060028204905060018216806200046857607f821691505b602082108114156200047f576200047e620004bb565b5b50919050565b62000490826200052d565b810181811067ffffffffffffffff82111715620004b257620004b1620004ea565b5b80604052505050565b7f4e487b7100000000000000000000000000000000000000000000000000000000600052602260045260246000fd5b7f4e487b7100000000000000000000000000000000000000000000000000000000600052604160045260246000fd5b600080fd5b600080fd5b600080fd5b600080fd5b6000601f19601f8301169050919050565b7f455243373231413a206d61782062617463682073697a65206d7573742062652060008201527f6e6f6e7a65726f00000000000000000000000000000000000000000000000000602082015250565b7f455243373231413a20636f6c6c656374696f6e206d757374206861766520612060008201527f6e6f6e7a65726f20737570706c79000000000000000000000000000000000000602082015250565b620005e7816200040f565b8114620005f357600080fd5b50565b60805160a051612d23620006206000396000818161158501526115ae015260005050612d236000f3fe608060405234801561001057600080fd5b506004361061010b5760003560e01c80634f6ccce7116100a2578063a22cb46511610071578063a22cb465146102de578063b88d4fde146102fa578063c87b56dd14610316578063d7224ba014610346578063e985e9c5146103645761010b565b80634f6ccce7146102305780636352211e1461026057806370a082311461029057806395d89b41146102c05761010b565b806318160ddd116100de57806318160ddd146101aa57806323b872dd146101c85780632f745c59146101e457806342842e0e146102145761010b565b806301ffc9a71461011057806306fdde0314610140578063081812fc1461015e578063095ea7b31461018e575b600080fd5b61012a60048036038101906101259190611d38565b610394565b6040516101379190612127565b60405180910390f35b6101486104de565b6040516101559190612142565b60405180910390f35b61017860048036038101906101739190611d92565b610570565b60405161018591906120c0565b60405180910390f35b6101a860048036038101906101a39190611cf8565b6105f5565b005b6101b261070e565b6040516101bf9190612344565b60405180910390f35b6101e260048036038101906101dd9190611be2565b610717565b005b6101fe60048036038101906101f99190611cf8565b610727565b60405161020b9190612344565b60405180910390f35b61022e60048036038101906102299190611be2565b610925565b005b61024a60048036038101906102459190611d92565b610945565b6040516102579190612344565b60405180910390f35b61027a60048036038101906102759190611d92565b610998565b60405161028791906120c0565b60405180910390f35b6102aa60048036038101906102a59190611b75565b6109ae565b6040516102b79190612344565b60405180910390f35b6102c8610a97565b6040516102d59190612142565b60405180910390f35b6102f860048036038101906102f39190611cb8565b610b29565b005b610314600480360381019061030f9190611c35565b610caa565b005b610330600480360381019061032b9190611d92565b610d06565b60405161033d9190612142565b60405180910390f35b61034e610dad565b60405161035b9190612344565b60405180910390f35b61037e60048036038101906103799190611ba2565b610db3565b60405161038b9190612127565b60405180910390f35b60007f80ac58cd000000000000000000000000000000000000000000000000000000007bffffffffffffffffffffffffffffffffffffffffffffffffffffffff1916827bffffffffffffffffffffffffffffffffffffffffffffffffffffffff1916148061045f57507f5b5e139f000000000000000000000000000000000000000000000000000000007bffffffffffffffffffffffffffffffffffffffffffffffffffffffff1916827bffffffffffffffffffffffffffffffffffffffffffffffffffffffff1916145b806104c757507f780e9d63000000000000000000000000000000000000000000000000000000007bffffffffffffffffffffffffffffffffffffffffffffffffffffffff1916827bffffffffffffffffffffffffffffffffffffffffffffffffffffffff1916145b806104d757506104d682610e47565b5b9050919050565b6060600180546104ed90612629565b80601f016020809104026020016040519081016040528092919081815260200182805461051990612629565b80156105665780601f1061053b57610100808354040283529160200191610566565b820191906000526020600020905b81548152906001019060200180831161054957829003601f168201915b5050505050905090565b600061057b82610eb1565b6105ba576040517f08c379a00000000000000000000000000000000000000000000000000000000081526004016105b190612324565b60405180910390fd5b6005600083815260200190815260200160002060009054906101000a900473ffffffffffffffffffffffffffffffffffffffff169050919050565b600061060082610998565b90508073ffffffffffffffffffffffffffffffffffffffff168373ffffffffffffffffffffffffffffffffffffffff161415610671576040517f08c379a0000000000000000000000000000000000000000000000000000000008152600401610668906122a4565b60405180910390fd5b8073ffffffffffffffffffffffffffffffffffffffff16610690610ebe565b73ffffffffffffffffffffffffffffffffffffffff1614806106bf57506106be816106b9610ebe565b610db3565b5b6106fe576040517f08c379a00000000000000000000000000000000000000000000000000000000081526004016106f5906121e4565b60405180910390fd5b610709838383610ec6565b505050565b60008054905090565b610722838383610f78565b505050565b6000610732836109ae565b8210610773576040517f08c379a000000000000000000000000000000000000000000000000000000000815260040161076a90612164565b60405180910390fd5b600061077d61070e565b905060008060005b838110156108e3576000600360008381526020019081526020016000206040518060400160405290816000820160009054906101000a900473ffffffffffffffffffffffffffffffffffffffff1673ffffffffffffffffffffffffffffffffffffffff1673ffffffffffffffffffffffffffffffffffffffff1681526020016000820160149054906101000a900467ffffffffffffffff1667ffffffffffffffff1667ffffffffffffffff16815250509050600073ffffffffffffffffffffffffffffffffffffffff16816000015173ffffffffffffffffffffffffffffffffffffffff161461087757806000015192505b8773ffffffffffffffffffffffffffffffffffffffff168373ffffffffffffffffffffffffffffffffffffffff1614156108cf57868414156108c057819550505050505061091f565b83806108cb9061268c565b9450505b5080806108db9061268c565b915050610785565b506040517f08c379a0000000000000000000000000000000000000000000000000000000008152600401610916906122e4565b60405180910390fd5b92915050565b61094083838360405180602001604052806000815250610caa565b505050565b600061094f61070e565b8210610990576040517f08c379a0000000000000000000000000000000000000000000000000000000008152600401610987906121a4565b60405180910390fd5b819050919050565b60006109a382611531565b600001519050919050565b60008073ffffffffffffffffffffffffffffffffffffffff168273ffffffffffffffffffffffffffffffffffffffff161415610a1f576040517f08c379a0000000000000000000000000000000000000000000000000000000008152600401610a1690612204565b60405180910390fd5b600460008373ffffffffffffffffffffffffffffffffffffffff1673ffffffffffffffffffffffffffffffffffffffff16815260200190815260200160002060000160009054906101000a90046fffffffffffffffffffffffffffffffff166fffffffffffffffffffffffffffffffff169050919050565b606060028054610aa690612629565b80601f0160208091040260200160405190810160405280929190818152602001828054610ad290612629565b8015610b1f5780601f10610af457610100808354040283529160200191610b1f565b820191906000526020600020905b815481529060010190602001808311610b0257829003601f168201915b5050505050905090565b610b31610ebe565b73ffffffffffffffffffffffffffffffffffffffff168273ffffffffffffffffffffffffffffffffffffffff161415610b9f576040517f08c379a0000000000000000000000000000000000000000000000000000000008152600401610b9690612264565b60405180910390fd5b8060066000610bac610ebe565b73ffffffffffffffffffffffffffffffffffffffff1673ffffffffffffffffffffffffffffffffffffffff16815260200190815260200160002060008473ffffffffffffffffffffffffffffffffffffffff1673ffffffffffffffffffffffffffffffffffffffff16815260200190815260200160002060006101000a81548160ff0219169083151502179055508173ffffffffffffffffffffffffffffffffffffffff16610c59610ebe565b73ffffffffffffffffffffffffffffffffffffffff167f17307eab39ab6107e8899845ad3d59bd9653f200f220920489ca2b5937696c3183604051610c9e9190612127565b60405180910390a35050565b610cb5848484610f78565b610cc184848484611734565b610d00576040517f08c379a0000000000000000000000000000000000000000000000000000000008152600401610cf7906122c4565b60405180910390fd5b50505050565b6060610d1182610eb1565b610d50576040517f08c379a0000000000000000000000000000000000000000000000000000000008152600401610d4790612244565b60405180910390fd5b6000610d5a6118cb565b90506000815111610d7a5760405180602001604052806000815250610da5565b80610d84846118e2565b604051602001610d9592919061209c565b6040516020818303038152906040525b915050919050565b60075481565b6000600660008473ffffffffffffffffffffffffffffffffffffffff1673ffffffffffffffffffffffffffffffffffffffff16815260200190815260200160002060008373ffffffffffffffffffffffffffffffffffffffff1673ffffffffffffffffffffffffffffffffffffffff16815260200190815260200160002060009054906101000a900460ff16905092915050565b60007f01ffc9a7000000000000000000000000000000000000000000000000000000007bffffffffffffffffffffffffffffffffffffffffffffffffffffffff1916827bffffffffffffffffffffffffffffffffffffffffffffffffffffffff1916149050919050565b6000805482109050919050565b600033905090565b826005600084815260200190815260200160002060006101000a81548173ffffffffffffffffffffffffffffffffffffffff021916908373ffffffffffffffffffffffffffffffffffffffff160217905550818373ffffffffffffffffffffffffffffffffffffffff168273ffffffffffffffffffffffffffffffffffffffff167f8c5be1e5ebec7d5bd14f71427d1e84f3dd0314c0f7b2291e5b200ac8c7c3b92560405160405180910390a4505050565b6000610f8382611531565b90506000816000015173ffffffffffffffffffffffffffffffffffffffff16610faa610ebe565b73ffffffffffffffffffffffffffffffffffffffff1614806110065750610fcf610ebe565b73ffffffffffffffffffffffffffffffffffffffff16610fee84610570565b73ffffffffffffffffffffffffffffffffffffffff16145b806110225750611021826000015161101c610ebe565b610db3565b5b905080611064576040517f08c379a000000000000000000000000000000000000000000000000000000000815260040161105b90612284565b60405180910390fd5b8473ffffffffffffffffffffffffffffffffffffffff16826000015173ffffffffffffffffffffffffffffffffffffffff16146110d6576040517f08c379a00000000000000000000000000000000000000000000000000000000081526004016110cd90612224565b60405180910390fd5b600073ffffffffffffffffffffffffffffffffffffffff168473ffffffffffffffffffffffffffffffffffffffff161415611146576040517f08c379a000000000000000000000000000000000000000000000000000000000815260040161113d906121c4565b60405180910390fd5b6111538585856001611a43565b6111636000848460000151610ec6565b6001600460008773ffffffffffffffffffffffffffffffffffffffff1673ffffffffffffffffffffffffffffffffffffffff16815260200190815260200160002060000160008282829054906101000a90046fffffffffffffffffffffffffffffffff166111d191906124c5565b92506101000a8154816fffffffffffffffffffffffffffffffff02191690836fffffffffffffffffffffffffffffffff1602179055506001600460008673ffffffffffffffffffffffffffffffffffffffff1673ffffffffffffffffffffffffffffffffffffffff16815260200190815260200160002060000160008282829054906101000a90046fffffffffffffffffffffffffffffffff1661127591906123f8565b92506101000a8154816fffffffffffffffffffffffffffffffff02191690836fffffffffffffffffffffffffffffffff16021790555060405180604001604052808573ffffffffffffffffffffffffffffffffffffffff1681526020014267ffffffffffffffff168152506003600085815260200190815260200160002060008201518160000160006101000a81548173ffffffffffffffffffffffffffffffffffffffff021916908373ffffffffffffffffffffffffffffffffffffffff16021790555060208201518160000160146101000a81548167ffffffffffffffff021916908367ffffffffffffffff160217905550905050600060018461137b919061243e565b9050600073ffffffffffffffffffffffffffffffffffffffff166003600083815260200190815260200160002060000160009054906101000a900473ffffffffffffffffffffffffffffffffffffffff1673ffffffffffffffffffffffffffffffffffffffff1614156114c1576113f181610eb1565b156114c0576040518060400160405280846000015173ffffffffffffffffffffffffffffffffffffffff168152602001846020015167ffffffffffffffff168152506003600083815260200190815260200160002060008201518160000160006101000a81548173ffffffffffffffffffffffffffffffffffffffff021916908373ffffffffffffffffffffffffffffffffffffffff16021790555060208201518160000160146101000a81548167ffffffffffffffff021916908367ffffffffffffffff1602179055509050505b5b838573ffffffffffffffffffffffffffffffffffffffff168773ffffffffffffffffffffffffffffffffffffffff167fddf252ad1be2c89b69c2b068fc378daa952ba7f163c4a11628f55a4df523b3ef60405160405180910390a46115298686866001611a49565b505050505050565b611539611a62565b61154282610eb1565b611581576040517f08c379a000000000000000000000000000000000000000000000000000000000815260040161157890612184565b60405180910390fd5b60007f000000000000000000000000000000000000000000000000000000000000000083106115e55760017f0000000000000000000000000000000000000000000000000000000000000000846115d891906124f9565b6115e2919061243e565b90505b60008390505b8181106116f3576000600360008381526020019081526020016000206040518060400160405290816000820160009054906101000a900473ffffffffffffffffffffffffffffffffffffffff1673ffffffffffffffffffffffffffffffffffffffff1673ffffffffffffffffffffffffffffffffffffffff1681526020016000820160149054906101000a900467ffffffffffffffff1667ffffffffffffffff1667ffffffffffffffff16815250509050600073ffffffffffffffffffffffffffffffffffffffff16816000015173ffffffffffffffffffffffffffffffffffffffff16146116df5780935050505061172f565b5080806116eb906125ff565b9150506115eb565b506040517f08c379a000000000000000000000000000000000000000000000000000000000815260040161172690612304565b60405180910390fd5b919050565b60006117558473ffffffffffffffffffffffffffffffffffffffff16611a4f565b156118be578373ffffffffffffffffffffffffffffffffffffffff1663150b7a0261177e610ebe565b8786866040518563ffffffff1660e01b81526004016117a094939291906120db565b602060405180830381600087803b1580156117ba57600080fd5b505af19250505080156117eb57506040513d601f19601f820116820180604052508101906117e89190611d65565b60015b61186e573d806000811461181b576040519150601f19603f3d011682016040523d82523d6000602084013e611820565b606091505b50600081511415611866576040517f08c379a000000000000000000000000000000000000000000000000000000000815260040161185d906122c4565b60405180910390fd5b805181602001fd5b63150b7a0260e01b7bffffffffffffffffffffffffffffffffffffffffffffffffffffffff1916817bffffffffffffffffffffffffffffffffffffffffffffffffffffffff1916149150506118c3565b600190505b949350505050565b606060405180602001604052806000815250905090565b6060600082141561192a576040518060400160405280600181526020017f30000000000000000000000000000000000000000000000000000000000000008152509050611a3e565b600082905060005b6000821461195c5780806119459061268c565b915050600a826119559190612494565b9150611932565b60008167ffffffffffffffff811115611978576119776127c2565b5b6040519080825280601f01601f1916602001820160405280156119aa5781602001600182028036833780820191505090505b5090505b60008514611a37576001826119c391906124f9565b9150600a856119d291906126d5565b60306119de919061243e565b60f81b8183815181106119f4576119f3612793565b5b60200101907effffffffffffffffffffffffffffffffffffffffffffffffffffffffffffff1916908160001a905350600a85611a309190612494565b94506119ae565b8093505050505b919050565b50505050565b50505050565b600080823b905060008111915050919050565b6040518060400160405280600073ffffffffffffffffffffffffffffffffffffffff168152602001600067ffffffffffffffff1681525090565b6000611aaf611aaa84612384565b61235f565b905082815260208101848484011115611acb57611aca6127f6565b5b611ad68482856125bd565b509392505050565b600081359050611aed81612c91565b92915050565b600081359050611b0281612ca8565b92915050565b600081359050611b1781612cbf565b92915050565b600081519050611b2c81612cbf565b92915050565b600082601f830112611b4757611b466127f1565b5b8135611b57848260208601611a9c565b91505092915050565b600081359050611b6f81612cd6565b92915050565b600060208284031215611b8b57611b8a612800565b5b6000611b9984828501611ade565b91505092915050565b60008060408385031215611bb957611bb8612800565b5b6000611bc785828601611ade565b9250506020611bd885828601611ade565b9150509250929050565b600080600060608486031215611bfb57611bfa612800565b5b6000611c0986828701611ade565b9350506020611c1a86828701611ade565b9250506040611c2b86828701611b60565b9150509250925092565b60008060008060808587031215611c4f57611c4e612800565b5b6000611c5d87828801611ade565b9450506020611c6e87828801611ade565b9350506040611c7f87828801611b60565b925050606085013567ffffffffffffffff811115611ca057611c9f6127fb565b5b611cac87828801611b32565b91505092959194509250565b60008060408385031215611ccf57611cce612800565b5b6000611cdd85828601611ade565b9250506020611cee85828601611af3565b9150509250929050565b60008060408385031215611d0f57611d0e612800565b5b6000611d1d85828601611ade565b9250506020611d2e85828601611b60565b9150509250929050565b600060208284031215611d4e57611d4d612800565b5b6000611d5c84828501611b08565b91505092915050565b600060208284031215611d7b57611d7a612800565b5b6000611d8984828501611b1d565b91505092915050565b600060208284031215611da857611da7612800565b5b6000611db684828501611b60565b91505092915050565b611dc88161252d565b82525050565b611dd78161253f565b82525050565b6000611de8826123b5565b611df281856123cb565b9350611e028185602086016125cc565b611e0b81612805565b840191505092915050565b6000611e21826123c0565b611e2b81856123dc565b9350611e3b8185602086016125cc565b611e4481612805565b840191505092915050565b6000611e5a826123c0565b611e6481856123ed565b9350611e748185602086016125cc565b80840191505092915050565b6000611e8d6022836123dc565b9150611e9882612816565b604082019050919050565b6000611eb0602a836123dc565b9150611ebb82612865565b604082019050919050565b6000611ed36023836123dc565b9150611ede826128b4565b604082019050919050565b6000611ef66025836123dc565b9150611f0182612903565b604082019050919050565b6000611f196039836123dc565b9150611f2482612952565b604082019050919050565b6000611f3c602b836123dc565b9150611f47826129a1565b604082019050919050565b6000611f5f6026836123dc565b9150611f6a826129f0565b604082019050919050565b6000611f82602f836123dc565b9150611f8d82612a3f565b604082019050919050565b6000611fa5601a836123dc565b9150611fb082612a8e565b602082019050919050565b6000611fc86032836123dc565b9150611fd382612ab7565b604082019050919050565b6000611feb6022836123dc565b9150611ff682612b06565b604082019050919050565b600061200e6033836123dc565b915061201982612b55565b604082019050919050565b6000612031602e836123dc565b915061203c82612ba4565b604082019050919050565b6000612054602f836123dc565b915061205f82612bf3565b604082019050919050565b6000612077602d836123dc565b915061208282612c42565b604082019050919050565b612096816125b3565b82525050565b60006120a88285611e4f565b91506120b48284611e4f565b91508190509392505050565b60006020820190506120d56000830184611dbf565b92915050565b60006080820190506120f06000830187611dbf565b6120fd6020830186611dbf565b61210a604083018561208d565b818103606083015261211c8184611ddd565b905095945050505050565b600060208201905061213c6000830184611dce565b92915050565b6000602082019050818103600083015261215c8184611e16565b905092915050565b6000602082019050818103600083015261217d81611e80565b9050919050565b6000602082019050818103600083015261219d81611ea3565b9050919050565b600060208201905081810360008301526121bd81611ec6565b9050919050565b600060208201905081810360008301526121dd81611ee9565b9050919050565b600060208201905081810360008301526121fd81611f0c565b9050919050565b6000602082019050818103600083015261221d81611f2f565b9050919050565b6000602082019050818103600083015261223d81611f52565b9050919050565b6000602082019050818103600083015261225d81611f75565b9050919050565b6000602082019050818103600083015261227d81611f98565b9050919050565b6000602082019050818103600083015261229d81611fbb565b9050919050565b600060208201905081810360008301526122bd81611fde565b9050919050565b600060208201905081810360008301526122dd81612001565b9050919050565b600060208201905081810360008301526122fd81612024565b9050919050565b6000602082019050818103600083015261231d81612047565b9050919050565b6000602082019050818103600083015261233d8161206a565b9050919050565b6000602082019050612359600083018461208d565b92915050565b600061236961237a565b9050612375828261265b565b919050565b6000604051905090565b600067ffffffffffffffff82111561239f5761239e6127c2565b5b6123a882612805565b9050602081019050919050565b600081519050919050565b600081519050919050565b600082825260208201905092915050565b600082825260208201905092915050565b600081905092915050565b600061240382612577565b915061240e83612577565b9250826fffffffffffffffffffffffffffffffff0382111561243357612432612706565b5b828201905092915050565b6000612449826125b3565b9150612454836125b3565b9250827fffffffffffffffffffffffffffffffffffffffffffffffffffffffffffffffff0382111561248957612488612706565b5b828201905092915050565b600061249f826125b3565b91506124aa836125b3565b9250826124ba576124b9612735565b5b828204905092915050565b60006124d082612577565b91506124db83612577565b9250828210156124ee576124ed612706565b5b828203905092915050565b6000612504826125b3565b915061250f836125b3565b92508282101561252257612521612706565b5b828203905092915050565b600061253882612593565b9050919050565b60008115159050919050565b60007fffffffff0000000000000000000000000000000000000000000000000000000082169050919050565b60006fffffffffffffffffffffffffffffffff82169050919050565b600073ffffffffffffffffffffffffffffffffffffffff82169050919050565b6000819050919050565b82818337600083830152505050565b60005b838110156125ea5780820151818401526020810190506125cf565b838111156125f9576000848401525b50505050565b600061260a826125b3565b9150600082141561261e5761261d612706565b5b600182039050919050565b6000600282049050600182168061264157607f821691505b6020821081141561265557612654612764565b5b50919050565b61266482612805565b810181811067ffffffffffffffff82111715612683576126826127c2565b5b80604052505050565b6000612697826125b3565b91507fffffffffffffffffffffffffffffffffffffffffffffffffffffffffffffffff8214156126ca576126c9612706565b5b600182019050919050565b60006126e0826125b3565b91506126eb836125b3565b9250826126fb576126fa612735565b5b828206905092915050565b7f4e487b7100000000000000000000000000000000000000000000000000000000600052601160045260246000fd5b7f4e487b7100000000000000000000000000000000000000000000000000000000600052601260045260246000fd5b7f4e487b7100000000000000000000000000000000000000000000000000000000600052602260045260246000fd5b7f4e487b7100000000000000000000000000000000000000000000000000000000600052603260045260246000fd5b7f4e487b7100000000000000000000000000000000000000000000000000000000600052604160045260246000fd5b600080fd5b600080fd5b600080fd5b600080fd5b6000601f19601f8301169050919050565b7f455243373231413a206f776e657220696e646578206f7574206f6620626f756e60008201527f6473000000000000000000000000000000000000000000000000000000000000602082015250565b7f455243373231413a206f776e657220717565727920666f72206e6f6e6578697360008201527f74656e7420746f6b656e00000000000000000000000000000000000000000000602082015250565b7f455243373231413a20676c6f62616c20696e646578206f7574206f6620626f7560008201527f6e64730000000000000000000000000000000000000000000000000000000000602082015250565b7f455243373231413a207472616e7366657220746f20746865207a65726f20616460008201527f6472657373000000000000000000000000000000000000000000000000000000602082015250565b7f455243373231413a20617070726f76652063616c6c6572206973206e6f74206f60008201527f776e6572206e6f7220617070726f76656420666f7220616c6c00000000000000602082015250565b7f455243373231413a2062616c616e636520717565727920666f7220746865207a60008201527f65726f2061646472657373000000000000000000000000000000000000000000602082015250565b7f455243373231413a207472616e736665722066726f6d20696e636f727265637460008201527f206f776e65720000000000000000000000000000000000000000000000000000602082015250565b7f4552433732314d657461646174613a2055524920717565727920666f72206e6f60008201527f6e6578697374656e7420746f6b656e0000000000000000000000000000000000602082015250565b7f455243373231413a20617070726f766520746f2063616c6c6572000000000000600082015250565b7f455243373231413a207472616e736665722063616c6c6572206973206e6f742060008201527f6f776e6572206e6f7220617070726f7665640000000000000000000000000000602082015250565b7f455243373231413a20617070726f76616c20746f2063757272656e74206f776e60008201527f6572000000000000000000000000000000000000000000000000000000000000602082015250565b7f455243373231413a207472616e7366657220746f206e6f6e204552433732315260008201527f6563656976657220696d706c656d656e74657200000000000000000000000000602082015250565b7f455243373231413a20756e61626c6520746f2067657420746f6b656e206f662060008201527f6f776e657220627920696e646578000000000000000000000000000000000000602082015250565b7f455243373231413a20756e61626c6520746f2064657465726d696e652074686560008201527f206f776e6572206f6620746f6b656e0000000000000000000000000000000000602082015250565b7f455243373231413a20617070726f76656420717565727920666f72206e6f6e6560008201527f78697374656e7420746f6b656e00000000000000000000000000000000000000602082015250565b612c9a8161252d565b8114612ca557600080fd5b50565b612cb18161253f565b8114612cbc57600080fd5b50565b612cc88161254b565b8114612cd357600080fd5b50565b612cdf816125b3565b8114612cea57600080fd5b5056fea2646970667358221220886b943185a9e6ac1972d40a2891ace1ce204a1213628b769b7827888bfc51d464736f6c63430008070033",
					"opcodes": "PUSH1 0xC0 PUSH1 0x40 MSTORE PUSH1 0x0 DUP1 SSTORE PUSH1 0x0 PUSH1 0x7 SSTORE CALLVALUE DUP1 ISZERO PUSH3 0x1A JUMPI PUSH1 0x0 DUP1 REVERT JUMPDEST POP PUSH1 0x40 MLOAD PUSH3 0x3343 CODESIZE SUB DUP1 PUSH3 0x3343 DUP4 CODECOPY DUP2 DUP2 ADD PUSH1 0x40 MSTORE DUP2 ADD SWAP1 PUSH3 0x40 SWAP2 SWAP1 PUSH3 0x25D JUMP JUMPDEST PUSH1 0x0 DUP2 GT PUSH3 0x86 JUMPI PUSH1 0x40 MLOAD PUSH32 0x8C379A000000000000000000000000000000000000000000000000000000000 DUP2 MSTORE PUSH1 0x4 ADD PUSH3 0x7D SWAP1 PUSH3 0x37D JUMP JUMPDEST PUSH1 0x40 MLOAD DUP1 SWAP2 SUB SWAP1 REVERT JUMPDEST PUSH1 0x0 DUP3 GT PUSH3 0xCC JUMPI PUSH1 0x40 MLOAD PUSH32 0x8C379A000000000000000000000000000000000000000000000000000000000 DUP2 MSTORE PUSH1 0x4 ADD PUSH3 0xC3 SWAP1 PUSH3 0x35B JUMP JUMPDEST PUSH1 0x40 MLOAD DUP1 SWAP2 SUB SWAP1 REVERT JUMPDEST DUP4 PUSH1 0x1 SWAP1 DUP1 MLOAD SWAP1 PUSH1 0x20 ADD SWAP1 PUSH3 0xE4 SWAP3 SWAP2 SWAP1 PUSH3 0x118 JUMP JUMPDEST POP DUP3 PUSH1 0x2 SWAP1 DUP1 MLOAD SWAP1 PUSH1 0x20 ADD SWAP1 PUSH3 0xFD SWAP3 SWAP2 SWAP1 PUSH3 0x118 JUMP JUMPDEST POP DUP2 PUSH1 0xA0 DUP2 DUP2 MSTORE POP POP DUP1 PUSH1 0x80 DUP2 DUP2 MSTORE POP POP POP POP POP POP PUSH3 0x5F6 JUMP JUMPDEST DUP3 DUP1 SLOAD PUSH3 0x126 SWAP1 PUSH3 0x44F JUMP JUMPDEST SWAP1 PUSH1 0x0 MSTORE PUSH1 0x20 PUSH1 0x0 KECCAK256 SWAP1 PUSH1 0x1F ADD PUSH1 0x20 SWAP1 DIV DUP2 ADD SWAP3 DUP3 PUSH3 0x14A JUMPI PUSH1 0x0 DUP6 SSTORE PUSH3 0x196 JUMP JUMPDEST DUP3 PUSH1 0x1F LT PUSH3 0x165 JUMPI DUP1 MLOAD PUSH1 0xFF NOT AND DUP4 DUP1 ADD OR DUP6 SSTORE PUSH3 0x196 JUMP JUMPDEST DUP3 DUP1 ADD PUSH1 0x1 ADD DUP6 SSTORE DUP3 ISZERO PUSH3 0x196 JUMPI SWAP2 DUP3 ADD JUMPDEST DUP3 DUP2 GT ISZERO PUSH3 0x195 JUMPI DUP3 MLOAD DUP3 SSTORE SWAP2 PUSH1 0x20 ADD SWAP2 SWAP1 PUSH1 0x1 ADD SWAP1 PUSH3 0x178 JUMP JUMPDEST JUMPDEST POP SWAP1 POP PUSH3 0x1A5 SWAP2 SWAP1 PUSH3 0x1A9 JUMP JUMPDEST POP SWAP1 JUMP JUMPDEST JUMPDEST DUP1 DUP3 GT ISZERO PUSH3 0x1C4 JUMPI PUSH1 0x0 DUP2 PUSH1 0x0 SWAP1 SSTORE POP PUSH1 0x1 ADD PUSH3 0x1AA JUMP JUMPDEST POP SWAP1 JUMP JUMPDEST PUSH1 0x0 PUSH3 0x1DF PUSH3 0x1D9 DUP5 PUSH3 0x3C8 JUMP JUMPDEST PUSH3 0x39F JUMP JUMPDEST SWAP1 POP DUP3 DUP2 MSTORE PUSH1 0x20 DUP2 ADD DUP5 DUP5 DUP5 ADD GT ISZERO PUSH3 0x1FE JUMPI PUSH3 0x1FD PUSH3 0x51E JUMP JUMPDEST JUMPDEST PUSH3 0x20B DUP5 DUP3 DUP6 PUSH3 0x419 JUMP JUMPDEST POP SWAP4 SWAP3 POP POP POP JUMP JUMPDEST PUSH1 0x0 DUP3 PUSH1 0x1F DUP4 ADD SLT PUSH3 0x22B JUMPI PUSH3 0x22A PUSH3 0x519 JUMP JUMPDEST JUMPDEST DUP2 MLOAD PUSH3 0x23D DUP5 DUP3 PUSH1 0x20 DUP7 ADD PUSH3 0x1C8 JUMP JUMPDEST SWAP2 POP POP SWAP3 SWAP2 POP POP JUMP JUMPDEST PUSH1 0x0 DUP2 MLOAD SWAP1 POP PUSH3 0x257 DUP2 PUSH3 0x5DC JUMP JUMPDEST SWAP3 SWAP2 POP POP JUMP JUMPDEST PUSH1 0x0 DUP1 PUSH1 0x0 DUP1 PUSH1 0x80 DUP6 DUP8 SUB SLT ISZERO PUSH3 0x27A JUMPI PUSH3 0x279 PUSH3 0x528 JUMP JUMPDEST JUMPDEST PUSH1 0x0 DUP6 ADD MLOAD PUSH8 0xFFFFFFFFFFFFFFFF DUP2 GT ISZERO PUSH3 0x29B JUMPI PUSH3 0x29A PUSH3 0x523 JUMP JUMPDEST JUMPDEST PUSH3 0x2A9 DUP8 DUP3 DUP9 ADD PUSH3 0x213 JUMP JUMPDEST SWAP5 POP POP PUSH1 0x20 DUP6 ADD MLOAD PUSH8 0xFFFFFFFFFFFFFFFF DUP2 GT ISZERO PUSH3 0x2CD JUMPI PUSH3 0x2CC PUSH3 0x523 JUMP JUMPDEST JUMPDEST PUSH3 0x2DB DUP8 DUP3 DUP9 ADD PUSH3 0x213 JUMP JUMPDEST SWAP4 POP POP PUSH1 0x40 PUSH3 0x2EE DUP8 DUP3 DUP9 ADD PUSH3 0x246 JUMP JUMPDEST SWAP3 POP POP PUSH1 0x60 PUSH3 0x301 DUP8 DUP3 DUP9 ADD PUSH3 0x246 JUMP JUMPDEST SWAP2 POP POP SWAP3 SWAP6 SWAP2 SWAP5 POP SWAP3 POP JUMP JUMPDEST PUSH1 0x0 PUSH3 0x31C PUSH1 0x27 DUP4 PUSH3 0x3FE JUMP JUMPDEST SWAP2 POP PUSH3 0x329 DUP3 PUSH3 0x53E JUMP JUMPDEST PUSH1 0x40 DUP3 ADD SWAP1 POP SWAP2 SWAP1 POP JUMP JUMPDEST PUSH1 0x0 PUSH3 0x343 PUSH1 0x2E DUP4 PUSH3 0x3FE JUMP JUMPDEST SWAP2 POP PUSH3 0x350 DUP3 PUSH3 0x58D JUMP JUMPDEST PUSH1 0x40 DUP3 ADD SWAP1 POP SWAP2 SWAP1 POP JUMP JUMPDEST PUSH1 0x0 PUSH1 0x20 DUP3 ADD SWAP1 POP DUP2 DUP2 SUB PUSH1 0x0 DUP4 ADD MSTORE PUSH3 0x376 DUP2 PUSH3 0x30D JUMP JUMPDEST SWAP1 POP SWAP2 SWAP1 POP JUMP JUMPDEST PUSH1 0x0 PUSH1 0x20 DUP3 ADD SWAP1 POP DUP2 DUP2 SUB PUSH1 0x0 DUP4 ADD MSTORE PUSH3 0x398 DUP2 PUSH3 0x334 JUMP JUMPDEST SWAP1 POP SWAP2 SWAP1 POP JUMP JUMPDEST PUSH1 0x0 PUSH3 0x3AB PUSH3 0x3BE JUMP JUMPDEST SWAP1 POP PUSH3 0x3B9 DUP3 DUP3 PUSH3 0x485 JUMP JUMPDEST SWAP2 SWAP1 POP JUMP JUMPDEST PUSH1 0x0 PUSH1 0x40 MLOAD SWAP1 POP SWAP1 JUMP JUMPDEST PUSH1 0x0 PUSH8 0xFFFFFFFFFFFFFFFF DUP3 GT ISZERO PUSH3 0x3E6 JUMPI PUSH3 0x3E5 PUSH3 0x4EA JUMP JUMPDEST JUMPDEST PUSH3 0x3F1 DUP3 PUSH3 0x52D JUMP JUMPDEST SWAP1 POP PUSH1 0x20 DUP2 ADD SWAP1 POP SWAP2 SWAP1 POP JUMP JUMPDEST PUSH1 0x0 DUP3 DUP3 MSTORE PUSH1 0x20 DUP3 ADD SWAP1 POP SWAP3 SWAP2 POP POP JUMP JUMPDEST PUSH1 0x0 DUP2 SWAP1 POP SWAP2 SWAP1 POP JUMP JUMPDEST PUSH1 0x0 JUMPDEST DUP4 DUP2 LT ISZERO PUSH3 0x439 JUMPI DUP1 DUP3 ADD MLOAD DUP2 DUP5 ADD MSTORE PUSH1 0x20 DUP2 ADD SWAP1 POP PUSH3 0x41C JUMP JUMPDEST DUP4 DUP2 GT ISZERO PUSH3 0x449 JUMPI PUSH1 0x0 DUP5 DUP5 ADD MSTORE JUMPDEST POP POP POP POP JUMP JUMPDEST PUSH1 0x0 PUSH1 0x2 DUP3 DIV SWAP1 POP PUSH1 0x1 DUP3 AND DUP1 PUSH3 0x468 JUMPI PUSH1 0x7F DUP3 AND SWAP2 POP JUMPDEST PUSH1 0x20 DUP3 LT DUP2 EQ ISZERO PUSH3 0x47F JUMPI PUSH3 0x47E PUSH3 0x4BB JUMP JUMPDEST JUMPDEST POP SWAP2 SWAP1 POP JUMP JUMPDEST PUSH3 0x490 DUP3 PUSH3 0x52D JUMP JUMPDEST DUP2 ADD DUP2 DUP2 LT PUSH8 0xFFFFFFFFFFFFFFFF DUP3 GT OR ISZERO PUSH3 0x4B2 JUMPI PUSH3 0x4B1 PUSH3 0x4EA JUMP JUMPDEST JUMPDEST DUP1 PUSH1 0x40 MSTORE POP POP POP JUMP JUMPDEST PUSH32 0x4E487B7100000000000000000000000000000000000000000000000000000000 PUSH1 0x0 MSTORE PUSH1 0x22 PUSH1 0x4 MSTORE PUSH1 0x24 PUSH1 0x0 REVERT JUMPDEST PUSH32 0x4E487B7100000000000000000000000000000000000000000000000000000000 PUSH1 0x0 MSTORE PUSH1 0x41 PUSH1 0x4 MSTORE PUSH1 0x24 PUSH1 0x0 REVERT JUMPDEST PUSH1 0x0 DUP1 REVERT JUMPDEST PUSH1 0x0 DUP1 REVERT JUMPDEST PUSH1 0x0 DUP1 REVERT JUMPDEST PUSH1 0x0 DUP1 REVERT JUMPDEST PUSH1 0x0 PUSH1 0x1F NOT PUSH1 0x1F DUP4 ADD AND SWAP1 POP SWAP2 SWAP1 POP JUMP JUMPDEST PUSH32 0x455243373231413A206D61782062617463682073697A65206D75737420626520 PUSH1 0x0 DUP3 ADD MSTORE PUSH32 0x6E6F6E7A65726F00000000000000000000000000000000000000000000000000 PUSH1 0x20 DUP3 ADD MSTORE POP JUMP JUMPDEST PUSH32 0x455243373231413A20636F6C6C656374696F6E206D7573742068617665206120 PUSH1 0x0 DUP3 ADD MSTORE PUSH32 0x6E6F6E7A65726F20737570706C79000000000000000000000000000000000000 PUSH1 0x20 DUP3 ADD MSTORE POP JUMP JUMPDEST PUSH3 0x5E7 DUP2 PUSH3 0x40F JUMP JUMPDEST DUP2 EQ PUSH3 0x5F3 JUMPI PUSH1 0x0 DUP1 REVERT JUMPDEST POP JUMP JUMPDEST PUSH1 0x80 MLOAD PUSH1 0xA0 MLOAD PUSH2 0x2D23 PUSH3 0x620 PUSH1 0x0 CODECOPY PUSH1 0x0 DUP2 DUP2 PUSH2 0x1585 ADD MSTORE PUSH2 0x15AE ADD MSTORE PUSH1 0x0 POP POP PUSH2 0x2D23 PUSH1 0x0 RETURN INVALID PUSH1 0x80 PUSH1 0x40 MSTORE CALLVALUE DUP1 ISZERO PUSH2 0x10 JUMPI PUSH1 0x0 DUP1 REVERT JUMPDEST POP PUSH1 0x4 CALLDATASIZE LT PUSH2 0x10B JUMPI PUSH1 0x0 CALLDATALOAD PUSH1 0xE0 SHR DUP1 PUSH4 0x4F6CCCE7 GT PUSH2 0xA2 JUMPI DUP1 PUSH4 0xA22CB465 GT PUSH2 0x71 JUMPI DUP1 PUSH4 0xA22CB465 EQ PUSH2 0x2DE JUMPI DUP1 PUSH4 0xB88D4FDE EQ PUSH2 0x2FA JUMPI DUP1 PUSH4 0xC87B56DD EQ PUSH2 0x316 JUMPI DUP1 PUSH4 0xD7224BA0 EQ PUSH2 0x346 JUMPI DUP1 PUSH4 0xE985E9C5 EQ PUSH2 0x364 JUMPI PUSH2 0x10B JUMP JUMPDEST DUP1 PUSH4 0x4F6CCCE7 EQ PUSH2 0x230 JUMPI DUP1 PUSH4 0x6352211E EQ PUSH2 0x260 JUMPI DUP1 PUSH4 0x70A08231 EQ PUSH2 0x290 JUMPI DUP1 PUSH4 0x95D89B41 EQ PUSH2 0x2C0 JUMPI PUSH2 0x10B JUMP JUMPDEST DUP1 PUSH4 0x18160DDD GT PUSH2 0xDE JUMPI DUP1 PUSH4 0x18160DDD EQ PUSH2 0x1AA JUMPI DUP1 PUSH4 0x23B872DD EQ PUSH2 0x1C8 JUMPI DUP1 PUSH4 0x2F745C59 EQ PUSH2 0x1E4 JUMPI DUP1 PUSH4 0x42842E0E EQ PUSH2 0x214 JUMPI PUSH2 0x10B JUMP JUMPDEST DUP1 PUSH4 0x1FFC9A7 EQ PUSH2 0x110 JUMPI DUP1 PUSH4 0x6FDDE03 EQ PUSH2 0x140 JUMPI DUP1 PUSH4 0x81812FC EQ PUSH2 0x15E JUMPI DUP1 PUSH4 0x95EA7B3 EQ PUSH2 0x18E JUMPI JUMPDEST PUSH1 0x0 DUP1 REVERT JUMPDEST PUSH2 0x12A PUSH1 0x4 DUP1 CALLDATASIZE SUB DUP2 ADD SWAP1 PUSH2 0x125 SWAP2 SWAP1 PUSH2 0x1D38 JUMP JUMPDEST PUSH2 0x394 JUMP JUMPDEST PUSH1 0x40 MLOAD PUSH2 0x137 SWAP2 SWAP1 PUSH2 0x2127 JUMP JUMPDEST PUSH1 0x40 MLOAD DUP1 SWAP2 SUB SWAP1 RETURN JUMPDEST PUSH2 0x148 PUSH2 0x4DE JUMP JUMPDEST PUSH1 0x40 MLOAD PUSH2 0x155 SWAP2 SWAP1 PUSH2 0x2142 JUMP JUMPDEST PUSH1 0x40 MLOAD DUP1 SWAP2 SUB SWAP1 RETURN JUMPDEST PUSH2 0x178 PUSH1 0x4 DUP1 CALLDATASIZE SUB DUP2 ADD SWAP1 PUSH2 0x173 SWAP2 SWAP1 PUSH2 0x1D92 JUMP JUMPDEST PUSH2 0x570 JUMP JUMPDEST PUSH1 0x40 MLOAD PUSH2 0x185 SWAP2 SWAP1 PUSH2 0x20C0 JUMP JUMPDEST PUSH1 0x40 MLOAD DUP1 SWAP2 SUB SWAP1 RETURN JUMPDEST PUSH2 0x1A8 PUSH1 0x4 DUP1 CALLDATASIZE SUB DUP2 ADD SWAP1 PUSH2 0x1A3 SWAP2 SWAP1 PUSH2 0x1CF8 JUMP JUMPDEST PUSH2 0x5F5 JUMP JUMPDEST STOP JUMPDEST PUSH2 0x1B2 PUSH2 0x70E JUMP JUMPDEST PUSH1 0x40 MLOAD PUSH2 0x1BF SWAP2 SWAP1 PUSH2 0x2344 JUMP JUMPDEST PUSH1 0x40 MLOAD DUP1 SWAP2 SUB SWAP1 RETURN JUMPDEST PUSH2 0x1E2 PUSH1 0x4 DUP1 CALLDATASIZE SUB DUP2 ADD SWAP1 PUSH2 0x1DD SWAP2 SWAP1 PUSH2 0x1BE2 JUMP JUMPDEST PUSH2 0x717 JUMP JUMPDEST STOP JUMPDEST PUSH2 0x1FE PUSH1 0x4 DUP1 CALLDATASIZE SUB DUP2 ADD SWAP1 PUSH2 0x1F9 SWAP2 SWAP1 PUSH2 0x1CF8 JUMP JUMPDEST PUSH2 0x727 JUMP JUMPDEST PUSH1 0x40 MLOAD PUSH2 0x20B SWAP2 SWAP1 PUSH2 0x2344 JUMP JUMPDEST PUSH1 0x40 MLOAD DUP1 SWAP2 SUB SWAP1 RETURN JUMPDEST PUSH2 0x22E PUSH1 0x4 DUP1 CALLDATASIZE SUB DUP2 ADD SWAP1 PUSH2 0x229 SWAP2 SWAP1 PUSH2 0x1BE2 JUMP JUMPDEST PUSH2 0x925 JUMP JUMPDEST STOP JUMPDEST PUSH2 0x24A PUSH1 0x4 DUP1 CALLDATASIZE SUB DUP2 ADD SWAP1 PUSH2 0x245 SWAP2 SWAP1 PUSH2 0x1D92 JUMP JUMPDEST PUSH2 0x945 JUMP JUMPDEST PUSH1 0x40 MLOAD PUSH2 0x257 SWAP2 SWAP1 PUSH2 0x2344 JUMP JUMPDEST PUSH1 0x40 MLOAD DUP1 SWAP2 SUB SWAP1 RETURN JUMPDEST PUSH2 0x27A PUSH1 0x4 DUP1 CALLDATASIZE SUB DUP2 ADD SWAP1 PUSH2 0x275 SWAP2 SWAP1 PUSH2 0x1D92 JUMP JUMPDEST PUSH2 0x998 JUMP JUMPDEST PUSH1 0x40 MLOAD PUSH2 0x287 SWAP2 SWAP1 PUSH2 0x20C0 JUMP JUMPDEST PUSH1 0x40 MLOAD DUP1 SWAP2 SUB SWAP1 RETURN JUMPDEST PUSH2 0x2AA PUSH1 0x4 DUP1 CALLDATASIZE SUB DUP2 ADD SWAP1 PUSH2 0x2A5 SWAP2 SWAP1 PUSH2 0x1B75 JUMP JUMPDEST PUSH2 0x9AE JUMP JUMPDEST PUSH1 0x40 MLOAD PUSH2 0x2B7 SWAP2 SWAP1 PUSH2 0x2344 JUMP JUMPDEST PUSH1 0x40 MLOAD DUP1 SWAP2 SUB SWAP1 RETURN JUMPDEST PUSH2 0x2C8 PUSH2 0xA97 JUMP JUMPDEST PUSH1 0x40 MLOAD PUSH2 0x2D5 SWAP2 SWAP1 PUSH2 0x2142 JUMP JUMPDEST PUSH1 0x40 MLOAD DUP1 SWAP2 SUB SWAP1 RETURN JUMPDEST PUSH2 0x2F8 PUSH1 0x4 DUP1 CALLDATASIZE SUB DUP2 ADD SWAP1 PUSH2 0x2F3 SWAP2 SWAP1 PUSH2 0x1CB8 JUMP JUMPDEST PUSH2 0xB29 JUMP JUMPDEST STOP JUMPDEST PUSH2 0x314 PUSH1 0x4 DUP1 CALLDATASIZE SUB DUP2 ADD SWAP1 PUSH2 0x30F SWAP2 SWAP1 PUSH2 0x1C35 JUMP JUMPDEST PUSH2 0xCAA JUMP JUMPDEST STOP JUMPDEST PUSH2 0x330 PUSH1 0x4 DUP1 CALLDATASIZE SUB DUP2 ADD SWAP1 PUSH2 0x32B SWAP2 SWAP1 PUSH2 0x1D92 JUMP JUMPDEST PUSH2 0xD06 JUMP JUMPDEST PUSH1 0x40 MLOAD PUSH2 0x33D SWAP2 SWAP1 PUSH2 0x2142 JUMP JUMPDEST PUSH1 0x40 MLOAD DUP1 SWAP2 SUB SWAP1 RETURN JUMPDEST PUSH2 0x34E PUSH2 0xDAD JUMP JUMPDEST PUSH1 0x40 MLOAD PUSH2 0x35B SWAP2 SWAP1 PUSH2 0x2344 JUMP JUMPDEST PUSH1 0x40 MLOAD DUP1 SWAP2 SUB SWAP1 RETURN JUMPDEST PUSH2 0x37E PUSH1 0x4 DUP1 CALLDATASIZE SUB DUP2 ADD SWAP1 PUSH2 0x379 SWAP2 SWAP1 PUSH2 0x1BA2 JUMP JUMPDEST PUSH2 0xDB3 JUMP JUMPDEST PUSH1 0x40 MLOAD PUSH2 0x38B SWAP2 SWAP1 PUSH2 0x2127 JUMP JUMPDEST PUSH1 0x40 MLOAD DUP1 SWAP2 SUB SWAP1 RETURN JUMPDEST PUSH1 0x0 PUSH32 0x80AC58CD00000000000000000000000000000000000000000000000000000000 PUSH28 0xFFFFFFFFFFFFFFFFFFFFFFFFFFFFFFFFFFFFFFFFFFFFFFFFFFFFFFFF NOT AND DUP3 PUSH28 0xFFFFFFFFFFFFFFFFFFFFFFFFFFFFFFFFFFFFFFFFFFFFFFFFFFFFFFFF NOT AND EQ DUP1 PUSH2 0x45F JUMPI POP PUSH32 0x5B5E139F00000000000000000000000000000000000000000000000000000000 PUSH28 0xFFFFFFFFFFFFFFFFFFFFFFFFFFFFFFFFFFFFFFFFFFFFFFFFFFFFFFFF NOT AND DUP3 PUSH28 0xFFFFFFFFFFFFFFFFFFFFFFFFFFFFFFFFFFFFFFFFFFFFFFFFFFFFFFFF NOT AND EQ JUMPDEST DUP1 PUSH2 0x4C7 JUMPI POP PUSH32 0x780E9D6300000000000000000000000000000000000000000000000000000000 PUSH28 0xFFFFFFFFFFFFFFFFFFFFFFFFFFFFFFFFFFFFFFFFFFFFFFFFFFFFFFFF NOT AND DUP3 PUSH28 0xFFFFFFFFFFFFFFFFFFFFFFFFFFFFFFFFFFFFFFFFFFFFFFFFFFFFFFFF NOT AND EQ JUMPDEST DUP1 PUSH2 0x4D7 JUMPI POP PUSH2 0x4D6 DUP3 PUSH2 0xE47 JUMP JUMPDEST JUMPDEST SWAP1 POP SWAP2 SWAP1 POP JUMP JUMPDEST PUSH1 0x60 PUSH1 0x1 DUP1 SLOAD PUSH2 0x4ED SWAP1 PUSH2 0x2629 JUMP JUMPDEST DUP1 PUSH1 0x1F ADD PUSH1 0x20 DUP1 SWAP2 DIV MUL PUSH1 0x20 ADD PUSH1 0x40 MLOAD SWAP1 DUP2 ADD PUSH1 0x40 MSTORE DUP1 SWAP3 SWAP2 SWAP1 DUP2 DUP2 MSTORE PUSH1 0x20 ADD DUP3 DUP1 SLOAD PUSH2 0x519 SWAP1 PUSH2 0x2629 JUMP JUMPDEST DUP1 ISZERO PUSH2 0x566 JUMPI DUP1 PUSH1 0x1F LT PUSH2 0x53B JUMPI PUSH2 0x100 DUP1 DUP4 SLOAD DIV MUL DUP4 MSTORE SWAP2 PUSH1 0x20 ADD SWAP2 PUSH2 0x566 JUMP JUMPDEST DUP3 ADD SWAP2 SWAP1 PUSH1 0x0 MSTORE PUSH1 0x20 PUSH1 0x0 KECCAK256 SWAP1 JUMPDEST DUP2 SLOAD DUP2 MSTORE SWAP1 PUSH1 0x1 ADD SWAP1 PUSH1 0x20 ADD DUP1 DUP4 GT PUSH2 0x549 JUMPI DUP3 SWAP1 SUB PUSH1 0x1F AND DUP3 ADD SWAP2 JUMPDEST POP POP POP POP POP SWAP1 POP SWAP1 JUMP JUMPDEST PUSH1 0x0 PUSH2 0x57B DUP3 PUSH2 0xEB1 JUMP JUMPDEST PUSH2 0x5BA JUMPI PUSH1 0x40 MLOAD PUSH32 0x8C379A000000000000000000000000000000000000000000000000000000000 DUP2 MSTORE PUSH1 0x4 ADD PUSH2 0x5B1 SWAP1 PUSH2 0x2324 JUMP JUMPDEST PUSH1 0x40 MLOAD DUP1 SWAP2 SUB SWAP1 REVERT JUMPDEST PUSH1 0x5 PUSH1 0x0 DUP4 DUP2 MSTORE PUSH1 0x20 ADD SWAP1 DUP2 MSTORE PUSH1 0x20 ADD PUSH1 0x0 KECCAK256 PUSH1 0x0 SWAP1 SLOAD SWAP1 PUSH2 0x100 EXP SWAP1 DIV PUSH20 0xFFFFFFFFFFFFFFFFFFFFFFFFFFFFFFFFFFFFFFFF AND SWAP1 POP SWAP2 SWAP1 POP JUMP JUMPDEST PUSH1 0x0 PUSH2 0x600 DUP3 PUSH2 0x998 JUMP JUMPDEST SWAP1 POP DUP1 PUSH20 0xFFFFFFFFFFFFFFFFFFFFFFFFFFFFFFFFFFFFFFFF AND DUP4 PUSH20 0xFFFFFFFFFFFFFFFFFFFFFFFFFFFFFFFFFFFFFFFF AND EQ ISZERO PUSH2 0x671 JUMPI PUSH1 0x40 MLOAD PUSH32 0x8C379A000000000000000000000000000000000000000000000000000000000 DUP2 MSTORE PUSH1 0x4 ADD PUSH2 0x668 SWAP1 PUSH2 0x22A4 JUMP JUMPDEST PUSH1 0x40 MLOAD DUP1 SWAP2 SUB SWAP1 REVERT JUMPDEST DUP1 PUSH20 0xFFFFFFFFFFFFFFFFFFFFFFFFFFFFFFFFFFFFFFFF AND PUSH2 0x690 PUSH2 0xEBE JUMP JUMPDEST PUSH20 0xFFFFFFFFFFFFFFFFFFFFFFFFFFFFFFFFFFFFFFFF AND EQ DUP1 PUSH2 0x6BF JUMPI POP PUSH2 0x6BE DUP2 PUSH2 0x6B9 PUSH2 0xEBE JUMP JUMPDEST PUSH2 0xDB3 JUMP JUMPDEST JUMPDEST PUSH2 0x6FE JUMPI PUSH1 0x40 MLOAD PUSH32 0x8C379A000000000000000000000000000000000000000000000000000000000 DUP2 MSTORE PUSH1 0x4 ADD PUSH2 0x6F5 SWAP1 PUSH2 0x21E4 JUMP JUMPDEST PUSH1 0x40 MLOAD DUP1 SWAP2 SUB SWAP1 REVERT JUMPDEST PUSH2 0x709 DUP4 DUP4 DUP4 PUSH2 0xEC6 JUMP JUMPDEST POP POP POP JUMP JUMPDEST PUSH1 0x0 DUP1 SLOAD SWAP1 POP SWAP1 JUMP JUMPDEST PUSH2 0x722 DUP4 DUP4 DUP4 PUSH2 0xF78 JUMP JUMPDEST POP POP POP JUMP JUMPDEST PUSH1 0x0 PUSH2 0x732 DUP4 PUSH2 0x9AE JUMP JUMPDEST DUP3 LT PUSH2 0x773 JUMPI PUSH1 0x40 MLOAD PUSH32 0x8C379A000000000000000000000000000000000000000000000000000000000 DUP2 MSTORE PUSH1 0x4 ADD PUSH2 0x76A SWAP1 PUSH2 0x2164 JUMP JUMPDEST PUSH1 0x40 MLOAD DUP1 SWAP2 SUB SWAP1 REVERT JUMPDEST PUSH1 0x0 PUSH2 0x77D PUSH2 0x70E JUMP JUMPDEST SWAP1 POP PUSH1 0x0 DUP1 PUSH1 0x0 JUMPDEST DUP4 DUP2 LT ISZERO PUSH2 0x8E3 JUMPI PUSH1 0x0 PUSH1 0x3 PUSH1 0x0 DUP4 DUP2 MSTORE PUSH1 0x20 ADD SWAP1 DUP2 MSTORE PUSH1 0x20 ADD PUSH1 0x0 KECCAK256 PUSH1 0x40 MLOAD DUP1 PUSH1 0x40 ADD PUSH1 0x40 MSTORE SWAP1 DUP2 PUSH1 0x0 DUP3 ADD PUSH1 0x0 SWAP1 SLOAD SWAP1 PUSH2 0x100 EXP SWAP1 DIV PUSH20 0xFFFFFFFFFFFFFFFFFFFFFFFFFFFFFFFFFFFFFFFF AND PUSH20 0xFFFFFFFFFFFFFFFFFFFFFFFFFFFFFFFFFFFFFFFF AND PUSH20 0xFFFFFFFFFFFFFFFFFFFFFFFFFFFFFFFFFFFFFFFF AND DUP2 MSTORE PUSH1 0x20 ADD PUSH1 0x0 DUP3 ADD PUSH1 0x14 SWAP1 SLOAD SWAP1 PUSH2 0x100 EXP SWAP1 DIV PUSH8 0xFFFFFFFFFFFFFFFF AND PUSH8 0xFFFFFFFFFFFFFFFF AND PUSH8 0xFFFFFFFFFFFFFFFF AND DUP2 MSTORE POP POP SWAP1 POP PUSH1 0x0 PUSH20 0xFFFFFFFFFFFFFFFFFFFFFFFFFFFFFFFFFFFFFFFF AND DUP2 PUSH1 0x0 ADD MLOAD PUSH20 0xFFFFFFFFFFFFFFFFFFFFFFFFFFFFFFFFFFFFFFFF AND EQ PUSH2 0x877 JUMPI DUP1 PUSH1 0x0 ADD MLOAD SWAP3 POP JUMPDEST DUP8 PUSH20 0xFFFFFFFFFFFFFFFFFFFFFFFFFFFFFFFFFFFFFFFF AND DUP4 PUSH20 0xFFFFFFFFFFFFFFFFFFFFFFFFFFFFFFFFFFFFFFFF AND EQ ISZERO PUSH2 0x8CF JUMPI DUP7 DUP5 EQ ISZERO PUSH2 0x8C0 JUMPI DUP2 SWAP6 POP POP POP POP POP POP PUSH2 0x91F JUMP JUMPDEST DUP4 DUP1 PUSH2 0x8CB SWAP1 PUSH2 0x268C JUMP JUMPDEST SWAP5 POP POP JUMPDEST POP DUP1 DUP1 PUSH2 0x8DB SWAP1 PUSH2 0x268C JUMP JUMPDEST SWAP2 POP POP PUSH2 0x785 JUMP JUMPDEST POP PUSH1 0x40 MLOAD PUSH32 0x8C379A000000000000000000000000000000000000000000000000000000000 DUP2 MSTORE PUSH1 0x4 ADD PUSH2 0x916 SWAP1 PUSH2 0x22E4 JUMP JUMPDEST PUSH1 0x40 MLOAD DUP1 SWAP2 SUB SWAP1 REVERT JUMPDEST SWAP3 SWAP2 POP POP JUMP JUMPDEST PUSH2 0x940 DUP4 DUP4 DUP4 PUSH1 0x40 MLOAD DUP1 PUSH1 0x20 ADD PUSH1 0x40 MSTORE DUP1 PUSH1 0x0 DUP2 MSTORE POP PUSH2 0xCAA JUMP JUMPDEST POP POP POP JUMP JUMPDEST PUSH1 0x0 PUSH2 0x94F PUSH2 0x70E JUMP JUMPDEST DUP3 LT PUSH2 0x990 JUMPI PUSH1 0x40 MLOAD PUSH32 0x8C379A000000000000000000000000000000000000000000000000000000000 DUP2 MSTORE PUSH1 0x4 ADD PUSH2 0x987 SWAP1 PUSH2 0x21A4 JUMP JUMPDEST PUSH1 0x40 MLOAD DUP1 SWAP2 SUB SWAP1 REVERT JUMPDEST DUP2 SWAP1 POP SWAP2 SWAP1 POP JUMP JUMPDEST PUSH1 0x0 PUSH2 0x9A3 DUP3 PUSH2 0x1531 JUMP JUMPDEST PUSH1 0x0 ADD MLOAD SWAP1 POP SWAP2 SWAP1 POP JUMP JUMPDEST PUSH1 0x0 DUP1 PUSH20 0xFFFFFFFFFFFFFFFFFFFFFFFFFFFFFFFFFFFFFFFF AND DUP3 PUSH20 0xFFFFFFFFFFFFFFFFFFFFFFFFFFFFFFFFFFFFFFFF AND EQ ISZERO PUSH2 0xA1F JUMPI PUSH1 0x40 MLOAD PUSH32 0x8C379A000000000000000000000000000000000000000000000000000000000 DUP2 MSTORE PUSH1 0x4 ADD PUSH2 0xA16 SWAP1 PUSH2 0x2204 JUMP JUMPDEST PUSH1 0x40 MLOAD DUP1 SWAP2 SUB SWAP1 REVERT JUMPDEST PUSH1 0x4 PUSH1 0x0 DUP4 PUSH20 0xFFFFFFFFFFFFFFFFFFFFFFFFFFFFFFFFFFFFFFFF AND PUSH20 0xFFFFFFFFFFFFFFFFFFFFFFFFFFFFFFFFFFFFFFFF AND DUP2 MSTORE PUSH1 0x20 ADD SWAP1 DUP2 MSTORE PUSH1 0x20 ADD PUSH1 0x0 KECCAK256 PUSH1 0x0 ADD PUSH1 0x0 SWAP1 SLOAD SWAP1 PUSH2 0x100 EXP SWAP1 DIV PUSH16 0xFFFFFFFFFFFFFFFFFFFFFFFFFFFFFFFF AND PUSH16 0xFFFFFFFFFFFFFFFFFFFFFFFFFFFFFFFF AND SWAP1 POP SWAP2 SWAP1 POP JUMP JUMPDEST PUSH1 0x60 PUSH1 0x2 DUP1 SLOAD PUSH2 0xAA6 SWAP1 PUSH2 0x2629 JUMP JUMPDEST DUP1 PUSH1 0x1F ADD PUSH1 0x20 DUP1 SWAP2 DIV MUL PUSH1 0x20 ADD PUSH1 0x40 MLOAD SWAP1 DUP2 ADD PUSH1 0x40 MSTORE DUP1 SWAP3 SWAP2 SWAP1 DUP2 DUP2 MSTORE PUSH1 0x20 ADD DUP3 DUP1 SLOAD PUSH2 0xAD2 SWAP1 PUSH2 0x2629 JUMP JUMPDEST DUP1 ISZERO PUSH2 0xB1F JUMPI DUP1 PUSH1 0x1F LT PUSH2 0xAF4 JUMPI PUSH2 0x100 DUP1 DUP4 SLOAD DIV MUL DUP4 MSTORE SWAP2 PUSH1 0x20 ADD SWAP2 PUSH2 0xB1F JUMP JUMPDEST DUP3 ADD SWAP2 SWAP1 PUSH1 0x0 MSTORE PUSH1 0x20 PUSH1 0x0 KECCAK256 SWAP1 JUMPDEST DUP2 SLOAD DUP2 MSTORE SWAP1 PUSH1 0x1 ADD SWAP1 PUSH1 0x20 ADD DUP1 DUP4 GT PUSH2 0xB02 JUMPI DUP3 SWAP1 SUB PUSH1 0x1F AND DUP3 ADD SWAP2 JUMPDEST POP POP POP POP POP SWAP1 POP SWAP1 JUMP JUMPDEST PUSH2 0xB31 PUSH2 0xEBE JUMP JUMPDEST PUSH20 0xFFFFFFFFFFFFFFFFFFFFFFFFFFFFFFFFFFFFFFFF AND DUP3 PUSH20 0xFFFFFFFFFFFFFFFFFFFFFFFFFFFFFFFFFFFFFFFF AND EQ ISZERO PUSH2 0xB9F JUMPI PUSH1 0x40 MLOAD PUSH32 0x8C379A000000000000000000000000000000000000000000000000000000000 DUP2 MSTORE PUSH1 0x4 ADD PUSH2 0xB96 SWAP1 PUSH2 0x2264 JUMP JUMPDEST PUSH1 0x40 MLOAD DUP1 SWAP2 SUB SWAP1 REVERT JUMPDEST DUP1 PUSH1 0x6 PUSH1 0x0 PUSH2 0xBAC PUSH2 0xEBE JUMP JUMPDEST PUSH20 0xFFFFFFFFFFFFFFFFFFFFFFFFFFFFFFFFFFFFFFFF AND PUSH20 0xFFFFFFFFFFFFFFFFFFFFFFFFFFFFFFFFFFFFFFFF AND DUP2 MSTORE PUSH1 0x20 ADD SWAP1 DUP2 MSTORE PUSH1 0x20 ADD PUSH1 0x0 KECCAK256 PUSH1 0x0 DUP5 PUSH20 0xFFFFFFFFFFFFFFFFFFFFFFFFFFFFFFFFFFFFFFFF AND PUSH20 0xFFFFFFFFFFFFFFFFFFFFFFFFFFFFFFFFFFFFFFFF AND DUP2 MSTORE PUSH1 0x20 ADD SWAP1 DUP2 MSTORE PUSH1 0x20 ADD PUSH1 0x0 KECCAK256 PUSH1 0x0 PUSH2 0x100 EXP DUP2 SLOAD DUP2 PUSH1 0xFF MUL NOT AND SWAP1 DUP4 ISZERO ISZERO MUL OR SWAP1 SSTORE POP DUP2 PUSH20 0xFFFFFFFFFFFFFFFFFFFFFFFFFFFFFFFFFFFFFFFF AND PUSH2 0xC59 PUSH2 0xEBE JUMP JUMPDEST PUSH20 0xFFFFFFFFFFFFFFFFFFFFFFFFFFFFFFFFFFFFFFFF AND PUSH32 0x17307EAB39AB6107E8899845AD3D59BD9653F200F220920489CA2B5937696C31 DUP4 PUSH1 0x40 MLOAD PUSH2 0xC9E SWAP2 SWAP1 PUSH2 0x2127 JUMP JUMPDEST PUSH1 0x40 MLOAD DUP1 SWAP2 SUB SWAP1 LOG3 POP POP JUMP JUMPDEST PUSH2 0xCB5 DUP5 DUP5 DUP5 PUSH2 0xF78 JUMP JUMPDEST PUSH2 0xCC1 DUP5 DUP5 DUP5 DUP5 PUSH2 0x1734 JUMP JUMPDEST PUSH2 0xD00 JUMPI PUSH1 0x40 MLOAD PUSH32 0x8C379A000000000000000000000000000000000000000000000000000000000 DUP2 MSTORE PUSH1 0x4 ADD PUSH2 0xCF7 SWAP1 PUSH2 0x22C4 JUMP JUMPDEST PUSH1 0x40 MLOAD DUP1 SWAP2 SUB SWAP1 REVERT JUMPDEST POP POP POP POP JUMP JUMPDEST PUSH1 0x60 PUSH2 0xD11 DUP3 PUSH2 0xEB1 JUMP JUMPDEST PUSH2 0xD50 JUMPI PUSH1 0x40 MLOAD PUSH32 0x8C379A000000000000000000000000000000000000000000000000000000000 DUP2 MSTORE PUSH1 0x4 ADD PUSH2 0xD47 SWAP1 PUSH2 0x2244 JUMP JUMPDEST PUSH1 0x40 MLOAD DUP1 SWAP2 SUB SWAP1 REVERT JUMPDEST PUSH1 0x0 PUSH2 0xD5A PUSH2 0x18CB JUMP JUMPDEST SWAP1 POP PUSH1 0x0 DUP2 MLOAD GT PUSH2 0xD7A JUMPI PUSH1 0x40 MLOAD DUP1 PUSH1 0x20 ADD PUSH1 0x40 MSTORE DUP1 PUSH1 0x0 DUP2 MSTORE POP PUSH2 0xDA5 JUMP JUMPDEST DUP1 PUSH2 0xD84 DUP5 PUSH2 0x18E2 JUMP JUMPDEST PUSH1 0x40 MLOAD PUSH1 0x20 ADD PUSH2 0xD95 SWAP3 SWAP2 SWAP1 PUSH2 0x209C JUMP JUMPDEST PUSH1 0x40 MLOAD PUSH1 0x20 DUP2 DUP4 SUB SUB DUP2 MSTORE SWAP1 PUSH1 0x40 MSTORE JUMPDEST SWAP2 POP POP SWAP2 SWAP1 POP JUMP JUMPDEST PUSH1 0x7 SLOAD DUP2 JUMP JUMPDEST PUSH1 0x0 PUSH1 0x6 PUSH1 0x0 DUP5 PUSH20 0xFFFFFFFFFFFFFFFFFFFFFFFFFFFFFFFFFFFFFFFF AND PUSH20 0xFFFFFFFFFFFFFFFFFFFFFFFFFFFFFFFFFFFFFFFF AND DUP2 MSTORE PUSH1 0x20 ADD SWAP1 DUP2 MSTORE PUSH1 0x20 ADD PUSH1 0x0 KECCAK256 PUSH1 0x0 DUP4 PUSH20 0xFFFFFFFFFFFFFFFFFFFFFFFFFFFFFFFFFFFFFFFF AND PUSH20 0xFFFFFFFFFFFFFFFFFFFFFFFFFFFFFFFFFFFFFFFF AND DUP2 MSTORE PUSH1 0x20 ADD SWAP1 DUP2 MSTORE PUSH1 0x20 ADD PUSH1 0x0 KECCAK256 PUSH1 0x0 SWAP1 SLOAD SWAP1 PUSH2 0x100 EXP SWAP1 DIV PUSH1 0xFF AND SWAP1 POP SWAP3 SWAP2 POP POP JUMP JUMPDEST PUSH1 0x0 PUSH32 0x1FFC9A700000000000000000000000000000000000000000000000000000000 PUSH28 0xFFFFFFFFFFFFFFFFFFFFFFFFFFFFFFFFFFFFFFFFFFFFFFFFFFFFFFFF NOT AND DUP3 PUSH28 0xFFFFFFFFFFFFFFFFFFFFFFFFFFFFFFFFFFFFFFFFFFFFFFFFFFFFFFFF NOT AND EQ SWAP1 POP SWAP2 SWAP1 POP JUMP JUMPDEST PUSH1 0x0 DUP1 SLOAD DUP3 LT SWAP1 POP SWAP2 SWAP1 POP JUMP JUMPDEST PUSH1 0x0 CALLER SWAP1 POP SWAP1 JUMP JUMPDEST DUP3 PUSH1 0x5 PUSH1 0x0 DUP5 DUP2 MSTORE PUSH1 0x20 ADD SWAP1 DUP2 MSTORE PUSH1 0x20 ADD PUSH1 0x0 KECCAK256 PUSH1 0x0 PUSH2 0x100 EXP DUP2 SLOAD DUP2 PUSH20 0xFFFFFFFFFFFFFFFFFFFFFFFFFFFFFFFFFFFFFFFF MUL NOT AND SWAP1 DUP4 PUSH20 0xFFFFFFFFFFFFFFFFFFFFFFFFFFFFFFFFFFFFFFFF AND MUL OR SWAP1 SSTORE POP DUP2 DUP4 PUSH20 0xFFFFFFFFFFFFFFFFFFFFFFFFFFFFFFFFFFFFFFFF AND DUP3 PUSH20 0xFFFFFFFFFFFFFFFFFFFFFFFFFFFFFFFFFFFFFFFF AND PUSH32 0x8C5BE1E5EBEC7D5BD14F71427D1E84F3DD0314C0F7B2291E5B200AC8C7C3B925 PUSH1 0x40 MLOAD PUSH1 0x40 MLOAD DUP1 SWAP2 SUB SWAP1 LOG4 POP POP POP JUMP JUMPDEST PUSH1 0x0 PUSH2 0xF83 DUP3 PUSH2 0x1531 JUMP JUMPDEST SWAP1 POP PUSH1 0x0 DUP2 PUSH1 0x0 ADD MLOAD PUSH20 0xFFFFFFFFFFFFFFFFFFFFFFFFFFFFFFFFFFFFFFFF AND PUSH2 0xFAA PUSH2 0xEBE JUMP JUMPDEST PUSH20 0xFFFFFFFFFFFFFFFFFFFFFFFFFFFFFFFFFFFFFFFF AND EQ DUP1 PUSH2 0x1006 JUMPI POP PUSH2 0xFCF PUSH2 0xEBE JUMP JUMPDEST PUSH20 0xFFFFFFFFFFFFFFFFFFFFFFFFFFFFFFFFFFFFFFFF AND PUSH2 0xFEE DUP5 PUSH2 0x570 JUMP JUMPDEST PUSH20 0xFFFFFFFFFFFFFFFFFFFFFFFFFFFFFFFFFFFFFFFF AND EQ JUMPDEST DUP1 PUSH2 0x1022 JUMPI POP PUSH2 0x1021 DUP3 PUSH1 0x0 ADD MLOAD PUSH2 0x101C PUSH2 0xEBE JUMP JUMPDEST PUSH2 0xDB3 JUMP JUMPDEST JUMPDEST SWAP1 POP DUP1 PUSH2 0x1064 JUMPI PUSH1 0x40 MLOAD PUSH32 0x8C379A000000000000000000000000000000000000000000000000000000000 DUP2 MSTORE PUSH1 0x4 ADD PUSH2 0x105B SWAP1 PUSH2 0x2284 JUMP JUMPDEST PUSH1 0x40 MLOAD DUP1 SWAP2 SUB SWAP1 REVERT JUMPDEST DUP5 PUSH20 0xFFFFFFFFFFFFFFFFFFFFFFFFFFFFFFFFFFFFFFFF AND DUP3 PUSH1 0x0 ADD MLOAD PUSH20 0xFFFFFFFFFFFFFFFFFFFFFFFFFFFFFFFFFFFFFFFF AND EQ PUSH2 0x10D6 JUMPI PUSH1 0x40 MLOAD PUSH32 0x8C379A000000000000000000000000000000000000000000000000000000000 DUP2 MSTORE PUSH1 0x4 ADD PUSH2 0x10CD SWAP1 PUSH2 0x2224 JUMP JUMPDEST PUSH1 0x40 MLOAD DUP1 SWAP2 SUB SWAP1 REVERT JUMPDEST PUSH1 0x0 PUSH20 0xFFFFFFFFFFFFFFFFFFFFFFFFFFFFFFFFFFFFFFFF AND DUP5 PUSH20 0xFFFFFFFFFFFFFFFFFFFFFFFFFFFFFFFFFFFFFFFF AND EQ ISZERO PUSH2 0x1146 JUMPI PUSH1 0x40 MLOAD PUSH32 0x8C379A000000000000000000000000000000000000000000000000000000000 DUP2 MSTORE PUSH1 0x4 ADD PUSH2 0x113D SWAP1 PUSH2 0x21C4 JUMP JUMPDEST PUSH1 0x40 MLOAD DUP1 SWAP2 SUB SWAP1 REVERT JUMPDEST PUSH2 0x1153 DUP6 DUP6 DUP6 PUSH1 0x1 PUSH2 0x1A43 JUMP JUMPDEST PUSH2 0x1163 PUSH1 0x0 DUP5 DUP5 PUSH1 0x0 ADD MLOAD PUSH2 0xEC6 JUMP JUMPDEST PUSH1 0x1 PUSH1 0x4 PUSH1 0x0 DUP8 PUSH20 0xFFFFFFFFFFFFFFFFFFFFFFFFFFFFFFFFFFFFFFFF AND PUSH20 0xFFFFFFFFFFFFFFFFFFFFFFFFFFFFFFFFFFFFFFFF AND DUP2 MSTORE PUSH1 0x20 ADD SWAP1 DUP2 MSTORE PUSH1 0x20 ADD PUSH1 0x0 KECCAK256 PUSH1 0x0 ADD PUSH1 0x0 DUP3 DUP3 DUP3 SWAP1 SLOAD SWAP1 PUSH2 0x100 EXP SWAP1 DIV PUSH16 0xFFFFFFFFFFFFFFFFFFFFFFFFFFFFFFFF AND PUSH2 0x11D1 SWAP2 SWAP1 PUSH2 0x24C5 JUMP JUMPDEST SWAP3 POP PUSH2 0x100 EXP DUP2 SLOAD DUP2 PUSH16 0xFFFFFFFFFFFFFFFFFFFFFFFFFFFFFFFF MUL NOT AND SWAP1 DUP4 PUSH16 0xFFFFFFFFFFFFFFFFFFFFFFFFFFFFFFFF AND MUL OR SWAP1 SSTORE POP PUSH1 0x1 PUSH1 0x4 PUSH1 0x0 DUP7 PUSH20 0xFFFFFFFFFFFFFFFFFFFFFFFFFFFFFFFFFFFFFFFF AND PUSH20 0xFFFFFFFFFFFFFFFFFFFFFFFFFFFFFFFFFFFFFFFF AND DUP2 MSTORE PUSH1 0x20 ADD SWAP1 DUP2 MSTORE PUSH1 0x20 ADD PUSH1 0x0 KECCAK256 PUSH1 0x0 ADD PUSH1 0x0 DUP3 DUP3 DUP3 SWAP1 SLOAD SWAP1 PUSH2 0x100 EXP SWAP1 DIV PUSH16 0xFFFFFFFFFFFFFFFFFFFFFFFFFFFFFFFF AND PUSH2 0x1275 SWAP2 SWAP1 PUSH2 0x23F8 JUMP JUMPDEST SWAP3 POP PUSH2 0x100 EXP DUP2 SLOAD DUP2 PUSH16 0xFFFFFFFFFFFFFFFFFFFFFFFFFFFFFFFF MUL NOT AND SWAP1 DUP4 PUSH16 0xFFFFFFFFFFFFFFFFFFFFFFFFFFFFFFFF AND MUL OR SWAP1 SSTORE POP PUSH1 0x40 MLOAD DUP1 PUSH1 0x40 ADD PUSH1 0x40 MSTORE DUP1 DUP6 PUSH20 0xFFFFFFFFFFFFFFFFFFFFFFFFFFFFFFFFFFFFFFFF AND DUP2 MSTORE PUSH1 0x20 ADD TIMESTAMP PUSH8 0xFFFFFFFFFFFFFFFF AND DUP2 MSTORE POP PUSH1 0x3 PUSH1 0x0 DUP6 DUP2 MSTORE PUSH1 0x20 ADD SWAP1 DUP2 MSTORE PUSH1 0x20 ADD PUSH1 0x0 KECCAK256 PUSH1 0x0 DUP3 ADD MLOAD DUP2 PUSH1 0x0 ADD PUSH1 0x0 PUSH2 0x100 EXP DUP2 SLOAD DUP2 PUSH20 0xFFFFFFFFFFFFFFFFFFFFFFFFFFFFFFFFFFFFFFFF MUL NOT AND SWAP1 DUP4 PUSH20 0xFFFFFFFFFFFFFFFFFFFFFFFFFFFFFFFFFFFFFFFF AND MUL OR SWAP1 SSTORE POP PUSH1 0x20 DUP3 ADD MLOAD DUP2 PUSH1 0x0 ADD PUSH1 0x14 PUSH2 0x100 EXP DUP2 SLOAD DUP2 PUSH8 0xFFFFFFFFFFFFFFFF MUL NOT AND SWAP1 DUP4 PUSH8 0xFFFFFFFFFFFFFFFF AND MUL OR SWAP1 SSTORE POP SWAP1 POP POP PUSH1 0x0 PUSH1 0x1 DUP5 PUSH2 0x137B SWAP2 SWAP1 PUSH2 0x243E JUMP JUMPDEST SWAP1 POP PUSH1 0x0 PUSH20 0xFFFFFFFFFFFFFFFFFFFFFFFFFFFFFFFFFFFFFFFF AND PUSH1 0x3 PUSH1 0x0 DUP4 DUP2 MSTORE PUSH1 0x20 ADD SWAP1 DUP2 MSTORE PUSH1 0x20 ADD PUSH1 0x0 KECCAK256 PUSH1 0x0 ADD PUSH1 0x0 SWAP1 SLOAD SWAP1 PUSH2 0x100 EXP SWAP1 DIV PUSH20 0xFFFFFFFFFFFFFFFFFFFFFFFFFFFFFFFFFFFFFFFF AND PUSH20 0xFFFFFFFFFFFFFFFFFFFFFFFFFFFFFFFFFFFFFFFF AND EQ ISZERO PUSH2 0x14C1 JUMPI PUSH2 0x13F1 DUP2 PUSH2 0xEB1 JUMP JUMPDEST ISZERO PUSH2 0x14C0 JUMPI PUSH1 0x40 MLOAD DUP1 PUSH1 0x40 ADD PUSH1 0x40 MSTORE DUP1 DUP5 PUSH1 0x0 ADD MLOAD PUSH20 0xFFFFFFFFFFFFFFFFFFFFFFFFFFFFFFFFFFFFFFFF AND DUP2 MSTORE PUSH1 0x20 ADD DUP5 PUSH1 0x20 ADD MLOAD PUSH8 0xFFFFFFFFFFFFFFFF AND DUP2 MSTORE POP PUSH1 0x3 PUSH1 0x0 DUP4 DUP2 MSTORE PUSH1 0x20 ADD SWAP1 DUP2 MSTORE PUSH1 0x20 ADD PUSH1 0x0 KECCAK256 PUSH1 0x0 DUP3 ADD MLOAD DUP2 PUSH1 0x0 ADD PUSH1 0x0 PUSH2 0x100 EXP DUP2 SLOAD DUP2 PUSH20 0xFFFFFFFFFFFFFFFFFFFFFFFFFFFFFFFFFFFFFFFF MUL NOT AND SWAP1 DUP4 PUSH20 0xFFFFFFFFFFFFFFFFFFFFFFFFFFFFFFFFFFFFFFFF AND MUL OR SWAP1 SSTORE POP PUSH1 0x20 DUP3 ADD MLOAD DUP2 PUSH1 0x0 ADD PUSH1 0x14 PUSH2 0x100 EXP DUP2 SLOAD DUP2 PUSH8 0xFFFFFFFFFFFFFFFF MUL NOT AND SWAP1 DUP4 PUSH8 0xFFFFFFFFFFFFFFFF AND MUL OR SWAP1 SSTORE POP SWAP1 POP POP JUMPDEST JUMPDEST DUP4 DUP6 PUSH20 0xFFFFFFFFFFFFFFFFFFFFFFFFFFFFFFFFFFFFFFFF AND DUP8 PUSH20 0xFFFFFFFFFFFFFFFFFFFFFFFFFFFFFFFFFFFFFFFF AND PUSH32 0xDDF252AD1BE2C89B69C2B068FC378DAA952BA7F163C4A11628F55A4DF523B3EF PUSH1 0x40 MLOAD PUSH1 0x40 MLOAD DUP1 SWAP2 SUB SWAP1 LOG4 PUSH2 0x1529 DUP7 DUP7 DUP7 PUSH1 0x1 PUSH2 0x1A49 JUMP JUMPDEST POP POP POP POP POP POP JUMP JUMPDEST PUSH2 0x1539 PUSH2 0x1A62 JUMP JUMPDEST PUSH2 0x1542 DUP3 PUSH2 0xEB1 JUMP JUMPDEST PUSH2 0x1581 JUMPI PUSH1 0x40 MLOAD PUSH32 0x8C379A000000000000000000000000000000000000000000000000000000000 DUP2 MSTORE PUSH1 0x4 ADD PUSH2 0x1578 SWAP1 PUSH2 0x2184 JUMP JUMPDEST PUSH1 0x40 MLOAD DUP1 SWAP2 SUB SWAP1 REVERT JUMPDEST PUSH1 0x0 PUSH32 0x0 DUP4 LT PUSH2 0x15E5 JUMPI PUSH1 0x1 PUSH32 0x0 DUP5 PUSH2 0x15D8 SWAP2 SWAP1 PUSH2 0x24F9 JUMP JUMPDEST PUSH2 0x15E2 SWAP2 SWAP1 PUSH2 0x243E JUMP JUMPDEST SWAP1 POP JUMPDEST PUSH1 0x0 DUP4 SWAP1 POP JUMPDEST DUP2 DUP2 LT PUSH2 0x16F3 JUMPI PUSH1 0x0 PUSH1 0x3 PUSH1 0x0 DUP4 DUP2 MSTORE PUSH1 0x20 ADD SWAP1 DUP2 MSTORE PUSH1 0x20 ADD PUSH1 0x0 KECCAK256 PUSH1 0x40 MLOAD DUP1 PUSH1 0x40 ADD PUSH1 0x40 MSTORE SWAP1 DUP2 PUSH1 0x0 DUP3 ADD PUSH1 0x0 SWAP1 SLOAD SWAP1 PUSH2 0x100 EXP SWAP1 DIV PUSH20 0xFFFFFFFFFFFFFFFFFFFFFFFFFFFFFFFFFFFFFFFF AND PUSH20 0xFFFFFFFFFFFFFFFFFFFFFFFFFFFFFFFFFFFFFFFF AND PUSH20 0xFFFFFFFFFFFFFFFFFFFFFFFFFFFFFFFFFFFFFFFF AND DUP2 MSTORE PUSH1 0x20 ADD PUSH1 0x0 DUP3 ADD PUSH1 0x14 SWAP1 SLOAD SWAP1 PUSH2 0x100 EXP SWAP1 DIV PUSH8 0xFFFFFFFFFFFFFFFF AND PUSH8 0xFFFFFFFFFFFFFFFF AND PUSH8 0xFFFFFFFFFFFFFFFF AND DUP2 MSTORE POP POP SWAP1 POP PUSH1 0x0 PUSH20 0xFFFFFFFFFFFFFFFFFFFFFFFFFFFFFFFFFFFFFFFF AND DUP2 PUSH1 0x0 ADD MLOAD PUSH20 0xFFFFFFFFFFFFFFFFFFFFFFFFFFFFFFFFFFFFFFFF AND EQ PUSH2 0x16DF JUMPI DUP1 SWAP4 POP POP POP POP PUSH2 0x172F JUMP JUMPDEST POP DUP1 DUP1 PUSH2 0x16EB SWAP1 PUSH2 0x25FF JUMP JUMPDEST SWAP2 POP POP PUSH2 0x15EB JUMP JUMPDEST POP PUSH1 0x40 MLOAD PUSH32 0x8C379A000000000000000000000000000000000000000000000000000000000 DUP2 MSTORE PUSH1 0x4 ADD PUSH2 0x1726 SWAP1 PUSH2 0x2304 JUMP JUMPDEST PUSH1 0x40 MLOAD DUP1 SWAP2 SUB SWAP1 REVERT JUMPDEST SWAP2 SWAP1 POP JUMP JUMPDEST PUSH1 0x0 PUSH2 0x1755 DUP5 PUSH20 0xFFFFFFFFFFFFFFFFFFFFFFFFFFFFFFFFFFFFFFFF AND PUSH2 0x1A4F JUMP JUMPDEST ISZERO PUSH2 0x18BE JUMPI DUP4 PUSH20 0xFFFFFFFFFFFFFFFFFFFFFFFFFFFFFFFFFFFFFFFF AND PUSH4 0x150B7A02 PUSH2 0x177E PUSH2 0xEBE JUMP JUMPDEST DUP8 DUP7 DUP7 PUSH1 0x40 MLOAD DUP6 PUSH4 0xFFFFFFFF AND PUSH1 0xE0 SHL DUP2 MSTORE PUSH1 0x4 ADD PUSH2 0x17A0 SWAP5 SWAP4 SWAP3 SWAP2 SWAP1 PUSH2 0x20DB JUMP JUMPDEST PUSH1 0x20 PUSH1 0x40 MLOAD DUP1 DUP4 SUB DUP2 PUSH1 0x0 DUP8 DUP1 EXTCODESIZE ISZERO DUP1 ISZERO PUSH2 0x17BA JUMPI PUSH1 0x0 DUP1 REVERT JUMPDEST POP GAS CALL SWAP3 POP POP POP DUP1 ISZERO PUSH2 0x17EB JUMPI POP PUSH1 0x40 MLOAD RETURNDATASIZE PUSH1 0x1F NOT PUSH1 0x1F DUP3 ADD AND DUP3 ADD DUP1 PUSH1 0x40 MSTORE POP DUP2 ADD SWAP1 PUSH2 0x17E8 SWAP2 SWAP1 PUSH2 0x1D65 JUMP JUMPDEST PUSH1 0x1 JUMPDEST PUSH2 0x186E JUMPI RETURNDATASIZE DUP1 PUSH1 0x0 DUP2 EQ PUSH2 0x181B JUMPI PUSH1 0x40 MLOAD SWAP2 POP PUSH1 0x1F NOT PUSH1 0x3F RETURNDATASIZE ADD AND DUP3 ADD PUSH1 0x40 MSTORE RETURNDATASIZE DUP3 MSTORE RETURNDATASIZE PUSH1 0x0 PUSH1 0x20 DUP5 ADD RETURNDATACOPY PUSH2 0x1820 JUMP JUMPDEST PUSH1 0x60 SWAP2 POP JUMPDEST POP PUSH1 0x0 DUP2 MLOAD EQ ISZERO PUSH2 0x1866 JUMPI PUSH1 0x40 MLOAD PUSH32 0x8C379A000000000000000000000000000000000000000000000000000000000 DUP2 MSTORE PUSH1 0x4 ADD PUSH2 0x185D SWAP1 PUSH2 0x22C4 JUMP JUMPDEST PUSH1 0x40 MLOAD DUP1 SWAP2 SUB SWAP1 REVERT JUMPDEST DUP1 MLOAD DUP2 PUSH1 0x20 ADD REVERT JUMPDEST PUSH4 0x150B7A02 PUSH1 0xE0 SHL PUSH28 0xFFFFFFFFFFFFFFFFFFFFFFFFFFFFFFFFFFFFFFFFFFFFFFFFFFFFFFFF NOT AND DUP2 PUSH28 0xFFFFFFFFFFFFFFFFFFFFFFFFFFFFFFFFFFFFFFFFFFFFFFFFFFFFFFFF NOT AND EQ SWAP2 POP POP PUSH2 0x18C3 JUMP JUMPDEST PUSH1 0x1 SWAP1 POP JUMPDEST SWAP5 SWAP4 POP POP POP POP JUMP JUMPDEST PUSH1 0x60 PUSH1 0x40 MLOAD DUP1 PUSH1 0x20 ADD PUSH1 0x40 MSTORE DUP1 PUSH1 0x0 DUP2 MSTORE POP SWAP1 POP SWAP1 JUMP JUMPDEST PUSH1 0x60 PUSH1 0x0 DUP3 EQ ISZERO PUSH2 0x192A JUMPI PUSH1 0x40 MLOAD DUP1 PUSH1 0x40 ADD PUSH1 0x40 MSTORE DUP1 PUSH1 0x1 DUP2 MSTORE PUSH1 0x20 ADD PUSH32 0x3000000000000000000000000000000000000000000000000000000000000000 DUP2 MSTORE POP SWAP1 POP PUSH2 0x1A3E JUMP JUMPDEST PUSH1 0x0 DUP3 SWAP1 POP PUSH1 0x0 JUMPDEST PUSH1 0x0 DUP3 EQ PUSH2 0x195C JUMPI DUP1 DUP1 PUSH2 0x1945 SWAP1 PUSH2 0x268C JUMP JUMPDEST SWAP2 POP POP PUSH1 0xA DUP3 PUSH2 0x1955 SWAP2 SWAP1 PUSH2 0x2494 JUMP JUMPDEST SWAP2 POP PUSH2 0x1932 JUMP JUMPDEST PUSH1 0x0 DUP2 PUSH8 0xFFFFFFFFFFFFFFFF DUP2 GT ISZERO PUSH2 0x1978 JUMPI PUSH2 0x1977 PUSH2 0x27C2 JUMP JUMPDEST JUMPDEST PUSH1 0x40 MLOAD SWAP1 DUP1 DUP3 MSTORE DUP1 PUSH1 0x1F ADD PUSH1 0x1F NOT AND PUSH1 0x20 ADD DUP3 ADD PUSH1 0x40 MSTORE DUP1 ISZERO PUSH2 0x19AA JUMPI DUP2 PUSH1 0x20 ADD PUSH1 0x1 DUP3 MUL DUP1 CALLDATASIZE DUP4 CALLDATACOPY DUP1 DUP3 ADD SWAP2 POP POP SWAP1 POP JUMPDEST POP SWAP1 POP JUMPDEST PUSH1 0x0 DUP6 EQ PUSH2 0x1A37 JUMPI PUSH1 0x1 DUP3 PUSH2 0x19C3 SWAP2 SWAP1 PUSH2 0x24F9 JUMP JUMPDEST SWAP2 POP PUSH1 0xA DUP6 PUSH2 0x19D2 SWAP2 SWAP1 PUSH2 0x26D5 JUMP JUMPDEST PUSH1 0x30 PUSH2 0x19DE SWAP2 SWAP1 PUSH2 0x243E JUMP JUMPDEST PUSH1 0xF8 SHL DUP2 DUP4 DUP2 MLOAD DUP2 LT PUSH2 0x19F4 JUMPI PUSH2 0x19F3 PUSH2 0x2793 JUMP JUMPDEST JUMPDEST PUSH1 0x20 ADD ADD SWAP1 PUSH31 0xFFFFFFFFFFFFFFFFFFFFFFFFFFFFFFFFFFFFFFFFFFFFFFFFFFFFFFFFFFFFFF NOT AND SWAP1 DUP2 PUSH1 0x0 BYTE SWAP1 MSTORE8 POP PUSH1 0xA DUP6 PUSH2 0x1A30 SWAP2 SWAP1 PUSH2 0x2494 JUMP JUMPDEST SWAP5 POP PUSH2 0x19AE JUMP JUMPDEST DUP1 SWAP4 POP POP POP POP JUMPDEST SWAP2 SWAP1 POP JUMP JUMPDEST POP POP POP POP JUMP JUMPDEST POP POP POP POP JUMP JUMPDEST PUSH1 0x0 DUP1 DUP3 EXTCODESIZE SWAP1 POP PUSH1 0x0 DUP2 GT SWAP2 POP POP SWAP2 SWAP1 POP JUMP JUMPDEST PUSH1 0x40 MLOAD DUP1 PUSH1 0x40 ADD PUSH1 0x40 MSTORE DUP1 PUSH1 0x0 PUSH20 0xFFFFFFFFFFFFFFFFFFFFFFFFFFFFFFFFFFFFFFFF AND DUP2 MSTORE PUSH1 0x20 ADD PUSH1 0x0 PUSH8 0xFFFFFFFFFFFFFFFF AND DUP2 MSTORE POP SWAP1 JUMP JUMPDEST PUSH1 0x0 PUSH2 0x1AAF PUSH2 0x1AAA DUP5 PUSH2 0x2384 JUMP JUMPDEST PUSH2 0x235F JUMP JUMPDEST SWAP1 POP DUP3 DUP2 MSTORE PUSH1 0x20 DUP2 ADD DUP5 DUP5 DUP5 ADD GT ISZERO PUSH2 0x1ACB JUMPI PUSH2 0x1ACA PUSH2 0x27F6 JUMP JUMPDEST JUMPDEST PUSH2 0x1AD6 DUP5 DUP3 DUP6 PUSH2 0x25BD JUMP JUMPDEST POP SWAP4 SWAP3 POP POP POP JUMP JUMPDEST PUSH1 0x0 DUP2 CALLDATALOAD SWAP1 POP PUSH2 0x1AED DUP2 PUSH2 0x2C91 JUMP JUMPDEST SWAP3 SWAP2 POP POP JUMP JUMPDEST PUSH1 0x0 DUP2 CALLDATALOAD SWAP1 POP PUSH2 0x1B02 DUP2 PUSH2 0x2CA8 JUMP JUMPDEST SWAP3 SWAP2 POP POP JUMP JUMPDEST PUSH1 0x0 DUP2 CALLDATALOAD SWAP1 POP PUSH2 0x1B17 DUP2 PUSH2 0x2CBF JUMP JUMPDEST SWAP3 SWAP2 POP POP JUMP JUMPDEST PUSH1 0x0 DUP2 MLOAD SWAP1 POP PUSH2 0x1B2C DUP2 PUSH2 0x2CBF JUMP JUMPDEST SWAP3 SWAP2 POP POP JUMP JUMPDEST PUSH1 0x0 DUP3 PUSH1 0x1F DUP4 ADD SLT PUSH2 0x1B47 JUMPI PUSH2 0x1B46 PUSH2 0x27F1 JUMP JUMPDEST JUMPDEST DUP2 CALLDATALOAD PUSH2 0x1B57 DUP5 DUP3 PUSH1 0x20 DUP7 ADD PUSH2 0x1A9C JUMP JUMPDEST SWAP2 POP POP SWAP3 SWAP2 POP POP JUMP JUMPDEST PUSH1 0x0 DUP2 CALLDATALOAD SWAP1 POP PUSH2 0x1B6F DUP2 PUSH2 0x2CD6 JUMP JUMPDEST SWAP3 SWAP2 POP POP JUMP JUMPDEST PUSH1 0x0 PUSH1 0x20 DUP3 DUP5 SUB SLT ISZERO PUSH2 0x1B8B JUMPI PUSH2 0x1B8A PUSH2 0x2800 JUMP JUMPDEST JUMPDEST PUSH1 0x0 PUSH2 0x1B99 DUP5 DUP3 DUP6 ADD PUSH2 0x1ADE JUMP JUMPDEST SWAP2 POP POP SWAP3 SWAP2 POP POP JUMP JUMPDEST PUSH1 0x0 DUP1 PUSH1 0x40 DUP4 DUP6 SUB SLT ISZERO PUSH2 0x1BB9 JUMPI PUSH2 0x1BB8 PUSH2 0x2800 JUMP JUMPDEST JUMPDEST PUSH1 0x0 PUSH2 0x1BC7 DUP6 DUP3 DUP7 ADD PUSH2 0x1ADE JUMP JUMPDEST SWAP3 POP POP PUSH1 0x20 PUSH2 0x1BD8 DUP6 DUP3 DUP7 ADD PUSH2 0x1ADE JUMP JUMPDEST SWAP2 POP POP SWAP3 POP SWAP3 SWAP1 POP JUMP JUMPDEST PUSH1 0x0 DUP1 PUSH1 0x0 PUSH1 0x60 DUP5 DUP7 SUB SLT ISZERO PUSH2 0x1BFB JUMPI PUSH2 0x1BFA PUSH2 0x2800 JUMP JUMPDEST JUMPDEST PUSH1 0x0 PUSH2 0x1C09 DUP7 DUP3 DUP8 ADD PUSH2 0x1ADE JUMP JUMPDEST SWAP4 POP POP PUSH1 0x20 PUSH2 0x1C1A DUP7 DUP3 DUP8 ADD PUSH2 0x1ADE JUMP JUMPDEST SWAP3 POP POP PUSH1 0x40 PUSH2 0x1C2B DUP7 DUP3 DUP8 ADD PUSH2 0x1B60 JUMP JUMPDEST SWAP2 POP POP SWAP3 POP SWAP3 POP SWAP3 JUMP JUMPDEST PUSH1 0x0 DUP1 PUSH1 0x0 DUP1 PUSH1 0x80 DUP6 DUP8 SUB SLT ISZERO PUSH2 0x1C4F JUMPI PUSH2 0x1C4E PUSH2 0x2800 JUMP JUMPDEST JUMPDEST PUSH1 0x0 PUSH2 0x1C5D DUP8 DUP3 DUP9 ADD PUSH2 0x1ADE JUMP JUMPDEST SWAP5 POP POP PUSH1 0x20 PUSH2 0x1C6E DUP8 DUP3 DUP9 ADD PUSH2 0x1ADE JUMP JUMPDEST SWAP4 POP POP PUSH1 0x40 PUSH2 0x1C7F DUP8 DUP3 DUP9 ADD PUSH2 0x1B60 JUMP JUMPDEST SWAP3 POP POP PUSH1 0x60 DUP6 ADD CALLDATALOAD PUSH8 0xFFFFFFFFFFFFFFFF DUP2 GT ISZERO PUSH2 0x1CA0 JUMPI PUSH2 0x1C9F PUSH2 0x27FB JUMP JUMPDEST JUMPDEST PUSH2 0x1CAC DUP8 DUP3 DUP9 ADD PUSH2 0x1B32 JUMP JUMPDEST SWAP2 POP POP SWAP3 SWAP6 SWAP2 SWAP5 POP SWAP3 POP JUMP JUMPDEST PUSH1 0x0 DUP1 PUSH1 0x40 DUP4 DUP6 SUB SLT ISZERO PUSH2 0x1CCF JUMPI PUSH2 0x1CCE PUSH2 0x2800 JUMP JUMPDEST JUMPDEST PUSH1 0x0 PUSH2 0x1CDD DUP6 DUP3 DUP7 ADD PUSH2 0x1ADE JUMP JUMPDEST SWAP3 POP POP PUSH1 0x20 PUSH2 0x1CEE DUP6 DUP3 DUP7 ADD PUSH2 0x1AF3 JUMP JUMPDEST SWAP2 POP POP SWAP3 POP SWAP3 SWAP1 POP JUMP JUMPDEST PUSH1 0x0 DUP1 PUSH1 0x40 DUP4 DUP6 SUB SLT ISZERO PUSH2 0x1D0F JUMPI PUSH2 0x1D0E PUSH2 0x2800 JUMP JUMPDEST JUMPDEST PUSH1 0x0 PUSH2 0x1D1D DUP6 DUP3 DUP7 ADD PUSH2 0x1ADE JUMP JUMPDEST SWAP3 POP POP PUSH1 0x20 PUSH2 0x1D2E DUP6 DUP3 DUP7 ADD PUSH2 0x1B60 JUMP JUMPDEST SWAP2 POP POP SWAP3 POP SWAP3 SWAP1 POP JUMP JUMPDEST PUSH1 0x0 PUSH1 0x20 DUP3 DUP5 SUB SLT ISZERO PUSH2 0x1D4E JUMPI PUSH2 0x1D4D PUSH2 0x2800 JUMP JUMPDEST JUMPDEST PUSH1 0x0 PUSH2 0x1D5C DUP5 DUP3 DUP6 ADD PUSH2 0x1B08 JUMP JUMPDEST SWAP2 POP POP SWAP3 SWAP2 POP POP JUMP JUMPDEST PUSH1 0x0 PUSH1 0x20 DUP3 DUP5 SUB SLT ISZERO PUSH2 0x1D7B JUMPI PUSH2 0x1D7A PUSH2 0x2800 JUMP JUMPDEST JUMPDEST PUSH1 0x0 PUSH2 0x1D89 DUP5 DUP3 DUP6 ADD PUSH2 0x1B1D JUMP JUMPDEST SWAP2 POP POP SWAP3 SWAP2 POP POP JUMP JUMPDEST PUSH1 0x0 PUSH1 0x20 DUP3 DUP5 SUB SLT ISZERO PUSH2 0x1DA8 JUMPI PUSH2 0x1DA7 PUSH2 0x2800 JUMP JUMPDEST JUMPDEST PUSH1 0x0 PUSH2 0x1DB6 DUP5 DUP3 DUP6 ADD PUSH2 0x1B60 JUMP JUMPDEST SWAP2 POP POP SWAP3 SWAP2 POP POP JUMP JUMPDEST PUSH2 0x1DC8 DUP2 PUSH2 0x252D JUMP JUMPDEST DUP3 MSTORE POP POP JUMP JUMPDEST PUSH2 0x1DD7 DUP2 PUSH2 0x253F JUMP JUMPDEST DUP3 MSTORE POP POP JUMP JUMPDEST PUSH1 0x0 PUSH2 0x1DE8 DUP3 PUSH2 0x23B5 JUMP JUMPDEST PUSH2 0x1DF2 DUP2 DUP6 PUSH2 0x23CB JUMP JUMPDEST SWAP4 POP PUSH2 0x1E02 DUP2 DUP6 PUSH1 0x20 DUP7 ADD PUSH2 0x25CC JUMP JUMPDEST PUSH2 0x1E0B DUP2 PUSH2 0x2805 JUMP JUMPDEST DUP5 ADD SWAP2 POP POP SWAP3 SWAP2 POP POP JUMP JUMPDEST PUSH1 0x0 PUSH2 0x1E21 DUP3 PUSH2 0x23C0 JUMP JUMPDEST PUSH2 0x1E2B DUP2 DUP6 PUSH2 0x23DC JUMP JUMPDEST SWAP4 POP PUSH2 0x1E3B DUP2 DUP6 PUSH1 0x20 DUP7 ADD PUSH2 0x25CC JUMP JUMPDEST PUSH2 0x1E44 DUP2 PUSH2 0x2805 JUMP JUMPDEST DUP5 ADD SWAP2 POP POP SWAP3 SWAP2 POP POP JUMP JUMPDEST PUSH1 0x0 PUSH2 0x1E5A DUP3 PUSH2 0x23C0 JUMP JUMPDEST PUSH2 0x1E64 DUP2 DUP6 PUSH2 0x23ED JUMP JUMPDEST SWAP4 POP PUSH2 0x1E74 DUP2 DUP6 PUSH1 0x20 DUP7 ADD PUSH2 0x25CC JUMP JUMPDEST DUP1 DUP5 ADD SWAP2 POP POP SWAP3 SWAP2 POP POP JUMP JUMPDEST PUSH1 0x0 PUSH2 0x1E8D PUSH1 0x22 DUP4 PUSH2 0x23DC JUMP JUMPDEST SWAP2 POP PUSH2 0x1E98 DUP3 PUSH2 0x2816 JUMP JUMPDEST PUSH1 0x40 DUP3 ADD SWAP1 POP SWAP2 SWAP1 POP JUMP JUMPDEST PUSH1 0x0 PUSH2 0x1EB0 PUSH1 0x2A DUP4 PUSH2 0x23DC JUMP JUMPDEST SWAP2 POP PUSH2 0x1EBB DUP3 PUSH2 0x2865 JUMP JUMPDEST PUSH1 0x40 DUP3 ADD SWAP1 POP SWAP2 SWAP1 POP JUMP JUMPDEST PUSH1 0x0 PUSH2 0x1ED3 PUSH1 0x23 DUP4 PUSH2 0x23DC JUMP JUMPDEST SWAP2 POP PUSH2 0x1EDE DUP3 PUSH2 0x28B4 JUMP JUMPDEST PUSH1 0x40 DUP3 ADD SWAP1 POP SWAP2 SWAP1 POP JUMP JUMPDEST PUSH1 0x0 PUSH2 0x1EF6 PUSH1 0x25 DUP4 PUSH2 0x23DC JUMP JUMPDEST SWAP2 POP PUSH2 0x1F01 DUP3 PUSH2 0x2903 JUMP JUMPDEST PUSH1 0x40 DUP3 ADD SWAP1 POP SWAP2 SWAP1 POP JUMP JUMPDEST PUSH1 0x0 PUSH2 0x1F19 PUSH1 0x39 DUP4 PUSH2 0x23DC JUMP JUMPDEST SWAP2 POP PUSH2 0x1F24 DUP3 PUSH2 0x2952 JUMP JUMPDEST PUSH1 0x40 DUP3 ADD SWAP1 POP SWAP2 SWAP1 POP JUMP JUMPDEST PUSH1 0x0 PUSH2 0x1F3C PUSH1 0x2B DUP4 PUSH2 0x23DC JUMP JUMPDEST SWAP2 POP PUSH2 0x1F47 DUP3 PUSH2 0x29A1 JUMP JUMPDEST PUSH1 0x40 DUP3 ADD SWAP1 POP SWAP2 SWAP1 POP JUMP JUMPDEST PUSH1 0x0 PUSH2 0x1F5F PUSH1 0x26 DUP4 PUSH2 0x23DC JUMP JUMPDEST SWAP2 POP PUSH2 0x1F6A DUP3 PUSH2 0x29F0 JUMP JUMPDEST PUSH1 0x40 DUP3 ADD SWAP1 POP SWAP2 SWAP1 POP JUMP JUMPDEST PUSH1 0x0 PUSH2 0x1F82 PUSH1 0x2F DUP4 PUSH2 0x23DC JUMP JUMPDEST SWAP2 POP PUSH2 0x1F8D DUP3 PUSH2 0x2A3F JUMP JUMPDEST PUSH1 0x40 DUP3 ADD SWAP1 POP SWAP2 SWAP1 POP JUMP JUMPDEST PUSH1 0x0 PUSH2 0x1FA5 PUSH1 0x1A DUP4 PUSH2 0x23DC JUMP JUMPDEST SWAP2 POP PUSH2 0x1FB0 DUP3 PUSH2 0x2A8E JUMP JUMPDEST PUSH1 0x20 DUP3 ADD SWAP1 POP SWAP2 SWAP1 POP JUMP JUMPDEST PUSH1 0x0 PUSH2 0x1FC8 PUSH1 0x32 DUP4 PUSH2 0x23DC JUMP JUMPDEST SWAP2 POP PUSH2 0x1FD3 DUP3 PUSH2 0x2AB7 JUMP JUMPDEST PUSH1 0x40 DUP3 ADD SWAP1 POP SWAP2 SWAP1 POP JUMP JUMPDEST PUSH1 0x0 PUSH2 0x1FEB PUSH1 0x22 DUP4 PUSH2 0x23DC JUMP JUMPDEST SWAP2 POP PUSH2 0x1FF6 DUP3 PUSH2 0x2B06 JUMP JUMPDEST PUSH1 0x40 DUP3 ADD SWAP1 POP SWAP2 SWAP1 POP JUMP JUMPDEST PUSH1 0x0 PUSH2 0x200E PUSH1 0x33 DUP4 PUSH2 0x23DC JUMP JUMPDEST SWAP2 POP PUSH2 0x2019 DUP3 PUSH2 0x2B55 JUMP JUMPDEST PUSH1 0x40 DUP3 ADD SWAP1 POP SWAP2 SWAP1 POP JUMP JUMPDEST PUSH1 0x0 PUSH2 0x2031 PUSH1 0x2E DUP4 PUSH2 0x23DC JUMP JUMPDEST SWAP2 POP PUSH2 0x203C DUP3 PUSH2 0x2BA4 JUMP JUMPDEST PUSH1 0x40 DUP3 ADD SWAP1 POP SWAP2 SWAP1 POP JUMP JUMPDEST PUSH1 0x0 PUSH2 0x2054 PUSH1 0x2F DUP4 PUSH2 0x23DC JUMP JUMPDEST SWAP2 POP PUSH2 0x205F DUP3 PUSH2 0x2BF3 JUMP JUMPDEST PUSH1 0x40 DUP3 ADD SWAP1 POP SWAP2 SWAP1 POP JUMP JUMPDEST PUSH1 0x0 PUSH2 0x2077 PUSH1 0x2D DUP4 PUSH2 0x23DC JUMP JUMPDEST SWAP2 POP PUSH2 0x2082 DUP3 PUSH2 0x2C42 JUMP JUMPDEST PUSH1 0x40 DUP3 ADD SWAP1 POP SWAP2 SWAP1 POP JUMP JUMPDEST PUSH2 0x2096 DUP2 PUSH2 0x25B3 JUMP JUMPDEST DUP3 MSTORE POP POP JUMP JUMPDEST PUSH1 0x0 PUSH2 0x20A8 DUP3 DUP6 PUSH2 0x1E4F JUMP JUMPDEST SWAP2 POP PUSH2 0x20B4 DUP3 DUP5 PUSH2 0x1E4F JUMP JUMPDEST SWAP2 POP DUP2 SWAP1 POP SWAP4 SWAP3 POP POP POP JUMP JUMPDEST PUSH1 0x0 PUSH1 0x20 DUP3 ADD SWAP1 POP PUSH2 0x20D5 PUSH1 0x0 DUP4 ADD DUP5 PUSH2 0x1DBF JUMP JUMPDEST SWAP3 SWAP2 POP POP JUMP JUMPDEST PUSH1 0x0 PUSH1 0x80 DUP3 ADD SWAP1 POP PUSH2 0x20F0 PUSH1 0x0 DUP4 ADD DUP8 PUSH2 0x1DBF JUMP JUMPDEST PUSH2 0x20FD PUSH1 0x20 DUP4 ADD DUP7 PUSH2 0x1DBF JUMP JUMPDEST PUSH2 0x210A PUSH1 0x40 DUP4 ADD DUP6 PUSH2 0x208D JUMP JUMPDEST DUP2 DUP2 SUB PUSH1 0x60 DUP4 ADD MSTORE PUSH2 0x211C DUP2 DUP5 PUSH2 0x1DDD JUMP JUMPDEST SWAP1 POP SWAP6 SWAP5 POP POP POP POP POP JUMP JUMPDEST PUSH1 0x0 PUSH1 0x20 DUP3 ADD SWAP1 POP PUSH2 0x213C PUSH1 0x0 DUP4 ADD DUP5 PUSH2 0x1DCE JUMP JUMPDEST SWAP3 SWAP2 POP POP JUMP JUMPDEST PUSH1 0x0 PUSH1 0x20 DUP3 ADD SWAP1 POP DUP2 DUP2 SUB PUSH1 0x0 DUP4 ADD MSTORE PUSH2 0x215C DUP2 DUP5 PUSH2 0x1E16 JUMP JUMPDEST SWAP1 POP SWAP3 SWAP2 POP POP JUMP JUMPDEST PUSH1 0x0 PUSH1 0x20 DUP3 ADD SWAP1 POP DUP2 DUP2 SUB PUSH1 0x0 DUP4 ADD MSTORE PUSH2 0x217D DUP2 PUSH2 0x1E80 JUMP JUMPDEST SWAP1 POP SWAP2 SWAP1 POP JUMP JUMPDEST PUSH1 0x0 PUSH1 0x20 DUP3 ADD SWAP1 POP DUP2 DUP2 SUB PUSH1 0x0 DUP4 ADD MSTORE PUSH2 0x219D DUP2 PUSH2 0x1EA3 JUMP JUMPDEST SWAP1 POP SWAP2 SWAP1 POP JUMP JUMPDEST PUSH1 0x0 PUSH1 0x20 DUP3 ADD SWAP1 POP DUP2 DUP2 SUB PUSH1 0x0 DUP4 ADD MSTORE PUSH2 0x21BD DUP2 PUSH2 0x1EC6 JUMP JUMPDEST SWAP1 POP SWAP2 SWAP1 POP JUMP JUMPDEST PUSH1 0x0 PUSH1 0x20 DUP3 ADD SWAP1 POP DUP2 DUP2 SUB PUSH1 0x0 DUP4 ADD MSTORE PUSH2 0x21DD DUP2 PUSH2 0x1EE9 JUMP JUMPDEST SWAP1 POP SWAP2 SWAP1 POP JUMP JUMPDEST PUSH1 0x0 PUSH1 0x20 DUP3 ADD SWAP1 POP DUP2 DUP2 SUB PUSH1 0x0 DUP4 ADD MSTORE PUSH2 0x21FD DUP2 PUSH2 0x1F0C JUMP JUMPDEST SWAP1 POP SWAP2 SWAP1 POP JUMP JUMPDEST PUSH1 0x0 PUSH1 0x20 DUP3 ADD SWAP1 POP DUP2 DUP2 SUB PUSH1 0x0 DUP4 ADD MSTORE PUSH2 0x221D DUP2 PUSH2 0x1F2F JUMP JUMPDEST SWAP1 POP SWAP2 SWAP1 POP JUMP JUMPDEST PUSH1 0x0 PUSH1 0x20 DUP3 ADD SWAP1 POP DUP2 DUP2 SUB PUSH1 0x0 DUP4 ADD MSTORE PUSH2 0x223D DUP2 PUSH2 0x1F52 JUMP JUMPDEST SWAP1 POP SWAP2 SWAP1 POP JUMP JUMPDEST PUSH1 0x0 PUSH1 0x20 DUP3 ADD SWAP1 POP DUP2 DUP2 SUB PUSH1 0x0 DUP4 ADD MSTORE PUSH2 0x225D DUP2 PUSH2 0x1F75 JUMP JUMPDEST SWAP1 POP SWAP2 SWAP1 POP JUMP JUMPDEST PUSH1 0x0 PUSH1 0x20 DUP3 ADD SWAP1 POP DUP2 DUP2 SUB PUSH1 0x0 DUP4 ADD MSTORE PUSH2 0x227D DUP2 PUSH2 0x1F98 JUMP JUMPDEST SWAP1 POP SWAP2 SWAP1 POP JUMP JUMPDEST PUSH1 0x0 PUSH1 0x20 DUP3 ADD SWAP1 POP DUP2 DUP2 SUB PUSH1 0x0 DUP4 ADD MSTORE PUSH2 0x229D DUP2 PUSH2 0x1FBB JUMP JUMPDEST SWAP1 POP SWAP2 SWAP1 POP JUMP JUMPDEST PUSH1 0x0 PUSH1 0x20 DUP3 ADD SWAP1 POP DUP2 DUP2 SUB PUSH1 0x0 DUP4 ADD MSTORE PUSH2 0x22BD DUP2 PUSH2 0x1FDE JUMP JUMPDEST SWAP1 POP SWAP2 SWAP1 POP JUMP JUMPDEST PUSH1 0x0 PUSH1 0x20 DUP3 ADD SWAP1 POP DUP2 DUP2 SUB PUSH1 0x0 DUP4 ADD MSTORE PUSH2 0x22DD DUP2 PUSH2 0x2001 JUMP JUMPDEST SWAP1 POP SWAP2 SWAP1 POP JUMP JUMPDEST PUSH1 0x0 PUSH1 0x20 DUP3 ADD SWAP1 POP DUP2 DUP2 SUB PUSH1 0x0 DUP4 ADD MSTORE PUSH2 0x22FD DUP2 PUSH2 0x2024 JUMP JUMPDEST SWAP1 POP SWAP2 SWAP1 POP JUMP JUMPDEST PUSH1 0x0 PUSH1 0x20 DUP3 ADD SWAP1 POP DUP2 DUP2 SUB PUSH1 0x0 DUP4 ADD MSTORE PUSH2 0x231D DUP2 PUSH2 0x2047 JUMP JUMPDEST SWAP1 POP SWAP2 SWAP1 POP JUMP JUMPDEST PUSH1 0x0 PUSH1 0x20 DUP3 ADD SWAP1 POP DUP2 DUP2 SUB PUSH1 0x0 DUP4 ADD MSTORE PUSH2 0x233D DUP2 PUSH2 0x206A JUMP JUMPDEST SWAP1 POP SWAP2 SWAP1 POP JUMP JUMPDEST PUSH1 0x0 PUSH1 0x20 DUP3 ADD SWAP1 POP PUSH2 0x2359 PUSH1 0x0 DUP4 ADD DUP5 PUSH2 0x208D JUMP JUMPDEST SWAP3 SWAP2 POP POP JUMP JUMPDEST PUSH1 0x0 PUSH2 0x2369 PUSH2 0x237A JUMP JUMPDEST SWAP1 POP PUSH2 0x2375 DUP3 DUP3 PUSH2 0x265B JUMP JUMPDEST SWAP2 SWAP1 POP JUMP JUMPDEST PUSH1 0x0 PUSH1 0x40 MLOAD SWAP1 POP SWAP1 JUMP JUMPDEST PUSH1 0x0 PUSH8 0xFFFFFFFFFFFFFFFF DUP3 GT ISZERO PUSH2 0x239F JUMPI PUSH2 0x239E PUSH2 0x27C2 JUMP JUMPDEST JUMPDEST PUSH2 0x23A8 DUP3 PUSH2 0x2805 JUMP JUMPDEST SWAP1 POP PUSH1 0x20 DUP2 ADD SWAP1 POP SWAP2 SWAP1 POP JUMP JUMPDEST PUSH1 0x0 DUP2 MLOAD SWAP1 POP SWAP2 SWAP1 POP JUMP JUMPDEST PUSH1 0x0 DUP2 MLOAD SWAP1 POP SWAP2 SWAP1 POP JUMP JUMPDEST PUSH1 0x0 DUP3 DUP3 MSTORE PUSH1 0x20 DUP3 ADD SWAP1 POP SWAP3 SWAP2 POP POP JUMP JUMPDEST PUSH1 0x0 DUP3 DUP3 MSTORE PUSH1 0x20 DUP3 ADD SWAP1 POP SWAP3 SWAP2 POP POP JUMP JUMPDEST PUSH1 0x0 DUP2 SWAP1 POP SWAP3 SWAP2 POP POP JUMP JUMPDEST PUSH1 0x0 PUSH2 0x2403 DUP3 PUSH2 0x2577 JUMP JUMPDEST SWAP2 POP PUSH2 0x240E DUP4 PUSH2 0x2577 JUMP JUMPDEST SWAP3 POP DUP3 PUSH16 0xFFFFFFFFFFFFFFFFFFFFFFFFFFFFFFFF SUB DUP3 GT ISZERO PUSH2 0x2433 JUMPI PUSH2 0x2432 PUSH2 0x2706 JUMP JUMPDEST JUMPDEST DUP3 DUP3 ADD SWAP1 POP SWAP3 SWAP2 POP POP JUMP JUMPDEST PUSH1 0x0 PUSH2 0x2449 DUP3 PUSH2 0x25B3 JUMP JUMPDEST SWAP2 POP PUSH2 0x2454 DUP4 PUSH2 0x25B3 JUMP JUMPDEST SWAP3 POP DUP3 PUSH32 0xFFFFFFFFFFFFFFFFFFFFFFFFFFFFFFFFFFFFFFFFFFFFFFFFFFFFFFFFFFFFFFFF SUB DUP3 GT ISZERO PUSH2 0x2489 JUMPI PUSH2 0x2488 PUSH2 0x2706 JUMP JUMPDEST JUMPDEST DUP3 DUP3 ADD SWAP1 POP SWAP3 SWAP2 POP POP JUMP JUMPDEST PUSH1 0x0 PUSH2 0x249F DUP3 PUSH2 0x25B3 JUMP JUMPDEST SWAP2 POP PUSH2 0x24AA DUP4 PUSH2 0x25B3 JUMP JUMPDEST SWAP3 POP DUP3 PUSH2 0x24BA JUMPI PUSH2 0x24B9 PUSH2 0x2735 JUMP JUMPDEST JUMPDEST DUP3 DUP3 DIV SWAP1 POP SWAP3 SWAP2 POP POP JUMP JUMPDEST PUSH1 0x0 PUSH2 0x24D0 DUP3 PUSH2 0x2577 JUMP JUMPDEST SWAP2 POP PUSH2 0x24DB DUP4 PUSH2 0x2577 JUMP JUMPDEST SWAP3 POP DUP3 DUP3 LT ISZERO PUSH2 0x24EE JUMPI PUSH2 0x24ED PUSH2 0x2706 JUMP JUMPDEST JUMPDEST DUP3 DUP3 SUB SWAP1 POP SWAP3 SWAP2 POP POP JUMP JUMPDEST PUSH1 0x0 PUSH2 0x2504 DUP3 PUSH2 0x25B3 JUMP JUMPDEST SWAP2 POP PUSH2 0x250F DUP4 PUSH2 0x25B3 JUMP JUMPDEST SWAP3 POP DUP3 DUP3 LT ISZERO PUSH2 0x2522 JUMPI PUSH2 0x2521 PUSH2 0x2706 JUMP JUMPDEST JUMPDEST DUP3 DUP3 SUB SWAP1 POP SWAP3 SWAP2 POP POP JUMP JUMPDEST PUSH1 0x0 PUSH2 0x2538 DUP3 PUSH2 0x2593 JUMP JUMPDEST SWAP1 POP SWAP2 SWAP1 POP JUMP JUMPDEST PUSH1 0x0 DUP2 ISZERO ISZERO SWAP1 POP SWAP2 SWAP1 POP JUMP JUMPDEST PUSH1 0x0 PUSH32 0xFFFFFFFF00000000000000000000000000000000000000000000000000000000 DUP3 AND SWAP1 POP SWAP2 SWAP1 POP JUMP JUMPDEST PUSH1 0x0 PUSH16 0xFFFFFFFFFFFFFFFFFFFFFFFFFFFFFFFF DUP3 AND SWAP1 POP SWAP2 SWAP1 POP JUMP JUMPDEST PUSH1 0x0 PUSH20 0xFFFFFFFFFFFFFFFFFFFFFFFFFFFFFFFFFFFFFFFF DUP3 AND SWAP1 POP SWAP2 SWAP1 POP JUMP JUMPDEST PUSH1 0x0 DUP2 SWAP1 POP SWAP2 SWAP1 POP JUMP JUMPDEST DUP3 DUP2 DUP4 CALLDATACOPY PUSH1 0x0 DUP4 DUP4 ADD MSTORE POP POP POP JUMP JUMPDEST PUSH1 0x0 JUMPDEST DUP4 DUP2 LT ISZERO PUSH2 0x25EA JUMPI DUP1 DUP3 ADD MLOAD DUP2 DUP5 ADD MSTORE PUSH1 0x20 DUP2 ADD SWAP1 POP PUSH2 0x25CF JUMP JUMPDEST DUP4 DUP2 GT ISZERO PUSH2 0x25F9 JUMPI PUSH1 0x0 DUP5 DUP5 ADD MSTORE JUMPDEST POP POP POP POP JUMP JUMPDEST PUSH1 0x0 PUSH2 0x260A DUP3 PUSH2 0x25B3 JUMP JUMPDEST SWAP2 POP PUSH1 0x0 DUP3 EQ ISZERO PUSH2 0x261E JUMPI PUSH2 0x261D PUSH2 0x2706 JUMP JUMPDEST JUMPDEST PUSH1 0x1 DUP3 SUB SWAP1 POP SWAP2 SWAP1 POP JUMP JUMPDEST PUSH1 0x0 PUSH1 0x2 DUP3 DIV SWAP1 POP PUSH1 0x1 DUP3 AND DUP1 PUSH2 0x2641 JUMPI PUSH1 0x7F DUP3 AND SWAP2 POP JUMPDEST PUSH1 0x20 DUP3 LT DUP2 EQ ISZERO PUSH2 0x2655 JUMPI PUSH2 0x2654 PUSH2 0x2764 JUMP JUMPDEST JUMPDEST POP SWAP2 SWAP1 POP JUMP JUMPDEST PUSH2 0x2664 DUP3 PUSH2 0x2805 JUMP JUMPDEST DUP2 ADD DUP2 DUP2 LT PUSH8 0xFFFFFFFFFFFFFFFF DUP3 GT OR ISZERO PUSH2 0x2683 JUMPI PUSH2 0x2682 PUSH2 0x27C2 JUMP JUMPDEST JUMPDEST DUP1 PUSH1 0x40 MSTORE POP POP POP JUMP JUMPDEST PUSH1 0x0 PUSH2 0x2697 DUP3 PUSH2 0x25B3 JUMP JUMPDEST SWAP2 POP PUSH32 0xFFFFFFFFFFFFFFFFFFFFFFFFFFFFFFFFFFFFFFFFFFFFFFFFFFFFFFFFFFFFFFFF DUP3 EQ ISZERO PUSH2 0x26CA JUMPI PUSH2 0x26C9 PUSH2 0x2706 JUMP JUMPDEST JUMPDEST PUSH1 0x1 DUP3 ADD SWAP1 POP SWAP2 SWAP1 POP JUMP JUMPDEST PUSH1 0x0 PUSH2 0x26E0 DUP3 PUSH2 0x25B3 JUMP JUMPDEST SWAP2 POP PUSH2 0x26EB DUP4 PUSH2 0x25B3 JUMP JUMPDEST SWAP3 POP DUP3 PUSH2 0x26FB JUMPI PUSH2 0x26FA PUSH2 0x2735 JUMP JUMPDEST JUMPDEST DUP3 DUP3 MOD SWAP1 POP SWAP3 SWAP2 POP POP JUMP JUMPDEST PUSH32 0x4E487B7100000000000000000000000000000000000000000000000000000000 PUSH1 0x0 MSTORE PUSH1 0x11 PUSH1 0x4 MSTORE PUSH1 0x24 PUSH1 0x0 REVERT JUMPDEST PUSH32 0x4E487B7100000000000000000000000000000000000000000000000000000000 PUSH1 0x0 MSTORE PUSH1 0x12 PUSH1 0x4 MSTORE PUSH1 0x24 PUSH1 0x0 REVERT JUMPDEST PUSH32 0x4E487B7100000000000000000000000000000000000000000000000000000000 PUSH1 0x0 MSTORE PUSH1 0x22 PUSH1 0x4 MSTORE PUSH1 0x24 PUSH1 0x0 REVERT JUMPDEST PUSH32 0x4E487B7100000000000000000000000000000000000000000000000000000000 PUSH1 0x0 MSTORE PUSH1 0x32 PUSH1 0x4 MSTORE PUSH1 0x24 PUSH1 0x0 REVERT JUMPDEST PUSH32 0x4E487B7100000000000000000000000000000000000000000000000000000000 PUSH1 0x0 MSTORE PUSH1 0x41 PUSH1 0x4 MSTORE PUSH1 0x24 PUSH1 0x0 REVERT JUMPDEST PUSH1 0x0 DUP1 REVERT JUMPDEST PUSH1 0x0 DUP1 REVERT JUMPDEST PUSH1 0x0 DUP1 REVERT JUMPDEST PUSH1 0x0 DUP1 REVERT JUMPDEST PUSH1 0x0 PUSH1 0x1F NOT PUSH1 0x1F DUP4 ADD AND SWAP1 POP SWAP2 SWAP1 POP JUMP JUMPDEST PUSH32 0x455243373231413A206F776E657220696E646578206F7574206F6620626F756E PUSH1 0x0 DUP3 ADD MSTORE PUSH32 0x6473000000000000000000000000000000000000000000000000000000000000 PUSH1 0x20 DUP3 ADD MSTORE POP JUMP JUMPDEST PUSH32 0x455243373231413A206F776E657220717565727920666F72206E6F6E65786973 PUSH1 0x0 DUP3 ADD MSTORE PUSH32 0x74656E7420746F6B656E00000000000000000000000000000000000000000000 PUSH1 0x20 DUP3 ADD MSTORE POP JUMP JUMPDEST PUSH32 0x455243373231413A20676C6F62616C20696E646578206F7574206F6620626F75 PUSH1 0x0 DUP3 ADD MSTORE PUSH32 0x6E64730000000000000000000000000000000000000000000000000000000000 PUSH1 0x20 DUP3 ADD MSTORE POP JUMP JUMPDEST PUSH32 0x455243373231413A207472616E7366657220746F20746865207A65726F206164 PUSH1 0x0 DUP3 ADD MSTORE PUSH32 0x6472657373000000000000000000000000000000000000000000000000000000 PUSH1 0x20 DUP3 ADD MSTORE POP JUMP JUMPDEST PUSH32 0x455243373231413A20617070726F76652063616C6C6572206973206E6F74206F PUSH1 0x0 DUP3 ADD MSTORE PUSH32 0x776E6572206E6F7220617070726F76656420666F7220616C6C00000000000000 PUSH1 0x20 DUP3 ADD MSTORE POP JUMP JUMPDEST PUSH32 0x455243373231413A2062616C616E636520717565727920666F7220746865207A PUSH1 0x0 DUP3 ADD MSTORE PUSH32 0x65726F2061646472657373000000000000000000000000000000000000000000 PUSH1 0x20 DUP3 ADD MSTORE POP JUMP JUMPDEST PUSH32 0x455243373231413A207472616E736665722066726F6D20696E636F7272656374 PUSH1 0x0 DUP3 ADD MSTORE PUSH32 0x206F776E65720000000000000000000000000000000000000000000000000000 PUSH1 0x20 DUP3 ADD MSTORE POP JUMP JUMPDEST PUSH32 0x4552433732314D657461646174613A2055524920717565727920666F72206E6F PUSH1 0x0 DUP3 ADD MSTORE PUSH32 0x6E6578697374656E7420746F6B656E0000000000000000000000000000000000 PUSH1 0x20 DUP3 ADD MSTORE POP JUMP JUMPDEST PUSH32 0x455243373231413A20617070726F766520746F2063616C6C6572000000000000 PUSH1 0x0 DUP3 ADD MSTORE POP JUMP JUMPDEST PUSH32 0x455243373231413A207472616E736665722063616C6C6572206973206E6F7420 PUSH1 0x0 DUP3 ADD MSTORE PUSH32 0x6F776E6572206E6F7220617070726F7665640000000000000000000000000000 PUSH1 0x20 DUP3 ADD MSTORE POP JUMP JUMPDEST PUSH32 0x455243373231413A20617070726F76616C20746F2063757272656E74206F776E PUSH1 0x0 DUP3 ADD MSTORE PUSH32 0x6572000000000000000000000000000000000000000000000000000000000000 PUSH1 0x20 DUP3 ADD MSTORE POP JUMP JUMPDEST PUSH32 0x455243373231413A207472616E7366657220746F206E6F6E2045524337323152 PUSH1 0x0 DUP3 ADD MSTORE PUSH32 0x6563656976657220696D706C656D656E74657200000000000000000000000000 PUSH1 0x20 DUP3 ADD MSTORE POP JUMP JUMPDEST PUSH32 0x455243373231413A20756E61626C6520746F2067657420746F6B656E206F6620 PUSH1 0x0 DUP3 ADD MSTORE PUSH32 0x6F776E657220627920696E646578000000000000000000000000000000000000 PUSH1 0x20 DUP3 ADD MSTORE POP JUMP JUMPDEST PUSH32 0x455243373231413A20756E61626C6520746F2064657465726D696E6520746865 PUSH1 0x0 DUP3 ADD MSTORE PUSH32 0x206F776E6572206F6620746F6B656E0000000000000000000000000000000000 PUSH1 0x20 DUP3 ADD MSTORE POP JUMP JUMPDEST PUSH32 0x455243373231413A20617070726F76656420717565727920666F72206E6F6E65 PUSH1 0x0 DUP3 ADD MSTORE PUSH32 0x78697374656E7420746F6B656E00000000000000000000000000000000000000 PUSH1 0x20 DUP3 ADD MSTORE POP JUMP JUMPDEST PUSH2 0x2C9A DUP2 PUSH2 0x252D JUMP JUMPDEST DUP2 EQ PUSH2 0x2CA5 JUMPI PUSH1 0x0 DUP1 REVERT JUMPDEST POP JUMP JUMPDEST PUSH2 0x2CB1 DUP2 PUSH2 0x253F JUMP JUMPDEST DUP2 EQ PUSH2 0x2CBC JUMPI PUSH1 0x0 DUP1 REVERT JUMPDEST POP JUMP JUMPDEST PUSH2 0x2CC8 DUP2 PUSH2 0x254B JUMP JUMPDEST DUP2 EQ PUSH2 0x2CD3 JUMPI PUSH1 0x0 DUP1 REVERT JUMPDEST POP JUMP JUMPDEST PUSH2 0x2CDF DUP2 PUSH2 0x25B3 JUMP JUMPDEST DUP2 EQ PUSH2 0x2CEA JUMPI PUSH1 0x0 DUP1 REVERT JUMPDEST POP JUMP INVALID LOG2 PUSH5 0x6970667358 0x22 SLT KECCAK256 DUP9 PUSH12 0x943185A9E6AC1972D40A2891 0xAC 0xE1 0xCE KECCAK256 0x4A SLT SGT PUSH3 0x8B769B PUSH25 0x27888BFC51D464736F6C634300080700330000000000000000 "
				},
				"gasEstimates": {
					"creation": {
						"codeDepositCost": "2311000",
						"executionCost": "infinite",
						"totalCost": "infinite"
					},
					"external": {
						"approve(address,uint256)": "infinite",
						"balanceOf(address)": "2994",
						"getApproved(uint256)": "5099",
						"isApprovedForAll(address,address)": "infinite",
						"name()": "infinite",
						"nextOwnerToExplicitlySet()": "2517",
						"ownerOf(uint256)": "infinite",
						"safeTransferFrom(address,address,uint256)": "infinite",
						"safeTransferFrom(address,address,uint256,bytes)": "infinite",
						"setApprovalForAll(address,bool)": "infinite",
						"supportsInterface(bytes4)": "843",
						"symbol()": "infinite",
						"tokenByIndex(uint256)": "infinite",
						"tokenOfOwnerByIndex(address,uint256)": "infinite",
						"tokenURI(uint256)": "3266",
						"totalSupply()": "2460",
						"transferFrom(address,address,uint256)": "infinite"
					},
					"internal": {
						"_afterTokenTransfers(address,address,uint256,uint256)": "17",
						"_approve(address,uint256,address)": "26292",
						"_baseURI()": "infinite",
						"_beforeTokenTransfers(address,address,uint256,uint256)": "17",
						"_checkOnERC721Received(address,address,uint256,bytes memory)": "infinite",
						"_exists(uint256)": "2134",
						"_numberMinted(address)": "infinite",
						"_safeMint(address,uint256)": "infinite",
						"_safeMint(address,uint256,bytes memory)": "infinite",
						"_setOwnersExplicit(uint256)": "infinite",
						"_transfer(address,address,uint256)": "infinite",
						"ownershipOf(uint256)": "infinite"
					}
				},
				"methodIdentifiers": {
					"approve(address,uint256)": "095ea7b3",
					"balanceOf(address)": "70a08231",
					"getApproved(uint256)": "081812fc",
					"isApprovedForAll(address,address)": "e985e9c5",
					"name()": "06fdde03",
					"nextOwnerToExplicitlySet()": "d7224ba0",
					"ownerOf(uint256)": "6352211e",
					"safeTransferFrom(address,address,uint256)": "42842e0e",
					"safeTransferFrom(address,address,uint256,bytes)": "b88d4fde",
					"setApprovalForAll(address,bool)": "a22cb465",
					"supportsInterface(bytes4)": "01ffc9a7",
					"symbol()": "95d89b41",
					"tokenByIndex(uint256)": "4f6ccce7",
					"tokenOfOwnerByIndex(address,uint256)": "2f745c59",
					"tokenURI(uint256)": "c87b56dd",
					"totalSupply()": "18160ddd",
					"transferFrom(address,address,uint256)": "23b872dd"
				}
			},
			"storageLayout": {
				"storage": [
					{
						"astId": 789,
						"contract": "contracts/ERC721A.sol:ERC721A",
						"label": "currentIndex",
						"offset": 0,
						"slot": "0",
						"type": "t_uint256"
					},
					{
						"astId": 795,
						"contract": "contracts/ERC721A.sol:ERC721A",
						"label": "_name",
						"offset": 0,
						"slot": "1",
						"type": "t_string_storage"
					},
					{
						"astId": 797,
						"contract": "contracts/ERC721A.sol:ERC721A",
						"label": "_symbol",
						"offset": 0,
						"slot": "2",
						"type": "t_string_storage"
					},
					{
						"astId": 802,
						"contract": "contracts/ERC721A.sol:ERC721A",
						"label": "_ownerships",
						"offset": 0,
						"slot": "3",
						"type": "t_mapping(t_uint256,t_struct(TokenOwnership)781_storage)"
					},
					{
						"astId": 807,
						"contract": "contracts/ERC721A.sol:ERC721A",
						"label": "_addressData",
						"offset": 0,
						"slot": "4",
						"type": "t_mapping(t_address,t_struct(AddressData)786_storage)"
					},
					{
						"astId": 811,
						"contract": "contracts/ERC721A.sol:ERC721A",
						"label": "_tokenApprovals",
						"offset": 0,
						"slot": "5",
						"type": "t_mapping(t_uint256,t_address)"
					},
					{
						"astId": 817,
						"contract": "contracts/ERC721A.sol:ERC721A",
						"label": "_operatorApprovals",
						"offset": 0,
						"slot": "6",
						"type": "t_mapping(t_address,t_mapping(t_address,t_bool))"
					},
					{
						"astId": 1760,
						"contract": "contracts/ERC721A.sol:ERC721A",
						"label": "nextOwnerToExplicitlySet",
						"offset": 0,
						"slot": "7",
						"type": "t_uint256"
					}
				],
				"types": {
					"t_address": {
						"encoding": "inplace",
						"label": "address",
						"numberOfBytes": "20"
					},
					"t_bool": {
						"encoding": "inplace",
						"label": "bool",
						"numberOfBytes": "1"
					},
					"t_mapping(t_address,t_bool)": {
						"encoding": "mapping",
						"key": "t_address",
						"label": "mapping(address => bool)",
						"numberOfBytes": "32",
						"value": "t_bool"
					},
					"t_mapping(t_address,t_mapping(t_address,t_bool))": {
						"encoding": "mapping",
						"key": "t_address",
						"label": "mapping(address => mapping(address => bool))",
						"numberOfBytes": "32",
						"value": "t_mapping(t_address,t_bool)"
					},
					"t_mapping(t_address,t_struct(AddressData)786_storage)": {
						"encoding": "mapping",
						"key": "t_address",
						"label": "mapping(address => struct ERC721A.AddressData)",
						"numberOfBytes": "32",
						"value": "t_struct(AddressData)786_storage"
					},
					"t_mapping(t_uint256,t_address)": {
						"encoding": "mapping",
						"key": "t_uint256",
						"label": "mapping(uint256 => address)",
						"numberOfBytes": "32",
						"value": "t_address"
					},
					"t_mapping(t_uint256,t_struct(TokenOwnership)781_storage)": {
						"encoding": "mapping",
						"key": "t_uint256",
						"label": "mapping(uint256 => struct ERC721A.TokenOwnership)",
						"numberOfBytes": "32",
						"value": "t_struct(TokenOwnership)781_storage"
					},
					"t_string_storage": {
						"encoding": "bytes",
						"label": "string",
						"numberOfBytes": "32"
					},
					"t_struct(AddressData)786_storage": {
						"encoding": "inplace",
						"label": "struct ERC721A.AddressData",
						"members": [
							{
								"astId": 783,
								"contract": "contracts/ERC721A.sol:ERC721A",
								"label": "balance",
								"offset": 0,
								"slot": "0",
								"type": "t_uint128"
							},
							{
								"astId": 785,
								"contract": "contracts/ERC721A.sol:ERC721A",
								"label": "numberMinted",
								"offset": 16,
								"slot": "0",
								"type": "t_uint128"
							}
						],
						"numberOfBytes": "32"
					},
					"t_struct(TokenOwnership)781_storage": {
						"encoding": "inplace",
						"label": "struct ERC721A.TokenOwnership",
						"members": [
							{
								"astId": 778,
								"contract": "contracts/ERC721A.sol:ERC721A",
								"label": "addr",
								"offset": 0,
								"slot": "0",
								"type": "t_address"
							},
							{
								"astId": 780,
								"contract": "contracts/ERC721A.sol:ERC721A",
								"label": "startTimestamp",
								"offset": 20,
								"slot": "0",
								"type": "t_uint64"
							}
						],
						"numberOfBytes": "32"
					},
					"t_uint128": {
						"encoding": "inplace",
						"label": "uint128",
						"numberOfBytes": "16"
					},
					"t_uint256": {
						"encoding": "inplace",
						"label": "uint256",
						"numberOfBytes": "32"
					},
					"t_uint64": {
						"encoding": "inplace",
						"label": "uint64",
						"numberOfBytes": "8"
					}
				}
			},
			"userdoc": {
				"kind": "user",
				"methods": {},
				"version": 1
			}
		}
	}
}