{
	"contracts/ERC721A.sol": {
		"ERC721A": {
			"abi": [
				{
					"inputs": [
						{
							"internalType": "string",
							"name": "name_",
							"type": "string"
						},
						{
							"internalType": "string",
							"name": "symbol_",
							"type": "string"
						},
						{
							"internalType": "uint256",
							"name": "maxBatchSize_",
							"type": "uint256"
						},
						{
							"internalType": "uint256",
							"name": "collectionSize_",
							"type": "uint256"
						}
					],
					"stateMutability": "nonpayable",
					"type": "constructor"
				},
				{
					"anonymous": false,
					"inputs": [
						{
							"indexed": true,
							"internalType": "address",
							"name": "owner",
							"type": "address"
						},
						{
							"indexed": true,
							"internalType": "address",
							"name": "approved",
							"type": "address"
						},
						{
							"indexed": true,
							"internalType": "uint256",
							"name": "tokenId",
							"type": "uint256"
						}
					],
					"name": "Approval",
					"type": "event"
				},
				{
					"anonymous": false,
					"inputs": [
						{
							"indexed": true,
							"internalType": "address",
							"name": "owner",
							"type": "address"
						},
						{
							"indexed": true,
							"internalType": "address",
							"name": "operator",
							"type": "address"
						},
						{
							"indexed": false,
							"internalType": "bool",
							"name": "approved",
							"type": "bool"
						}
					],
					"name": "ApprovalForAll",
					"type": "event"
				},
				{
					"anonymous": false,
					"inputs": [
						{
							"indexed": true,
							"internalType": "address",
							"name": "from",
							"type": "address"
						},
						{
							"indexed": true,
							"internalType": "address",
							"name": "to",
							"type": "address"
						},
						{
							"indexed": true,
							"internalType": "uint256",
							"name": "tokenId",
							"type": "uint256"
						}
					],
					"name": "Transfer",
					"type": "event"
				},
				{
					"inputs": [
						{
							"internalType": "address",
							"name": "to",
							"type": "address"
						},
						{
							"internalType": "uint256",
							"name": "tokenId",
							"type": "uint256"
						}
					],
					"name": "approve",
					"outputs": [],
					"stateMutability": "nonpayable",
					"type": "function"
				},
				{
					"inputs": [
						{
							"internalType": "address",
							"name": "owner",
							"type": "address"
						}
					],
					"name": "balanceOf",
					"outputs": [
						{
							"internalType": "uint256",
							"name": "",
							"type": "uint256"
						}
					],
					"stateMutability": "view",
					"type": "function"
				},
				{
					"inputs": [
						{
							"internalType": "uint256",
							"name": "tokenId",
							"type": "uint256"
						}
					],
					"name": "getApproved",
					"outputs": [
						{
							"internalType": "address",
							"name": "",
							"type": "address"
						}
					],
					"stateMutability": "view",
					"type": "function"
				},
				{
					"inputs": [
						{
							"internalType": "address",
							"name": "owner",
							"type": "address"
						},
						{
							"internalType": "address",
							"name": "operator",
							"type": "address"
						}
					],
					"name": "isApprovedForAll",
					"outputs": [
						{
							"internalType": "bool",
							"name": "",
							"type": "bool"
						}
					],
					"stateMutability": "view",
					"type": "function"
				},
				{
					"inputs": [],
					"name": "name",
					"outputs": [
						{
							"internalType": "string",
							"name": "",
							"type": "string"
						}
					],
					"stateMutability": "view",
					"type": "function"
				},
				{
					"inputs": [],
					"name": "nextOwnerToExplicitlySet",
					"outputs": [
						{
							"internalType": "uint256",
							"name": "",
							"type": "uint256"
						}
					],
					"stateMutability": "view",
					"type": "function"
				},
				{
					"inputs": [
						{
							"internalType": "uint256",
							"name": "tokenId",
							"type": "uint256"
						}
					],
					"name": "ownerOf",
					"outputs": [
						{
							"internalType": "address",
							"name": "",
							"type": "address"
						}
					],
					"stateMutability": "view",
					"type": "function"
				},
				{
					"inputs": [
						{
							"internalType": "address",
							"name": "from",
							"type": "address"
						},
						{
							"internalType": "address",
							"name": "to",
							"type": "address"
						},
						{
							"internalType": "uint256",
							"name": "tokenId",
							"type": "uint256"
						}
					],
					"name": "safeTransferFrom",
					"outputs": [],
					"stateMutability": "nonpayable",
					"type": "function"
				},
				{
					"inputs": [
						{
							"internalType": "address",
							"name": "from",
							"type": "address"
						},
						{
							"internalType": "address",
							"name": "to",
							"type": "address"
						},
						{
							"internalType": "uint256",
							"name": "tokenId",
							"type": "uint256"
						},
						{
							"internalType": "bytes",
							"name": "_data",
							"type": "bytes"
						}
					],
					"name": "safeTransferFrom",
					"outputs": [],
					"stateMutability": "nonpayable",
					"type": "function"
				},
				{
					"inputs": [
						{
							"internalType": "address",
							"name": "operator",
							"type": "address"
						},
						{
							"internalType": "bool",
							"name": "approved",
							"type": "bool"
						}
					],
					"name": "setApprovalForAll",
					"outputs": [],
					"stateMutability": "nonpayable",
					"type": "function"
				},
				{
					"inputs": [
						{
							"internalType": "bytes4",
							"name": "interfaceId",
							"type": "bytes4"
						}
					],
					"name": "supportsInterface",
					"outputs": [
						{
							"internalType": "bool",
							"name": "",
							"type": "bool"
						}
					],
					"stateMutability": "view",
					"type": "function"
				},
				{
					"inputs": [],
					"name": "symbol",
					"outputs": [
						{
							"internalType": "string",
							"name": "",
							"type": "string"
						}
					],
					"stateMutability": "view",
					"type": "function"
				},
				{
					"inputs": [
						{
							"internalType": "uint256",
							"name": "index",
							"type": "uint256"
						}
					],
					"name": "tokenByIndex",
					"outputs": [
						{
							"internalType": "uint256",
							"name": "",
							"type": "uint256"
						}
					],
					"stateMutability": "view",
					"type": "function"
				},
				{
					"inputs": [
						{
							"internalType": "address",
							"name": "owner",
							"type": "address"
						},
						{
							"internalType": "uint256",
							"name": "index",
							"type": "uint256"
						}
					],
					"name": "tokenOfOwnerByIndex",
					"outputs": [
						{
							"internalType": "uint256",
							"name": "",
							"type": "uint256"
						}
					],
					"stateMutability": "view",
					"type": "function"
				},
				{
					"inputs": [
						{
							"internalType": "uint256",
							"name": "tokenId",
							"type": "uint256"
						}
					],
					"name": "tokenURI",
					"outputs": [
						{
							"internalType": "string",
							"name": "",
							"type": "string"
						}
					],
					"stateMutability": "view",
					"type": "function"
				},
				{
					"inputs": [],
					"name": "totalSupply",
					"outputs": [
						{
							"internalType": "uint256",
							"name": "",
							"type": "uint256"
						}
					],
					"stateMutability": "view",
					"type": "function"
				},
				{
					"inputs": [
						{
							"internalType": "address",
							"name": "from",
							"type": "address"
						},
						{
							"internalType": "address",
							"name": "to",
							"type": "address"
						},
						{
							"internalType": "uint256",
							"name": "tokenId",
							"type": "uint256"
						}
					],
					"name": "transferFrom",
					"outputs": [],
					"stateMutability": "nonpayable",
					"type": "function"
				}
			],
			"devdoc": {
				"details": "Implementation of https://eips.ethereum.org/EIPS/eip-721[ERC721] Non-Fungible Token Standard, including the Metadata and Enumerable extension. Built to optimize for lower gas during batch mints. Assumes serials are sequentially minted starting at 0 (e.g. 0, 1, 2, 3..). Assumes the number of issuable tokens (collection size) is capped and fits in a uint128. Does not support burning tokens to address(0).",
				"kind": "dev",
				"methods": {
					"approve(address,uint256)": {
						"details": "See {IERC721-approve}."
					},
					"balanceOf(address)": {
						"details": "See {IERC721-balanceOf}."
					},
					"constructor": {
						"details": "`maxBatchSize` refers to how much a minter can mint at a time. `collectionSize_` refers to how many tokens are in the collection."
					},
					"getApproved(uint256)": {
						"details": "See {IERC721-getApproved}."
					},
					"isApprovedForAll(address,address)": {
						"details": "See {IERC721-isApprovedForAll}."
					},
					"name()": {
						"details": "See {IERC721Metadata-name}."
					},
					"ownerOf(uint256)": {
						"details": "See {IERC721-ownerOf}."
					},
					"safeTransferFrom(address,address,uint256)": {
						"details": "See {IERC721-safeTransferFrom}."
					},
					"safeTransferFrom(address,address,uint256,bytes)": {
						"details": "See {IERC721-safeTransferFrom}."
					},
					"setApprovalForAll(address,bool)": {
						"details": "See {IERC721-setApprovalForAll}."
					},
					"supportsInterface(bytes4)": {
						"details": "See {IERC165-supportsInterface}."
					},
					"symbol()": {
						"details": "See {IERC721Metadata-symbol}."
					},
					"tokenByIndex(uint256)": {
						"details": "See {IERC721Enumerable-tokenByIndex}."
					},
					"tokenOfOwnerByIndex(address,uint256)": {
						"details": "See {IERC721Enumerable-tokenOfOwnerByIndex}. This read function is O(collectionSize). If calling from a separate contract, be sure to test gas first. It may also degrade with extremely large collection sizes (e.g >> 10000), test for your use case."
					},
					"tokenURI(uint256)": {
						"details": "See {IERC721Metadata-tokenURI}."
					},
					"totalSupply()": {
						"details": "See {IERC721Enumerable-totalSupply}."
					},
					"transferFrom(address,address,uint256)": {
						"details": "See {IERC721-transferFrom}."
					}
				},
				"version": 1
			},
			"evm": {
				"assembly": "    /* \"contracts/ERC721A.sol\":1055:15909  contract ERC721A is... */\n  mstore(0x40, 0xc0)\n    /* \"contracts/ERC721A.sol\":1391:1392  0 */\n  0x00\n    /* \"contracts/ERC721A.sol\":1360:1392  uint256 private currentIndex = 0 */\n  dup1\n  sstore\n    /* \"contracts/ERC721A.sol\":12690:12691  0 */\n  0x00\n    /* \"contracts/ERC721A.sol\":12648:12691  uint256 public nextOwnerToExplicitlySet = 0 */\n  0x07\n  sstore\n    /* \"contracts/ERC721A.sol\":2285:2705  constructor(... */\n  callvalue\n  dup1\n  iszero\n  tag_1\n  jumpi\n  0x00\n  dup1\n  revert\ntag_1:\n  pop\n  mload(0x40)\n  sub(codesize, bytecodeSize)\n  dup1\n  bytecodeSize\n  dup4\n  codecopy\n  dup2\n  dup2\n  add\n  0x40\n  mstore\n  dup2\n  add\n  swap1\n  tag_2\n  swap2\n  swap1\n  tag_3\n  jump\t// in\ntag_2:\n    /* \"contracts/ERC721A.sol\":2448:2449  0 */\n  0x00\n    /* \"contracts/ERC721A.sol\":2430:2445  collectionSize_ */\n  dup2\n    /* \"contracts/ERC721A.sol\":2430:2449  collectionSize_ > 0 */\n  gt\n    /* \"contracts/ERC721A.sol\":2415:2511  require(... */\n  tag_6\n  jumpi\n  mload(0x40)\n  0x08c379a000000000000000000000000000000000000000000000000000000000\n  dup2\n  mstore\n  0x04\n  add\n  tag_7\n  swap1\n  tag_8\n  jump\t// in\ntag_7:\n  mload(0x40)\n  dup1\n  swap2\n  sub\n  swap1\n  revert\ntag_6:\n    /* \"contracts/ERC721A.sol\":2541:2542  0 */\n  0x00\n    /* \"contracts/ERC721A.sol\":2525:2538  maxBatchSize_ */\n  dup3\n    /* \"contracts/ERC721A.sol\":2525:2542  maxBatchSize_ > 0 */\n  gt\n    /* \"contracts/ERC721A.sol\":2517:2586  require(maxBatchSize_ > 0, \"ERC721A: max batch size must be nonzero\") */\n  tag_9\n  jumpi\n  mload(0x40)\n  0x08c379a000000000000000000000000000000000000000000000000000000000\n  dup2\n  mstore\n  0x04\n  add\n  tag_10\n  swap1\n  tag_11\n  jump\t// in\ntag_10:\n  mload(0x40)\n  dup1\n  swap2\n  sub\n  swap1\n  revert\ntag_9:\n    /* \"contracts/ERC721A.sol\":2600:2605  name_ */\n  dup4\n    /* \"contracts/ERC721A.sol\":2592:2597  _name */\n  0x01\n    /* \"contracts/ERC721A.sol\":2592:2605  _name = name_ */\n  swap1\n  dup1\n  mload\n  swap1\n  0x20\n  add\n  swap1\n  tag_12\n  swap3\n  swap2\n  swap1\n  tag_13\n  jump\t// in\ntag_12:\n  pop\n    /* \"contracts/ERC721A.sol\":2621:2628  symbol_ */\n  dup3\n    /* \"contracts/ERC721A.sol\":2611:2618  _symbol */\n  0x02\n    /* \"contracts/ERC721A.sol\":2611:2628  _symbol = symbol_ */\n  swap1\n  dup1\n  mload\n  swap1\n  0x20\n  add\n  swap1\n  tag_14\n  swap3\n  swap2\n  swap1\n  tag_13\n  jump\t// in\ntag_14:\n  pop\n    /* \"contracts/ERC721A.sol\":2649:2662  maxBatchSize_ */\n  dup2\n    /* \"contracts/ERC721A.sol\":2634:2662  maxBatchSize = maxBatchSize_ */\n  0xa0\n  dup2\n  dup2\n  mstore\n  pop\n  pop\n    /* \"contracts/ERC721A.sol\":2685:2700  collectionSize_ */\n  dup1\n    /* \"contracts/ERC721A.sol\":2668:2700  collectionSize = collectionSize_ */\n  0x80\n  dup2\n  dup2\n  mstore\n  pop\n  pop\n    /* \"contracts/ERC721A.sol\":2285:2705  constructor(... */\n  pop\n  pop\n  pop\n  pop\n    /* \"contracts/ERC721A.sol\":1055:15909  contract ERC721A is... */\n  jump(tag_15)\ntag_13:\n  dup3\n  dup1\n  sload\n  tag_16\n  swap1\n  tag_17\n  jump\t// in\ntag_16:\n  swap1\n  0x00\n  mstore\n  keccak256(0x00, 0x20)\n  swap1\n  0x1f\n  add\n  0x20\n  swap1\n  div\n  dup2\n  add\n  swap3\n  dup3\n  tag_19\n  jumpi\n  0x00\n  dup6\n  sstore\n  jump(tag_18)\ntag_19:\n  dup3\n  0x1f\n  lt\n  tag_20\n  jumpi\n  dup1\n  mload\n  not(0xff)\n  and\n  dup4\n  dup1\n  add\n  or\n  dup6\n  sstore\n  jump(tag_18)\ntag_20:\n  dup3\n  dup1\n  add\n  0x01\n  add\n  dup6\n  sstore\n  dup3\n  iszero\n  tag_18\n  jumpi\n  swap2\n  dup3\n  add\ntag_21:\n  dup3\n  dup2\n  gt\n  iszero\n  tag_22\n  jumpi\n  dup3\n  mload\n  dup3\n  sstore\n  swap2\n  0x20\n  add\n  swap2\n  swap1\n  0x01\n  add\n  swap1\n  jump(tag_21)\ntag_22:\ntag_18:\n  pop\n  swap1\n  pop\n  tag_23\n  swap2\n  swap1\n  tag_24\n  jump\t// in\ntag_23:\n  pop\n  swap1\n  jump\t// out\ntag_24:\ntag_25:\n  dup1\n  dup3\n  gt\n  iszero\n  tag_26\n  jumpi\n  0x00\n  dup2\n  0x00\n  swap1\n  sstore\n  pop\n  0x01\n  add\n  jump(tag_25)\ntag_26:\n  pop\n  swap1\n  jump\t// out\n    /* \"#utility.yul\":7:428   */\ntag_28:\n    /* \"#utility.yul\":96:101   */\n  0x00\n    /* \"#utility.yul\":121:187   */\n  tag_30\n    /* \"#utility.yul\":137:186   */\n  tag_31\n    /* \"#utility.yul\":179:185   */\n  dup5\n    /* \"#utility.yul\":137:186   */\n  tag_32\n  jump\t// in\ntag_31:\n    /* \"#utility.yul\":121:187   */\n  tag_33\n  jump\t// in\ntag_30:\n    /* \"#utility.yul\":112:187   */\n  swap1\n  pop\n    /* \"#utility.yul\":210:216   */\n  dup3\n    /* \"#utility.yul\":203:208   */\n  dup2\n    /* \"#utility.yul\":196:217   */\n  mstore\n    /* \"#utility.yul\":248:252   */\n  0x20\n    /* \"#utility.yul\":241:246   */\n  dup2\n    /* \"#utility.yul\":237:253   */\n  add\n    /* \"#utility.yul\":286:289   */\n  dup5\n    /* \"#utility.yul\":277:283   */\n  dup5\n    /* \"#utility.yul\":272:275   */\n  dup5\n    /* \"#utility.yul\":268:284   */\n  add\n    /* \"#utility.yul\":265:290   */\n  gt\n    /* \"#utility.yul\":262:374   */\n  iszero\n  tag_34\n  jumpi\n    /* \"#utility.yul\":293:372   */\n  tag_35\n  tag_36\n  jump\t// in\ntag_35:\n    /* \"#utility.yul\":262:374   */\ntag_34:\n    /* \"#utility.yul\":383:422   */\n  tag_37\n    /* \"#utility.yul\":415:421   */\n  dup5\n    /* \"#utility.yul\":410:413   */\n  dup3\n    /* \"#utility.yul\":405:408   */\n  dup6\n    /* \"#utility.yul\":383:422   */\n  tag_38\n  jump\t// in\ntag_37:\n    /* \"#utility.yul\":102:428   */\n  pop\n    /* \"#utility.yul\":7:428   */\n  swap4\n  swap3\n  pop\n  pop\n  pop\n  jump\t// out\n    /* \"#utility.yul\":448:803   */\ntag_39:\n    /* \"#utility.yul\":515:520   */\n  0x00\n    /* \"#utility.yul\":564:567   */\n  dup3\n    /* \"#utility.yul\":557:561   */\n  0x1f\n    /* \"#utility.yul\":549:555   */\n  dup4\n    /* \"#utility.yul\":545:562   */\n  add\n    /* \"#utility.yul\":541:568   */\n  slt\n    /* \"#utility.yul\":531:653   */\n  tag_41\n  jumpi\n    /* \"#utility.yul\":572:651   */\n  tag_42\n  tag_43\n  jump\t// in\ntag_42:\n    /* \"#utility.yul\":531:653   */\ntag_41:\n    /* \"#utility.yul\":682:688   */\n  dup2\n    /* \"#utility.yul\":676:689   */\n  mload\n    /* \"#utility.yul\":707:797   */\n  tag_44\n    /* \"#utility.yul\":793:796   */\n  dup5\n    /* \"#utility.yul\":785:791   */\n  dup3\n    /* \"#utility.yul\":778:782   */\n  0x20\n    /* \"#utility.yul\":770:776   */\n  dup7\n    /* \"#utility.yul\":766:783   */\n  add\n    /* \"#utility.yul\":707:797   */\n  tag_28\n  jump\t// in\ntag_44:\n    /* \"#utility.yul\":698:797   */\n  swap2\n  pop\n    /* \"#utility.yul\":521:803   */\n  pop\n    /* \"#utility.yul\":448:803   */\n  swap3\n  swap2\n  pop\n  pop\n  jump\t// out\n    /* \"#utility.yul\":809:952   */\ntag_45:\n    /* \"#utility.yul\":866:871   */\n  0x00\n    /* \"#utility.yul\":897:903   */\n  dup2\n    /* \"#utility.yul\":891:904   */\n  mload\n    /* \"#utility.yul\":882:904   */\n  swap1\n  pop\n    /* \"#utility.yul\":913:946   */\n  tag_47\n    /* \"#utility.yul\":940:945   */\n  dup2\n    /* \"#utility.yul\":913:946   */\n  tag_48\n  jump\t// in\ntag_47:\n    /* \"#utility.yul\":809:952   */\n  swap3\n  swap2\n  pop\n  pop\n  jump\t// out\n    /* \"#utility.yul\":958:2124   */\ntag_3:\n    /* \"#utility.yul\":1075:1081   */\n  0x00\n    /* \"#utility.yul\":1083:1089   */\n  dup1\n    /* \"#utility.yul\":1091:1097   */\n  0x00\n    /* \"#utility.yul\":1099:1105   */\n  dup1\n    /* \"#utility.yul\":1148:1151   */\n  0x80\n    /* \"#utility.yul\":1136:1145   */\n  dup6\n    /* \"#utility.yul\":1127:1134   */\n  dup8\n    /* \"#utility.yul\":1123:1146   */\n  sub\n    /* \"#utility.yul\":1119:1152   */\n  slt\n    /* \"#utility.yul\":1116:1236   */\n  iszero\n  tag_50\n  jumpi\n    /* \"#utility.yul\":1155:1234   */\n  tag_51\n  tag_52\n  jump\t// in\ntag_51:\n    /* \"#utility.yul\":1116:1236   */\ntag_50:\n    /* \"#utility.yul\":1296:1297   */\n  0x00\n    /* \"#utility.yul\":1285:1294   */\n  dup6\n    /* \"#utility.yul\":1281:1298   */\n  add\n    /* \"#utility.yul\":1275:1299   */\n  mload\n    /* \"#utility.yul\":1326:1344   */\n  0xffffffffffffffff\n    /* \"#utility.yul\":1318:1324   */\n  dup2\n    /* \"#utility.yul\":1315:1345   */\n  gt\n    /* \"#utility.yul\":1312:1429   */\n  iszero\n  tag_53\n  jumpi\n    /* \"#utility.yul\":1348:1427   */\n  tag_54\n  tag_55\n  jump\t// in\ntag_54:\n    /* \"#utility.yul\":1312:1429   */\ntag_53:\n    /* \"#utility.yul\":1453:1527   */\n  tag_56\n    /* \"#utility.yul\":1519:1526   */\n  dup8\n    /* \"#utility.yul\":1510:1516   */\n  dup3\n    /* \"#utility.yul\":1499:1508   */\n  dup9\n    /* \"#utility.yul\":1495:1517   */\n  add\n    /* \"#utility.yul\":1453:1527   */\n  tag_39\n  jump\t// in\ntag_56:\n    /* \"#utility.yul\":1443:1527   */\n  swap5\n  pop\n    /* \"#utility.yul\":1246:1537   */\n  pop\n    /* \"#utility.yul\":1597:1599   */\n  0x20\n    /* \"#utility.yul\":1586:1595   */\n  dup6\n    /* \"#utility.yul\":1582:1600   */\n  add\n    /* \"#utility.yul\":1576:1601   */\n  mload\n    /* \"#utility.yul\":1628:1646   */\n  0xffffffffffffffff\n    /* \"#utility.yul\":1620:1626   */\n  dup2\n    /* \"#utility.yul\":1617:1647   */\n  gt\n    /* \"#utility.yul\":1614:1731   */\n  iszero\n  tag_57\n  jumpi\n    /* \"#utility.yul\":1650:1729   */\n  tag_58\n  tag_55\n  jump\t// in\ntag_58:\n    /* \"#utility.yul\":1614:1731   */\ntag_57:\n    /* \"#utility.yul\":1755:1829   */\n  tag_59\n    /* \"#utility.yul\":1821:1828   */\n  dup8\n    /* \"#utility.yul\":1812:1818   */\n  dup3\n    /* \"#utility.yul\":1801:1810   */\n  dup9\n    /* \"#utility.yul\":1797:1819   */\n  add\n    /* \"#utility.yul\":1755:1829   */\n  tag_39\n  jump\t// in\ntag_59:\n    /* \"#utility.yul\":1745:1829   */\n  swap4\n  pop\n    /* \"#utility.yul\":1547:1839   */\n  pop\n    /* \"#utility.yul\":1878:1880   */\n  0x40\n    /* \"#utility.yul\":1904:1968   */\n  tag_60\n    /* \"#utility.yul\":1960:1967   */\n  dup8\n    /* \"#utility.yul\":1951:1957   */\n  dup3\n    /* \"#utility.yul\":1940:1949   */\n  dup9\n    /* \"#utility.yul\":1936:1958   */\n  add\n    /* \"#utility.yul\":1904:1968   */\n  tag_45\n  jump\t// in\ntag_60:\n    /* \"#utility.yul\":1894:1968   */\n  swap3\n  pop\n    /* \"#utility.yul\":1849:1978   */\n  pop\n    /* \"#utility.yul\":2017:2019   */\n  0x60\n    /* \"#utility.yul\":2043:2107   */\n  tag_61\n    /* \"#utility.yul\":2099:2106   */\n  dup8\n    /* \"#utility.yul\":2090:2096   */\n  dup3\n    /* \"#utility.yul\":2079:2088   */\n  dup9\n    /* \"#utility.yul\":2075:2097   */\n  add\n    /* \"#utility.yul\":2043:2107   */\n  tag_45\n  jump\t// in\ntag_61:\n    /* \"#utility.yul\":2033:2107   */\n  swap2\n  pop\n    /* \"#utility.yul\":1988:2117   */\n  pop\n    /* \"#utility.yul\":958:2124   */\n  swap3\n  swap6\n  swap2\n  swap5\n  pop\n  swap3\n  pop\n  jump\t// out\n    /* \"#utility.yul\":2130:2496   */\ntag_62:\n    /* \"#utility.yul\":2272:2275   */\n  0x00\n    /* \"#utility.yul\":2293:2360   */\n  tag_64\n    /* \"#utility.yul\":2357:2359   */\n  0x27\n    /* \"#utility.yul\":2352:2355   */\n  dup4\n    /* \"#utility.yul\":2293:2360   */\n  tag_65\n  jump\t// in\ntag_64:\n    /* \"#utility.yul\":2286:2360   */\n  swap2\n  pop\n    /* \"#utility.yul\":2369:2462   */\n  tag_66\n    /* \"#utility.yul\":2458:2461   */\n  dup3\n    /* \"#utility.yul\":2369:2462   */\n  tag_67\n  jump\t// in\ntag_66:\n    /* \"#utility.yul\":2487:2489   */\n  0x40\n    /* \"#utility.yul\":2482:2485   */\n  dup3\n    /* \"#utility.yul\":2478:2490   */\n  add\n    /* \"#utility.yul\":2471:2490   */\n  swap1\n  pop\n    /* \"#utility.yul\":2130:2496   */\n  swap2\n  swap1\n  pop\n  jump\t// out\n    /* \"#utility.yul\":2502:2868   */\ntag_68:\n    /* \"#utility.yul\":2644:2647   */\n  0x00\n    /* \"#utility.yul\":2665:2732   */\n  tag_70\n    /* \"#utility.yul\":2729:2731   */\n  0x2e\n    /* \"#utility.yul\":2724:2727   */\n  dup4\n    /* \"#utility.yul\":2665:2732   */\n  tag_65\n  jump\t// in\ntag_70:\n    /* \"#utility.yul\":2658:2732   */\n  swap2\n  pop\n    /* \"#utility.yul\":2741:2834   */\n  tag_71\n    /* \"#utility.yul\":2830:2833   */\n  dup3\n    /* \"#utility.yul\":2741:2834   */\n  tag_72\n  jump\t// in\ntag_71:\n    /* \"#utility.yul\":2859:2861   */\n  0x40\n    /* \"#utility.yul\":2854:2857   */\n  dup3\n    /* \"#utility.yul\":2850:2862   */\n  add\n    /* \"#utility.yul\":2843:2862   */\n  swap1\n  pop\n    /* \"#utility.yul\":2502:2868   */\n  swap2\n  swap1\n  pop\n  jump\t// out\n    /* \"#utility.yul\":2874:3293   */\ntag_11:\n    /* \"#utility.yul\":3040:3044   */\n  0x00\n    /* \"#utility.yul\":3078:3080   */\n  0x20\n    /* \"#utility.yul\":3067:3076   */\n  dup3\n    /* \"#utility.yul\":3063:3081   */\n  add\n    /* \"#utility.yul\":3055:3081   */\n  swap1\n  pop\n    /* \"#utility.yul\":3127:3136   */\n  dup2\n    /* \"#utility.yul\":3121:3125   */\n  dup2\n    /* \"#utility.yul\":3117:3137   */\n  sub\n    /* \"#utility.yul\":3113:3114   */\n  0x00\n    /* \"#utility.yul\":3102:3111   */\n  dup4\n    /* \"#utility.yul\":3098:3115   */\n  add\n    /* \"#utility.yul\":3091:3138   */\n  mstore\n    /* \"#utility.yul\":3155:3286   */\n  tag_74\n    /* \"#utility.yul\":3281:3285   */\n  dup2\n    /* \"#utility.yul\":3155:3286   */\n  tag_62\n  jump\t// in\ntag_74:\n    /* \"#utility.yul\":3147:3286   */\n  swap1\n  pop\n    /* \"#utility.yul\":2874:3293   */\n  swap2\n  swap1\n  pop\n  jump\t// out\n    /* \"#utility.yul\":3299:3718   */\ntag_8:\n    /* \"#utility.yul\":3465:3469   */\n  0x00\n    /* \"#utility.yul\":3503:3505   */\n  0x20\n    /* \"#utility.yul\":3492:3501   */\n  dup3\n    /* \"#utility.yul\":3488:3506   */\n  add\n    /* \"#utility.yul\":3480:3506   */\n  swap1\n  pop\n    /* \"#utility.yul\":3552:3561   */\n  dup2\n    /* \"#utility.yul\":3546:3550   */\n  dup2\n    /* \"#utility.yul\":3542:3562   */\n  sub\n    /* \"#utility.yul\":3538:3539   */\n  0x00\n    /* \"#utility.yul\":3527:3536   */\n  dup4\n    /* \"#utility.yul\":3523:3540   */\n  add\n    /* \"#utility.yul\":3516:3563   */\n  mstore\n    /* \"#utility.yul\":3580:3711   */\n  tag_76\n    /* \"#utility.yul\":3706:3710   */\n  dup2\n    /* \"#utility.yul\":3580:3711   */\n  tag_68\n  jump\t// in\ntag_76:\n    /* \"#utility.yul\":3572:3711   */\n  swap1\n  pop\n    /* \"#utility.yul\":3299:3718   */\n  swap2\n  swap1\n  pop\n  jump\t// out\n    /* \"#utility.yul\":3724:3853   */\ntag_33:\n    /* \"#utility.yul\":3758:3764   */\n  0x00\n    /* \"#utility.yul\":3785:3805   */\n  tag_78\n  tag_79\n  jump\t// in\ntag_78:\n    /* \"#utility.yul\":3775:3805   */\n  swap1\n  pop\n    /* \"#utility.yul\":3814:3847   */\n  tag_80\n    /* \"#utility.yul\":3842:3846   */\n  dup3\n    /* \"#utility.yul\":3834:3840   */\n  dup3\n    /* \"#utility.yul\":3814:3847   */\n  tag_81\n  jump\t// in\ntag_80:\n    /* \"#utility.yul\":3724:3853   */\n  swap2\n  swap1\n  pop\n  jump\t// out\n    /* \"#utility.yul\":3859:3934   */\ntag_79:\n    /* \"#utility.yul\":3892:3898   */\n  0x00\n    /* \"#utility.yul\":3925:3927   */\n  0x40\n    /* \"#utility.yul\":3919:3928   */\n  mload\n    /* \"#utility.yul\":3909:3928   */\n  swap1\n  pop\n    /* \"#utility.yul\":3859:3934   */\n  swap1\n  jump\t// out\n    /* \"#utility.yul\":3940:4248   */\ntag_32:\n    /* \"#utility.yul\":4002:4006   */\n  0x00\n    /* \"#utility.yul\":4092:4110   */\n  0xffffffffffffffff\n    /* \"#utility.yul\":4084:4090   */\n  dup3\n    /* \"#utility.yul\":4081:4111   */\n  gt\n    /* \"#utility.yul\":4078:4134   */\n  iszero\n  tag_84\n  jumpi\n    /* \"#utility.yul\":4114:4132   */\n  tag_85\n  tag_86\n  jump\t// in\ntag_85:\n    /* \"#utility.yul\":4078:4134   */\ntag_84:\n    /* \"#utility.yul\":4152:4181   */\n  tag_87\n    /* \"#utility.yul\":4174:4180   */\n  dup3\n    /* \"#utility.yul\":4152:4181   */\n  tag_88\n  jump\t// in\ntag_87:\n    /* \"#utility.yul\":4144:4181   */\n  swap1\n  pop\n    /* \"#utility.yul\":4236:4240   */\n  0x20\n    /* \"#utility.yul\":4230:4234   */\n  dup2\n    /* \"#utility.yul\":4226:4241   */\n  add\n    /* \"#utility.yul\":4218:4241   */\n  swap1\n  pop\n    /* \"#utility.yul\":3940:4248   */\n  swap2\n  swap1\n  pop\n  jump\t// out\n    /* \"#utility.yul\":4254:4423   */\ntag_65:\n    /* \"#utility.yul\":4338:4349   */\n  0x00\n    /* \"#utility.yul\":4372:4378   */\n  dup3\n    /* \"#utility.yul\":4367:4370   */\n  dup3\n    /* \"#utility.yul\":4360:4379   */\n  mstore\n    /* \"#utility.yul\":4412:4416   */\n  0x20\n    /* \"#utility.yul\":4407:4410   */\n  dup3\n    /* \"#utility.yul\":4403:4417   */\n  add\n    /* \"#utility.yul\":4388:4417   */\n  swap1\n  pop\n    /* \"#utility.yul\":4254:4423   */\n  swap3\n  swap2\n  pop\n  pop\n  jump\t// out\n    /* \"#utility.yul\":4429:4506   */\ntag_90:\n    /* \"#utility.yul\":4466:4473   */\n  0x00\n    /* \"#utility.yul\":4495:4500   */\n  dup2\n    /* \"#utility.yul\":4484:4500   */\n  swap1\n  pop\n    /* \"#utility.yul\":4429:4506   */\n  swap2\n  swap1\n  pop\n  jump\t// out\n    /* \"#utility.yul\":4512:4819   */\ntag_38:\n    /* \"#utility.yul\":4580:4581   */\n  0x00\n    /* \"#utility.yul\":4590:4703   */\ntag_93:\n    /* \"#utility.yul\":4604:4610   */\n  dup4\n    /* \"#utility.yul\":4601:4602   */\n  dup2\n    /* \"#utility.yul\":4598:4611   */\n  lt\n    /* \"#utility.yul\":4590:4703   */\n  iszero\n  tag_95\n  jumpi\n    /* \"#utility.yul\":4689:4690   */\n  dup1\n    /* \"#utility.yul\":4684:4687   */\n  dup3\n    /* \"#utility.yul\":4680:4691   */\n  add\n    /* \"#utility.yul\":4674:4692   */\n  mload\n    /* \"#utility.yul\":4670:4671   */\n  dup2\n    /* \"#utility.yul\":4665:4668   */\n  dup5\n    /* \"#utility.yul\":4661:4672   */\n  add\n    /* \"#utility.yul\":4654:4693   */\n  mstore\n    /* \"#utility.yul\":4626:4628   */\n  0x20\n    /* \"#utility.yul\":4623:4624   */\n  dup2\n    /* \"#utility.yul\":4619:4629   */\n  add\n    /* \"#utility.yul\":4614:4629   */\n  swap1\n  pop\n    /* \"#utility.yul\":4590:4703   */\n  jump(tag_93)\ntag_95:\n    /* \"#utility.yul\":4721:4727   */\n  dup4\n    /* \"#utility.yul\":4718:4719   */\n  dup2\n    /* \"#utility.yul\":4715:4728   */\n  gt\n    /* \"#utility.yul\":4712:4813   */\n  iszero\n  tag_96\n  jumpi\n    /* \"#utility.yul\":4801:4802   */\n  0x00\n    /* \"#utility.yul\":4792:4798   */\n  dup5\n    /* \"#utility.yul\":4787:4790   */\n  dup5\n    /* \"#utility.yul\":4783:4799   */\n  add\n    /* \"#utility.yul\":4776:4803   */\n  mstore\n    /* \"#utility.yul\":4712:4813   */\ntag_96:\n    /* \"#utility.yul\":4561:4819   */\n  pop\n    /* \"#utility.yul\":4512:4819   */\n  pop\n  pop\n  pop\n  jump\t// out\n    /* \"#utility.yul\":4825:5145   */\ntag_17:\n    /* \"#utility.yul\":4869:4875   */\n  0x00\n    /* \"#utility.yul\":4906:4907   */\n  0x02\n    /* \"#utility.yul\":4900:4904   */\n  dup3\n    /* \"#utility.yul\":4896:4908   */\n  div\n    /* \"#utility.yul\":4886:4908   */\n  swap1\n  pop\n    /* \"#utility.yul\":4953:4954   */\n  0x01\n    /* \"#utility.yul\":4947:4951   */\n  dup3\n    /* \"#utility.yul\":4943:4955   */\n  and\n    /* \"#utility.yul\":4974:4992   */\n  dup1\n    /* \"#utility.yul\":4964:5045   */\n  tag_98\n  jumpi\n    /* \"#utility.yul\":5030:5034   */\n  0x7f\n    /* \"#utility.yul\":5022:5028   */\n  dup3\n    /* \"#utility.yul\":5018:5035   */\n  and\n    /* \"#utility.yul\":5008:5035   */\n  swap2\n  pop\n    /* \"#utility.yul\":4964:5045   */\ntag_98:\n    /* \"#utility.yul\":5092:5094   */\n  0x20\n    /* \"#utility.yul\":5084:5090   */\n  dup3\n    /* \"#utility.yul\":5081:5095   */\n  lt\n    /* \"#utility.yul\":5061:5079   */\n  dup2\n    /* \"#utility.yul\":5058:5096   */\n  eq\n    /* \"#utility.yul\":5055:5139   */\n  iszero\n  tag_99\n  jumpi\n    /* \"#utility.yul\":5111:5129   */\n  tag_100\n  tag_101\n  jump\t// in\ntag_100:\n    /* \"#utility.yul\":5055:5139   */\ntag_99:\n    /* \"#utility.yul\":4876:5145   */\n  pop\n    /* \"#utility.yul\":4825:5145   */\n  swap2\n  swap1\n  pop\n  jump\t// out\n    /* \"#utility.yul\":5151:5432   */\ntag_81:\n    /* \"#utility.yul\":5234:5261   */\n  tag_103\n    /* \"#utility.yul\":5256:5260   */\n  dup3\n    /* \"#utility.yul\":5234:5261   */\n  tag_88\n  jump\t// in\ntag_103:\n    /* \"#utility.yul\":5226:5232   */\n  dup2\n    /* \"#utility.yul\":5222:5262   */\n  add\n    /* \"#utility.yul\":5364:5370   */\n  dup2\n    /* \"#utility.yul\":5352:5362   */\n  dup2\n    /* \"#utility.yul\":5349:5371   */\n  lt\n    /* \"#utility.yul\":5328:5346   */\n  0xffffffffffffffff\n    /* \"#utility.yul\":5316:5326   */\n  dup3\n    /* \"#utility.yul\":5313:5347   */\n  gt\n    /* \"#utility.yul\":5310:5372   */\n  or\n    /* \"#utility.yul\":5307:5395   */\n  iszero\n  tag_104\n  jumpi\n    /* \"#utility.yul\":5375:5393   */\n  tag_105\n  tag_86\n  jump\t// in\ntag_105:\n    /* \"#utility.yul\":5307:5395   */\ntag_104:\n    /* \"#utility.yul\":5415:5425   */\n  dup1\n    /* \"#utility.yul\":5411:5413   */\n  0x40\n    /* \"#utility.yul\":5404:5426   */\n  mstore\n    /* \"#utility.yul\":5194:5432   */\n  pop\n    /* \"#utility.yul\":5151:5432   */\n  pop\n  pop\n  jump\t// out\n    /* \"#utility.yul\":5438:5618   */\ntag_101:\n    /* \"#utility.yul\":5486:5563   */\n  0x4e487b7100000000000000000000000000000000000000000000000000000000\n    /* \"#utility.yul\":5483:5484   */\n  0x00\n    /* \"#utility.yul\":5476:5564   */\n  mstore\n    /* \"#utility.yul\":5583:5587   */\n  0x22\n    /* \"#utility.yul\":5580:5581   */\n  0x04\n    /* \"#utility.yul\":5573:5588   */\n  mstore\n    /* \"#utility.yul\":5607:5611   */\n  0x24\n    /* \"#utility.yul\":5604:5605   */\n  0x00\n    /* \"#utility.yul\":5597:5612   */\n  revert\n    /* \"#utility.yul\":5624:5804   */\ntag_86:\n    /* \"#utility.yul\":5672:5749   */\n  0x4e487b7100000000000000000000000000000000000000000000000000000000\n    /* \"#utility.yul\":5669:5670   */\n  0x00\n    /* \"#utility.yul\":5662:5750   */\n  mstore\n    /* \"#utility.yul\":5769:5773   */\n  0x41\n    /* \"#utility.yul\":5766:5767   */\n  0x04\n    /* \"#utility.yul\":5759:5774   */\n  mstore\n    /* \"#utility.yul\":5793:5797   */\n  0x24\n    /* \"#utility.yul\":5790:5791   */\n  0x00\n    /* \"#utility.yul\":5783:5798   */\n  revert\n    /* \"#utility.yul\":5810:5927   */\ntag_43:\n    /* \"#utility.yul\":5919:5920   */\n  0x00\n    /* \"#utility.yul\":5916:5917   */\n  dup1\n    /* \"#utility.yul\":5909:5921   */\n  revert\n    /* \"#utility.yul\":5933:6050   */\ntag_36:\n    /* \"#utility.yul\":6042:6043   */\n  0x00\n    /* \"#utility.yul\":6039:6040   */\n  dup1\n    /* \"#utility.yul\":6032:6044   */\n  revert\n    /* \"#utility.yul\":6056:6173   */\ntag_55:\n    /* \"#utility.yul\":6165:6166   */\n  0x00\n    /* \"#utility.yul\":6162:6163   */\n  dup1\n    /* \"#utility.yul\":6155:6167   */\n  revert\n    /* \"#utility.yul\":6179:6296   */\ntag_52:\n    /* \"#utility.yul\":6288:6289   */\n  0x00\n    /* \"#utility.yul\":6285:6286   */\n  dup1\n    /* \"#utility.yul\":6278:6290   */\n  revert\n    /* \"#utility.yul\":6302:6404   */\ntag_88:\n    /* \"#utility.yul\":6343:6349   */\n  0x00\n    /* \"#utility.yul\":6394:6396   */\n  0x1f\n    /* \"#utility.yul\":6390:6397   */\n  not\n    /* \"#utility.yul\":6385:6387   */\n  0x1f\n    /* \"#utility.yul\":6378:6383   */\n  dup4\n    /* \"#utility.yul\":6374:6388   */\n  add\n    /* \"#utility.yul\":6370:6398   */\n  and\n    /* \"#utility.yul\":6360:6398   */\n  swap1\n  pop\n    /* \"#utility.yul\":6302:6404   */\n  swap2\n  swap1\n  pop\n  jump\t// out\n    /* \"#utility.yul\":6410:6636   */\ntag_67:\n    /* \"#utility.yul\":6550:6584   */\n  0x455243373231413a206d61782062617463682073697a65206d75737420626520\n    /* \"#utility.yul\":6546:6547   */\n  0x00\n    /* \"#utility.yul\":6538:6544   */\n  dup3\n    /* \"#utility.yul\":6534:6548   */\n  add\n    /* \"#utility.yul\":6527:6585   */\n  mstore\n    /* \"#utility.yul\":6619:6628   */\n  0x6e6f6e7a65726f00000000000000000000000000000000000000000000000000\n    /* \"#utility.yul\":6614:6616   */\n  0x20\n    /* \"#utility.yul\":6606:6612   */\n  dup3\n    /* \"#utility.yul\":6602:6617   */\n  add\n    /* \"#utility.yul\":6595:6629   */\n  mstore\n    /* \"#utility.yul\":6410:6636   */\n  pop\n  jump\t// out\n    /* \"#utility.yul\":6642:6875   */\ntag_72:\n    /* \"#utility.yul\":6782:6816   */\n  0x455243373231413a20636f6c6c656374696f6e206d7573742068617665206120\n    /* \"#utility.yul\":6778:6779   */\n  0x00\n    /* \"#utility.yul\":6770:6776   */\n  dup3\n    /* \"#utility.yul\":6766:6780   */\n  add\n    /* \"#utility.yul\":6759:6817   */\n  mstore\n    /* \"#utility.yul\":6851:6867   */\n  0x6e6f6e7a65726f20737570706c79000000000000000000000000000000000000\n    /* \"#utility.yul\":6846:6848   */\n  0x20\n    /* \"#utility.yul\":6838:6844   */\n  dup3\n    /* \"#utility.yul\":6834:6849   */\n  add\n    /* \"#utility.yul\":6827:6868   */\n  mstore\n    /* \"#utility.yul\":6642:6875   */\n  pop\n  jump\t// out\n    /* \"#utility.yul\":6881:7003   */\ntag_48:\n    /* \"#utility.yul\":6954:6978   */\n  tag_116\n    /* \"#utility.yul\":6972:6977   */\n  dup2\n    /* \"#utility.yul\":6954:6978   */\n  tag_90\n  jump\t// in\ntag_116:\n    /* \"#utility.yul\":6947:6952   */\n  dup2\n    /* \"#utility.yul\":6944:6979   */\n  eq\n    /* \"#utility.yul\":6934:6997   */\n  tag_117\n  jumpi\n    /* \"#utility.yul\":6993:6994   */\n  0x00\n    /* \"#utility.yul\":6990:6991   */\n  dup1\n    /* \"#utility.yul\":6983:6995   */\n  revert\n    /* \"#utility.yul\":6934:6997   */\ntag_117:\n    /* \"#utility.yul\":6881:7003   */\n  pop\n  jump\t// out\n    /* \"contracts/ERC721A.sol\":1055:15909  contract ERC721A is... */\ntag_15:\n  mload(0x80)\n  mload(0xa0)\n  codecopy(0x00, dataOffset(sub_0), dataSize(sub_0))\n  0x00\n  assignImmutable(\"0xe216240695da412145d9df04d3b0c5fca4d43b99b7d0d5386b61bbf0097f7efd\")\n  0x00\n  assignImmutable(\"0x588e5ad3f145f9d841773d4229bac23d743ef980914ad5d2b613712259f67f55\")\n  return(0x00, dataSize(sub_0))\nstop\n\nsub_0: assembly {\n        /* \"contracts/ERC721A.sol\":1055:15909  contract ERC721A is... */\n      mstore(0x40, 0x80)\n      callvalue\n      dup1\n      iszero\n      tag_1\n      jumpi\n      0x00\n      dup1\n      revert\n    tag_1:\n      pop\n      jumpi(tag_2, lt(calldatasize, 0x04))\n      shr(0xe0, calldataload(0x00))\n      dup1\n      0x4f6ccce7\n      gt\n      tag_20\n      jumpi\n      dup1\n      0xa22cb465\n      gt\n      tag_21\n      jumpi\n      dup1\n      0xa22cb465\n      eq\n      tag_15\n      jumpi\n      dup1\n      0xb88d4fde\n      eq\n      tag_16\n      jumpi\n      dup1\n      0xc87b56dd\n      eq\n      tag_17\n      jumpi\n      dup1\n      0xd7224ba0\n      eq\n      tag_18\n      jumpi\n      dup1\n      0xe985e9c5\n      eq\n      tag_19\n      jumpi\n      jump(tag_2)\n    tag_21:\n      dup1\n      0x4f6ccce7\n      eq\n      tag_11\n      jumpi\n      dup1\n      0x6352211e\n      eq\n      tag_12\n      jumpi\n      dup1\n      0x70a08231\n      eq\n      tag_13\n      jumpi\n      dup1\n      0x95d89b41\n      eq\n      tag_14\n      jumpi\n      jump(tag_2)\n    tag_20:\n      dup1\n      0x18160ddd\n      gt\n      tag_22\n      jumpi\n      dup1\n      0x18160ddd\n      eq\n      tag_7\n      jumpi\n      dup1\n      0x23b872dd\n      eq\n      tag_8\n      jumpi\n      dup1\n      0x2f745c59\n      eq\n      tag_9\n      jumpi\n      dup1\n      0x42842e0e\n      eq\n      tag_10\n      jumpi\n      jump(tag_2)\n    tag_22:\n      dup1\n      0x01ffc9a7\n      eq\n      tag_3\n      jumpi\n      dup1\n      0x06fdde03\n      eq\n      tag_4\n      jumpi\n      dup1\n      0x081812fc\n      eq\n      tag_5\n      jumpi\n      dup1\n      0x095ea7b3\n      eq\n      tag_6\n      jumpi\n    tag_2:\n      0x00\n      dup1\n      revert\n        /* \"contracts/ERC721A.sol\":4162:4520  function supportsInterface(bytes4 interfaceId)... */\n    tag_3:\n      tag_23\n      0x04\n      dup1\n      calldatasize\n      sub\n      dup2\n      add\n      swap1\n      tag_24\n      swap2\n      swap1\n      tag_25\n      jump\t// in\n    tag_24:\n      tag_26\n      jump\t// in\n    tag_23:\n      mload(0x40)\n      tag_27\n      swap2\n      swap1\n      tag_28\n      jump\t// in\n    tag_27:\n      mload(0x40)\n      dup1\n      swap2\n      sub\n      swap1\n      return\n        /* \"contracts/ERC721A.sol\":5826:5918  function name() public view virtual override returns (string memory) {... */\n    tag_4:\n      tag_29\n      tag_30\n      jump\t// in\n    tag_29:\n      mload(0x40)\n      tag_31\n      swap2\n      swap1\n      tag_32\n      jump\t// in\n    tag_31:\n      mload(0x40)\n      dup1\n      swap2\n      sub\n      swap1\n      return\n        /* \"contracts/ERC721A.sol\":7157:7357  function getApproved(uint256 tokenId) public view override returns (address) {... */\n    tag_5:\n      tag_33\n      0x04\n      dup1\n      calldatasize\n      sub\n      dup2\n      add\n      swap1\n      tag_34\n      swap2\n      swap1\n      tag_35\n      jump\t// in\n    tag_34:\n      tag_36\n      jump\t// in\n    tag_33:\n      mload(0x40)\n      tag_37\n      swap2\n      swap1\n      tag_38\n      jump\t// in\n    tag_37:\n      mload(0x40)\n      dup1\n      swap2\n      sub\n      swap1\n      return\n        /* \"contracts/ERC721A.sol\":6735:7104  function approve(address to, uint256 tokenId) public override {... */\n    tag_6:\n      tag_39\n      0x04\n      dup1\n      calldatasize\n      sub\n      dup2\n      add\n      swap1\n      tag_40\n      swap2\n      swap1\n      tag_41\n      jump\t// in\n    tag_40:\n      tag_42\n      jump\t// in\n    tag_39:\n      stop\n        /* \"contracts/ERC721A.sol\":2768:2860  function totalSupply() public view override returns (uint256) {... */\n    tag_7:\n      tag_43\n      tag_44\n      jump\t// in\n    tag_43:\n      mload(0x40)\n      tag_45\n      swap2\n      swap1\n      tag_46\n      jump\t// in\n    tag_45:\n      mload(0x40)\n      dup1\n      swap2\n      sub\n      swap1\n      return\n        /* \"contracts/ERC721A.sol\":7975:8111  function transferFrom(... */\n    tag_8:\n      tag_47\n      0x04\n      dup1\n      calldatasize\n      sub\n      dup2\n      add\n      swap1\n      tag_48\n      swap2\n      swap1\n      tag_49\n      jump\t// in\n    tag_48:\n      tag_50\n      jump\t// in\n    tag_47:\n      stop\n        /* \"contracts/ERC721A.sol\":3382:4103  function tokenOfOwnerByIndex(address owner, uint256 index)... */\n    tag_9:\n      tag_51\n      0x04\n      dup1\n      calldatasize\n      sub\n      dup2\n      add\n      swap1\n      tag_52\n      swap2\n      swap1\n      tag_41\n      jump\t// in\n    tag_52:\n      tag_53\n      jump\t// in\n    tag_51:\n      mload(0x40)\n      tag_54\n      swap2\n      swap1\n      tag_46\n      jump\t// in\n    tag_54:\n      mload(0x40)\n      dup1\n      swap2\n      sub\n      swap1\n      return\n        /* \"contracts/ERC721A.sol\":8169:8320  function safeTransferFrom(... */\n    tag_10:\n      tag_55\n      0x04\n      dup1\n      calldatasize\n      sub\n      dup2\n      add\n      swap1\n      tag_56\n      swap2\n      swap1\n      tag_49\n      jump\t// in\n    tag_56:\n      tag_57\n      jump\t// in\n    tag_55:\n      stop\n        /* \"contracts/ERC721A.sol\":2924:3098  function tokenByIndex(uint256 index) public view override returns (uint256) {... */\n    tag_11:\n      tag_58\n      0x04\n      dup1\n      calldatasize\n      sub\n      dup2\n      add\n      swap1\n      tag_59\n      swap2\n      swap1\n      tag_35\n      jump\t// in\n    tag_59:\n      tag_60\n      jump\t// in\n    tag_58:\n      mload(0x40)\n      tag_61\n      swap2\n      swap1\n      tag_46\n      jump\t// in\n    tag_61:\n      mload(0x40)\n      dup1\n      swap2\n      sub\n      swap1\n      return\n        /* \"contracts/ERC721A.sol\":5656:5772  function ownerOf(uint256 tokenId) public view override returns (address) {... */\n    tag_12:\n      tag_62\n      0x04\n      dup1\n      calldatasize\n      sub\n      dup2\n      add\n      swap1\n      tag_63\n      swap2\n      swap1\n      tag_35\n      jump\t// in\n    tag_63:\n      tag_64\n      jump\t// in\n    tag_62:\n      mload(0x40)\n      tag_65\n      swap2\n      swap1\n      tag_38\n      jump\t// in\n    tag_65:\n      mload(0x40)\n      dup1\n      swap2\n      sub\n      swap1\n      return\n        /* \"contracts/ERC721A.sol\":4571:4779  function balanceOf(address owner) public view override returns (uint256) {... */\n    tag_13:\n      tag_66\n      0x04\n      dup1\n      calldatasize\n      sub\n      dup2\n      add\n      swap1\n      tag_67\n      swap2\n      swap1\n      tag_68\n      jump\t// in\n    tag_67:\n      tag_69\n      jump\t// in\n    tag_66:\n      mload(0x40)\n      tag_70\n      swap2\n      swap1\n      tag_46\n      jump\t// in\n    tag_70:\n      mload(0x40)\n      dup1\n      swap2\n      sub\n      swap1\n      return\n        /* \"contracts/ERC721A.sol\":5974:6070  function symbol() public view virtual override returns (string memory) {... */\n    tag_14:\n      tag_71\n      tag_72\n      jump\t// in\n    tag_71:\n      mload(0x40)\n      tag_73\n      swap2\n      swap1\n      tag_32\n      jump\t// in\n    tag_73:\n      mload(0x40)\n      dup1\n      swap2\n      sub\n      swap1\n      return\n        /* \"contracts/ERC721A.sol\":7416:7685  function setApprovalForAll(address operator, bool approved) public override {... */\n    tag_15:\n      tag_74\n      0x04\n      dup1\n      calldatasize\n      sub\n      dup2\n      add\n      swap1\n      tag_75\n      swap2\n      swap1\n      tag_76\n      jump\t// in\n    tag_75:\n      tag_77\n      jump\t// in\n    tag_74:\n      stop\n        /* \"contracts/ERC721A.sol\":8378:8678  function safeTransferFrom(... */\n    tag_16:\n      tag_78\n      0x04\n      dup1\n      calldatasize\n      sub\n      dup2\n      add\n      swap1\n      tag_79\n      swap2\n      swap1\n      tag_80\n      jump\t// in\n    tag_79:\n      tag_81\n      jump\t// in\n    tag_78:\n      stop\n        /* \"contracts/ERC721A.sol\":6128:6371  function tokenURI(uint256 tokenId)... */\n    tag_17:\n      tag_82\n      0x04\n      dup1\n      calldatasize\n      sub\n      dup2\n      add\n      swap1\n      tag_83\n      swap2\n      swap1\n      tag_35\n      jump\t// in\n    tag_83:\n      tag_84\n      jump\t// in\n    tag_82:\n      mload(0x40)\n      tag_85\n      swap2\n      swap1\n      tag_32\n      jump\t// in\n    tag_85:\n      mload(0x40)\n      dup1\n      swap2\n      sub\n      swap1\n      return\n        /* \"contracts/ERC721A.sol\":12648:12691  uint256 public nextOwnerToExplicitlySet = 0 */\n    tag_18:\n      tag_86\n      tag_87\n      jump\t// in\n    tag_86:\n      mload(0x40)\n      tag_88\n      swap2\n      swap1\n      tag_46\n      jump\t// in\n    tag_88:\n      mload(0x40)\n      dup1\n      swap2\n      sub\n      swap1\n      return\n        /* \"contracts/ERC721A.sol\":7743:7921  function isApprovedForAll(address owner, address operator)... */\n    tag_19:\n      tag_89\n      0x04\n      dup1\n      calldatasize\n      sub\n      dup2\n      add\n      swap1\n      tag_90\n      swap2\n      swap1\n      tag_91\n      jump\t// in\n    tag_90:\n      tag_92\n      jump\t// in\n    tag_89:\n      mload(0x40)\n      tag_93\n      swap2\n      swap1\n      tag_28\n      jump\t// in\n    tag_93:\n      mload(0x40)\n      dup1\n      swap2\n      sub\n      swap1\n      return\n        /* \"contracts/ERC721A.sol\":4162:4520  function supportsInterface(bytes4 interfaceId)... */\n    tag_26:\n        /* \"contracts/ERC721A.sol\":4284:4288  bool */\n      0x00\n        /* \"contracts/ERC721A.sol\":4326:4351  type(IERC721).interfaceId */\n      0x80ac58cd00000000000000000000000000000000000000000000000000000000\n        /* \"contracts/ERC721A.sol\":4311:4351  interfaceId == type(IERC721).interfaceId */\n      not(0xffffffffffffffffffffffffffffffffffffffffffffffffffffffff)\n      and\n        /* \"contracts/ERC721A.sol\":4311:4322  interfaceId */\n      dup3\n        /* \"contracts/ERC721A.sol\":4311:4351  interfaceId == type(IERC721).interfaceId */\n      not(0xffffffffffffffffffffffffffffffffffffffffffffffffffffffff)\n      and\n      eq\n        /* \"contracts/ERC721A.sol\":4311:4409  interfaceId == type(IERC721).interfaceId ||... */\n      dup1\n      tag_95\n      jumpi\n      pop\n        /* \"contracts/ERC721A.sol\":4376:4409  type(IERC721Metadata).interfaceId */\n      0x5b5e139f00000000000000000000000000000000000000000000000000000000\n        /* \"contracts/ERC721A.sol\":4361:4409  interfaceId == type(IERC721Metadata).interfaceId */\n      not(0xffffffffffffffffffffffffffffffffffffffffffffffffffffffff)\n      and\n        /* \"contracts/ERC721A.sol\":4361:4372  interfaceId */\n      dup3\n        /* \"contracts/ERC721A.sol\":4361:4409  interfaceId == type(IERC721Metadata).interfaceId */\n      not(0xffffffffffffffffffffffffffffffffffffffffffffffffffffffff)\n      and\n      eq\n        /* \"contracts/ERC721A.sol\":4311:4409  interfaceId == type(IERC721).interfaceId ||... */\n    tag_95:\n        /* \"contracts/ERC721A.sol\":4311:4469  interfaceId == type(IERC721).interfaceId ||... */\n      dup1\n      tag_96\n      jumpi\n      pop\n        /* \"contracts/ERC721A.sol\":4434:4469  type(IERC721Enumerable).interfaceId */\n      0x780e9d6300000000000000000000000000000000000000000000000000000000\n        /* \"contracts/ERC721A.sol\":4419:4469  interfaceId == type(IERC721Enumerable).interfaceId */\n      not(0xffffffffffffffffffffffffffffffffffffffffffffffffffffffff)\n      and\n        /* \"contracts/ERC721A.sol\":4419:4430  interfaceId */\n      dup3\n        /* \"contracts/ERC721A.sol\":4419:4469  interfaceId == type(IERC721Enumerable).interfaceId */\n      not(0xffffffffffffffffffffffffffffffffffffffffffffffffffffffff)\n      and\n      eq\n        /* \"contracts/ERC721A.sol\":4311:4469  interfaceId == type(IERC721).interfaceId ||... */\n    tag_96:\n        /* \"contracts/ERC721A.sol\":4311:4515  interfaceId == type(IERC721).interfaceId ||... */\n      dup1\n      tag_97\n      jumpi\n      pop\n        /* \"contracts/ERC721A.sol\":4479:4515  super.supportsInterface(interfaceId) */\n      tag_98\n        /* \"contracts/ERC721A.sol\":4503:4514  interfaceId */\n      dup3\n        /* \"contracts/ERC721A.sol\":4479:4502  super.supportsInterface */\n      tag_99\n        /* \"contracts/ERC721A.sol\":4479:4515  super.supportsInterface(interfaceId) */\n      jump\t// in\n    tag_98:\n        /* \"contracts/ERC721A.sol\":4311:4515  interfaceId == type(IERC721).interfaceId ||... */\n    tag_97:\n        /* \"contracts/ERC721A.sol\":4298:4515  return... */\n      swap1\n      pop\n        /* \"contracts/ERC721A.sol\":4162:4520  function supportsInterface(bytes4 interfaceId)... */\n      swap2\n      swap1\n      pop\n      jump\t// out\n        /* \"contracts/ERC721A.sol\":5826:5918  function name() public view virtual override returns (string memory) {... */\n    tag_30:\n        /* \"contracts/ERC721A.sol\":5880:5893  string memory */\n      0x60\n        /* \"contracts/ERC721A.sol\":5908:5913  _name */\n      0x01\n        /* \"contracts/ERC721A.sol\":5901:5913  return _name */\n      dup1\n      sload\n      tag_101\n      swap1\n      tag_102\n      jump\t// in\n    tag_101:\n      dup1\n      0x1f\n      add\n      0x20\n      dup1\n      swap2\n      div\n      mul\n      0x20\n      add\n      mload(0x40)\n      swap1\n      dup2\n      add\n      0x40\n      mstore\n      dup1\n      swap3\n      swap2\n      swap1\n      dup2\n      dup2\n      mstore\n      0x20\n      add\n      dup3\n      dup1\n      sload\n      tag_103\n      swap1\n      tag_102\n      jump\t// in\n    tag_103:\n      dup1\n      iszero\n      tag_104\n      jumpi\n      dup1\n      0x1f\n      lt\n      tag_105\n      jumpi\n      0x0100\n      dup1\n      dup4\n      sload\n      div\n      mul\n      dup4\n      mstore\n      swap2\n      0x20\n      add\n      swap2\n      jump(tag_104)\n    tag_105:\n      dup3\n      add\n      swap2\n      swap1\n      0x00\n      mstore\n      keccak256(0x00, 0x20)\n      swap1\n    tag_106:\n      dup2\n      sload\n      dup2\n      mstore\n      swap1\n      0x01\n      add\n      swap1\n      0x20\n      add\n      dup1\n      dup4\n      gt\n      tag_106\n      jumpi\n      dup3\n      swap1\n      sub\n      0x1f\n      and\n      dup3\n      add\n      swap2\n    tag_104:\n      pop\n      pop\n      pop\n      pop\n      pop\n      swap1\n      pop\n        /* \"contracts/ERC721A.sol\":5826:5918  function name() public view virtual override returns (string memory) {... */\n      swap1\n      jump\t// out\n        /* \"contracts/ERC721A.sol\":7157:7357  function getApproved(uint256 tokenId) public view override returns (address) {... */\n    tag_36:\n        /* \"contracts/ERC721A.sol\":7225:7232  address */\n      0x00\n        /* \"contracts/ERC721A.sol\":7248:7264  _exists(tokenId) */\n      tag_108\n        /* \"contracts/ERC721A.sol\":7256:7263  tokenId */\n      dup3\n        /* \"contracts/ERC721A.sol\":7248:7255  _exists */\n      tag_109\n        /* \"contracts/ERC721A.sol\":7248:7264  _exists(tokenId) */\n      jump\t// in\n    tag_108:\n        /* \"contracts/ERC721A.sol\":7240:7314  require(_exists(tokenId), \"ERC721A: approved query for nonexistent token\") */\n      tag_110\n      jumpi\n      mload(0x40)\n      0x08c379a000000000000000000000000000000000000000000000000000000000\n      dup2\n      mstore\n      0x04\n      add\n      tag_111\n      swap1\n      tag_112\n      jump\t// in\n    tag_111:\n      mload(0x40)\n      dup1\n      swap2\n      sub\n      swap1\n      revert\n    tag_110:\n        /* \"contracts/ERC721A.sol\":7328:7343  _tokenApprovals */\n      0x05\n        /* \"contracts/ERC721A.sol\":7328:7352  _tokenApprovals[tokenId] */\n      0x00\n        /* \"contracts/ERC721A.sol\":7344:7351  tokenId */\n      dup4\n        /* \"contracts/ERC721A.sol\":7328:7352  _tokenApprovals[tokenId] */\n      dup2\n      mstore\n      0x20\n      add\n      swap1\n      dup2\n      mstore\n      0x20\n      add\n      0x00\n      keccak256\n      0x00\n      swap1\n      sload\n      swap1\n      0x0100\n      exp\n      swap1\n      div\n      0xffffffffffffffffffffffffffffffffffffffff\n      and\n        /* \"contracts/ERC721A.sol\":7321:7352  return _tokenApprovals[tokenId] */\n      swap1\n      pop\n        /* \"contracts/ERC721A.sol\":7157:7357  function getApproved(uint256 tokenId) public view override returns (address) {... */\n      swap2\n      swap1\n      pop\n      jump\t// out\n        /* \"contracts/ERC721A.sol\":6735:7104  function approve(address to, uint256 tokenId) public override {... */\n    tag_42:\n        /* \"contracts/ERC721A.sol\":6803:6816  address owner */\n      0x00\n        /* \"contracts/ERC721A.sol\":6819:6843  ERC721A.ownerOf(tokenId) */\n      tag_114\n        /* \"contracts/ERC721A.sol\":6835:6842  tokenId */\n      dup3\n        /* \"contracts/ERC721A.sol\":6819:6834  ERC721A.ownerOf */\n      tag_64\n        /* \"contracts/ERC721A.sol\":6819:6843  ERC721A.ownerOf(tokenId) */\n      jump\t// in\n    tag_114:\n        /* \"contracts/ERC721A.sol\":6803:6843  address owner = ERC721A.ownerOf(tokenId) */\n      swap1\n      pop\n        /* \"contracts/ERC721A.sol\":6863:6868  owner */\n      dup1\n        /* \"contracts/ERC721A.sol\":6857:6868  to != owner */\n      0xffffffffffffffffffffffffffffffffffffffff\n      and\n        /* \"contracts/ERC721A.sol\":6857:6859  to */\n      dup4\n        /* \"contracts/ERC721A.sol\":6857:6868  to != owner */\n      0xffffffffffffffffffffffffffffffffffffffff\n      and\n      eq\n      iszero\n        /* \"contracts/ERC721A.sol\":6849:6907  require(to != owner, \"ERC721A: approval to current owner\") */\n      tag_115\n      jumpi\n      mload(0x40)\n      0x08c379a000000000000000000000000000000000000000000000000000000000\n      dup2\n      mstore\n      0x04\n      add\n      tag_116\n      swap1\n      tag_117\n      jump\t// in\n    tag_116:\n      mload(0x40)\n      dup1\n      swap2\n      sub\n      swap1\n      revert\n    tag_115:\n        /* \"contracts/ERC721A.sol\":6945:6950  owner */\n      dup1\n        /* \"contracts/ERC721A.sol\":6929:6950  _msgSender() == owner */\n      0xffffffffffffffffffffffffffffffffffffffff\n      and\n        /* \"contracts/ERC721A.sol\":6929:6941  _msgSender() */\n      tag_118\n        /* \"contracts/ERC721A.sol\":6929:6939  _msgSender */\n      tag_119\n        /* \"contracts/ERC721A.sol\":6929:6941  _msgSender() */\n      jump\t// in\n    tag_118:\n        /* \"contracts/ERC721A.sol\":6929:6950  _msgSender() == owner */\n      0xffffffffffffffffffffffffffffffffffffffff\n      and\n      eq\n        /* \"contracts/ERC721A.sol\":6929:6991  _msgSender() == owner || isApprovedForAll(owner, _msgSender()) */\n      dup1\n      tag_120\n      jumpi\n      pop\n        /* \"contracts/ERC721A.sol\":6954:6991  isApprovedForAll(owner, _msgSender()) */\n      tag_121\n        /* \"contracts/ERC721A.sol\":6971:6976  owner */\n      dup2\n        /* \"contracts/ERC721A.sol\":6978:6990  _msgSender() */\n      tag_122\n        /* \"contracts/ERC721A.sol\":6978:6988  _msgSender */\n      tag_119\n        /* \"contracts/ERC721A.sol\":6978:6990  _msgSender() */\n      jump\t// in\n    tag_122:\n        /* \"contracts/ERC721A.sol\":6954:6970  isApprovedForAll */\n      tag_92\n        /* \"contracts/ERC721A.sol\":6954:6991  isApprovedForAll(owner, _msgSender()) */\n      jump\t// in\n    tag_121:\n        /* \"contracts/ERC721A.sol\":6929:6991  _msgSender() == owner || isApprovedForAll(owner, _msgSender()) */\n    tag_120:\n        /* \"contracts/ERC721A.sol\":6914:7064  require(... */\n      tag_123\n      jumpi\n      mload(0x40)\n      0x08c379a000000000000000000000000000000000000000000000000000000000\n      dup2\n      mstore\n      0x04\n      add\n      tag_124\n      swap1\n      tag_125\n      jump\t// in\n    tag_124:\n      mload(0x40)\n      dup1\n      swap2\n      sub\n      swap1\n      revert\n    tag_123:\n        /* \"contracts/ERC721A.sol\":7071:7099  _approve(to, tokenId, owner) */\n      tag_126\n        /* \"contracts/ERC721A.sol\":7080:7082  to */\n      dup4\n        /* \"contracts/ERC721A.sol\":7084:7091  tokenId */\n      dup4\n        /* \"contracts/ERC721A.sol\":7093:7098  owner */\n      dup4\n        /* \"contracts/ERC721A.sol\":7071:7079  _approve */\n      tag_127\n        /* \"contracts/ERC721A.sol\":7071:7099  _approve(to, tokenId, owner) */\n      jump\t// in\n    tag_126:\n        /* \"contracts/ERC721A.sol\":6797:7104  {... */\n      pop\n        /* \"contracts/ERC721A.sol\":6735:7104  function approve(address to, uint256 tokenId) public override {... */\n      pop\n      pop\n      jump\t// out\n        /* \"contracts/ERC721A.sol\":2768:2860  function totalSupply() public view override returns (uint256) {... */\n    tag_44:\n        /* \"contracts/ERC721A.sol\":2821:2828  uint256 */\n      0x00\n        /* \"contracts/ERC721A.sol\":2843:2855  currentIndex */\n      dup1\n      sload\n        /* \"contracts/ERC721A.sol\":2836:2855  return currentIndex */\n      swap1\n      pop\n        /* \"contracts/ERC721A.sol\":2768:2860  function totalSupply() public view override returns (uint256) {... */\n      swap1\n      jump\t// out\n        /* \"contracts/ERC721A.sol\":7975:8111  function transferFrom(... */\n    tag_50:\n        /* \"contracts/ERC721A.sol\":8078:8106  _transfer(from, to, tokenId) */\n      tag_130\n        /* \"contracts/ERC721A.sol\":8088:8092  from */\n      dup4\n        /* \"contracts/ERC721A.sol\":8094:8096  to */\n      dup4\n        /* \"contracts/ERC721A.sol\":8098:8105  tokenId */\n      dup4\n        /* \"contracts/ERC721A.sol\":8078:8087  _transfer */\n      tag_131\n        /* \"contracts/ERC721A.sol\":8078:8106  _transfer(from, to, tokenId) */\n      jump\t// in\n    tag_130:\n        /* \"contracts/ERC721A.sol\":7975:8111  function transferFrom(... */\n      pop\n      pop\n      pop\n      jump\t// out\n        /* \"contracts/ERC721A.sol\":3382:4103  function tokenOfOwnerByIndex(address owner, uint256 index)... */\n    tag_53:\n        /* \"contracts/ERC721A.sol\":3487:3494  uint256 */\n      0x00\n        /* \"contracts/ERC721A.sol\":3520:3536  balanceOf(owner) */\n      tag_133\n        /* \"contracts/ERC721A.sol\":3530:3535  owner */\n      dup4\n        /* \"contracts/ERC721A.sol\":3520:3529  balanceOf */\n      tag_69\n        /* \"contracts/ERC721A.sol\":3520:3536  balanceOf(owner) */\n      jump\t// in\n    tag_133:\n        /* \"contracts/ERC721A.sol\":3512:3517  index */\n      dup3\n        /* \"contracts/ERC721A.sol\":3512:3536  index < balanceOf(owner) */\n      lt\n        /* \"contracts/ERC721A.sol\":3504:3575  require(index < balanceOf(owner), \"ERC721A: owner index out of bounds\") */\n      tag_134\n      jumpi\n      mload(0x40)\n      0x08c379a000000000000000000000000000000000000000000000000000000000\n      dup2\n      mstore\n      0x04\n      add\n      tag_135\n      swap1\n      tag_136\n      jump\t// in\n    tag_135:\n      mload(0x40)\n      dup1\n      swap2\n      sub\n      swap1\n      revert\n    tag_134:\n        /* \"contracts/ERC721A.sol\":3581:3603  uint256 numMintedSoFar */\n      0x00\n        /* \"contracts/ERC721A.sol\":3606:3619  totalSupply() */\n      tag_137\n        /* \"contracts/ERC721A.sol\":3606:3617  totalSupply */\n      tag_44\n        /* \"contracts/ERC721A.sol\":3606:3619  totalSupply() */\n      jump\t// in\n    tag_137:\n        /* \"contracts/ERC721A.sol\":3581:3619  uint256 numMintedSoFar = totalSupply() */\n      swap1\n      pop\n        /* \"contracts/ERC721A.sol\":3625:3644  uint256 tokenIdsIdx */\n      0x00\n        /* \"contracts/ERC721A.sol\":3654:3679  address currOwnershipAddr */\n      dup1\n        /* \"contracts/ERC721A.sol\":3703:3712  uint256 i */\n      0x00\n        /* \"contracts/ERC721A.sol\":3698:4037  for (uint256 i = 0; i < numMintedSoFar; i++) {... */\n    tag_138:\n        /* \"contracts/ERC721A.sol\":3722:3736  numMintedSoFar */\n      dup4\n        /* \"contracts/ERC721A.sol\":3718:3719  i */\n      dup2\n        /* \"contracts/ERC721A.sol\":3718:3736  i < numMintedSoFar */\n      lt\n        /* \"contracts/ERC721A.sol\":3698:4037  for (uint256 i = 0; i < numMintedSoFar; i++) {... */\n      iszero\n      tag_139\n      jumpi\n        /* \"contracts/ERC721A.sol\":3751:3782  TokenOwnership memory ownership */\n      0x00\n        /* \"contracts/ERC721A.sol\":3785:3796  _ownerships */\n      0x03\n        /* \"contracts/ERC721A.sol\":3785:3799  _ownerships[i] */\n      0x00\n        /* \"contracts/ERC721A.sol\":3797:3798  i */\n      dup4\n        /* \"contracts/ERC721A.sol\":3785:3799  _ownerships[i] */\n      dup2\n      mstore\n      0x20\n      add\n      swap1\n      dup2\n      mstore\n      0x20\n      add\n      0x00\n      keccak256\n        /* \"contracts/ERC721A.sol\":3751:3799  TokenOwnership memory ownership = _ownerships[i] */\n      mload(0x40)\n      dup1\n      0x40\n      add\n      0x40\n      mstore\n      swap1\n      dup2\n      0x00\n      dup3\n      add\n      0x00\n      swap1\n      sload\n      swap1\n      0x0100\n      exp\n      swap1\n      div\n      0xffffffffffffffffffffffffffffffffffffffff\n      and\n      0xffffffffffffffffffffffffffffffffffffffff\n      and\n      0xffffffffffffffffffffffffffffffffffffffff\n      and\n      dup2\n      mstore\n      0x20\n      add\n      0x00\n      dup3\n      add\n      0x14\n      swap1\n      sload\n      swap1\n      0x0100\n      exp\n      swap1\n      div\n      0xffffffffffffffff\n      and\n      0xffffffffffffffff\n      and\n      0xffffffffffffffff\n      and\n      dup2\n      mstore\n      pop\n      pop\n      swap1\n      pop\n        /* \"contracts/ERC721A.sol\":3837:3838  0 */\n      0x00\n        /* \"contracts/ERC721A.sol\":3811:3839  ownership.addr != address(0) */\n      0xffffffffffffffffffffffffffffffffffffffff\n      and\n        /* \"contracts/ERC721A.sol\":3811:3820  ownership */\n      dup2\n        /* \"contracts/ERC721A.sol\":3811:3825  ownership.addr */\n      0x00\n      add\n      mload\n        /* \"contracts/ERC721A.sol\":3811:3839  ownership.addr != address(0) */\n      0xffffffffffffffffffffffffffffffffffffffff\n      and\n      eq\n        /* \"contracts/ERC721A.sol\":3807:3894  if (ownership.addr != address(0)) {... */\n      tag_141\n      jumpi\n        /* \"contracts/ERC721A.sol\":3871:3880  ownership */\n      dup1\n        /* \"contracts/ERC721A.sol\":3871:3885  ownership.addr */\n      0x00\n      add\n      mload\n        /* \"contracts/ERC721A.sol\":3851:3885  currOwnershipAddr = ownership.addr */\n      swap3\n      pop\n        /* \"contracts/ERC721A.sol\":3807:3894  if (ownership.addr != address(0)) {... */\n    tag_141:\n        /* \"contracts/ERC721A.sol\":3926:3931  owner */\n      dup8\n        /* \"contracts/ERC721A.sol\":3905:3931  currOwnershipAddr == owner */\n      0xffffffffffffffffffffffffffffffffffffffff\n      and\n        /* \"contracts/ERC721A.sol\":3905:3922  currOwnershipAddr */\n      dup4\n        /* \"contracts/ERC721A.sol\":3905:3931  currOwnershipAddr == owner */\n      0xffffffffffffffffffffffffffffffffffffffff\n      and\n      eq\n        /* \"contracts/ERC721A.sol\":3901:4031  if (currOwnershipAddr == owner) {... */\n      iszero\n      tag_142\n      jumpi\n        /* \"contracts/ERC721A.sol\":3962:3967  index */\n      dup7\n        /* \"contracts/ERC721A.sol\":3947:3958  tokenIdsIdx */\n      dup5\n        /* \"contracts/ERC721A.sol\":3947:3967  tokenIdsIdx == index */\n      eq\n        /* \"contracts/ERC721A.sol\":3943:4000  if (tokenIdsIdx == index) {... */\n      iszero\n      tag_143\n      jumpi\n        /* \"contracts/ERC721A.sol\":3988:3989  i */\n      dup2\n        /* \"contracts/ERC721A.sol\":3981:3989  return i */\n      swap6\n      pop\n      pop\n      pop\n      pop\n      pop\n      pop\n      jump(tag_132)\n        /* \"contracts/ERC721A.sol\":3943:4000  if (tokenIdsIdx == index) {... */\n    tag_143:\n        /* \"contracts/ERC721A.sol\":4009:4022  tokenIdsIdx++ */\n      dup4\n      dup1\n      tag_144\n      swap1\n      tag_145\n      jump\t// in\n    tag_144:\n      swap5\n      pop\n      pop\n        /* \"contracts/ERC721A.sol\":3901:4031  if (currOwnershipAddr == owner) {... */\n    tag_142:\n        /* \"contracts/ERC721A.sol\":3743:4037  {... */\n      pop\n        /* \"contracts/ERC721A.sol\":3738:3741  i++ */\n      dup1\n      dup1\n      tag_146\n      swap1\n      tag_145\n      jump\t// in\n    tag_146:\n      swap2\n      pop\n      pop\n        /* \"contracts/ERC721A.sol\":3698:4037  for (uint256 i = 0; i < numMintedSoFar; i++) {... */\n      jump(tag_138)\n    tag_139:\n      pop\n        /* \"contracts/ERC721A.sol\":4042:4098  revert(\"ERC721A: unable to get token of owner by index\") */\n      mload(0x40)\n      0x08c379a000000000000000000000000000000000000000000000000000000000\n      dup2\n      mstore\n      0x04\n      add\n      tag_147\n      swap1\n      tag_148\n      jump\t// in\n    tag_147:\n      mload(0x40)\n      dup1\n      swap2\n      sub\n      swap1\n      revert\n        /* \"contracts/ERC721A.sol\":3382:4103  function tokenOfOwnerByIndex(address owner, uint256 index)... */\n    tag_132:\n      swap3\n      swap2\n      pop\n      pop\n      jump\t// out\n        /* \"contracts/ERC721A.sol\":8169:8320  function safeTransferFrom(... */\n    tag_57:\n        /* \"contracts/ERC721A.sol\":8276:8315  safeTransferFrom(from, to, tokenId, \"\") */\n      tag_150\n        /* \"contracts/ERC721A.sol\":8293:8297  from */\n      dup4\n        /* \"contracts/ERC721A.sol\":8299:8301  to */\n      dup4\n        /* \"contracts/ERC721A.sol\":8303:8310  tokenId */\n      dup4\n        /* \"contracts/ERC721A.sol\":8276:8315  safeTransferFrom(from, to, tokenId, \"\") */\n      mload(0x40)\n      dup1\n      0x20\n      add\n      0x40\n      mstore\n      dup1\n      0x00\n      dup2\n      mstore\n      pop\n        /* \"contracts/ERC721A.sol\":8276:8292  safeTransferFrom */\n      tag_81\n        /* \"contracts/ERC721A.sol\":8276:8315  safeTransferFrom(from, to, tokenId, \"\") */\n      jump\t// in\n    tag_150:\n        /* \"contracts/ERC721A.sol\":8169:8320  function safeTransferFrom(... */\n      pop\n      pop\n      pop\n      jump\t// out\n        /* \"contracts/ERC721A.sol\":2924:3098  function tokenByIndex(uint256 index) public view override returns (uint256) {... */\n    tag_60:\n        /* \"contracts/ERC721A.sol\":2991:2998  uint256 */\n      0x00\n        /* \"contracts/ERC721A.sol\":3022:3035  totalSupply() */\n      tag_152\n        /* \"contracts/ERC721A.sol\":3022:3033  totalSupply */\n      tag_44\n        /* \"contracts/ERC721A.sol\":3022:3035  totalSupply() */\n      jump\t// in\n    tag_152:\n        /* \"contracts/ERC721A.sol\":3014:3019  index */\n      dup3\n        /* \"contracts/ERC721A.sol\":3014:3035  index < totalSupply() */\n      lt\n        /* \"contracts/ERC721A.sol\":3006:3075  require(index < totalSupply(), \"ERC721A: global index out of bounds\") */\n      tag_153\n      jumpi\n      mload(0x40)\n      0x08c379a000000000000000000000000000000000000000000000000000000000\n      dup2\n      mstore\n      0x04\n      add\n      tag_154\n      swap1\n      tag_155\n      jump\t// in\n    tag_154:\n      mload(0x40)\n      dup1\n      swap2\n      sub\n      swap1\n      revert\n    tag_153:\n        /* \"contracts/ERC721A.sol\":3088:3093  index */\n      dup2\n        /* \"contracts/ERC721A.sol\":3081:3093  return index */\n      swap1\n      pop\n        /* \"contracts/ERC721A.sol\":2924:3098  function tokenByIndex(uint256 index) public view override returns (uint256) {... */\n      swap2\n      swap1\n      pop\n      jump\t// out\n        /* \"contracts/ERC721A.sol\":5656:5772  function ownerOf(uint256 tokenId) public view override returns (address) {... */\n    tag_64:\n        /* \"contracts/ERC721A.sol\":5720:5727  address */\n      0x00\n        /* \"contracts/ERC721A.sol\":5742:5762  ownershipOf(tokenId) */\n      tag_157\n        /* \"contracts/ERC721A.sol\":5754:5761  tokenId */\n      dup3\n        /* \"contracts/ERC721A.sol\":5742:5753  ownershipOf */\n      tag_158\n        /* \"contracts/ERC721A.sol\":5742:5762  ownershipOf(tokenId) */\n      jump\t// in\n    tag_157:\n        /* \"contracts/ERC721A.sol\":5742:5767  ownershipOf(tokenId).addr */\n      0x00\n      add\n      mload\n        /* \"contracts/ERC721A.sol\":5735:5767  return ownershipOf(tokenId).addr */\n      swap1\n      pop\n        /* \"contracts/ERC721A.sol\":5656:5772  function ownerOf(uint256 tokenId) public view override returns (address) {... */\n      swap2\n      swap1\n      pop\n      jump\t// out\n        /* \"contracts/ERC721A.sol\":4571:4779  function balanceOf(address owner) public view override returns (uint256) {... */\n    tag_69:\n        /* \"contracts/ERC721A.sol\":4635:4642  uint256 */\n      0x00\n        /* \"contracts/ERC721A.sol\":4675:4676  0 */\n      dup1\n        /* \"contracts/ERC721A.sol\":4658:4677  owner != address(0) */\n      0xffffffffffffffffffffffffffffffffffffffff\n      and\n        /* \"contracts/ERC721A.sol\":4658:4663  owner */\n      dup3\n        /* \"contracts/ERC721A.sol\":4658:4677  owner != address(0) */\n      0xffffffffffffffffffffffffffffffffffffffff\n      and\n      eq\n      iszero\n        /* \"contracts/ERC721A.sol\":4650:4725  require(owner != address(0), \"ERC721A: balance query for the zero address\") */\n      tag_160\n      jumpi\n      mload(0x40)\n      0x08c379a000000000000000000000000000000000000000000000000000000000\n      dup2\n      mstore\n      0x04\n      add\n      tag_161\n      swap1\n      tag_162\n      jump\t// in\n    tag_161:\n      mload(0x40)\n      dup1\n      swap2\n      sub\n      swap1\n      revert\n    tag_160:\n        /* \"contracts/ERC721A.sol\":4746:4758  _addressData */\n      0x04\n        /* \"contracts/ERC721A.sol\":4746:4765  _addressData[owner] */\n      0x00\n        /* \"contracts/ERC721A.sol\":4759:4764  owner */\n      dup4\n        /* \"contracts/ERC721A.sol\":4746:4765  _addressData[owner] */\n      0xffffffffffffffffffffffffffffffffffffffff\n      and\n      0xffffffffffffffffffffffffffffffffffffffff\n      and\n      dup2\n      mstore\n      0x20\n      add\n      swap1\n      dup2\n      mstore\n      0x20\n      add\n      0x00\n      keccak256\n        /* \"contracts/ERC721A.sol\":4746:4773  _addressData[owner].balance */\n      0x00\n      add\n      0x00\n      swap1\n      sload\n      swap1\n      0x0100\n      exp\n      swap1\n      div\n      0xffffffffffffffffffffffffffffffff\n      and\n        /* \"contracts/ERC721A.sol\":4738:4774  uint256(_addressData[owner].balance) */\n      0xffffffffffffffffffffffffffffffff\n      and\n        /* \"contracts/ERC721A.sol\":4731:4774  return uint256(_addressData[owner].balance) */\n      swap1\n      pop\n        /* \"contracts/ERC721A.sol\":4571:4779  function balanceOf(address owner) public view override returns (uint256) {... */\n      swap2\n      swap1\n      pop\n      jump\t// out\n        /* \"contracts/ERC721A.sol\":5974:6070  function symbol() public view virtual override returns (string memory) {... */\n    tag_72:\n        /* \"contracts/ERC721A.sol\":6030:6043  string memory */\n      0x60\n        /* \"contracts/ERC721A.sol\":6058:6065  _symbol */\n      0x02\n        /* \"contracts/ERC721A.sol\":6051:6065  return _symbol */\n      dup1\n      sload\n      tag_164\n      swap1\n      tag_102\n      jump\t// in\n    tag_164:\n      dup1\n      0x1f\n      add\n      0x20\n      dup1\n      swap2\n      div\n      mul\n      0x20\n      add\n      mload(0x40)\n      swap1\n      dup2\n      add\n      0x40\n      mstore\n      dup1\n      swap3\n      swap2\n      swap1\n      dup2\n      dup2\n      mstore\n      0x20\n      add\n      dup3\n      dup1\n      sload\n      tag_165\n      swap1\n      tag_102\n      jump\t// in\n    tag_165:\n      dup1\n      iszero\n      tag_166\n      jumpi\n      dup1\n      0x1f\n      lt\n      tag_167\n      jumpi\n      0x0100\n      dup1\n      dup4\n      sload\n      div\n      mul\n      dup4\n      mstore\n      swap2\n      0x20\n      add\n      swap2\n      jump(tag_166)\n    tag_167:\n      dup3\n      add\n      swap2\n      swap1\n      0x00\n      mstore\n      keccak256(0x00, 0x20)\n      swap1\n    tag_168:\n      dup2\n      sload\n      dup2\n      mstore\n      swap1\n      0x01\n      add\n      swap1\n      0x20\n      add\n      dup1\n      dup4\n      gt\n      tag_168\n      jumpi\n      dup3\n      swap1\n      sub\n      0x1f\n      and\n      dup3\n      add\n      swap2\n    tag_166:\n      pop\n      pop\n      pop\n      pop\n      pop\n      swap1\n      pop\n        /* \"contracts/ERC721A.sol\":5974:6070  function symbol() public view virtual override returns (string memory) {... */\n      swap1\n      jump\t// out\n        /* \"contracts/ERC721A.sol\":7416:7685  function setApprovalForAll(address operator, bool approved) public override {... */\n    tag_77:\n        /* \"contracts/ERC721A.sol\":7518:7530  _msgSender() */\n      tag_170\n        /* \"contracts/ERC721A.sol\":7518:7528  _msgSender */\n      tag_119\n        /* \"contracts/ERC721A.sol\":7518:7530  _msgSender() */\n      jump\t// in\n    tag_170:\n        /* \"contracts/ERC721A.sol\":7506:7530  operator != _msgSender() */\n      0xffffffffffffffffffffffffffffffffffffffff\n      and\n        /* \"contracts/ERC721A.sol\":7506:7514  operator */\n      dup3\n        /* \"contracts/ERC721A.sol\":7506:7530  operator != _msgSender() */\n      0xffffffffffffffffffffffffffffffffffffffff\n      and\n      eq\n      iszero\n        /* \"contracts/ERC721A.sol\":7498:7561  require(operator != _msgSender(), \"ERC721A: approve to caller\") */\n      tag_171\n      jumpi\n      mload(0x40)\n      0x08c379a000000000000000000000000000000000000000000000000000000000\n      dup2\n      mstore\n      0x04\n      add\n      tag_172\n      swap1\n      tag_173\n      jump\t// in\n    tag_172:\n      mload(0x40)\n      dup1\n      swap2\n      sub\n      swap1\n      revert\n    tag_171:\n        /* \"contracts/ERC721A.sol\":7613:7621  approved */\n      dup1\n        /* \"contracts/ERC721A.sol\":7568:7586  _operatorApprovals */\n      0x06\n        /* \"contracts/ERC721A.sol\":7568:7600  _operatorApprovals[_msgSender()] */\n      0x00\n        /* \"contracts/ERC721A.sol\":7587:7599  _msgSender() */\n      tag_174\n        /* \"contracts/ERC721A.sol\":7587:7597  _msgSender */\n      tag_119\n        /* \"contracts/ERC721A.sol\":7587:7599  _msgSender() */\n      jump\t// in\n    tag_174:\n        /* \"contracts/ERC721A.sol\":7568:7600  _operatorApprovals[_msgSender()] */\n      0xffffffffffffffffffffffffffffffffffffffff\n      and\n      0xffffffffffffffffffffffffffffffffffffffff\n      and\n      dup2\n      mstore\n      0x20\n      add\n      swap1\n      dup2\n      mstore\n      0x20\n      add\n      0x00\n      keccak256\n        /* \"contracts/ERC721A.sol\":7568:7610  _operatorApprovals[_msgSender()][operator] */\n      0x00\n        /* \"contracts/ERC721A.sol\":7601:7609  operator */\n      dup5\n        /* \"contracts/ERC721A.sol\":7568:7610  _operatorApprovals[_msgSender()][operator] */\n      0xffffffffffffffffffffffffffffffffffffffff\n      and\n      0xffffffffffffffffffffffffffffffffffffffff\n      and\n      dup2\n      mstore\n      0x20\n      add\n      swap1\n      dup2\n      mstore\n      0x20\n      add\n      0x00\n      keccak256\n      0x00\n        /* \"contracts/ERC721A.sol\":7568:7621  _operatorApprovals[_msgSender()][operator] = approved */\n      0x0100\n      exp\n      dup2\n      sload\n      dup2\n      0xff\n      mul\n      not\n      and\n      swap1\n      dup4\n      iszero\n      iszero\n      mul\n      or\n      swap1\n      sstore\n      pop\n        /* \"contracts/ERC721A.sol\":7661:7669  operator */\n      dup2\n        /* \"contracts/ERC721A.sol\":7632:7680  ApprovalForAll(_msgSender(), operator, approved) */\n      0xffffffffffffffffffffffffffffffffffffffff\n      and\n        /* \"contracts/ERC721A.sol\":7647:7659  _msgSender() */\n      tag_175\n        /* \"contracts/ERC721A.sol\":7647:7657  _msgSender */\n      tag_119\n        /* \"contracts/ERC721A.sol\":7647:7659  _msgSender() */\n      jump\t// in\n    tag_175:\n        /* \"contracts/ERC721A.sol\":7632:7680  ApprovalForAll(_msgSender(), operator, approved) */\n      0xffffffffffffffffffffffffffffffffffffffff\n      and\n      0x17307eab39ab6107e8899845ad3d59bd9653f200f220920489ca2b5937696c31\n        /* \"contracts/ERC721A.sol\":7671:7679  approved */\n      dup4\n        /* \"contracts/ERC721A.sol\":7632:7680  ApprovalForAll(_msgSender(), operator, approved) */\n      mload(0x40)\n      tag_176\n      swap2\n      swap1\n      tag_28\n      jump\t// in\n    tag_176:\n      mload(0x40)\n      dup1\n      swap2\n      sub\n      swap1\n      log3\n        /* \"contracts/ERC721A.sol\":7416:7685  function setApprovalForAll(address operator, bool approved) public override {... */\n      pop\n      pop\n      jump\t// out\n        /* \"contracts/ERC721A.sol\":8378:8678  function safeTransferFrom(... */\n    tag_81:\n        /* \"contracts/ERC721A.sol\":8509:8537  _transfer(from, to, tokenId) */\n      tag_178\n        /* \"contracts/ERC721A.sol\":8519:8523  from */\n      dup5\n        /* \"contracts/ERC721A.sol\":8525:8527  to */\n      dup5\n        /* \"contracts/ERC721A.sol\":8529:8536  tokenId */\n      dup5\n        /* \"contracts/ERC721A.sol\":8509:8518  _transfer */\n      tag_131\n        /* \"contracts/ERC721A.sol\":8509:8537  _transfer(from, to, tokenId) */\n      jump\t// in\n    tag_178:\n        /* \"contracts/ERC721A.sol\":8558:8606  _checkOnERC721Received(from, to, tokenId, _data) */\n      tag_179\n        /* \"contracts/ERC721A.sol\":8581:8585  from */\n      dup5\n        /* \"contracts/ERC721A.sol\":8587:8589  to */\n      dup5\n        /* \"contracts/ERC721A.sol\":8591:8598  tokenId */\n      dup5\n        /* \"contracts/ERC721A.sol\":8600:8605  _data */\n      dup5\n        /* \"contracts/ERC721A.sol\":8558:8580  _checkOnERC721Received */\n      tag_180\n        /* \"contracts/ERC721A.sol\":8558:8606  _checkOnERC721Received(from, to, tokenId, _data) */\n      jump\t// in\n    tag_179:\n        /* \"contracts/ERC721A.sol\":8543:8673  require(... */\n      tag_181\n      jumpi\n      mload(0x40)\n      0x08c379a000000000000000000000000000000000000000000000000000000000\n      dup2\n      mstore\n      0x04\n      add\n      tag_182\n      swap1\n      tag_183\n      jump\t// in\n    tag_182:\n      mload(0x40)\n      dup1\n      swap2\n      sub\n      swap1\n      revert\n    tag_181:\n        /* \"contracts/ERC721A.sol\":8378:8678  function safeTransferFrom(... */\n      pop\n      pop\n      pop\n      pop\n      jump\t// out\n        /* \"contracts/ERC721A.sol\":6128:6371  function tokenURI(uint256 tokenId)... */\n    tag_84:\n        /* \"contracts/ERC721A.sol\":6221:6234  string memory */\n      0x60\n        /* \"contracts/ERC721A.sol\":6259:6275  _exists(tokenId) */\n      tag_185\n        /* \"contracts/ERC721A.sol\":6267:6274  tokenId */\n      dup3\n        /* \"contracts/ERC721A.sol\":6259:6266  _exists */\n      tag_109\n        /* \"contracts/ERC721A.sol\":6259:6275  _exists(tokenId) */\n      jump\t// in\n    tag_185:\n        /* \"contracts/ERC721A.sol\":6244:6338  require(... */\n      tag_186\n      jumpi\n      mload(0x40)\n      0x08c379a000000000000000000000000000000000000000000000000000000000\n      dup2\n      mstore\n      0x04\n      add\n      tag_187\n      swap1\n      tag_188\n      jump\t// in\n    tag_187:\n      mload(0x40)\n      dup1\n      swap2\n      sub\n      swap1\n      revert\n    tag_186:\n        /* \"contracts/ERC721A.sol\":6356:6366  _baseURI() */\n      tag_189\n        /* \"contracts/ERC721A.sol\":6356:6364  _baseURI */\n      tag_190\n        /* \"contracts/ERC721A.sol\":6356:6366  _baseURI() */\n      jump\t// in\n    tag_189:\n        /* \"contracts/ERC721A.sol\":6349:6366  return _baseURI() */\n      swap1\n      pop\n        /* \"contracts/ERC721A.sol\":6128:6371  function tokenURI(uint256 tokenId)... */\n      swap2\n      swap1\n      pop\n      jump\t// out\n        /* \"contracts/ERC721A.sol\":12648:12691  uint256 public nextOwnerToExplicitlySet = 0 */\n    tag_87:\n      sload(0x07)\n      dup2\n      jump\t// out\n        /* \"contracts/ERC721A.sol\":7743:7921  function isApprovedForAll(address owner, address operator)... */\n    tag_92:\n        /* \"contracts/ERC721A.sol\":7860:7864  bool */\n      0x00\n        /* \"contracts/ERC721A.sol\":7881:7899  _operatorApprovals */\n      0x06\n        /* \"contracts/ERC721A.sol\":7881:7906  _operatorApprovals[owner] */\n      0x00\n        /* \"contracts/ERC721A.sol\":7900:7905  owner */\n      dup5\n        /* \"contracts/ERC721A.sol\":7881:7906  _operatorApprovals[owner] */\n      0xffffffffffffffffffffffffffffffffffffffff\n      and\n      0xffffffffffffffffffffffffffffffffffffffff\n      and\n      dup2\n      mstore\n      0x20\n      add\n      swap1\n      dup2\n      mstore\n      0x20\n      add\n      0x00\n      keccak256\n        /* \"contracts/ERC721A.sol\":7881:7916  _operatorApprovals[owner][operator] */\n      0x00\n        /* \"contracts/ERC721A.sol\":7907:7915  operator */\n      dup4\n        /* \"contracts/ERC721A.sol\":7881:7916  _operatorApprovals[owner][operator] */\n      0xffffffffffffffffffffffffffffffffffffffff\n      and\n      0xffffffffffffffffffffffffffffffffffffffff\n      and\n      dup2\n      mstore\n      0x20\n      add\n      swap1\n      dup2\n      mstore\n      0x20\n      add\n      0x00\n      keccak256\n      0x00\n      swap1\n      sload\n      swap1\n      0x0100\n      exp\n      swap1\n      div\n      0xff\n      and\n        /* \"contracts/ERC721A.sol\":7874:7916  return _operatorApprovals[owner][operator] */\n      swap1\n      pop\n        /* \"contracts/ERC721A.sol\":7743:7921  function isApprovedForAll(address owner, address operator)... */\n      swap3\n      swap2\n      pop\n      pop\n      jump\t// out\n        /* \"@openzeppelin/contracts@4.3.3/utils/introspection/ERC165.sol\":763:918  function supportsInterface(bytes4 interfaceId) public view virtual override returns (bool) {... */\n    tag_99:\n        /* \"@openzeppelin/contracts@4.3.3/utils/introspection/ERC165.sol\":848:852  bool */\n      0x00\n        /* \"@openzeppelin/contracts@4.3.3/utils/introspection/ERC165.sol\":886:911  type(IERC165).interfaceId */\n      0x01ffc9a700000000000000000000000000000000000000000000000000000000\n        /* \"@openzeppelin/contracts@4.3.3/utils/introspection/ERC165.sol\":871:911  interfaceId == type(IERC165).interfaceId */\n      not(0xffffffffffffffffffffffffffffffffffffffffffffffffffffffff)\n      and\n        /* \"@openzeppelin/contracts@4.3.3/utils/introspection/ERC165.sol\":871:882  interfaceId */\n      dup3\n        /* \"@openzeppelin/contracts@4.3.3/utils/introspection/ERC165.sol\":871:911  interfaceId == type(IERC165).interfaceId */\n      not(0xffffffffffffffffffffffffffffffffffffffffffffffffffffffff)\n      and\n      eq\n        /* \"@openzeppelin/contracts@4.3.3/utils/introspection/ERC165.sol\":864:911  return interfaceId == type(IERC165).interfaceId */\n      swap1\n      pop\n        /* \"@openzeppelin/contracts@4.3.3/utils/introspection/ERC165.sol\":763:918  function supportsInterface(bytes4 interfaceId) public view virtual override returns (bool) {... */\n      swap2\n      swap1\n      pop\n      jump\t// out\n        /* \"contracts/ERC721A.sol\":8908:9011  function _exists(uint256 tokenId) internal view returns (bool) {... */\n    tag_109:\n        /* \"contracts/ERC721A.sol\":8965:8969  bool */\n      0x00\n        /* \"contracts/ERC721A.sol\":8994:9006  currentIndex */\n      dup1\n      sload\n        /* \"contracts/ERC721A.sol\":8984:8991  tokenId */\n      dup3\n        /* \"contracts/ERC721A.sol\":8984:9006  tokenId < currentIndex */\n      lt\n        /* \"contracts/ERC721A.sol\":8977:9006  return tokenId < currentIndex */\n      swap1\n      pop\n        /* \"contracts/ERC721A.sol\":8908:9011  function _exists(uint256 tokenId) internal view returns (bool) {... */\n      swap2\n      swap1\n      pop\n      jump\t// out\n        /* \"@openzeppelin/contracts@4.3.3/utils/Context.sol\":587:683  function _msgSender() internal view virtual returns (address) {... */\n    tag_119:\n        /* \"@openzeppelin/contracts@4.3.3/utils/Context.sol\":640:647  address */\n      0x00\n        /* \"@openzeppelin/contracts@4.3.3/utils/Context.sol\":666:676  msg.sender */\n      caller\n        /* \"@openzeppelin/contracts@4.3.3/utils/Context.sol\":659:676  return msg.sender */\n      swap1\n      pop\n        /* \"@openzeppelin/contracts@4.3.3/utils/Context.sol\":587:683  function _msgSender() internal view virtual returns (address) {... */\n      swap1\n      jump\t// out\n        /* \"contracts/ERC721A.sol\":12479:12644  function _approve(... */\n    tag_127:\n        /* \"contracts/ERC721A.sol\":12598:12600  to */\n      dup3\n        /* \"contracts/ERC721A.sol\":12571:12586  _tokenApprovals */\n      0x05\n        /* \"contracts/ERC721A.sol\":12571:12595  _tokenApprovals[tokenId] */\n      0x00\n        /* \"contracts/ERC721A.sol\":12587:12594  tokenId */\n      dup5\n        /* \"contracts/ERC721A.sol\":12571:12595  _tokenApprovals[tokenId] */\n      dup2\n      mstore\n      0x20\n      add\n      swap1\n      dup2\n      mstore\n      0x20\n      add\n      0x00\n      keccak256\n      0x00\n        /* \"contracts/ERC721A.sol\":12571:12600  _tokenApprovals[tokenId] = to */\n      0x0100\n      exp\n      dup2\n      sload\n      dup2\n      0xffffffffffffffffffffffffffffffffffffffff\n      mul\n      not\n      and\n      swap1\n      dup4\n      0xffffffffffffffffffffffffffffffffffffffff\n      and\n      mul\n      or\n      swap1\n      sstore\n      pop\n        /* \"contracts/ERC721A.sol\":12631:12638  tokenId */\n      dup2\n        /* \"contracts/ERC721A.sol\":12627:12629  to */\n      dup4\n        /* \"contracts/ERC721A.sol\":12611:12639  Approval(owner, to, tokenId) */\n      0xffffffffffffffffffffffffffffffffffffffff\n      and\n        /* \"contracts/ERC721A.sol\":12620:12625  owner */\n      dup3\n        /* \"contracts/ERC721A.sol\":12611:12639  Approval(owner, to, tokenId) */\n      0xffffffffffffffffffffffffffffffffffffffff\n      and\n      0x8c5be1e5ebec7d5bd14f71427d1e84f3dd0314c0f7b2291e5b200ac8c7c3b925\n      mload(0x40)\n      mload(0x40)\n      dup1\n      swap2\n      sub\n      swap1\n      log4\n        /* \"contracts/ERC721A.sol\":12479:12644  function _approve(... */\n      pop\n      pop\n      pop\n      jump\t// out\n        /* \"contracts/ERC721A.sol\":10896:12380  function _transfer(... */\n    tag_131:\n        /* \"contracts/ERC721A.sol\":10988:11023  TokenOwnership memory prevOwnership */\n      0x00\n        /* \"contracts/ERC721A.sol\":11026:11046  ownershipOf(tokenId) */\n      tag_197\n        /* \"contracts/ERC721A.sol\":11038:11045  tokenId */\n      dup3\n        /* \"contracts/ERC721A.sol\":11026:11037  ownershipOf */\n      tag_158\n        /* \"contracts/ERC721A.sol\":11026:11046  ownershipOf(tokenId) */\n      jump\t// in\n    tag_197:\n        /* \"contracts/ERC721A.sol\":10988:11046  TokenOwnership memory prevOwnership = ownershipOf(tokenId) */\n      swap1\n      pop\n        /* \"contracts/ERC721A.sol\":11053:11075  bool isApprovedOrOwner */\n      0x00\n        /* \"contracts/ERC721A.sol\":11095:11108  prevOwnership */\n      dup2\n        /* \"contracts/ERC721A.sol\":11095:11113  prevOwnership.addr */\n      0x00\n      add\n      mload\n        /* \"contracts/ERC721A.sol\":11079:11113  _msgSender() == prevOwnership.addr */\n      0xffffffffffffffffffffffffffffffffffffffff\n      and\n        /* \"contracts/ERC721A.sol\":11079:11091  _msgSender() */\n      tag_198\n        /* \"contracts/ERC721A.sol\":11079:11089  _msgSender */\n      tag_119\n        /* \"contracts/ERC721A.sol\":11079:11091  _msgSender() */\n      jump\t// in\n    tag_198:\n        /* \"contracts/ERC721A.sol\":11079:11113  _msgSender() == prevOwnership.addr */\n      0xffffffffffffffffffffffffffffffffffffffff\n      and\n      eq\n        /* \"contracts/ERC721A.sol\":11079:11159  _msgSender() == prevOwnership.addr ||... */\n      dup1\n      tag_199\n      jumpi\n      pop\n        /* \"contracts/ERC721A.sol\":11147:11159  _msgSender() */\n      tag_200\n        /* \"contracts/ERC721A.sol\":11147:11157  _msgSender */\n      tag_119\n        /* \"contracts/ERC721A.sol\":11147:11159  _msgSender() */\n      jump\t// in\n    tag_200:\n        /* \"contracts/ERC721A.sol\":11123:11159  getApproved(tokenId) == _msgSender() */\n      0xffffffffffffffffffffffffffffffffffffffff\n      and\n        /* \"contracts/ERC721A.sol\":11123:11143  getApproved(tokenId) */\n      tag_201\n        /* \"contracts/ERC721A.sol\":11135:11142  tokenId */\n      dup5\n        /* \"contracts/ERC721A.sol\":11123:11134  getApproved */\n      tag_36\n        /* \"contracts/ERC721A.sol\":11123:11143  getApproved(tokenId) */\n      jump\t// in\n    tag_201:\n        /* \"contracts/ERC721A.sol\":11123:11159  getApproved(tokenId) == _msgSender() */\n      0xffffffffffffffffffffffffffffffffffffffff\n      and\n      eq\n        /* \"contracts/ERC721A.sol\":11079:11159  _msgSender() == prevOwnership.addr ||... */\n    tag_199:\n        /* \"contracts/ERC721A.sol\":11079:11219  _msgSender() == prevOwnership.addr ||... */\n      dup1\n      tag_202\n      jumpi\n      pop\n        /* \"contracts/ERC721A.sol\":11169:11219  isApprovedForAll(prevOwnership.addr, _msgSender()) */\n      tag_203\n        /* \"contracts/ERC721A.sol\":11186:11199  prevOwnership */\n      dup3\n        /* \"contracts/ERC721A.sol\":11186:11204  prevOwnership.addr */\n      0x00\n      add\n      mload\n        /* \"contracts/ERC721A.sol\":11206:11218  _msgSender() */\n      tag_204\n        /* \"contracts/ERC721A.sol\":11206:11216  _msgSender */\n      tag_119\n        /* \"contracts/ERC721A.sol\":11206:11218  _msgSender() */\n      jump\t// in\n    tag_204:\n        /* \"contracts/ERC721A.sol\":11169:11185  isApprovedForAll */\n      tag_92\n        /* \"contracts/ERC721A.sol\":11169:11219  isApprovedForAll(prevOwnership.addr, _msgSender()) */\n      jump\t// in\n    tag_203:\n        /* \"contracts/ERC721A.sol\":11079:11219  _msgSender() == prevOwnership.addr ||... */\n    tag_202:\n        /* \"contracts/ERC721A.sol\":11053:11220  bool isApprovedOrOwner = (_msgSender() == prevOwnership.addr ||... */\n      swap1\n      pop\n        /* \"contracts/ERC721A.sol\":11242:11259  isApprovedOrOwner */\n      dup1\n        /* \"contracts/ERC721A.sol\":11227:11325  require(... */\n      tag_205\n      jumpi\n      mload(0x40)\n      0x08c379a000000000000000000000000000000000000000000000000000000000\n      dup2\n      mstore\n      0x04\n      add\n      tag_206\n      swap1\n      tag_207\n      jump\t// in\n    tag_206:\n      mload(0x40)\n      dup1\n      swap2\n      sub\n      swap1\n      revert\n    tag_205:\n        /* \"contracts/ERC721A.sol\":11369:11373  from */\n      dup5\n        /* \"contracts/ERC721A.sol\":11347:11373  prevOwnership.addr == from */\n      0xffffffffffffffffffffffffffffffffffffffff\n      and\n        /* \"contracts/ERC721A.sol\":11347:11360  prevOwnership */\n      dup3\n        /* \"contracts/ERC721A.sol\":11347:11365  prevOwnership.addr */\n      0x00\n      add\n      mload\n        /* \"contracts/ERC721A.sol\":11347:11373  prevOwnership.addr == from */\n      0xffffffffffffffffffffffffffffffffffffffff\n      and\n      eq\n        /* \"contracts/ERC721A.sol\":11332:11427  require(... */\n      tag_208\n      jumpi\n      mload(0x40)\n      0x08c379a000000000000000000000000000000000000000000000000000000000\n      dup2\n      mstore\n      0x04\n      add\n      tag_209\n      swap1\n      tag_210\n      jump\t// in\n    tag_209:\n      mload(0x40)\n      dup1\n      swap2\n      sub\n      swap1\n      revert\n    tag_208:\n        /* \"contracts/ERC721A.sol\":11455:11456  0 */\n      0x00\n        /* \"contracts/ERC721A.sol\":11441:11457  to != address(0) */\n      0xffffffffffffffffffffffffffffffffffffffff\n      and\n        /* \"contracts/ERC721A.sol\":11441:11443  to */\n      dup5\n        /* \"contracts/ERC721A.sol\":11441:11457  to != address(0) */\n      0xffffffffffffffffffffffffffffffffffffffff\n      and\n      eq\n      iszero\n        /* \"contracts/ERC721A.sol\":11433:11499  require(to != address(0), \"ERC721A: transfer to the zero address\") */\n      tag_211\n      jumpi\n      mload(0x40)\n      0x08c379a000000000000000000000000000000000000000000000000000000000\n      dup2\n      mstore\n      0x04\n      add\n      tag_212\n      swap1\n      tag_213\n      jump\t// in\n    tag_212:\n      mload(0x40)\n      dup1\n      swap2\n      sub\n      swap1\n      revert\n    tag_211:\n        /* \"contracts/ERC721A.sol\":11506:11549  _beforeTokenTransfers(from, to, tokenId, 1) */\n      tag_214\n        /* \"contracts/ERC721A.sol\":11528:11532  from */\n      dup6\n        /* \"contracts/ERC721A.sol\":11534:11536  to */\n      dup6\n        /* \"contracts/ERC721A.sol\":11538:11545  tokenId */\n      dup6\n        /* \"contracts/ERC721A.sol\":11547:11548  1 */\n      0x01\n        /* \"contracts/ERC721A.sol\":11506:11527  _beforeTokenTransfers */\n      tag_215\n        /* \"contracts/ERC721A.sol\":11506:11549  _beforeTokenTransfers(from, to, tokenId, 1) */\n      jump\t// in\n    tag_214:\n        /* \"contracts/ERC721A.sol\":11603:11652  _approve(address(0), tokenId, prevOwnership.addr) */\n      tag_216\n        /* \"contracts/ERC721A.sol\":11620:11621  0 */\n      0x00\n        /* \"contracts/ERC721A.sol\":11624:11631  tokenId */\n      dup5\n        /* \"contracts/ERC721A.sol\":11633:11646  prevOwnership */\n      dup5\n        /* \"contracts/ERC721A.sol\":11633:11651  prevOwnership.addr */\n      0x00\n      add\n      mload\n        /* \"contracts/ERC721A.sol\":11603:11611  _approve */\n      tag_127\n        /* \"contracts/ERC721A.sol\":11603:11652  _approve(address(0), tokenId, prevOwnership.addr) */\n      jump\t// in\n    tag_216:\n        /* \"contracts/ERC721A.sol\":11689:11690  1 */\n      0x01\n        /* \"contracts/ERC721A.sol\":11659:11671  _addressData */\n      0x04\n        /* \"contracts/ERC721A.sol\":11659:11677  _addressData[from] */\n      0x00\n        /* \"contracts/ERC721A.sol\":11672:11676  from */\n      dup8\n        /* \"contracts/ERC721A.sol\":11659:11677  _addressData[from] */\n      0xffffffffffffffffffffffffffffffffffffffff\n      and\n      0xffffffffffffffffffffffffffffffffffffffff\n      and\n      dup2\n      mstore\n      0x20\n      add\n      swap1\n      dup2\n      mstore\n      0x20\n      add\n      0x00\n      keccak256\n        /* \"contracts/ERC721A.sol\":11659:11685  _addressData[from].balance */\n      0x00\n      add\n      0x00\n        /* \"contracts/ERC721A.sol\":11659:11690  _addressData[from].balance -= 1 */\n      dup3\n      dup3\n      dup3\n      swap1\n      sload\n      swap1\n      0x0100\n      exp\n      swap1\n      div\n      0xffffffffffffffffffffffffffffffff\n      and\n      tag_217\n      swap2\n      swap1\n      tag_218\n      jump\t// in\n    tag_217:\n      swap3\n      pop\n      0x0100\n      exp\n      dup2\n      sload\n      dup2\n      0xffffffffffffffffffffffffffffffff\n      mul\n      not\n      and\n      swap1\n      dup4\n      0xffffffffffffffffffffffffffffffff\n      and\n      mul\n      or\n      swap1\n      sstore\n      pop\n        /* \"contracts/ERC721A.sol\":11724:11725  1 */\n      0x01\n        /* \"contracts/ERC721A.sol\":11696:11708  _addressData */\n      0x04\n        /* \"contracts/ERC721A.sol\":11696:11712  _addressData[to] */\n      0x00\n        /* \"contracts/ERC721A.sol\":11709:11711  to */\n      dup7\n        /* \"contracts/ERC721A.sol\":11696:11712  _addressData[to] */\n      0xffffffffffffffffffffffffffffffffffffffff\n      and\n      0xffffffffffffffffffffffffffffffffffffffff\n      and\n      dup2\n      mstore\n      0x20\n      add\n      swap1\n      dup2\n      mstore\n      0x20\n      add\n      0x00\n      keccak256\n        /* \"contracts/ERC721A.sol\":11696:11720  _addressData[to].balance */\n      0x00\n      add\n      0x00\n        /* \"contracts/ERC721A.sol\":11696:11725  _addressData[to].balance += 1 */\n      dup3\n      dup3\n      dup3\n      swap1\n      sload\n      swap1\n      0x0100\n      exp\n      swap1\n      div\n      0xffffffffffffffffffffffffffffffff\n      and\n      tag_219\n      swap2\n      swap1\n      tag_220\n      jump\t// in\n    tag_219:\n      swap3\n      pop\n      0x0100\n      exp\n      dup2\n      sload\n      dup2\n      0xffffffffffffffffffffffffffffffff\n      mul\n      not\n      and\n      swap1\n      dup4\n      0xffffffffffffffffffffffffffffffff\n      and\n      mul\n      or\n      swap1\n      sstore\n      pop\n        /* \"contracts/ERC721A.sol\":11754:11797  TokenOwnership(to, uint64(block.timestamp)) */\n      mload(0x40)\n      dup1\n      0x40\n      add\n      0x40\n      mstore\n      dup1\n        /* \"contracts/ERC721A.sol\":11769:11771  to */\n      dup6\n        /* \"contracts/ERC721A.sol\":11754:11797  TokenOwnership(to, uint64(block.timestamp)) */\n      0xffffffffffffffffffffffffffffffffffffffff\n      and\n      dup2\n      mstore\n      0x20\n      add\n        /* \"contracts/ERC721A.sol\":11780:11795  block.timestamp */\n      timestamp\n        /* \"contracts/ERC721A.sol\":11754:11797  TokenOwnership(to, uint64(block.timestamp)) */\n      0xffffffffffffffff\n      and\n      dup2\n      mstore\n      pop\n        /* \"contracts/ERC721A.sol\":11731:11742  _ownerships */\n      0x03\n        /* \"contracts/ERC721A.sol\":11731:11751  _ownerships[tokenId] */\n      0x00\n        /* \"contracts/ERC721A.sol\":11743:11750  tokenId */\n      dup6\n        /* \"contracts/ERC721A.sol\":11731:11751  _ownerships[tokenId] */\n      dup2\n      mstore\n      0x20\n      add\n      swap1\n      dup2\n      mstore\n      0x20\n      add\n      0x00\n      keccak256\n        /* \"contracts/ERC721A.sol\":11731:11797  _ownerships[tokenId] = TokenOwnership(to, uint64(block.timestamp)) */\n      0x00\n      dup3\n      add\n      mload\n      dup2\n      0x00\n      add\n      exp(0x0100, 0x00)\n      dup2\n      sload\n      dup2\n      0xffffffffffffffffffffffffffffffffffffffff\n      mul\n      not\n      and\n      swap1\n      dup4\n      0xffffffffffffffffffffffffffffffffffffffff\n      and\n      mul\n      or\n      swap1\n      sstore\n      pop\n      0x20\n      dup3\n      add\n      mload\n      dup2\n      0x00\n      add\n      exp(0x0100, 0x14)\n      dup2\n      sload\n      dup2\n      0xffffffffffffffff\n      mul\n      not\n      and\n      swap1\n      dup4\n      0xffffffffffffffff\n      and\n      mul\n      or\n      swap1\n      sstore\n      pop\n      swap1\n      pop\n      pop\n        /* \"contracts/ERC721A.sol\":12021:12040  uint256 nextTokenId */\n      0x00\n        /* \"contracts/ERC721A.sol\":12053:12054  1 */\n      0x01\n        /* \"contracts/ERC721A.sol\":12043:12050  tokenId */\n      dup5\n        /* \"contracts/ERC721A.sol\":12043:12054  tokenId + 1 */\n      tag_221\n      swap2\n      swap1\n      tag_222\n      jump\t// in\n    tag_221:\n        /* \"contracts/ERC721A.sol\":12021:12054  uint256 nextTokenId = tokenId + 1 */\n      swap1\n      pop\n        /* \"contracts/ERC721A.sol\":12105:12106  0 */\n      0x00\n        /* \"contracts/ERC721A.sol\":12064:12107  _ownerships[nextTokenId].addr == address(0) */\n      0xffffffffffffffffffffffffffffffffffffffff\n      and\n        /* \"contracts/ERC721A.sol\":12064:12075  _ownerships */\n      0x03\n        /* \"contracts/ERC721A.sol\":12064:12088  _ownerships[nextTokenId] */\n      0x00\n        /* \"contracts/ERC721A.sol\":12076:12087  nextTokenId */\n      dup4\n        /* \"contracts/ERC721A.sol\":12064:12088  _ownerships[nextTokenId] */\n      dup2\n      mstore\n      0x20\n      add\n      swap1\n      dup2\n      mstore\n      0x20\n      add\n      0x00\n      keccak256\n        /* \"contracts/ERC721A.sol\":12064:12093  _ownerships[nextTokenId].addr */\n      0x00\n      add\n      0x00\n      swap1\n      sload\n      swap1\n      0x0100\n      exp\n      swap1\n      div\n      0xffffffffffffffffffffffffffffffffffffffff\n      and\n        /* \"contracts/ERC721A.sol\":12064:12107  _ownerships[nextTokenId].addr == address(0) */\n      0xffffffffffffffffffffffffffffffffffffffff\n      and\n      eq\n        /* \"contracts/ERC721A.sol\":12060:12289  if (_ownerships[nextTokenId].addr == address(0)) {... */\n      iszero\n      tag_223\n      jumpi\n        /* \"contracts/ERC721A.sol\":12121:12141  _exists(nextTokenId) */\n      tag_224\n        /* \"contracts/ERC721A.sol\":12129:12140  nextTokenId */\n      dup2\n        /* \"contracts/ERC721A.sol\":12121:12128  _exists */\n      tag_109\n        /* \"contracts/ERC721A.sol\":12121:12141  _exists(nextTokenId) */\n      jump\t// in\n    tag_224:\n        /* \"contracts/ERC721A.sol\":12117:12283  if (_exists(nextTokenId)) {... */\n      iszero\n      tag_225\n      jumpi\n        /* \"contracts/ERC721A.sol\":12180:12274  TokenOwnership(... */\n      mload(0x40)\n      dup1\n      0x40\n      add\n      0x40\n      mstore\n      dup1\n        /* \"contracts/ERC721A.sol\":12206:12219  prevOwnership */\n      dup5\n        /* \"contracts/ERC721A.sol\":12206:12224  prevOwnership.addr */\n      0x00\n      add\n      mload\n        /* \"contracts/ERC721A.sol\":12180:12274  TokenOwnership(... */\n      0xffffffffffffffffffffffffffffffffffffffff\n      and\n      dup2\n      mstore\n      0x20\n      add\n        /* \"contracts/ERC721A.sol\":12236:12249  prevOwnership */\n      dup5\n        /* \"contracts/ERC721A.sol\":12236:12264  prevOwnership.startTimestamp */\n      0x20\n      add\n      mload\n        /* \"contracts/ERC721A.sol\":12180:12274  TokenOwnership(... */\n      0xffffffffffffffff\n      and\n      dup2\n      mstore\n      pop\n        /* \"contracts/ERC721A.sol\":12153:12164  _ownerships */\n      0x03\n        /* \"contracts/ERC721A.sol\":12153:12177  _ownerships[nextTokenId] */\n      0x00\n        /* \"contracts/ERC721A.sol\":12165:12176  nextTokenId */\n      dup4\n        /* \"contracts/ERC721A.sol\":12153:12177  _ownerships[nextTokenId] */\n      dup2\n      mstore\n      0x20\n      add\n      swap1\n      dup2\n      mstore\n      0x20\n      add\n      0x00\n      keccak256\n        /* \"contracts/ERC721A.sol\":12153:12274  _ownerships[nextTokenId] = TokenOwnership(... */\n      0x00\n      dup3\n      add\n      mload\n      dup2\n      0x00\n      add\n      exp(0x0100, 0x00)\n      dup2\n      sload\n      dup2\n      0xffffffffffffffffffffffffffffffffffffffff\n      mul\n      not\n      and\n      swap1\n      dup4\n      0xffffffffffffffffffffffffffffffffffffffff\n      and\n      mul\n      or\n      swap1\n      sstore\n      pop\n      0x20\n      dup3\n      add\n      mload\n      dup2\n      0x00\n      add\n      exp(0x0100, 0x14)\n      dup2\n      sload\n      dup2\n      0xffffffffffffffff\n      mul\n      not\n      and\n      swap1\n      dup4\n      0xffffffffffffffff\n      and\n      mul\n      or\n      swap1\n      sstore\n      pop\n      swap1\n      pop\n      pop\n        /* \"contracts/ERC721A.sol\":12117:12283  if (_exists(nextTokenId)) {... */\n    tag_225:\n        /* \"contracts/ERC721A.sol\":12060:12289  if (_ownerships[nextTokenId].addr == address(0)) {... */\n    tag_223:\n        /* \"contracts/ERC721A.sol\":12319:12326  tokenId */\n      dup4\n        /* \"contracts/ERC721A.sol\":12315:12317  to */\n      dup6\n        /* \"contracts/ERC721A.sol\":12300:12327  Transfer(from, to, tokenId) */\n      0xffffffffffffffffffffffffffffffffffffffff\n      and\n        /* \"contracts/ERC721A.sol\":12309:12313  from */\n      dup8\n        /* \"contracts/ERC721A.sol\":12300:12327  Transfer(from, to, tokenId) */\n      0xffffffffffffffffffffffffffffffffffffffff\n      and\n      0xddf252ad1be2c89b69c2b068fc378daa952ba7f163c4a11628f55a4df523b3ef\n      mload(0x40)\n      mload(0x40)\n      dup1\n      swap2\n      sub\n      swap1\n      log4\n        /* \"contracts/ERC721A.sol\":12333:12375  _afterTokenTransfers(from, to, tokenId, 1) */\n      tag_226\n        /* \"contracts/ERC721A.sol\":12354:12358  from */\n      dup7\n        /* \"contracts/ERC721A.sol\":12360:12362  to */\n      dup7\n        /* \"contracts/ERC721A.sol\":12364:12371  tokenId */\n      dup7\n        /* \"contracts/ERC721A.sol\":12373:12374  1 */\n      0x01\n        /* \"contracts/ERC721A.sol\":12333:12353  _afterTokenTransfers */\n      tag_227\n        /* \"contracts/ERC721A.sol\":12333:12375  _afterTokenTransfers(from, to, tokenId, 1) */\n      jump\t// in\n    tag_226:\n        /* \"contracts/ERC721A.sol\":10982:12380  {... */\n      pop\n      pop\n      pop\n        /* \"contracts/ERC721A.sol\":10896:12380  function _transfer(... */\n      pop\n      pop\n      pop\n      jump\t// out\n        /* \"contracts/ERC721A.sol\":5021:5607  function ownershipOf(uint256 tokenId)... */\n    tag_158:\n        /* \"contracts/ERC721A.sol\":5094:5115  TokenOwnership memory */\n      tag_228\n      tag_229\n      jump\t// in\n    tag_228:\n        /* \"contracts/ERC721A.sol\":5133:5149  _exists(tokenId) */\n      tag_231\n        /* \"contracts/ERC721A.sol\":5141:5148  tokenId */\n      dup3\n        /* \"contracts/ERC721A.sol\":5133:5140  _exists */\n      tag_109\n        /* \"contracts/ERC721A.sol\":5133:5149  _exists(tokenId) */\n      jump\t// in\n    tag_231:\n        /* \"contracts/ERC721A.sol\":5125:5196  require(_exists(tokenId), \"ERC721A: owner query for nonexistent token\") */\n      tag_232\n      jumpi\n      mload(0x40)\n      0x08c379a000000000000000000000000000000000000000000000000000000000\n      dup2\n      mstore\n      0x04\n      add\n      tag_233\n      swap1\n      tag_234\n      jump\t// in\n    tag_233:\n      mload(0x40)\n      dup1\n      swap2\n      sub\n      swap1\n      revert\n    tag_232:\n        /* \"contracts/ERC721A.sol\":5203:5229  uint256 lowestTokenToCheck */\n      0x00\n        /* \"contracts/ERC721A.sol\":5250:5262  maxBatchSize */\n      immutable(\"0xe216240695da412145d9df04d3b0c5fca4d43b99b7d0d5386b61bbf0097f7efd\")\n        /* \"contracts/ERC721A.sol\":5239:5246  tokenId */\n      dup4\n        /* \"contracts/ERC721A.sol\":5239:5262  tokenId >= maxBatchSize */\n      lt\n        /* \"contracts/ERC721A.sol\":5235:5326  if (tokenId >= maxBatchSize) {... */\n      tag_235\n      jumpi\n        /* \"contracts/ERC721A.sol\":5318:5319  1 */\n      0x01\n        /* \"contracts/ERC721A.sol\":5303:5315  maxBatchSize */\n      immutable(\"0xe216240695da412145d9df04d3b0c5fca4d43b99b7d0d5386b61bbf0097f7efd\")\n        /* \"contracts/ERC721A.sol\":5293:5300  tokenId */\n      dup5\n        /* \"contracts/ERC721A.sol\":5293:5315  tokenId - maxBatchSize */\n      tag_236\n      swap2\n      swap1\n      tag_237\n      jump\t// in\n    tag_236:\n        /* \"contracts/ERC721A.sol\":5293:5319  tokenId - maxBatchSize + 1 */\n      tag_238\n      swap2\n      swap1\n      tag_222\n      jump\t// in\n    tag_238:\n        /* \"contracts/ERC721A.sol\":5272:5319  lowestTokenToCheck = tokenId - maxBatchSize + 1 */\n      swap1\n      pop\n        /* \"contracts/ERC721A.sol\":5235:5326  if (tokenId >= maxBatchSize) {... */\n    tag_235:\n        /* \"contracts/ERC721A.sol\":5337:5349  uint256 curr */\n      0x00\n        /* \"contracts/ERC721A.sol\":5352:5359  tokenId */\n      dup4\n        /* \"contracts/ERC721A.sol\":5337:5359  uint256 curr = tokenId */\n      swap1\n      pop\n        /* \"contracts/ERC721A.sol\":5332:5539  for (uint256 curr = tokenId; curr >= lowestTokenToCheck; curr--) {... */\n    tag_239:\n        /* \"contracts/ERC721A.sol\":5369:5387  lowestTokenToCheck */\n      dup2\n        /* \"contracts/ERC721A.sol\":5361:5365  curr */\n      dup2\n        /* \"contracts/ERC721A.sol\":5361:5387  curr >= lowestTokenToCheck */\n      lt\n        /* \"contracts/ERC721A.sol\":5332:5539  for (uint256 curr = tokenId; curr >= lowestTokenToCheck; curr--) {... */\n      tag_240\n      jumpi\n        /* \"contracts/ERC721A.sol\":5405:5436  TokenOwnership memory ownership */\n      0x00\n        /* \"contracts/ERC721A.sol\":5439:5450  _ownerships */\n      0x03\n        /* \"contracts/ERC721A.sol\":5439:5456  _ownerships[curr] */\n      0x00\n        /* \"contracts/ERC721A.sol\":5451:5455  curr */\n      dup4\n        /* \"contracts/ERC721A.sol\":5439:5456  _ownerships[curr] */\n      dup2\n      mstore\n      0x20\n      add\n      swap1\n      dup2\n      mstore\n      0x20\n      add\n      0x00\n      keccak256\n        /* \"contracts/ERC721A.sol\":5405:5456  TokenOwnership memory ownership = _ownerships[curr] */\n      mload(0x40)\n      dup1\n      0x40\n      add\n      0x40\n      mstore\n      swap1\n      dup2\n      0x00\n      dup3\n      add\n      0x00\n      swap1\n      sload\n      swap1\n      0x0100\n      exp\n      swap1\n      div\n      0xffffffffffffffffffffffffffffffffffffffff\n      and\n      0xffffffffffffffffffffffffffffffffffffffff\n      and\n      0xffffffffffffffffffffffffffffffffffffffff\n      and\n      dup2\n      mstore\n      0x20\n      add\n      0x00\n      dup3\n      add\n      0x14\n      swap1\n      sload\n      swap1\n      0x0100\n      exp\n      swap1\n      div\n      0xffffffffffffffff\n      and\n      0xffffffffffffffff\n      and\n      0xffffffffffffffff\n      and\n      dup2\n      mstore\n      pop\n      pop\n      swap1\n      pop\n        /* \"contracts/ERC721A.sol\":5494:5495  0 */\n      0x00\n        /* \"contracts/ERC721A.sol\":5468:5496  ownership.addr != address(0) */\n      0xffffffffffffffffffffffffffffffffffffffff\n      and\n        /* \"contracts/ERC721A.sol\":5468:5477  ownership */\n      dup2\n        /* \"contracts/ERC721A.sol\":5468:5482  ownership.addr */\n      0x00\n      add\n      mload\n        /* \"contracts/ERC721A.sol\":5468:5496  ownership.addr != address(0) */\n      0xffffffffffffffffffffffffffffffffffffffff\n      and\n      eq\n        /* \"contracts/ERC721A.sol\":5464:5533  if (ownership.addr != address(0)) {... */\n      tag_242\n      jumpi\n        /* \"contracts/ERC721A.sol\":5515:5524  ownership */\n      dup1\n        /* \"contracts/ERC721A.sol\":5508:5524  return ownership */\n      swap4\n      pop\n      pop\n      pop\n      pop\n      jump(tag_230)\n        /* \"contracts/ERC721A.sol\":5464:5533  if (ownership.addr != address(0)) {... */\n    tag_242:\n        /* \"contracts/ERC721A.sol\":5397:5539  {... */\n      pop\n        /* \"contracts/ERC721A.sol\":5389:5395  curr-- */\n      dup1\n      dup1\n      tag_243\n      swap1\n      tag_244\n      jump\t// in\n    tag_243:\n      swap2\n      pop\n      pop\n        /* \"contracts/ERC721A.sol\":5332:5539  for (uint256 curr = tokenId; curr >= lowestTokenToCheck; curr--) {... */\n      jump(tag_239)\n    tag_240:\n      pop\n        /* \"contracts/ERC721A.sol\":5545:5602  revert(\"ERC721A: unable to determine the owner of token\") */\n      mload(0x40)\n      0x08c379a000000000000000000000000000000000000000000000000000000000\n      dup2\n      mstore\n      0x04\n      add\n      tag_245\n      swap1\n      tag_246\n      jump\t// in\n    tag_245:\n      mload(0x40)\n      dup1\n      swap2\n      sub\n      swap1\n      revert\n        /* \"contracts/ERC721A.sol\":5021:5607  function ownershipOf(uint256 tokenId)... */\n    tag_230:\n      swap2\n      swap1\n      pop\n      jump\t// out\n        /* \"contracts/ERC721A.sol\":14149:14816  function _checkOnERC721Received(... */\n    tag_180:\n        /* \"contracts/ERC721A.sol\":14281:14285  bool */\n      0x00\n        /* \"contracts/ERC721A.sol\":14297:14312  to.isContract() */\n      tag_248\n        /* \"contracts/ERC721A.sol\":14297:14299  to */\n      dup5\n        /* \"contracts/ERC721A.sol\":14297:14310  to.isContract */\n      0xffffffffffffffffffffffffffffffffffffffff\n      and\n      tag_249\n        /* \"contracts/ERC721A.sol\":14297:14312  to.isContract() */\n      jump\t// in\n    tag_248:\n        /* \"contracts/ERC721A.sol\":14293:14812  if (to.isContract()) {... */\n      iszero\n      tag_250\n      jumpi\n        /* \"contracts/ERC721A.sol\":14350:14352  to */\n      dup4\n        /* \"contracts/ERC721A.sol\":14334:14370  IERC721Receiver(to).onERC721Received */\n      0xffffffffffffffffffffffffffffffffffffffff\n      and\n      0x150b7a02\n        /* \"contracts/ERC721A.sol\":14371:14383  _msgSender() */\n      tag_251\n        /* \"contracts/ERC721A.sol\":14371:14381  _msgSender */\n      tag_119\n        /* \"contracts/ERC721A.sol\":14371:14383  _msgSender() */\n      jump\t// in\n    tag_251:\n        /* \"contracts/ERC721A.sol\":14385:14389  from */\n      dup8\n        /* \"contracts/ERC721A.sol\":14391:14398  tokenId */\n      dup7\n        /* \"contracts/ERC721A.sol\":14400:14405  _data */\n      dup7\n        /* \"contracts/ERC721A.sol\":14334:14406  IERC721Receiver(to).onERC721Received(_msgSender(), from, tokenId, _data) */\n      mload(0x40)\n      dup6\n      0xffffffff\n      and\n      0xe0\n      shl\n      dup2\n      mstore\n      0x04\n      add\n      tag_252\n      swap5\n      swap4\n      swap3\n      swap2\n      swap1\n      tag_253\n      jump\t// in\n    tag_252:\n      0x20\n      mload(0x40)\n      dup1\n      dup4\n      sub\n      dup2\n      0x00\n      dup8\n      dup1\n      extcodesize\n      iszero\n      dup1\n      iszero\n      tag_254\n      jumpi\n      0x00\n      dup1\n      revert\n    tag_254:\n      pop\n      gas\n      call\n      swap3\n      pop\n      pop\n      pop\n      dup1\n      iszero\n      tag_255\n      jumpi\n      pop\n      mload(0x40)\n      returndatasize\n      not(0x1f)\n      0x1f\n      dup3\n      add\n      and\n      dup3\n      add\n      dup1\n      0x40\n      mstore\n      pop\n      dup2\n      add\n      swap1\n      tag_256\n      swap2\n      swap1\n      tag_257\n      jump\t// in\n    tag_256:\n      0x01\n    tag_255:\n        /* \"contracts/ERC721A.sol\":14322:14774  try... */\n      tag_258\n      jumpi\n      returndatasize\n      dup1\n      0x00\n      dup2\n      eq\n      tag_263\n      jumpi\n      mload(0x40)\n      swap2\n      pop\n      and(add(returndatasize, 0x3f), not(0x1f))\n      dup3\n      add\n      0x40\n      mstore\n      returndatasize\n      dup3\n      mstore\n      returndatasize\n      0x00\n      0x20\n      dup5\n      add\n      returndatacopy\n      jump(tag_262)\n    tag_263:\n      0x60\n      swap2\n      pop\n    tag_262:\n      pop\n        /* \"contracts/ERC721A.sol\":14578:14579  0 */\n      0x00\n        /* \"contracts/ERC721A.sol\":14561:14567  reason */\n      dup2\n        /* \"contracts/ERC721A.sol\":14561:14574  reason.length */\n      mload\n        /* \"contracts/ERC721A.sol\":14561:14579  reason.length == 0 */\n      eq\n        /* \"contracts/ERC721A.sol\":14557:14766  if (reason.length == 0) {... */\n      iszero\n      tag_264\n      jumpi\n        /* \"contracts/ERC721A.sol\":14593:14654  revert(\"ERC721A: transfer to non ERC721Receiver implementer\") */\n      mload(0x40)\n      0x08c379a000000000000000000000000000000000000000000000000000000000\n      dup2\n      mstore\n      0x04\n      add\n      tag_265\n      swap1\n      tag_183\n      jump\t// in\n    tag_265:\n      mload(0x40)\n      dup1\n      swap2\n      sub\n      swap1\n      revert\n        /* \"contracts/ERC721A.sol\":14557:14766  if (reason.length == 0) {... */\n    tag_264:\n        /* \"contracts/ERC721A.sol\":14736:14742  reason */\n      dup1\n        /* \"contracts/ERC721A.sol\":14730:14743  mload(reason) */\n      mload\n        /* \"contracts/ERC721A.sol\":14721:14727  reason */\n      dup2\n        /* \"contracts/ERC721A.sol\":14717:14719  32 */\n      0x20\n        /* \"contracts/ERC721A.sol\":14713:14728  add(32, reason) */\n      add\n        /* \"contracts/ERC721A.sol\":14706:14744  revert(add(32, reason), mload(reason)) */\n      revert\n        /* \"contracts/ERC721A.sol\":14322:14774  try... */\n    tag_258:\n        /* \"contracts/ERC721A.sol\":14464:14509  IERC721Receiver(to).onERC721Received.selector */\n      shl(0xe0, 0x150b7a02)\n        /* \"contracts/ERC721A.sol\":14454:14509  retval == IERC721Receiver(to).onERC721Received.selector */\n      not(0xffffffffffffffffffffffffffffffffffffffffffffffffffffffff)\n      and\n        /* \"contracts/ERC721A.sol\":14454:14460  retval */\n      dup2\n        /* \"contracts/ERC721A.sol\":14454:14509  retval == IERC721Receiver(to).onERC721Received.selector */\n      not(0xffffffffffffffffffffffffffffffffffffffffffffffffffffffff)\n      and\n      eq\n        /* \"contracts/ERC721A.sol\":14447:14509  return retval == IERC721Receiver(to).onERC721Received.selector */\n      swap2\n      pop\n      pop\n      jump(tag_247)\n        /* \"contracts/ERC721A.sol\":14293:14812  if (to.isContract()) {... */\n    tag_250:\n        /* \"contracts/ERC721A.sol\":14801:14805  true */\n      0x01\n        /* \"contracts/ERC721A.sol\":14794:14805  return true */\n      swap1\n      pop\n        /* \"contracts/ERC721A.sol\":14149:14816  function _checkOnERC721Received(... */\n    tag_247:\n      swap5\n      swap4\n      pop\n      pop\n      pop\n      pop\n      jump\t// out\n        /* \"contracts/ERC721A.sol\":6600:6686  function _baseURI() internal view virtual returns (string memory) {... */\n    tag_190:\n        /* \"contracts/ERC721A.sol\":6651:6664  string memory */\n      0x60\n        /* \"contracts/ERC721A.sol\":6672:6681  return \"\" */\n      mload(0x40)\n      dup1\n      0x20\n      add\n      0x40\n      mstore\n      dup1\n      0x00\n      dup2\n      mstore\n      pop\n      swap1\n      pop\n        /* \"contracts/ERC721A.sol\":6600:6686  function _baseURI() internal view virtual returns (string memory) {... */\n      swap1\n      jump\t// out\n        /* \"contracts/ERC721A.sol\":15264:15400  function _beforeTokenTransfers(... */\n    tag_215:\n      pop\n      pop\n      pop\n      pop\n      jump\t// out\n        /* \"contracts/ERC721A.sol\":15772:15907  function _afterTokenTransfers(... */\n    tag_227:\n      pop\n      pop\n      pop\n      pop\n      jump\t// out\n        /* \"@openzeppelin/contracts@4.3.3/utils/Address.sol\":718:1095  function isContract(address account) internal view returns (bool) {... */\n    tag_249:\n        /* \"@openzeppelin/contracts@4.3.3/utils/Address.sol\":778:782  bool */\n      0x00\n        /* \"@openzeppelin/contracts@4.3.3/utils/Address.sol\":981:993  uint256 size */\n      dup1\n        /* \"@openzeppelin/contracts@4.3.3/utils/Address.sol\":1046:1053  account */\n      dup3\n        /* \"@openzeppelin/contracts@4.3.3/utils/Address.sol\":1034:1054  extcodesize(account) */\n      extcodesize\n        /* \"@openzeppelin/contracts@4.3.3/utils/Address.sol\":1026:1054  size := extcodesize(account) */\n      swap1\n      pop\n        /* \"@openzeppelin/contracts@4.3.3/utils/Address.sol\":1087:1088  0 */\n      0x00\n        /* \"@openzeppelin/contracts@4.3.3/utils/Address.sol\":1080:1084  size */\n      dup2\n        /* \"@openzeppelin/contracts@4.3.3/utils/Address.sol\":1080:1088  size > 0 */\n      gt\n        /* \"@openzeppelin/contracts@4.3.3/utils/Address.sol\":1073:1088  return size > 0 */\n      swap2\n      pop\n      pop\n        /* \"@openzeppelin/contracts@4.3.3/utils/Address.sol\":718:1095  function isContract(address account) internal view returns (bool) {... */\n      swap2\n      swap1\n      pop\n      jump\t// out\n    tag_229:\n      mload(0x40)\n      dup1\n      0x40\n      add\n      0x40\n      mstore\n      dup1\n      and(0xffffffffffffffffffffffffffffffffffffffff, 0x00)\n      dup2\n      mstore\n      0x20\n      add\n      and(0xffffffffffffffff, 0x00)\n      dup2\n      mstore\n      pop\n      swap1\n      jump\t// out\n        /* \"#utility.yul\":7:417   */\n    tag_274:\n        /* \"#utility.yul\":84:89   */\n      0x00\n        /* \"#utility.yul\":109:174   */\n      tag_276\n        /* \"#utility.yul\":125:173   */\n      tag_277\n        /* \"#utility.yul\":166:172   */\n      dup5\n        /* \"#utility.yul\":125:173   */\n      tag_278\n      jump\t// in\n    tag_277:\n        /* \"#utility.yul\":109:174   */\n      tag_279\n      jump\t// in\n    tag_276:\n        /* \"#utility.yul\":100:174   */\n      swap1\n      pop\n        /* \"#utility.yul\":197:203   */\n      dup3\n        /* \"#utility.yul\":190:195   */\n      dup2\n        /* \"#utility.yul\":183:204   */\n      mstore\n        /* \"#utility.yul\":235:239   */\n      0x20\n        /* \"#utility.yul\":228:233   */\n      dup2\n        /* \"#utility.yul\":224:240   */\n      add\n        /* \"#utility.yul\":273:276   */\n      dup5\n        /* \"#utility.yul\":264:270   */\n      dup5\n        /* \"#utility.yul\":259:262   */\n      dup5\n        /* \"#utility.yul\":255:271   */\n      add\n        /* \"#utility.yul\":252:277   */\n      gt\n        /* \"#utility.yul\":249:361   */\n      iszero\n      tag_280\n      jumpi\n        /* \"#utility.yul\":280:359   */\n      tag_281\n      tag_282\n      jump\t// in\n    tag_281:\n        /* \"#utility.yul\":249:361   */\n    tag_280:\n        /* \"#utility.yul\":370:411   */\n      tag_283\n        /* \"#utility.yul\":404:410   */\n      dup5\n        /* \"#utility.yul\":399:402   */\n      dup3\n        /* \"#utility.yul\":394:397   */\n      dup6\n        /* \"#utility.yul\":370:411   */\n      tag_284\n      jump\t// in\n    tag_283:\n        /* \"#utility.yul\":90:417   */\n      pop\n        /* \"#utility.yul\":7:417   */\n      swap4\n      swap3\n      pop\n      pop\n      pop\n      jump\t// out\n        /* \"#utility.yul\":423:562   */\n    tag_285:\n        /* \"#utility.yul\":469:474   */\n      0x00\n        /* \"#utility.yul\":507:513   */\n      dup2\n        /* \"#utility.yul\":494:514   */\n      calldataload\n        /* \"#utility.yul\":485:514   */\n      swap1\n      pop\n        /* \"#utility.yul\":523:556   */\n      tag_287\n        /* \"#utility.yul\":550:555   */\n      dup2\n        /* \"#utility.yul\":523:556   */\n      tag_288\n      jump\t// in\n    tag_287:\n        /* \"#utility.yul\":423:562   */\n      swap3\n      swap2\n      pop\n      pop\n      jump\t// out\n        /* \"#utility.yul\":568:701   */\n    tag_289:\n        /* \"#utility.yul\":611:616   */\n      0x00\n        /* \"#utility.yul\":649:655   */\n      dup2\n        /* \"#utility.yul\":636:656   */\n      calldataload\n        /* \"#utility.yul\":627:656   */\n      swap1\n      pop\n        /* \"#utility.yul\":665:695   */\n      tag_291\n        /* \"#utility.yul\":689:694   */\n      dup2\n        /* \"#utility.yul\":665:695   */\n      tag_292\n      jump\t// in\n    tag_291:\n        /* \"#utility.yul\":568:701   */\n      swap3\n      swap2\n      pop\n      pop\n      jump\t// out\n        /* \"#utility.yul\":707:844   */\n    tag_293:\n        /* \"#utility.yul\":752:757   */\n      0x00\n        /* \"#utility.yul\":790:796   */\n      dup2\n        /* \"#utility.yul\":777:797   */\n      calldataload\n        /* \"#utility.yul\":768:797   */\n      swap1\n      pop\n        /* \"#utility.yul\":806:838   */\n      tag_295\n        /* \"#utility.yul\":832:837   */\n      dup2\n        /* \"#utility.yul\":806:838   */\n      tag_296\n      jump\t// in\n    tag_295:\n        /* \"#utility.yul\":707:844   */\n      swap3\n      swap2\n      pop\n      pop\n      jump\t// out\n        /* \"#utility.yul\":850:991   */\n    tag_297:\n        /* \"#utility.yul\":906:911   */\n      0x00\n        /* \"#utility.yul\":937:943   */\n      dup2\n        /* \"#utility.yul\":931:944   */\n      mload\n        /* \"#utility.yul\":922:944   */\n      swap1\n      pop\n        /* \"#utility.yul\":953:985   */\n      tag_299\n        /* \"#utility.yul\":979:984   */\n      dup2\n        /* \"#utility.yul\":953:985   */\n      tag_296\n      jump\t// in\n    tag_299:\n        /* \"#utility.yul\":850:991   */\n      swap3\n      swap2\n      pop\n      pop\n      jump\t// out\n        /* \"#utility.yul\":1010:1348   */\n    tag_300:\n        /* \"#utility.yul\":1065:1070   */\n      0x00\n        /* \"#utility.yul\":1114:1117   */\n      dup3\n        /* \"#utility.yul\":1107:1111   */\n      0x1f\n        /* \"#utility.yul\":1099:1105   */\n      dup4\n        /* \"#utility.yul\":1095:1112   */\n      add\n        /* \"#utility.yul\":1091:1118   */\n      slt\n        /* \"#utility.yul\":1081:1203   */\n      tag_302\n      jumpi\n        /* \"#utility.yul\":1122:1201   */\n      tag_303\n      tag_304\n      jump\t// in\n    tag_303:\n        /* \"#utility.yul\":1081:1203   */\n    tag_302:\n        /* \"#utility.yul\":1239:1245   */\n      dup2\n        /* \"#utility.yul\":1226:1246   */\n      calldataload\n        /* \"#utility.yul\":1264:1342   */\n      tag_305\n        /* \"#utility.yul\":1338:1341   */\n      dup5\n        /* \"#utility.yul\":1330:1336   */\n      dup3\n        /* \"#utility.yul\":1323:1327   */\n      0x20\n        /* \"#utility.yul\":1315:1321   */\n      dup7\n        /* \"#utility.yul\":1311:1328   */\n      add\n        /* \"#utility.yul\":1264:1342   */\n      tag_274\n      jump\t// in\n    tag_305:\n        /* \"#utility.yul\":1255:1342   */\n      swap2\n      pop\n        /* \"#utility.yul\":1071:1348   */\n      pop\n        /* \"#utility.yul\":1010:1348   */\n      swap3\n      swap2\n      pop\n      pop\n      jump\t// out\n        /* \"#utility.yul\":1354:1493   */\n    tag_306:\n        /* \"#utility.yul\":1400:1405   */\n      0x00\n        /* \"#utility.yul\":1438:1444   */\n      dup2\n        /* \"#utility.yul\":1425:1445   */\n      calldataload\n        /* \"#utility.yul\":1416:1445   */\n      swap1\n      pop\n        /* \"#utility.yul\":1454:1487   */\n      tag_308\n        /* \"#utility.yul\":1481:1486   */\n      dup2\n        /* \"#utility.yul\":1454:1487   */\n      tag_309\n      jump\t// in\n    tag_308:\n        /* \"#utility.yul\":1354:1493   */\n      swap3\n      swap2\n      pop\n      pop\n      jump\t// out\n        /* \"#utility.yul\":1499:1828   */\n    tag_68:\n        /* \"#utility.yul\":1558:1564   */\n      0x00\n        /* \"#utility.yul\":1607:1609   */\n      0x20\n        /* \"#utility.yul\":1595:1604   */\n      dup3\n        /* \"#utility.yul\":1586:1593   */\n      dup5\n        /* \"#utility.yul\":1582:1605   */\n      sub\n        /* \"#utility.yul\":1578:1610   */\n      slt\n        /* \"#utility.yul\":1575:1694   */\n      iszero\n      tag_311\n      jumpi\n        /* \"#utility.yul\":1613:1692   */\n      tag_312\n      tag_313\n      jump\t// in\n    tag_312:\n        /* \"#utility.yul\":1575:1694   */\n    tag_311:\n        /* \"#utility.yul\":1733:1734   */\n      0x00\n        /* \"#utility.yul\":1758:1811   */\n      tag_314\n        /* \"#utility.yul\":1803:1810   */\n      dup5\n        /* \"#utility.yul\":1794:1800   */\n      dup3\n        /* \"#utility.yul\":1783:1792   */\n      dup6\n        /* \"#utility.yul\":1779:1801   */\n      add\n        /* \"#utility.yul\":1758:1811   */\n      tag_285\n      jump\t// in\n    tag_314:\n        /* \"#utility.yul\":1748:1811   */\n      swap2\n      pop\n        /* \"#utility.yul\":1704:1821   */\n      pop\n        /* \"#utility.yul\":1499:1828   */\n      swap3\n      swap2\n      pop\n      pop\n      jump\t// out\n        /* \"#utility.yul\":1834:2308   */\n    tag_91:\n        /* \"#utility.yul\":1902:1908   */\n      0x00\n        /* \"#utility.yul\":1910:1916   */\n      dup1\n        /* \"#utility.yul\":1959:1961   */\n      0x40\n        /* \"#utility.yul\":1947:1956   */\n      dup4\n        /* \"#utility.yul\":1938:1945   */\n      dup6\n        /* \"#utility.yul\":1934:1957   */\n      sub\n        /* \"#utility.yul\":1930:1962   */\n      slt\n        /* \"#utility.yul\":1927:2046   */\n      iszero\n      tag_316\n      jumpi\n        /* \"#utility.yul\":1965:2044   */\n      tag_317\n      tag_313\n      jump\t// in\n    tag_317:\n        /* \"#utility.yul\":1927:2046   */\n    tag_316:\n        /* \"#utility.yul\":2085:2086   */\n      0x00\n        /* \"#utility.yul\":2110:2163   */\n      tag_318\n        /* \"#utility.yul\":2155:2162   */\n      dup6\n        /* \"#utility.yul\":2146:2152   */\n      dup3\n        /* \"#utility.yul\":2135:2144   */\n      dup7\n        /* \"#utility.yul\":2131:2153   */\n      add\n        /* \"#utility.yul\":2110:2163   */\n      tag_285\n      jump\t// in\n    tag_318:\n        /* \"#utility.yul\":2100:2163   */\n      swap3\n      pop\n        /* \"#utility.yul\":2056:2173   */\n      pop\n        /* \"#utility.yul\":2212:2214   */\n      0x20\n        /* \"#utility.yul\":2238:2291   */\n      tag_319\n        /* \"#utility.yul\":2283:2290   */\n      dup6\n        /* \"#utility.yul\":2274:2280   */\n      dup3\n        /* \"#utility.yul\":2263:2272   */\n      dup7\n        /* \"#utility.yul\":2259:2281   */\n      add\n        /* \"#utility.yul\":2238:2291   */\n      tag_285\n      jump\t// in\n    tag_319:\n        /* \"#utility.yul\":2228:2291   */\n      swap2\n      pop\n        /* \"#utility.yul\":2183:2301   */\n      pop\n        /* \"#utility.yul\":1834:2308   */\n      swap3\n      pop\n      swap3\n      swap1\n      pop\n      jump\t// out\n        /* \"#utility.yul\":2314:2933   */\n    tag_49:\n        /* \"#utility.yul\":2391:2397   */\n      0x00\n        /* \"#utility.yul\":2399:2405   */\n      dup1\n        /* \"#utility.yul\":2407:2413   */\n      0x00\n        /* \"#utility.yul\":2456:2458   */\n      0x60\n        /* \"#utility.yul\":2444:2453   */\n      dup5\n        /* \"#utility.yul\":2435:2442   */\n      dup7\n        /* \"#utility.yul\":2431:2454   */\n      sub\n        /* \"#utility.yul\":2427:2459   */\n      slt\n        /* \"#utility.yul\":2424:2543   */\n      iszero\n      tag_321\n      jumpi\n        /* \"#utility.yul\":2462:2541   */\n      tag_322\n      tag_313\n      jump\t// in\n    tag_322:\n        /* \"#utility.yul\":2424:2543   */\n    tag_321:\n        /* \"#utility.yul\":2582:2583   */\n      0x00\n        /* \"#utility.yul\":2607:2660   */\n      tag_323\n        /* \"#utility.yul\":2652:2659   */\n      dup7\n        /* \"#utility.yul\":2643:2649   */\n      dup3\n        /* \"#utility.yul\":2632:2641   */\n      dup8\n        /* \"#utility.yul\":2628:2650   */\n      add\n        /* \"#utility.yul\":2607:2660   */\n      tag_285\n      jump\t// in\n    tag_323:\n        /* \"#utility.yul\":2597:2660   */\n      swap4\n      pop\n        /* \"#utility.yul\":2553:2670   */\n      pop\n        /* \"#utility.yul\":2709:2711   */\n      0x20\n        /* \"#utility.yul\":2735:2788   */\n      tag_324\n        /* \"#utility.yul\":2780:2787   */\n      dup7\n        /* \"#utility.yul\":2771:2777   */\n      dup3\n        /* \"#utility.yul\":2760:2769   */\n      dup8\n        /* \"#utility.yul\":2756:2778   */\n      add\n        /* \"#utility.yul\":2735:2788   */\n      tag_285\n      jump\t// in\n    tag_324:\n        /* \"#utility.yul\":2725:2788   */\n      swap3\n      pop\n        /* \"#utility.yul\":2680:2798   */\n      pop\n        /* \"#utility.yul\":2837:2839   */\n      0x40\n        /* \"#utility.yul\":2863:2916   */\n      tag_325\n        /* \"#utility.yul\":2908:2915   */\n      dup7\n        /* \"#utility.yul\":2899:2905   */\n      dup3\n        /* \"#utility.yul\":2888:2897   */\n      dup8\n        /* \"#utility.yul\":2884:2906   */\n      add\n        /* \"#utility.yul\":2863:2916   */\n      tag_306\n      jump\t// in\n    tag_325:\n        /* \"#utility.yul\":2853:2916   */\n      swap2\n      pop\n        /* \"#utility.yul\":2808:2926   */\n      pop\n        /* \"#utility.yul\":2314:2933   */\n      swap3\n      pop\n      swap3\n      pop\n      swap3\n      jump\t// out\n        /* \"#utility.yul\":2939:3882   */\n    tag_80:\n        /* \"#utility.yul\":3034:3040   */\n      0x00\n        /* \"#utility.yul\":3042:3048   */\n      dup1\n        /* \"#utility.yul\":3050:3056   */\n      0x00\n        /* \"#utility.yul\":3058:3064   */\n      dup1\n        /* \"#utility.yul\":3107:3110   */\n      0x80\n        /* \"#utility.yul\":3095:3104   */\n      dup6\n        /* \"#utility.yul\":3086:3093   */\n      dup8\n        /* \"#utility.yul\":3082:3105   */\n      sub\n        /* \"#utility.yul\":3078:3111   */\n      slt\n        /* \"#utility.yul\":3075:3195   */\n      iszero\n      tag_327\n      jumpi\n        /* \"#utility.yul\":3114:3193   */\n      tag_328\n      tag_313\n      jump\t// in\n    tag_328:\n        /* \"#utility.yul\":3075:3195   */\n    tag_327:\n        /* \"#utility.yul\":3234:3235   */\n      0x00\n        /* \"#utility.yul\":3259:3312   */\n      tag_329\n        /* \"#utility.yul\":3304:3311   */\n      dup8\n        /* \"#utility.yul\":3295:3301   */\n      dup3\n        /* \"#utility.yul\":3284:3293   */\n      dup9\n        /* \"#utility.yul\":3280:3302   */\n      add\n        /* \"#utility.yul\":3259:3312   */\n      tag_285\n      jump\t// in\n    tag_329:\n        /* \"#utility.yul\":3249:3312   */\n      swap5\n      pop\n        /* \"#utility.yul\":3205:3322   */\n      pop\n        /* \"#utility.yul\":3361:3363   */\n      0x20\n        /* \"#utility.yul\":3387:3440   */\n      tag_330\n        /* \"#utility.yul\":3432:3439   */\n      dup8\n        /* \"#utility.yul\":3423:3429   */\n      dup3\n        /* \"#utility.yul\":3412:3421   */\n      dup9\n        /* \"#utility.yul\":3408:3430   */\n      add\n        /* \"#utility.yul\":3387:3440   */\n      tag_285\n      jump\t// in\n    tag_330:\n        /* \"#utility.yul\":3377:3440   */\n      swap4\n      pop\n        /* \"#utility.yul\":3332:3450   */\n      pop\n        /* \"#utility.yul\":3489:3491   */\n      0x40\n        /* \"#utility.yul\":3515:3568   */\n      tag_331\n        /* \"#utility.yul\":3560:3567   */\n      dup8\n        /* \"#utility.yul\":3551:3557   */\n      dup3\n        /* \"#utility.yul\":3540:3549   */\n      dup9\n        /* \"#utility.yul\":3536:3558   */\n      add\n        /* \"#utility.yul\":3515:3568   */\n      tag_306\n      jump\t// in\n    tag_331:\n        /* \"#utility.yul\":3505:3568   */\n      swap3\n      pop\n        /* \"#utility.yul\":3460:3578   */\n      pop\n        /* \"#utility.yul\":3645:3647   */\n      0x60\n        /* \"#utility.yul\":3634:3643   */\n      dup6\n        /* \"#utility.yul\":3630:3648   */\n      add\n        /* \"#utility.yul\":3617:3649   */\n      calldataload\n        /* \"#utility.yul\":3676:3694   */\n      0xffffffffffffffff\n        /* \"#utility.yul\":3668:3674   */\n      dup2\n        /* \"#utility.yul\":3665:3695   */\n      gt\n        /* \"#utility.yul\":3662:3779   */\n      iszero\n      tag_332\n      jumpi\n        /* \"#utility.yul\":3698:3777   */\n      tag_333\n      tag_334\n      jump\t// in\n    tag_333:\n        /* \"#utility.yul\":3662:3779   */\n    tag_332:\n        /* \"#utility.yul\":3803:3865   */\n      tag_335\n        /* \"#utility.yul\":3857:3864   */\n      dup8\n        /* \"#utility.yul\":3848:3854   */\n      dup3\n        /* \"#utility.yul\":3837:3846   */\n      dup9\n        /* \"#utility.yul\":3833:3855   */\n      add\n        /* \"#utility.yul\":3803:3865   */\n      tag_300\n      jump\t// in\n    tag_335:\n        /* \"#utility.yul\":3793:3865   */\n      swap2\n      pop\n        /* \"#utility.yul\":3588:3875   */\n      pop\n        /* \"#utility.yul\":2939:3882   */\n      swap3\n      swap6\n      swap2\n      swap5\n      pop\n      swap3\n      pop\n      jump\t// out\n        /* \"#utility.yul\":3888:4356   */\n    tag_76:\n        /* \"#utility.yul\":3953:3959   */\n      0x00\n        /* \"#utility.yul\":3961:3967   */\n      dup1\n        /* \"#utility.yul\":4010:4012   */\n      0x40\n        /* \"#utility.yul\":3998:4007   */\n      dup4\n        /* \"#utility.yul\":3989:3996   */\n      dup6\n        /* \"#utility.yul\":3985:4008   */\n      sub\n        /* \"#utility.yul\":3981:4013   */\n      slt\n        /* \"#utility.yul\":3978:4097   */\n      iszero\n      tag_337\n      jumpi\n        /* \"#utility.yul\":4016:4095   */\n      tag_338\n      tag_313\n      jump\t// in\n    tag_338:\n        /* \"#utility.yul\":3978:4097   */\n    tag_337:\n        /* \"#utility.yul\":4136:4137   */\n      0x00\n        /* \"#utility.yul\":4161:4214   */\n      tag_339\n        /* \"#utility.yul\":4206:4213   */\n      dup6\n        /* \"#utility.yul\":4197:4203   */\n      dup3\n        /* \"#utility.yul\":4186:4195   */\n      dup7\n        /* \"#utility.yul\":4182:4204   */\n      add\n        /* \"#utility.yul\":4161:4214   */\n      tag_285\n      jump\t// in\n    tag_339:\n        /* \"#utility.yul\":4151:4214   */\n      swap3\n      pop\n        /* \"#utility.yul\":4107:4224   */\n      pop\n        /* \"#utility.yul\":4263:4265   */\n      0x20\n        /* \"#utility.yul\":4289:4339   */\n      tag_340\n        /* \"#utility.yul\":4331:4338   */\n      dup6\n        /* \"#utility.yul\":4322:4328   */\n      dup3\n        /* \"#utility.yul\":4311:4320   */\n      dup7\n        /* \"#utility.yul\":4307:4329   */\n      add\n        /* \"#utility.yul\":4289:4339   */\n      tag_289\n      jump\t// in\n    tag_340:\n        /* \"#utility.yul\":4279:4339   */\n      swap2\n      pop\n        /* \"#utility.yul\":4234:4349   */\n      pop\n        /* \"#utility.yul\":3888:4356   */\n      swap3\n      pop\n      swap3\n      swap1\n      pop\n      jump\t// out\n        /* \"#utility.yul\":4362:4836   */\n    tag_41:\n        /* \"#utility.yul\":4430:4436   */\n      0x00\n        /* \"#utility.yul\":4438:4444   */\n      dup1\n        /* \"#utility.yul\":4487:4489   */\n      0x40\n        /* \"#utility.yul\":4475:4484   */\n      dup4\n        /* \"#utility.yul\":4466:4473   */\n      dup6\n        /* \"#utility.yul\":4462:4485   */\n      sub\n        /* \"#utility.yul\":4458:4490   */\n      slt\n        /* \"#utility.yul\":4455:4574   */\n      iszero\n      tag_342\n      jumpi\n        /* \"#utility.yul\":4493:4572   */\n      tag_343\n      tag_313\n      jump\t// in\n    tag_343:\n        /* \"#utility.yul\":4455:4574   */\n    tag_342:\n        /* \"#utility.yul\":4613:4614   */\n      0x00\n        /* \"#utility.yul\":4638:4691   */\n      tag_344\n        /* \"#utility.yul\":4683:4690   */\n      dup6\n        /* \"#utility.yul\":4674:4680   */\n      dup3\n        /* \"#utility.yul\":4663:4672   */\n      dup7\n        /* \"#utility.yul\":4659:4681   */\n      add\n        /* \"#utility.yul\":4638:4691   */\n      tag_285\n      jump\t// in\n    tag_344:\n        /* \"#utility.yul\":4628:4691   */\n      swap3\n      pop\n        /* \"#utility.yul\":4584:4701   */\n      pop\n        /* \"#utility.yul\":4740:4742   */\n      0x20\n        /* \"#utility.yul\":4766:4819   */\n      tag_345\n        /* \"#utility.yul\":4811:4818   */\n      dup6\n        /* \"#utility.yul\":4802:4808   */\n      dup3\n        /* \"#utility.yul\":4791:4800   */\n      dup7\n        /* \"#utility.yul\":4787:4809   */\n      add\n        /* \"#utility.yul\":4766:4819   */\n      tag_306\n      jump\t// in\n    tag_345:\n        /* \"#utility.yul\":4756:4819   */\n      swap2\n      pop\n        /* \"#utility.yul\":4711:4829   */\n      pop\n        /* \"#utility.yul\":4362:4836   */\n      swap3\n      pop\n      swap3\n      swap1\n      pop\n      jump\t// out\n        /* \"#utility.yul\":4842:5169   */\n    tag_25:\n        /* \"#utility.yul\":4900:4906   */\n      0x00\n        /* \"#utility.yul\":4949:4951   */\n      0x20\n        /* \"#utility.yul\":4937:4946   */\n      dup3\n        /* \"#utility.yul\":4928:4935   */\n      dup5\n        /* \"#utility.yul\":4924:4947   */\n      sub\n        /* \"#utility.yul\":4920:4952   */\n      slt\n        /* \"#utility.yul\":4917:5036   */\n      iszero\n      tag_347\n      jumpi\n        /* \"#utility.yul\":4955:5034   */\n      tag_348\n      tag_313\n      jump\t// in\n    tag_348:\n        /* \"#utility.yul\":4917:5036   */\n    tag_347:\n        /* \"#utility.yul\":5075:5076   */\n      0x00\n        /* \"#utility.yul\":5100:5152   */\n      tag_349\n        /* \"#utility.yul\":5144:5151   */\n      dup5\n        /* \"#utility.yul\":5135:5141   */\n      dup3\n        /* \"#utility.yul\":5124:5133   */\n      dup6\n        /* \"#utility.yul\":5120:5142   */\n      add\n        /* \"#utility.yul\":5100:5152   */\n      tag_293\n      jump\t// in\n    tag_349:\n        /* \"#utility.yul\":5090:5152   */\n      swap2\n      pop\n        /* \"#utility.yul\":5046:5162   */\n      pop\n        /* \"#utility.yul\":4842:5169   */\n      swap3\n      swap2\n      pop\n      pop\n      jump\t// out\n        /* \"#utility.yul\":5175:5524   */\n    tag_257:\n        /* \"#utility.yul\":5244:5250   */\n      0x00\n        /* \"#utility.yul\":5293:5295   */\n      0x20\n        /* \"#utility.yul\":5281:5290   */\n      dup3\n        /* \"#utility.yul\":5272:5279   */\n      dup5\n        /* \"#utility.yul\":5268:5291   */\n      sub\n        /* \"#utility.yul\":5264:5296   */\n      slt\n        /* \"#utility.yul\":5261:5380   */\n      iszero\n      tag_351\n      jumpi\n        /* \"#utility.yul\":5299:5378   */\n      tag_352\n      tag_313\n      jump\t// in\n    tag_352:\n        /* \"#utility.yul\":5261:5380   */\n    tag_351:\n        /* \"#utility.yul\":5419:5420   */\n      0x00\n        /* \"#utility.yul\":5444:5507   */\n      tag_353\n        /* \"#utility.yul\":5499:5506   */\n      dup5\n        /* \"#utility.yul\":5490:5496   */\n      dup3\n        /* \"#utility.yul\":5479:5488   */\n      dup6\n        /* \"#utility.yul\":5475:5497   */\n      add\n        /* \"#utility.yul\":5444:5507   */\n      tag_297\n      jump\t// in\n    tag_353:\n        /* \"#utility.yul\":5434:5507   */\n      swap2\n      pop\n        /* \"#utility.yul\":5390:5517   */\n      pop\n        /* \"#utility.yul\":5175:5524   */\n      swap3\n      swap2\n      pop\n      pop\n      jump\t// out\n        /* \"#utility.yul\":5530:5859   */\n    tag_35:\n        /* \"#utility.yul\":5589:5595   */\n      0x00\n        /* \"#utility.yul\":5638:5640   */\n      0x20\n        /* \"#utility.yul\":5626:5635   */\n      dup3\n        /* \"#utility.yul\":5617:5624   */\n      dup5\n        /* \"#utility.yul\":5613:5636   */\n      sub\n        /* \"#utility.yul\":5609:5641   */\n      slt\n        /* \"#utility.yul\":5606:5725   */\n      iszero\n      tag_355\n      jumpi\n        /* \"#utility.yul\":5644:5723   */\n      tag_356\n      tag_313\n      jump\t// in\n    tag_356:\n        /* \"#utility.yul\":5606:5725   */\n    tag_355:\n        /* \"#utility.yul\":5764:5765   */\n      0x00\n        /* \"#utility.yul\":5789:5842   */\n      tag_357\n        /* \"#utility.yul\":5834:5841   */\n      dup5\n        /* \"#utility.yul\":5825:5831   */\n      dup3\n        /* \"#utility.yul\":5814:5823   */\n      dup6\n        /* \"#utility.yul\":5810:5832   */\n      add\n        /* \"#utility.yul\":5789:5842   */\n      tag_306\n      jump\t// in\n    tag_357:\n        /* \"#utility.yul\":5779:5842   */\n      swap2\n      pop\n        /* \"#utility.yul\":5735:5852   */\n      pop\n        /* \"#utility.yul\":5530:5859   */\n      swap3\n      swap2\n      pop\n      pop\n      jump\t// out\n        /* \"#utility.yul\":5865:5983   */\n    tag_358:\n        /* \"#utility.yul\":5952:5976   */\n      tag_360\n        /* \"#utility.yul\":5970:5975   */\n      dup2\n        /* \"#utility.yul\":5952:5976   */\n      tag_361\n      jump\t// in\n    tag_360:\n        /* \"#utility.yul\":5947:5950   */\n      dup3\n        /* \"#utility.yul\":5940:5977   */\n      mstore\n        /* \"#utility.yul\":5865:5983   */\n      pop\n      pop\n      jump\t// out\n        /* \"#utility.yul\":5989:6098   */\n    tag_362:\n        /* \"#utility.yul\":6070:6091   */\n      tag_364\n        /* \"#utility.yul\":6085:6090   */\n      dup2\n        /* \"#utility.yul\":6070:6091   */\n      tag_365\n      jump\t// in\n    tag_364:\n        /* \"#utility.yul\":6065:6068   */\n      dup3\n        /* \"#utility.yul\":6058:6092   */\n      mstore\n        /* \"#utility.yul\":5989:6098   */\n      pop\n      pop\n      jump\t// out\n        /* \"#utility.yul\":6104:6464   */\n    tag_366:\n        /* \"#utility.yul\":6190:6193   */\n      0x00\n        /* \"#utility.yul\":6218:6256   */\n      tag_368\n        /* \"#utility.yul\":6250:6255   */\n      dup3\n        /* \"#utility.yul\":6218:6256   */\n      tag_369\n      jump\t// in\n    tag_368:\n        /* \"#utility.yul\":6272:6342   */\n      tag_370\n        /* \"#utility.yul\":6335:6341   */\n      dup2\n        /* \"#utility.yul\":6330:6333   */\n      dup6\n        /* \"#utility.yul\":6272:6342   */\n      tag_371\n      jump\t// in\n    tag_370:\n        /* \"#utility.yul\":6265:6342   */\n      swap4\n      pop\n        /* \"#utility.yul\":6351:6403   */\n      tag_372\n        /* \"#utility.yul\":6396:6402   */\n      dup2\n        /* \"#utility.yul\":6391:6394   */\n      dup6\n        /* \"#utility.yul\":6384:6388   */\n      0x20\n        /* \"#utility.yul\":6377:6382   */\n      dup7\n        /* \"#utility.yul\":6373:6389   */\n      add\n        /* \"#utility.yul\":6351:6403   */\n      tag_373\n      jump\t// in\n    tag_372:\n        /* \"#utility.yul\":6428:6457   */\n      tag_374\n        /* \"#utility.yul\":6450:6456   */\n      dup2\n        /* \"#utility.yul\":6428:6457   */\n      tag_375\n      jump\t// in\n    tag_374:\n        /* \"#utility.yul\":6423:6426   */\n      dup5\n        /* \"#utility.yul\":6419:6458   */\n      add\n        /* \"#utility.yul\":6412:6458   */\n      swap2\n      pop\n        /* \"#utility.yul\":6194:6464   */\n      pop\n        /* \"#utility.yul\":6104:6464   */\n      swap3\n      swap2\n      pop\n      pop\n      jump\t// out\n        /* \"#utility.yul\":6470:6834   */\n    tag_376:\n        /* \"#utility.yul\":6558:6561   */\n      0x00\n        /* \"#utility.yul\":6586:6625   */\n      tag_378\n        /* \"#utility.yul\":6619:6624   */\n      dup3\n        /* \"#utility.yul\":6586:6625   */\n      tag_379\n      jump\t// in\n    tag_378:\n        /* \"#utility.yul\":6641:6712   */\n      tag_380\n        /* \"#utility.yul\":6705:6711   */\n      dup2\n        /* \"#utility.yul\":6700:6703   */\n      dup6\n        /* \"#utility.yul\":6641:6712   */\n      tag_381\n      jump\t// in\n    tag_380:\n        /* \"#utility.yul\":6634:6712   */\n      swap4\n      pop\n        /* \"#utility.yul\":6721:6773   */\n      tag_382\n        /* \"#utility.yul\":6766:6772   */\n      dup2\n        /* \"#utility.yul\":6761:6764   */\n      dup6\n        /* \"#utility.yul\":6754:6758   */\n      0x20\n        /* \"#utility.yul\":6747:6752   */\n      dup7\n        /* \"#utility.yul\":6743:6759   */\n      add\n        /* \"#utility.yul\":6721:6773   */\n      tag_373\n      jump\t// in\n    tag_382:\n        /* \"#utility.yul\":6798:6827   */\n      tag_383\n        /* \"#utility.yul\":6820:6826   */\n      dup2\n        /* \"#utility.yul\":6798:6827   */\n      tag_375\n      jump\t// in\n    tag_383:\n        /* \"#utility.yul\":6793:6796   */\n      dup5\n        /* \"#utility.yul\":6789:6828   */\n      add\n        /* \"#utility.yul\":6782:6828   */\n      swap2\n      pop\n        /* \"#utility.yul\":6562:6834   */\n      pop\n        /* \"#utility.yul\":6470:6834   */\n      swap3\n      swap2\n      pop\n      pop\n      jump\t// out\n        /* \"#utility.yul\":6840:7206   */\n    tag_384:\n        /* \"#utility.yul\":6982:6985   */\n      0x00\n        /* \"#utility.yul\":7003:7070   */\n      tag_386\n        /* \"#utility.yul\":7067:7069   */\n      0x22\n        /* \"#utility.yul\":7062:7065   */\n      dup4\n        /* \"#utility.yul\":7003:7070   */\n      tag_381\n      jump\t// in\n    tag_386:\n        /* \"#utility.yul\":6996:7070   */\n      swap2\n      pop\n        /* \"#utility.yul\":7079:7172   */\n      tag_387\n        /* \"#utility.yul\":7168:7171   */\n      dup3\n        /* \"#utility.yul\":7079:7172   */\n      tag_388\n      jump\t// in\n    tag_387:\n        /* \"#utility.yul\":7197:7199   */\n      0x40\n        /* \"#utility.yul\":7192:7195   */\n      dup3\n        /* \"#utility.yul\":7188:7200   */\n      add\n        /* \"#utility.yul\":7181:7200   */\n      swap1\n      pop\n        /* \"#utility.yul\":6840:7206   */\n      swap2\n      swap1\n      pop\n      jump\t// out\n        /* \"#utility.yul\":7212:7578   */\n    tag_389:\n        /* \"#utility.yul\":7354:7357   */\n      0x00\n        /* \"#utility.yul\":7375:7442   */\n      tag_391\n        /* \"#utility.yul\":7439:7441   */\n      0x2a\n        /* \"#utility.yul\":7434:7437   */\n      dup4\n        /* \"#utility.yul\":7375:7442   */\n      tag_381\n      jump\t// in\n    tag_391:\n        /* \"#utility.yul\":7368:7442   */\n      swap2\n      pop\n        /* \"#utility.yul\":7451:7544   */\n      tag_392\n        /* \"#utility.yul\":7540:7543   */\n      dup3\n        /* \"#utility.yul\":7451:7544   */\n      tag_393\n      jump\t// in\n    tag_392:\n        /* \"#utility.yul\":7569:7571   */\n      0x40\n        /* \"#utility.yul\":7564:7567   */\n      dup3\n        /* \"#utility.yul\":7560:7572   */\n      add\n        /* \"#utility.yul\":7553:7572   */\n      swap1\n      pop\n        /* \"#utility.yul\":7212:7578   */\n      swap2\n      swap1\n      pop\n      jump\t// out\n        /* \"#utility.yul\":7584:7950   */\n    tag_394:\n        /* \"#utility.yul\":7726:7729   */\n      0x00\n        /* \"#utility.yul\":7747:7814   */\n      tag_396\n        /* \"#utility.yul\":7811:7813   */\n      0x23\n        /* \"#utility.yul\":7806:7809   */\n      dup4\n        /* \"#utility.yul\":7747:7814   */\n      tag_381\n      jump\t// in\n    tag_396:\n        /* \"#utility.yul\":7740:7814   */\n      swap2\n      pop\n        /* \"#utility.yul\":7823:7916   */\n      tag_397\n        /* \"#utility.yul\":7912:7915   */\n      dup3\n        /* \"#utility.yul\":7823:7916   */\n      tag_398\n      jump\t// in\n    tag_397:\n        /* \"#utility.yul\":7941:7943   */\n      0x40\n        /* \"#utility.yul\":7936:7939   */\n      dup3\n        /* \"#utility.yul\":7932:7944   */\n      add\n        /* \"#utility.yul\":7925:7944   */\n      swap1\n      pop\n        /* \"#utility.yul\":7584:7950   */\n      swap2\n      swap1\n      pop\n      jump\t// out\n        /* \"#utility.yul\":7956:8322   */\n    tag_399:\n        /* \"#utility.yul\":8098:8101   */\n      0x00\n        /* \"#utility.yul\":8119:8186   */\n      tag_401\n        /* \"#utility.yul\":8183:8185   */\n      0x25\n        /* \"#utility.yul\":8178:8181   */\n      dup4\n        /* \"#utility.yul\":8119:8186   */\n      tag_381\n      jump\t// in\n    tag_401:\n        /* \"#utility.yul\":8112:8186   */\n      swap2\n      pop\n        /* \"#utility.yul\":8195:8288   */\n      tag_402\n        /* \"#utility.yul\":8284:8287   */\n      dup3\n        /* \"#utility.yul\":8195:8288   */\n      tag_403\n      jump\t// in\n    tag_402:\n        /* \"#utility.yul\":8313:8315   */\n      0x40\n        /* \"#utility.yul\":8308:8311   */\n      dup3\n        /* \"#utility.yul\":8304:8316   */\n      add\n        /* \"#utility.yul\":8297:8316   */\n      swap1\n      pop\n        /* \"#utility.yul\":7956:8322   */\n      swap2\n      swap1\n      pop\n      jump\t// out\n        /* \"#utility.yul\":8328:8694   */\n    tag_404:\n        /* \"#utility.yul\":8470:8473   */\n      0x00\n        /* \"#utility.yul\":8491:8558   */\n      tag_406\n        /* \"#utility.yul\":8555:8557   */\n      0x39\n        /* \"#utility.yul\":8550:8553   */\n      dup4\n        /* \"#utility.yul\":8491:8558   */\n      tag_381\n      jump\t// in\n    tag_406:\n        /* \"#utility.yul\":8484:8558   */\n      swap2\n      pop\n        /* \"#utility.yul\":8567:8660   */\n      tag_407\n        /* \"#utility.yul\":8656:8659   */\n      dup3\n        /* \"#utility.yul\":8567:8660   */\n      tag_408\n      jump\t// in\n    tag_407:\n        /* \"#utility.yul\":8685:8687   */\n      0x40\n        /* \"#utility.yul\":8680:8683   */\n      dup3\n        /* \"#utility.yul\":8676:8688   */\n      add\n        /* \"#utility.yul\":8669:8688   */\n      swap1\n      pop\n        /* \"#utility.yul\":8328:8694   */\n      swap2\n      swap1\n      pop\n      jump\t// out\n        /* \"#utility.yul\":8700:9066   */\n    tag_409:\n        /* \"#utility.yul\":8842:8845   */\n      0x00\n        /* \"#utility.yul\":8863:8930   */\n      tag_411\n        /* \"#utility.yul\":8927:8929   */\n      0x2b\n        /* \"#utility.yul\":8922:8925   */\n      dup4\n        /* \"#utility.yul\":8863:8930   */\n      tag_381\n      jump\t// in\n    tag_411:\n        /* \"#utility.yul\":8856:8930   */\n      swap2\n      pop\n        /* \"#utility.yul\":8939:9032   */\n      tag_412\n        /* \"#utility.yul\":9028:9031   */\n      dup3\n        /* \"#utility.yul\":8939:9032   */\n      tag_413\n      jump\t// in\n    tag_412:\n        /* \"#utility.yul\":9057:9059   */\n      0x40\n        /* \"#utility.yul\":9052:9055   */\n      dup3\n        /* \"#utility.yul\":9048:9060   */\n      add\n        /* \"#utility.yul\":9041:9060   */\n      swap1\n      pop\n        /* \"#utility.yul\":8700:9066   */\n      swap2\n      swap1\n      pop\n      jump\t// out\n        /* \"#utility.yul\":9072:9438   */\n    tag_414:\n        /* \"#utility.yul\":9214:9217   */\n      0x00\n        /* \"#utility.yul\":9235:9302   */\n      tag_416\n        /* \"#utility.yul\":9299:9301   */\n      0x26\n        /* \"#utility.yul\":9294:9297   */\n      dup4\n        /* \"#utility.yul\":9235:9302   */\n      tag_381\n      jump\t// in\n    tag_416:\n        /* \"#utility.yul\":9228:9302   */\n      swap2\n      pop\n        /* \"#utility.yul\":9311:9404   */\n      tag_417\n        /* \"#utility.yul\":9400:9403   */\n      dup3\n        /* \"#utility.yul\":9311:9404   */\n      tag_418\n      jump\t// in\n    tag_417:\n        /* \"#utility.yul\":9429:9431   */\n      0x40\n        /* \"#utility.yul\":9424:9427   */\n      dup3\n        /* \"#utility.yul\":9420:9432   */\n      add\n        /* \"#utility.yul\":9413:9432   */\n      swap1\n      pop\n        /* \"#utility.yul\":9072:9438   */\n      swap2\n      swap1\n      pop\n      jump\t// out\n        /* \"#utility.yul\":9444:9810   */\n    tag_419:\n        /* \"#utility.yul\":9586:9589   */\n      0x00\n        /* \"#utility.yul\":9607:9674   */\n      tag_421\n        /* \"#utility.yul\":9671:9673   */\n      0x2f\n        /* \"#utility.yul\":9666:9669   */\n      dup4\n        /* \"#utility.yul\":9607:9674   */\n      tag_381\n      jump\t// in\n    tag_421:\n        /* \"#utility.yul\":9600:9674   */\n      swap2\n      pop\n        /* \"#utility.yul\":9683:9776   */\n      tag_422\n        /* \"#utility.yul\":9772:9775   */\n      dup3\n        /* \"#utility.yul\":9683:9776   */\n      tag_423\n      jump\t// in\n    tag_422:\n        /* \"#utility.yul\":9801:9803   */\n      0x40\n        /* \"#utility.yul\":9796:9799   */\n      dup3\n        /* \"#utility.yul\":9792:9804   */\n      add\n        /* \"#utility.yul\":9785:9804   */\n      swap1\n      pop\n        /* \"#utility.yul\":9444:9810   */\n      swap2\n      swap1\n      pop\n      jump\t// out\n        /* \"#utility.yul\":9816:10182   */\n    tag_424:\n        /* \"#utility.yul\":9958:9961   */\n      0x00\n        /* \"#utility.yul\":9979:10046   */\n      tag_426\n        /* \"#utility.yul\":10043:10045   */\n      0x1a\n        /* \"#utility.yul\":10038:10041   */\n      dup4\n        /* \"#utility.yul\":9979:10046   */\n      tag_381\n      jump\t// in\n    tag_426:\n        /* \"#utility.yul\":9972:10046   */\n      swap2\n      pop\n        /* \"#utility.yul\":10055:10148   */\n      tag_427\n        /* \"#utility.yul\":10144:10147   */\n      dup3\n        /* \"#utility.yul\":10055:10148   */\n      tag_428\n      jump\t// in\n    tag_427:\n        /* \"#utility.yul\":10173:10175   */\n      0x20\n        /* \"#utility.yul\":10168:10171   */\n      dup3\n        /* \"#utility.yul\":10164:10176   */\n      add\n        /* \"#utility.yul\":10157:10176   */\n      swap1\n      pop\n        /* \"#utility.yul\":9816:10182   */\n      swap2\n      swap1\n      pop\n      jump\t// out\n        /* \"#utility.yul\":10188:10554   */\n    tag_429:\n        /* \"#utility.yul\":10330:10333   */\n      0x00\n        /* \"#utility.yul\":10351:10418   */\n      tag_431\n        /* \"#utility.yul\":10415:10417   */\n      0x32\n        /* \"#utility.yul\":10410:10413   */\n      dup4\n        /* \"#utility.yul\":10351:10418   */\n      tag_381\n      jump\t// in\n    tag_431:\n        /* \"#utility.yul\":10344:10418   */\n      swap2\n      pop\n        /* \"#utility.yul\":10427:10520   */\n      tag_432\n        /* \"#utility.yul\":10516:10519   */\n      dup3\n        /* \"#utility.yul\":10427:10520   */\n      tag_433\n      jump\t// in\n    tag_432:\n        /* \"#utility.yul\":10545:10547   */\n      0x40\n        /* \"#utility.yul\":10540:10543   */\n      dup3\n        /* \"#utility.yul\":10536:10548   */\n      add\n        /* \"#utility.yul\":10529:10548   */\n      swap1\n      pop\n        /* \"#utility.yul\":10188:10554   */\n      swap2\n      swap1\n      pop\n      jump\t// out\n        /* \"#utility.yul\":10560:10926   */\n    tag_434:\n        /* \"#utility.yul\":10702:10705   */\n      0x00\n        /* \"#utility.yul\":10723:10790   */\n      tag_436\n        /* \"#utility.yul\":10787:10789   */\n      0x22\n        /* \"#utility.yul\":10782:10785   */\n      dup4\n        /* \"#utility.yul\":10723:10790   */\n      tag_381\n      jump\t// in\n    tag_436:\n        /* \"#utility.yul\":10716:10790   */\n      swap2\n      pop\n        /* \"#utility.yul\":10799:10892   */\n      tag_437\n        /* \"#utility.yul\":10888:10891   */\n      dup3\n        /* \"#utility.yul\":10799:10892   */\n      tag_438\n      jump\t// in\n    tag_437:\n        /* \"#utility.yul\":10917:10919   */\n      0x40\n        /* \"#utility.yul\":10912:10915   */\n      dup3\n        /* \"#utility.yul\":10908:10920   */\n      add\n        /* \"#utility.yul\":10901:10920   */\n      swap1\n      pop\n        /* \"#utility.yul\":10560:10926   */\n      swap2\n      swap1\n      pop\n      jump\t// out\n        /* \"#utility.yul\":10932:11298   */\n    tag_439:\n        /* \"#utility.yul\":11074:11077   */\n      0x00\n        /* \"#utility.yul\":11095:11162   */\n      tag_441\n        /* \"#utility.yul\":11159:11161   */\n      0x33\n        /* \"#utility.yul\":11154:11157   */\n      dup4\n        /* \"#utility.yul\":11095:11162   */\n      tag_381\n      jump\t// in\n    tag_441:\n        /* \"#utility.yul\":11088:11162   */\n      swap2\n      pop\n        /* \"#utility.yul\":11171:11264   */\n      tag_442\n        /* \"#utility.yul\":11260:11263   */\n      dup3\n        /* \"#utility.yul\":11171:11264   */\n      tag_443\n      jump\t// in\n    tag_442:\n        /* \"#utility.yul\":11289:11291   */\n      0x40\n        /* \"#utility.yul\":11284:11287   */\n      dup3\n        /* \"#utility.yul\":11280:11292   */\n      add\n        /* \"#utility.yul\":11273:11292   */\n      swap1\n      pop\n        /* \"#utility.yul\":10932:11298   */\n      swap2\n      swap1\n      pop\n      jump\t// out\n        /* \"#utility.yul\":11304:11670   */\n    tag_444:\n        /* \"#utility.yul\":11446:11449   */\n      0x00\n        /* \"#utility.yul\":11467:11534   */\n      tag_446\n        /* \"#utility.yul\":11531:11533   */\n      0x2e\n        /* \"#utility.yul\":11526:11529   */\n      dup4\n        /* \"#utility.yul\":11467:11534   */\n      tag_381\n      jump\t// in\n    tag_446:\n        /* \"#utility.yul\":11460:11534   */\n      swap2\n      pop\n        /* \"#utility.yul\":11543:11636   */\n      tag_447\n        /* \"#utility.yul\":11632:11635   */\n      dup3\n        /* \"#utility.yul\":11543:11636   */\n      tag_448\n      jump\t// in\n    tag_447:\n        /* \"#utility.yul\":11661:11663   */\n      0x40\n        /* \"#utility.yul\":11656:11659   */\n      dup3\n        /* \"#utility.yul\":11652:11664   */\n      add\n        /* \"#utility.yul\":11645:11664   */\n      swap1\n      pop\n        /* \"#utility.yul\":11304:11670   */\n      swap2\n      swap1\n      pop\n      jump\t// out\n        /* \"#utility.yul\":11676:12042   */\n    tag_449:\n        /* \"#utility.yul\":11818:11821   */\n      0x00\n        /* \"#utility.yul\":11839:11906   */\n      tag_451\n        /* \"#utility.yul\":11903:11905   */\n      0x2f\n        /* \"#utility.yul\":11898:11901   */\n      dup4\n        /* \"#utility.yul\":11839:11906   */\n      tag_381\n      jump\t// in\n    tag_451:\n        /* \"#utility.yul\":11832:11906   */\n      swap2\n      pop\n        /* \"#utility.yul\":11915:12008   */\n      tag_452\n        /* \"#utility.yul\":12004:12007   */\n      dup3\n        /* \"#utility.yul\":11915:12008   */\n      tag_453\n      jump\t// in\n    tag_452:\n        /* \"#utility.yul\":12033:12035   */\n      0x40\n        /* \"#utility.yul\":12028:12031   */\n      dup3\n        /* \"#utility.yul\":12024:12036   */\n      add\n        /* \"#utility.yul\":12017:12036   */\n      swap1\n      pop\n        /* \"#utility.yul\":11676:12042   */\n      swap2\n      swap1\n      pop\n      jump\t// out\n        /* \"#utility.yul\":12048:12414   */\n    tag_454:\n        /* \"#utility.yul\":12190:12193   */\n      0x00\n        /* \"#utility.yul\":12211:12278   */\n      tag_456\n        /* \"#utility.yul\":12275:12277   */\n      0x2d\n        /* \"#utility.yul\":12270:12273   */\n      dup4\n        /* \"#utility.yul\":12211:12278   */\n      tag_381\n      jump\t// in\n    tag_456:\n        /* \"#utility.yul\":12204:12278   */\n      swap2\n      pop\n        /* \"#utility.yul\":12287:12380   */\n      tag_457\n        /* \"#utility.yul\":12376:12379   */\n      dup3\n        /* \"#utility.yul\":12287:12380   */\n      tag_458\n      jump\t// in\n    tag_457:\n        /* \"#utility.yul\":12405:12407   */\n      0x40\n        /* \"#utility.yul\":12400:12403   */\n      dup3\n        /* \"#utility.yul\":12396:12408   */\n      add\n        /* \"#utility.yul\":12389:12408   */\n      swap1\n      pop\n        /* \"#utility.yul\":12048:12414   */\n      swap2\n      swap1\n      pop\n      jump\t// out\n        /* \"#utility.yul\":12420:12538   */\n    tag_459:\n        /* \"#utility.yul\":12507:12531   */\n      tag_461\n        /* \"#utility.yul\":12525:12530   */\n      dup2\n        /* \"#utility.yul\":12507:12531   */\n      tag_462\n      jump\t// in\n    tag_461:\n        /* \"#utility.yul\":12502:12505   */\n      dup3\n        /* \"#utility.yul\":12495:12532   */\n      mstore\n        /* \"#utility.yul\":12420:12538   */\n      pop\n      pop\n      jump\t// out\n        /* \"#utility.yul\":12544:12766   */\n    tag_38:\n        /* \"#utility.yul\":12637:12641   */\n      0x00\n        /* \"#utility.yul\":12675:12677   */\n      0x20\n        /* \"#utility.yul\":12664:12673   */\n      dup3\n        /* \"#utility.yul\":12660:12678   */\n      add\n        /* \"#utility.yul\":12652:12678   */\n      swap1\n      pop\n        /* \"#utility.yul\":12688:12759   */\n      tag_464\n        /* \"#utility.yul\":12756:12757   */\n      0x00\n        /* \"#utility.yul\":12745:12754   */\n      dup4\n        /* \"#utility.yul\":12741:12758   */\n      add\n        /* \"#utility.yul\":12732:12738   */\n      dup5\n        /* \"#utility.yul\":12688:12759   */\n      tag_358\n      jump\t// in\n    tag_464:\n        /* \"#utility.yul\":12544:12766   */\n      swap3\n      swap2\n      pop\n      pop\n      jump\t// out\n        /* \"#utility.yul\":12772:13412   */\n    tag_253:\n        /* \"#utility.yul\":12967:12971   */\n      0x00\n        /* \"#utility.yul\":13005:13008   */\n      0x80\n        /* \"#utility.yul\":12994:13003   */\n      dup3\n        /* \"#utility.yul\":12990:13009   */\n      add\n        /* \"#utility.yul\":12982:13009   */\n      swap1\n      pop\n        /* \"#utility.yul\":13019:13090   */\n      tag_466\n        /* \"#utility.yul\":13087:13088   */\n      0x00\n        /* \"#utility.yul\":13076:13085   */\n      dup4\n        /* \"#utility.yul\":13072:13089   */\n      add\n        /* \"#utility.yul\":13063:13069   */\n      dup8\n        /* \"#utility.yul\":13019:13090   */\n      tag_358\n      jump\t// in\n    tag_466:\n        /* \"#utility.yul\":13100:13172   */\n      tag_467\n        /* \"#utility.yul\":13168:13170   */\n      0x20\n        /* \"#utility.yul\":13157:13166   */\n      dup4\n        /* \"#utility.yul\":13153:13171   */\n      add\n        /* \"#utility.yul\":13144:13150   */\n      dup7\n        /* \"#utility.yul\":13100:13172   */\n      tag_358\n      jump\t// in\n    tag_467:\n        /* \"#utility.yul\":13182:13254   */\n      tag_468\n        /* \"#utility.yul\":13250:13252   */\n      0x40\n        /* \"#utility.yul\":13239:13248   */\n      dup4\n        /* \"#utility.yul\":13235:13253   */\n      add\n        /* \"#utility.yul\":13226:13232   */\n      dup6\n        /* \"#utility.yul\":13182:13254   */\n      tag_459\n      jump\t// in\n    tag_468:\n        /* \"#utility.yul\":13301:13310   */\n      dup2\n        /* \"#utility.yul\":13295:13299   */\n      dup2\n        /* \"#utility.yul\":13291:13311   */\n      sub\n        /* \"#utility.yul\":13286:13288   */\n      0x60\n        /* \"#utility.yul\":13275:13284   */\n      dup4\n        /* \"#utility.yul\":13271:13289   */\n      add\n        /* \"#utility.yul\":13264:13312   */\n      mstore\n        /* \"#utility.yul\":13329:13405   */\n      tag_469\n        /* \"#utility.yul\":13400:13404   */\n      dup2\n        /* \"#utility.yul\":13391:13397   */\n      dup5\n        /* \"#utility.yul\":13329:13405   */\n      tag_366\n      jump\t// in\n    tag_469:\n        /* \"#utility.yul\":13321:13405   */\n      swap1\n      pop\n        /* \"#utility.yul\":12772:13412   */\n      swap6\n      swap5\n      pop\n      pop\n      pop\n      pop\n      pop\n      jump\t// out\n        /* \"#utility.yul\":13418:13628   */\n    tag_28:\n        /* \"#utility.yul\":13505:13509   */\n      0x00\n        /* \"#utility.yul\":13543:13545   */\n      0x20\n        /* \"#utility.yul\":13532:13541   */\n      dup3\n        /* \"#utility.yul\":13528:13546   */\n      add\n        /* \"#utility.yul\":13520:13546   */\n      swap1\n      pop\n        /* \"#utility.yul\":13556:13621   */\n      tag_471\n        /* \"#utility.yul\":13618:13619   */\n      0x00\n        /* \"#utility.yul\":13607:13616   */\n      dup4\n        /* \"#utility.yul\":13603:13620   */\n      add\n        /* \"#utility.yul\":13594:13600   */\n      dup5\n        /* \"#utility.yul\":13556:13621   */\n      tag_362\n      jump\t// in\n    tag_471:\n        /* \"#utility.yul\":13418:13628   */\n      swap3\n      swap2\n      pop\n      pop\n      jump\t// out\n        /* \"#utility.yul\":13634:13947   */\n    tag_32:\n        /* \"#utility.yul\":13747:13751   */\n      0x00\n        /* \"#utility.yul\":13785:13787   */\n      0x20\n        /* \"#utility.yul\":13774:13783   */\n      dup3\n        /* \"#utility.yul\":13770:13788   */\n      add\n        /* \"#utility.yul\":13762:13788   */\n      swap1\n      pop\n        /* \"#utility.yul\":13834:13843   */\n      dup2\n        /* \"#utility.yul\":13828:13832   */\n      dup2\n        /* \"#utility.yul\":13824:13844   */\n      sub\n        /* \"#utility.yul\":13820:13821   */\n      0x00\n        /* \"#utility.yul\":13809:13818   */\n      dup4\n        /* \"#utility.yul\":13805:13822   */\n      add\n        /* \"#utility.yul\":13798:13845   */\n      mstore\n        /* \"#utility.yul\":13862:13940   */\n      tag_473\n        /* \"#utility.yul\":13935:13939   */\n      dup2\n        /* \"#utility.yul\":13926:13932   */\n      dup5\n        /* \"#utility.yul\":13862:13940   */\n      tag_376\n      jump\t// in\n    tag_473:\n        /* \"#utility.yul\":13854:13940   */\n      swap1\n      pop\n        /* \"#utility.yul\":13634:13947   */\n      swap3\n      swap2\n      pop\n      pop\n      jump\t// out\n        /* \"#utility.yul\":13953:14372   */\n    tag_136:\n        /* \"#utility.yul\":14119:14123   */\n      0x00\n        /* \"#utility.yul\":14157:14159   */\n      0x20\n        /* \"#utility.yul\":14146:14155   */\n      dup3\n        /* \"#utility.yul\":14142:14160   */\n      add\n        /* \"#utility.yul\":14134:14160   */\n      swap1\n      pop\n        /* \"#utility.yul\":14206:14215   */\n      dup2\n        /* \"#utility.yul\":14200:14204   */\n      dup2\n        /* \"#utility.yul\":14196:14216   */\n      sub\n        /* \"#utility.yul\":14192:14193   */\n      0x00\n        /* \"#utility.yul\":14181:14190   */\n      dup4\n        /* \"#utility.yul\":14177:14194   */\n      add\n        /* \"#utility.yul\":14170:14217   */\n      mstore\n        /* \"#utility.yul\":14234:14365   */\n      tag_475\n        /* \"#utility.yul\":14360:14364   */\n      dup2\n        /* \"#utility.yul\":14234:14365   */\n      tag_384\n      jump\t// in\n    tag_475:\n        /* \"#utility.yul\":14226:14365   */\n      swap1\n      pop\n        /* \"#utility.yul\":13953:14372   */\n      swap2\n      swap1\n      pop\n      jump\t// out\n        /* \"#utility.yul\":14378:14797   */\n    tag_234:\n        /* \"#utility.yul\":14544:14548   */\n      0x00\n        /* \"#utility.yul\":14582:14584   */\n      0x20\n        /* \"#utility.yul\":14571:14580   */\n      dup3\n        /* \"#utility.yul\":14567:14585   */\n      add\n        /* \"#utility.yul\":14559:14585   */\n      swap1\n      pop\n        /* \"#utility.yul\":14631:14640   */\n      dup2\n        /* \"#utility.yul\":14625:14629   */\n      dup2\n        /* \"#utility.yul\":14621:14641   */\n      sub\n        /* \"#utility.yul\":14617:14618   */\n      0x00\n        /* \"#utility.yul\":14606:14615   */\n      dup4\n        /* \"#utility.yul\":14602:14619   */\n      add\n        /* \"#utility.yul\":14595:14642   */\n      mstore\n        /* \"#utility.yul\":14659:14790   */\n      tag_477\n        /* \"#utility.yul\":14785:14789   */\n      dup2\n        /* \"#utility.yul\":14659:14790   */\n      tag_389\n      jump\t// in\n    tag_477:\n        /* \"#utility.yul\":14651:14790   */\n      swap1\n      pop\n        /* \"#utility.yul\":14378:14797   */\n      swap2\n      swap1\n      pop\n      jump\t// out\n        /* \"#utility.yul\":14803:15222   */\n    tag_155:\n        /* \"#utility.yul\":14969:14973   */\n      0x00\n        /* \"#utility.yul\":15007:15009   */\n      0x20\n        /* \"#utility.yul\":14996:15005   */\n      dup3\n        /* \"#utility.yul\":14992:15010   */\n      add\n        /* \"#utility.yul\":14984:15010   */\n      swap1\n      pop\n        /* \"#utility.yul\":15056:15065   */\n      dup2\n        /* \"#utility.yul\":15050:15054   */\n      dup2\n        /* \"#utility.yul\":15046:15066   */\n      sub\n        /* \"#utility.yul\":15042:15043   */\n      0x00\n        /* \"#utility.yul\":15031:15040   */\n      dup4\n        /* \"#utility.yul\":15027:15044   */\n      add\n        /* \"#utility.yul\":15020:15067   */\n      mstore\n        /* \"#utility.yul\":15084:15215   */\n      tag_479\n        /* \"#utility.yul\":15210:15214   */\n      dup2\n        /* \"#utility.yul\":15084:15215   */\n      tag_394\n      jump\t// in\n    tag_479:\n        /* \"#utility.yul\":15076:15215   */\n      swap1\n      pop\n        /* \"#utility.yul\":14803:15222   */\n      swap2\n      swap1\n      pop\n      jump\t// out\n        /* \"#utility.yul\":15228:15647   */\n    tag_213:\n        /* \"#utility.yul\":15394:15398   */\n      0x00\n        /* \"#utility.yul\":15432:15434   */\n      0x20\n        /* \"#utility.yul\":15421:15430   */\n      dup3\n        /* \"#utility.yul\":15417:15435   */\n      add\n        /* \"#utility.yul\":15409:15435   */\n      swap1\n      pop\n        /* \"#utility.yul\":15481:15490   */\n      dup2\n        /* \"#utility.yul\":15475:15479   */\n      dup2\n        /* \"#utility.yul\":15471:15491   */\n      sub\n        /* \"#utility.yul\":15467:15468   */\n      0x00\n        /* \"#utility.yul\":15456:15465   */\n      dup4\n        /* \"#utility.yul\":15452:15469   */\n      add\n        /* \"#utility.yul\":15445:15492   */\n      mstore\n        /* \"#utility.yul\":15509:15640   */\n      tag_481\n        /* \"#utility.yul\":15635:15639   */\n      dup2\n        /* \"#utility.yul\":15509:15640   */\n      tag_399\n      jump\t// in\n    tag_481:\n        /* \"#utility.yul\":15501:15640   */\n      swap1\n      pop\n        /* \"#utility.yul\":15228:15647   */\n      swap2\n      swap1\n      pop\n      jump\t// out\n        /* \"#utility.yul\":15653:16072   */\n    tag_125:\n        /* \"#utility.yul\":15819:15823   */\n      0x00\n        /* \"#utility.yul\":15857:15859   */\n      0x20\n        /* \"#utility.yul\":15846:15855   */\n      dup3\n        /* \"#utility.yul\":15842:15860   */\n      add\n        /* \"#utility.yul\":15834:15860   */\n      swap1\n      pop\n        /* \"#utility.yul\":15906:15915   */\n      dup2\n        /* \"#utility.yul\":15900:15904   */\n      dup2\n        /* \"#utility.yul\":15896:15916   */\n      sub\n        /* \"#utility.yul\":15892:15893   */\n      0x00\n        /* \"#utility.yul\":15881:15890   */\n      dup4\n        /* \"#utility.yul\":15877:15894   */\n      add\n        /* \"#utility.yul\":15870:15917   */\n      mstore\n        /* \"#utility.yul\":15934:16065   */\n      tag_483\n        /* \"#utility.yul\":16060:16064   */\n      dup2\n        /* \"#utility.yul\":15934:16065   */\n      tag_404\n      jump\t// in\n    tag_483:\n        /* \"#utility.yul\":15926:16065   */\n      swap1\n      pop\n        /* \"#utility.yul\":15653:16072   */\n      swap2\n      swap1\n      pop\n      jump\t// out\n        /* \"#utility.yul\":16078:16497   */\n    tag_162:\n        /* \"#utility.yul\":16244:16248   */\n      0x00\n        /* \"#utility.yul\":16282:16284   */\n      0x20\n        /* \"#utility.yul\":16271:16280   */\n      dup3\n        /* \"#utility.yul\":16267:16285   */\n      add\n        /* \"#utility.yul\":16259:16285   */\n      swap1\n      pop\n        /* \"#utility.yul\":16331:16340   */\n      dup2\n        /* \"#utility.yul\":16325:16329   */\n      dup2\n        /* \"#utility.yul\":16321:16341   */\n      sub\n        /* \"#utility.yul\":16317:16318   */\n      0x00\n        /* \"#utility.yul\":16306:16315   */\n      dup4\n        /* \"#utility.yul\":16302:16319   */\n      add\n        /* \"#utility.yul\":16295:16342   */\n      mstore\n        /* \"#utility.yul\":16359:16490   */\n      tag_485\n        /* \"#utility.yul\":16485:16489   */\n      dup2\n        /* \"#utility.yul\":16359:16490   */\n      tag_409\n      jump\t// in\n    tag_485:\n        /* \"#utility.yul\":16351:16490   */\n      swap1\n      pop\n        /* \"#utility.yul\":16078:16497   */\n      swap2\n      swap1\n      pop\n      jump\t// out\n        /* \"#utility.yul\":16503:16922   */\n    tag_210:\n        /* \"#utility.yul\":16669:16673   */\n      0x00\n        /* \"#utility.yul\":16707:16709   */\n      0x20\n        /* \"#utility.yul\":16696:16705   */\n      dup3\n        /* \"#utility.yul\":16692:16710   */\n      add\n        /* \"#utility.yul\":16684:16710   */\n      swap1\n      pop\n        /* \"#utility.yul\":16756:16765   */\n      dup2\n        /* \"#utility.yul\":16750:16754   */\n      dup2\n        /* \"#utility.yul\":16746:16766   */\n      sub\n        /* \"#utility.yul\":16742:16743   */\n      0x00\n        /* \"#utility.yul\":16731:16740   */\n      dup4\n        /* \"#utility.yul\":16727:16744   */\n      add\n        /* \"#utility.yul\":16720:16767   */\n      mstore\n        /* \"#utility.yul\":16784:16915   */\n      tag_487\n        /* \"#utility.yul\":16910:16914   */\n      dup2\n        /* \"#utility.yul\":16784:16915   */\n      tag_414\n      jump\t// in\n    tag_487:\n        /* \"#utility.yul\":16776:16915   */\n      swap1\n      pop\n        /* \"#utility.yul\":16503:16922   */\n      swap2\n      swap1\n      pop\n      jump\t// out\n        /* \"#utility.yul\":16928:17347   */\n    tag_188:\n        /* \"#utility.yul\":17094:17098   */\n      0x00\n        /* \"#utility.yul\":17132:17134   */\n      0x20\n        /* \"#utility.yul\":17121:17130   */\n      dup3\n        /* \"#utility.yul\":17117:17135   */\n      add\n        /* \"#utility.yul\":17109:17135   */\n      swap1\n      pop\n        /* \"#utility.yul\":17181:17190   */\n      dup2\n        /* \"#utility.yul\":17175:17179   */\n      dup2\n        /* \"#utility.yul\":17171:17191   */\n      sub\n        /* \"#utility.yul\":17167:17168   */\n      0x00\n        /* \"#utility.yul\":17156:17165   */\n      dup4\n        /* \"#utility.yul\":17152:17169   */\n      add\n        /* \"#utility.yul\":17145:17192   */\n      mstore\n        /* \"#utility.yul\":17209:17340   */\n      tag_489\n        /* \"#utility.yul\":17335:17339   */\n      dup2\n        /* \"#utility.yul\":17209:17340   */\n      tag_419\n      jump\t// in\n    tag_489:\n        /* \"#utility.yul\":17201:17340   */\n      swap1\n      pop\n        /* \"#utility.yul\":16928:17347   */\n      swap2\n      swap1\n      pop\n      jump\t// out\n        /* \"#utility.yul\":17353:17772   */\n    tag_173:\n        /* \"#utility.yul\":17519:17523   */\n      0x00\n        /* \"#utility.yul\":17557:17559   */\n      0x20\n        /* \"#utility.yul\":17546:17555   */\n      dup3\n        /* \"#utility.yul\":17542:17560   */\n      add\n        /* \"#utility.yul\":17534:17560   */\n      swap1\n      pop\n        /* \"#utility.yul\":17606:17615   */\n      dup2\n        /* \"#utility.yul\":17600:17604   */\n      dup2\n        /* \"#utility.yul\":17596:17616   */\n      sub\n        /* \"#utility.yul\":17592:17593   */\n      0x00\n        /* \"#utility.yul\":17581:17590   */\n      dup4\n        /* \"#utility.yul\":17577:17594   */\n      add\n        /* \"#utility.yul\":17570:17617   */\n      mstore\n        /* \"#utility.yul\":17634:17765   */\n      tag_491\n        /* \"#utility.yul\":17760:17764   */\n      dup2\n        /* \"#utility.yul\":17634:17765   */\n      tag_424\n      jump\t// in\n    tag_491:\n        /* \"#utility.yul\":17626:17765   */\n      swap1\n      pop\n        /* \"#utility.yul\":17353:17772   */\n      swap2\n      swap1\n      pop\n      jump\t// out\n        /* \"#utility.yul\":17778:18197   */\n    tag_207:\n        /* \"#utility.yul\":17944:17948   */\n      0x00\n        /* \"#utility.yul\":17982:17984   */\n      0x20\n        /* \"#utility.yul\":17971:17980   */\n      dup3\n        /* \"#utility.yul\":17967:17985   */\n      add\n        /* \"#utility.yul\":17959:17985   */\n      swap1\n      pop\n        /* \"#utility.yul\":18031:18040   */\n      dup2\n        /* \"#utility.yul\":18025:18029   */\n      dup2\n        /* \"#utility.yul\":18021:18041   */\n      sub\n        /* \"#utility.yul\":18017:18018   */\n      0x00\n        /* \"#utility.yul\":18006:18015   */\n      dup4\n        /* \"#utility.yul\":18002:18019   */\n      add\n        /* \"#utility.yul\":17995:18042   */\n      mstore\n        /* \"#utility.yul\":18059:18190   */\n      tag_493\n        /* \"#utility.yul\":18185:18189   */\n      dup2\n        /* \"#utility.yul\":18059:18190   */\n      tag_429\n      jump\t// in\n    tag_493:\n        /* \"#utility.yul\":18051:18190   */\n      swap1\n      pop\n        /* \"#utility.yul\":17778:18197   */\n      swap2\n      swap1\n      pop\n      jump\t// out\n        /* \"#utility.yul\":18203:18622   */\n    tag_117:\n        /* \"#utility.yul\":18369:18373   */\n      0x00\n        /* \"#utility.yul\":18407:18409   */\n      0x20\n        /* \"#utility.yul\":18396:18405   */\n      dup3\n        /* \"#utility.yul\":18392:18410   */\n      add\n        /* \"#utility.yul\":18384:18410   */\n      swap1\n      pop\n        /* \"#utility.yul\":18456:18465   */\n      dup2\n        /* \"#utility.yul\":18450:18454   */\n      dup2\n        /* \"#utility.yul\":18446:18466   */\n      sub\n        /* \"#utility.yul\":18442:18443   */\n      0x00\n        /* \"#utility.yul\":18431:18440   */\n      dup4\n        /* \"#utility.yul\":18427:18444   */\n      add\n        /* \"#utility.yul\":18420:18467   */\n      mstore\n        /* \"#utility.yul\":18484:18615   */\n      tag_495\n        /* \"#utility.yul\":18610:18614   */\n      dup2\n        /* \"#utility.yul\":18484:18615   */\n      tag_434\n      jump\t// in\n    tag_495:\n        /* \"#utility.yul\":18476:18615   */\n      swap1\n      pop\n        /* \"#utility.yul\":18203:18622   */\n      swap2\n      swap1\n      pop\n      jump\t// out\n        /* \"#utility.yul\":18628:19047   */\n    tag_183:\n        /* \"#utility.yul\":18794:18798   */\n      0x00\n        /* \"#utility.yul\":18832:18834   */\n      0x20\n        /* \"#utility.yul\":18821:18830   */\n      dup3\n        /* \"#utility.yul\":18817:18835   */\n      add\n        /* \"#utility.yul\":18809:18835   */\n      swap1\n      pop\n        /* \"#utility.yul\":18881:18890   */\n      dup2\n        /* \"#utility.yul\":18875:18879   */\n      dup2\n        /* \"#utility.yul\":18871:18891   */\n      sub\n        /* \"#utility.yul\":18867:18868   */\n      0x00\n        /* \"#utility.yul\":18856:18865   */\n      dup4\n        /* \"#utility.yul\":18852:18869   */\n      add\n        /* \"#utility.yul\":18845:18892   */\n      mstore\n        /* \"#utility.yul\":18909:19040   */\n      tag_497\n        /* \"#utility.yul\":19035:19039   */\n      dup2\n        /* \"#utility.yul\":18909:19040   */\n      tag_439\n      jump\t// in\n    tag_497:\n        /* \"#utility.yul\":18901:19040   */\n      swap1\n      pop\n        /* \"#utility.yul\":18628:19047   */\n      swap2\n      swap1\n      pop\n      jump\t// out\n        /* \"#utility.yul\":19053:19472   */\n    tag_148:\n        /* \"#utility.yul\":19219:19223   */\n      0x00\n        /* \"#utility.yul\":19257:19259   */\n      0x20\n        /* \"#utility.yul\":19246:19255   */\n      dup3\n        /* \"#utility.yul\":19242:19260   */\n      add\n        /* \"#utility.yul\":19234:19260   */\n      swap1\n      pop\n        /* \"#utility.yul\":19306:19315   */\n      dup2\n        /* \"#utility.yul\":19300:19304   */\n      dup2\n        /* \"#utility.yul\":19296:19316   */\n      sub\n        /* \"#utility.yul\":19292:19293   */\n      0x00\n        /* \"#utility.yul\":19281:19290   */\n      dup4\n        /* \"#utility.yul\":19277:19294   */\n      add\n        /* \"#utility.yul\":19270:19317   */\n      mstore\n        /* \"#utility.yul\":19334:19465   */\n      tag_499\n        /* \"#utility.yul\":19460:19464   */\n      dup2\n        /* \"#utility.yul\":19334:19465   */\n      tag_444\n      jump\t// in\n    tag_499:\n        /* \"#utility.yul\":19326:19465   */\n      swap1\n      pop\n        /* \"#utility.yul\":19053:19472   */\n      swap2\n      swap1\n      pop\n      jump\t// out\n        /* \"#utility.yul\":19478:19897   */\n    tag_246:\n        /* \"#utility.yul\":19644:19648   */\n      0x00\n        /* \"#utility.yul\":19682:19684   */\n      0x20\n        /* \"#utility.yul\":19671:19680   */\n      dup3\n        /* \"#utility.yul\":19667:19685   */\n      add\n        /* \"#utility.yul\":19659:19685   */\n      swap1\n      pop\n        /* \"#utility.yul\":19731:19740   */\n      dup2\n        /* \"#utility.yul\":19725:19729   */\n      dup2\n        /* \"#utility.yul\":19721:19741   */\n      sub\n        /* \"#utility.yul\":19717:19718   */\n      0x00\n        /* \"#utility.yul\":19706:19715   */\n      dup4\n        /* \"#utility.yul\":19702:19719   */\n      add\n        /* \"#utility.yul\":19695:19742   */\n      mstore\n        /* \"#utility.yul\":19759:19890   */\n      tag_501\n        /* \"#utility.yul\":19885:19889   */\n      dup2\n        /* \"#utility.yul\":19759:19890   */\n      tag_449\n      jump\t// in\n    tag_501:\n        /* \"#utility.yul\":19751:19890   */\n      swap1\n      pop\n        /* \"#utility.yul\":19478:19897   */\n      swap2\n      swap1\n      pop\n      jump\t// out\n        /* \"#utility.yul\":19903:20322   */\n    tag_112:\n        /* \"#utility.yul\":20069:20073   */\n      0x00\n        /* \"#utility.yul\":20107:20109   */\n      0x20\n        /* \"#utility.yul\":20096:20105   */\n      dup3\n        /* \"#utility.yul\":20092:20110   */\n      add\n        /* \"#utility.yul\":20084:20110   */\n      swap1\n      pop\n        /* \"#utility.yul\":20156:20165   */\n      dup2\n        /* \"#utility.yul\":20150:20154   */\n      dup2\n        /* \"#utility.yul\":20146:20166   */\n      sub\n        /* \"#utility.yul\":20142:20143   */\n      0x00\n        /* \"#utility.yul\":20131:20140   */\n      dup4\n        /* \"#utility.yul\":20127:20144   */\n      add\n        /* \"#utility.yul\":20120:20167   */\n      mstore\n        /* \"#utility.yul\":20184:20315   */\n      tag_503\n        /* \"#utility.yul\":20310:20314   */\n      dup2\n        /* \"#utility.yul\":20184:20315   */\n      tag_454\n      jump\t// in\n    tag_503:\n        /* \"#utility.yul\":20176:20315   */\n      swap1\n      pop\n        /* \"#utility.yul\":19903:20322   */\n      swap2\n      swap1\n      pop\n      jump\t// out\n        /* \"#utility.yul\":20328:20550   */\n    tag_46:\n        /* \"#utility.yul\":20421:20425   */\n      0x00\n        /* \"#utility.yul\":20459:20461   */\n      0x20\n        /* \"#utility.yul\":20448:20457   */\n      dup3\n        /* \"#utility.yul\":20444:20462   */\n      add\n        /* \"#utility.yul\":20436:20462   */\n      swap1\n      pop\n        /* \"#utility.yul\":20472:20543   */\n      tag_505\n        /* \"#utility.yul\":20540:20541   */\n      0x00\n        /* \"#utility.yul\":20529:20538   */\n      dup4\n        /* \"#utility.yul\":20525:20542   */\n      add\n        /* \"#utility.yul\":20516:20522   */\n      dup5\n        /* \"#utility.yul\":20472:20543   */\n      tag_459\n      jump\t// in\n    tag_505:\n        /* \"#utility.yul\":20328:20550   */\n      swap3\n      swap2\n      pop\n      pop\n      jump\t// out\n        /* \"#utility.yul\":20556:20685   */\n    tag_279:\n        /* \"#utility.yul\":20590:20596   */\n      0x00\n        /* \"#utility.yul\":20617:20637   */\n      tag_507\n      tag_508\n      jump\t// in\n    tag_507:\n        /* \"#utility.yul\":20607:20637   */\n      swap1\n      pop\n        /* \"#utility.yul\":20646:20679   */\n      tag_509\n        /* \"#utility.yul\":20674:20678   */\n      dup3\n        /* \"#utility.yul\":20666:20672   */\n      dup3\n        /* \"#utility.yul\":20646:20679   */\n      tag_510\n      jump\t// in\n    tag_509:\n        /* \"#utility.yul\":20556:20685   */\n      swap2\n      swap1\n      pop\n      jump\t// out\n        /* \"#utility.yul\":20691:20766   */\n    tag_508:\n        /* \"#utility.yul\":20724:20730   */\n      0x00\n        /* \"#utility.yul\":20757:20759   */\n      0x40\n        /* \"#utility.yul\":20751:20760   */\n      mload\n        /* \"#utility.yul\":20741:20760   */\n      swap1\n      pop\n        /* \"#utility.yul\":20691:20766   */\n      swap1\n      jump\t// out\n        /* \"#utility.yul\":20772:21079   */\n    tag_278:\n        /* \"#utility.yul\":20833:20837   */\n      0x00\n        /* \"#utility.yul\":20923:20941   */\n      0xffffffffffffffff\n        /* \"#utility.yul\":20915:20921   */\n      dup3\n        /* \"#utility.yul\":20912:20942   */\n      gt\n        /* \"#utility.yul\":20909:20965   */\n      iszero\n      tag_513\n      jumpi\n        /* \"#utility.yul\":20945:20963   */\n      tag_514\n      tag_515\n      jump\t// in\n    tag_514:\n        /* \"#utility.yul\":20909:20965   */\n    tag_513:\n        /* \"#utility.yul\":20983:21012   */\n      tag_516\n        /* \"#utility.yul\":21005:21011   */\n      dup3\n        /* \"#utility.yul\":20983:21012   */\n      tag_375\n      jump\t// in\n    tag_516:\n        /* \"#utility.yul\":20975:21012   */\n      swap1\n      pop\n        /* \"#utility.yul\":21067:21071   */\n      0x20\n        /* \"#utility.yul\":21061:21065   */\n      dup2\n        /* \"#utility.yul\":21057:21072   */\n      add\n        /* \"#utility.yul\":21049:21072   */\n      swap1\n      pop\n        /* \"#utility.yul\":20772:21079   */\n      swap2\n      swap1\n      pop\n      jump\t// out\n        /* \"#utility.yul\":21085:21183   */\n    tag_369:\n        /* \"#utility.yul\":21136:21142   */\n      0x00\n        /* \"#utility.yul\":21170:21175   */\n      dup2\n        /* \"#utility.yul\":21164:21176   */\n      mload\n        /* \"#utility.yul\":21154:21176   */\n      swap1\n      pop\n        /* \"#utility.yul\":21085:21183   */\n      swap2\n      swap1\n      pop\n      jump\t// out\n        /* \"#utility.yul\":21189:21288   */\n    tag_379:\n        /* \"#utility.yul\":21241:21247   */\n      0x00\n        /* \"#utility.yul\":21275:21280   */\n      dup2\n        /* \"#utility.yul\":21269:21281   */\n      mload\n        /* \"#utility.yul\":21259:21281   */\n      swap1\n      pop\n        /* \"#utility.yul\":21189:21288   */\n      swap2\n      swap1\n      pop\n      jump\t// out\n        /* \"#utility.yul\":21294:21462   */\n    tag_371:\n        /* \"#utility.yul\":21377:21388   */\n      0x00\n        /* \"#utility.yul\":21411:21417   */\n      dup3\n        /* \"#utility.yul\":21406:21409   */\n      dup3\n        /* \"#utility.yul\":21399:21418   */\n      mstore\n        /* \"#utility.yul\":21451:21455   */\n      0x20\n        /* \"#utility.yul\":21446:21449   */\n      dup3\n        /* \"#utility.yul\":21442:21456   */\n      add\n        /* \"#utility.yul\":21427:21456   */\n      swap1\n      pop\n        /* \"#utility.yul\":21294:21462   */\n      swap3\n      swap2\n      pop\n      pop\n      jump\t// out\n        /* \"#utility.yul\":21468:21637   */\n    tag_381:\n        /* \"#utility.yul\":21552:21563   */\n      0x00\n        /* \"#utility.yul\":21586:21592   */\n      dup3\n        /* \"#utility.yul\":21581:21584   */\n      dup3\n        /* \"#utility.yul\":21574:21593   */\n      mstore\n        /* \"#utility.yul\":21626:21630   */\n      0x20\n        /* \"#utility.yul\":21621:21624   */\n      dup3\n        /* \"#utility.yul\":21617:21631   */\n      add\n        /* \"#utility.yul\":21602:21631   */\n      swap1\n      pop\n        /* \"#utility.yul\":21468:21637   */\n      swap3\n      swap2\n      pop\n      pop\n      jump\t// out\n        /* \"#utility.yul\":21643:21916   */\n    tag_220:\n        /* \"#utility.yul\":21683:21686   */\n      0x00\n        /* \"#utility.yul\":21702:21722   */\n      tag_522\n        /* \"#utility.yul\":21720:21721   */\n      dup3\n        /* \"#utility.yul\":21702:21722   */\n      tag_523\n      jump\t// in\n    tag_522:\n        /* \"#utility.yul\":21697:21722   */\n      swap2\n      pop\n        /* \"#utility.yul\":21736:21756   */\n      tag_524\n        /* \"#utility.yul\":21754:21755   */\n      dup4\n        /* \"#utility.yul\":21736:21756   */\n      tag_523\n      jump\t// in\n    tag_524:\n        /* \"#utility.yul\":21731:21756   */\n      swap3\n      pop\n        /* \"#utility.yul\":21858:21859   */\n      dup3\n        /* \"#utility.yul\":21822:21856   */\n      0xffffffffffffffffffffffffffffffff\n        /* \"#utility.yul\":21818:21860   */\n      sub\n        /* \"#utility.yul\":21815:21816   */\n      dup3\n        /* \"#utility.yul\":21812:21861   */\n      gt\n        /* \"#utility.yul\":21809:21884   */\n      iszero\n      tag_525\n      jumpi\n        /* \"#utility.yul\":21864:21882   */\n      tag_526\n      tag_527\n      jump\t// in\n    tag_526:\n        /* \"#utility.yul\":21809:21884   */\n    tag_525:\n        /* \"#utility.yul\":21908:21909   */\n      dup3\n        /* \"#utility.yul\":21905:21906   */\n      dup3\n        /* \"#utility.yul\":21901:21910   */\n      add\n        /* \"#utility.yul\":21894:21910   */\n      swap1\n      pop\n        /* \"#utility.yul\":21643:21916   */\n      swap3\n      swap2\n      pop\n      pop\n      jump\t// out\n        /* \"#utility.yul\":21922:22227   */\n    tag_222:\n        /* \"#utility.yul\":21962:21965   */\n      0x00\n        /* \"#utility.yul\":21981:22001   */\n      tag_529\n        /* \"#utility.yul\":21999:22000   */\n      dup3\n        /* \"#utility.yul\":21981:22001   */\n      tag_462\n      jump\t// in\n    tag_529:\n        /* \"#utility.yul\":21976:22001   */\n      swap2\n      pop\n        /* \"#utility.yul\":22015:22035   */\n      tag_530\n        /* \"#utility.yul\":22033:22034   */\n      dup4\n        /* \"#utility.yul\":22015:22035   */\n      tag_462\n      jump\t// in\n    tag_530:\n        /* \"#utility.yul\":22010:22035   */\n      swap3\n      pop\n        /* \"#utility.yul\":22169:22170   */\n      dup3\n        /* \"#utility.yul\":22101:22167   */\n      0xffffffffffffffffffffffffffffffffffffffffffffffffffffffffffffffff\n        /* \"#utility.yul\":22097:22171   */\n      sub\n        /* \"#utility.yul\":22094:22095   */\n      dup3\n        /* \"#utility.yul\":22091:22172   */\n      gt\n        /* \"#utility.yul\":22088:22195   */\n      iszero\n      tag_531\n      jumpi\n        /* \"#utility.yul\":22175:22193   */\n      tag_532\n      tag_527\n      jump\t// in\n    tag_532:\n        /* \"#utility.yul\":22088:22195   */\n    tag_531:\n        /* \"#utility.yul\":22219:22220   */\n      dup3\n        /* \"#utility.yul\":22216:22217   */\n      dup3\n        /* \"#utility.yul\":22212:22221   */\n      add\n        /* \"#utility.yul\":22205:22221   */\n      swap1\n      pop\n        /* \"#utility.yul\":21922:22227   */\n      swap3\n      swap2\n      pop\n      pop\n      jump\t// out\n        /* \"#utility.yul\":22233:22424   */\n    tag_218:\n        /* \"#utility.yul\":22273:22277   */\n      0x00\n        /* \"#utility.yul\":22293:22313   */\n      tag_534\n        /* \"#utility.yul\":22311:22312   */\n      dup3\n        /* \"#utility.yul\":22293:22313   */\n      tag_523\n      jump\t// in\n    tag_534:\n        /* \"#utility.yul\":22288:22313   */\n      swap2\n      pop\n        /* \"#utility.yul\":22327:22347   */\n      tag_535\n        /* \"#utility.yul\":22345:22346   */\n      dup4\n        /* \"#utility.yul\":22327:22347   */\n      tag_523\n      jump\t// in\n    tag_535:\n        /* \"#utility.yul\":22322:22347   */\n      swap3\n      pop\n        /* \"#utility.yul\":22366:22367   */\n      dup3\n        /* \"#utility.yul\":22363:22364   */\n      dup3\n        /* \"#utility.yul\":22360:22368   */\n      lt\n        /* \"#utility.yul\":22357:22391   */\n      iszero\n      tag_536\n      jumpi\n        /* \"#utility.yul\":22371:22389   */\n      tag_537\n      tag_527\n      jump\t// in\n    tag_537:\n        /* \"#utility.yul\":22357:22391   */\n    tag_536:\n        /* \"#utility.yul\":22416:22417   */\n      dup3\n        /* \"#utility.yul\":22413:22414   */\n      dup3\n        /* \"#utility.yul\":22409:22418   */\n      sub\n        /* \"#utility.yul\":22401:22418   */\n      swap1\n      pop\n        /* \"#utility.yul\":22233:22424   */\n      swap3\n      swap2\n      pop\n      pop\n      jump\t// out\n        /* \"#utility.yul\":22430:22621   */\n    tag_237:\n        /* \"#utility.yul\":22470:22474   */\n      0x00\n        /* \"#utility.yul\":22490:22510   */\n      tag_539\n        /* \"#utility.yul\":22508:22509   */\n      dup3\n        /* \"#utility.yul\":22490:22510   */\n      tag_462\n      jump\t// in\n    tag_539:\n        /* \"#utility.yul\":22485:22510   */\n      swap2\n      pop\n        /* \"#utility.yul\":22524:22544   */\n      tag_540\n        /* \"#utility.yul\":22542:22543   */\n      dup4\n        /* \"#utility.yul\":22524:22544   */\n      tag_462\n      jump\t// in\n    tag_540:\n        /* \"#utility.yul\":22519:22544   */\n      swap3\n      pop\n        /* \"#utility.yul\":22563:22564   */\n      dup3\n        /* \"#utility.yul\":22560:22561   */\n      dup3\n        /* \"#utility.yul\":22557:22565   */\n      lt\n        /* \"#utility.yul\":22554:22588   */\n      iszero\n      tag_541\n      jumpi\n        /* \"#utility.yul\":22568:22586   */\n      tag_542\n      tag_527\n      jump\t// in\n    tag_542:\n        /* \"#utility.yul\":22554:22588   */\n    tag_541:\n        /* \"#utility.yul\":22613:22614   */\n      dup3\n        /* \"#utility.yul\":22610:22611   */\n      dup3\n        /* \"#utility.yul\":22606:22615   */\n      sub\n        /* \"#utility.yul\":22598:22615   */\n      swap1\n      pop\n        /* \"#utility.yul\":22430:22621   */\n      swap3\n      swap2\n      pop\n      pop\n      jump\t// out\n        /* \"#utility.yul\":22627:22723   */\n    tag_361:\n        /* \"#utility.yul\":22664:22671   */\n      0x00\n        /* \"#utility.yul\":22693:22717   */\n      tag_544\n        /* \"#utility.yul\":22711:22716   */\n      dup3\n        /* \"#utility.yul\":22693:22717   */\n      tag_545\n      jump\t// in\n    tag_544:\n        /* \"#utility.yul\":22682:22717   */\n      swap1\n      pop\n        /* \"#utility.yul\":22627:22723   */\n      swap2\n      swap1\n      pop\n      jump\t// out\n        /* \"#utility.yul\":22729:22819   */\n    tag_365:\n        /* \"#utility.yul\":22763:22770   */\n      0x00\n        /* \"#utility.yul\":22806:22811   */\n      dup2\n        /* \"#utility.yul\":22799:22812   */\n      iszero\n        /* \"#utility.yul\":22792:22813   */\n      iszero\n        /* \"#utility.yul\":22781:22813   */\n      swap1\n      pop\n        /* \"#utility.yul\":22729:22819   */\n      swap2\n      swap1\n      pop\n      jump\t// out\n        /* \"#utility.yul\":22825:22974   */\n    tag_547:\n        /* \"#utility.yul\":22861:22868   */\n      0x00\n        /* \"#utility.yul\":22901:22967   */\n      0xffffffff00000000000000000000000000000000000000000000000000000000\n        /* \"#utility.yul\":22894:22899   */\n      dup3\n        /* \"#utility.yul\":22890:22968   */\n      and\n        /* \"#utility.yul\":22879:22968   */\n      swap1\n      pop\n        /* \"#utility.yul\":22825:22974   */\n      swap2\n      swap1\n      pop\n      jump\t// out\n        /* \"#utility.yul\":22980:23098   */\n    tag_523:\n        /* \"#utility.yul\":23017:23024   */\n      0x00\n        /* \"#utility.yul\":23057:23091   */\n      0xffffffffffffffffffffffffffffffff\n        /* \"#utility.yul\":23050:23055   */\n      dup3\n        /* \"#utility.yul\":23046:23092   */\n      and\n        /* \"#utility.yul\":23035:23092   */\n      swap1\n      pop\n        /* \"#utility.yul\":22980:23098   */\n      swap2\n      swap1\n      pop\n      jump\t// out\n        /* \"#utility.yul\":23104:23230   */\n    tag_545:\n        /* \"#utility.yul\":23141:23148   */\n      0x00\n        /* \"#utility.yul\":23181:23223   */\n      0xffffffffffffffffffffffffffffffffffffffff\n        /* \"#utility.yul\":23174:23179   */\n      dup3\n        /* \"#utility.yul\":23170:23224   */\n      and\n        /* \"#utility.yul\":23159:23224   */\n      swap1\n      pop\n        /* \"#utility.yul\":23104:23230   */\n      swap2\n      swap1\n      pop\n      jump\t// out\n        /* \"#utility.yul\":23236:23313   */\n    tag_462:\n        /* \"#utility.yul\":23273:23280   */\n      0x00\n        /* \"#utility.yul\":23302:23307   */\n      dup2\n        /* \"#utility.yul\":23291:23307   */\n      swap1\n      pop\n        /* \"#utility.yul\":23236:23313   */\n      swap2\n      swap1\n      pop\n      jump\t// out\n        /* \"#utility.yul\":23319:23473   */\n    tag_284:\n        /* \"#utility.yul\":23403:23409   */\n      dup3\n        /* \"#utility.yul\":23398:23401   */\n      dup2\n        /* \"#utility.yul\":23393:23396   */\n      dup4\n        /* \"#utility.yul\":23380:23410   */\n      calldatacopy\n        /* \"#utility.yul\":23465:23466   */\n      0x00\n        /* \"#utility.yul\":23456:23462   */\n      dup4\n        /* \"#utility.yul\":23451:23454   */\n      dup4\n        /* \"#utility.yul\":23447:23463   */\n      add\n        /* \"#utility.yul\":23440:23467   */\n      mstore\n        /* \"#utility.yul\":23319:23473   */\n      pop\n      pop\n      pop\n      jump\t// out\n        /* \"#utility.yul\":23479:23786   */\n    tag_373:\n        /* \"#utility.yul\":23547:23548   */\n      0x00\n        /* \"#utility.yul\":23557:23670   */\n    tag_554:\n        /* \"#utility.yul\":23571:23577   */\n      dup4\n        /* \"#utility.yul\":23568:23569   */\n      dup2\n        /* \"#utility.yul\":23565:23578   */\n      lt\n        /* \"#utility.yul\":23557:23670   */\n      iszero\n      tag_556\n      jumpi\n        /* \"#utility.yul\":23656:23657   */\n      dup1\n        /* \"#utility.yul\":23651:23654   */\n      dup3\n        /* \"#utility.yul\":23647:23658   */\n      add\n        /* \"#utility.yul\":23641:23659   */\n      mload\n        /* \"#utility.yul\":23637:23638   */\n      dup2\n        /* \"#utility.yul\":23632:23635   */\n      dup5\n        /* \"#utility.yul\":23628:23639   */\n      add\n        /* \"#utility.yul\":23621:23660   */\n      mstore\n        /* \"#utility.yul\":23593:23595   */\n      0x20\n        /* \"#utility.yul\":23590:23591   */\n      dup2\n        /* \"#utility.yul\":23586:23596   */\n      add\n        /* \"#utility.yul\":23581:23596   */\n      swap1\n      pop\n        /* \"#utility.yul\":23557:23670   */\n      jump(tag_554)\n    tag_556:\n        /* \"#utility.yul\":23688:23694   */\n      dup4\n        /* \"#utility.yul\":23685:23686   */\n      dup2\n        /* \"#utility.yul\":23682:23695   */\n      gt\n        /* \"#utility.yul\":23679:23780   */\n      iszero\n      tag_557\n      jumpi\n        /* \"#utility.yul\":23768:23769   */\n      0x00\n        /* \"#utility.yul\":23759:23765   */\n      dup5\n        /* \"#utility.yul\":23754:23757   */\n      dup5\n        /* \"#utility.yul\":23750:23766   */\n      add\n        /* \"#utility.yul\":23743:23770   */\n      mstore\n        /* \"#utility.yul\":23679:23780   */\n    tag_557:\n        /* \"#utility.yul\":23528:23786   */\n      pop\n        /* \"#utility.yul\":23479:23786   */\n      pop\n      pop\n      pop\n      jump\t// out\n        /* \"#utility.yul\":23792:23963   */\n    tag_244:\n        /* \"#utility.yul\":23831:23834   */\n      0x00\n        /* \"#utility.yul\":23854:23878   */\n      tag_559\n        /* \"#utility.yul\":23872:23877   */\n      dup3\n        /* \"#utility.yul\":23854:23878   */\n      tag_462\n      jump\t// in\n    tag_559:\n        /* \"#utility.yul\":23845:23878   */\n      swap2\n      pop\n        /* \"#utility.yul\":23900:23904   */\n      0x00\n        /* \"#utility.yul\":23893:23898   */\n      dup3\n        /* \"#utility.yul\":23890:23905   */\n      eq\n        /* \"#utility.yul\":23887:23928   */\n      iszero\n      tag_560\n      jumpi\n        /* \"#utility.yul\":23908:23926   */\n      tag_561\n      tag_527\n      jump\t// in\n    tag_561:\n        /* \"#utility.yul\":23887:23928   */\n    tag_560:\n        /* \"#utility.yul\":23955:23956   */\n      0x01\n        /* \"#utility.yul\":23948:23953   */\n      dup3\n        /* \"#utility.yul\":23944:23957   */\n      sub\n        /* \"#utility.yul\":23937:23957   */\n      swap1\n      pop\n        /* \"#utility.yul\":23792:23963   */\n      swap2\n      swap1\n      pop\n      jump\t// out\n        /* \"#utility.yul\":23969:24289   */\n    tag_102:\n        /* \"#utility.yul\":24013:24019   */\n      0x00\n        /* \"#utility.yul\":24050:24051   */\n      0x02\n        /* \"#utility.yul\":24044:24048   */\n      dup3\n        /* \"#utility.yul\":24040:24052   */\n      div\n        /* \"#utility.yul\":24030:24052   */\n      swap1\n      pop\n        /* \"#utility.yul\":24097:24098   */\n      0x01\n        /* \"#utility.yul\":24091:24095   */\n      dup3\n        /* \"#utility.yul\":24087:24099   */\n      and\n        /* \"#utility.yul\":24118:24136   */\n      dup1\n        /* \"#utility.yul\":24108:24189   */\n      tag_563\n      jumpi\n        /* \"#utility.yul\":24174:24178   */\n      0x7f\n        /* \"#utility.yul\":24166:24172   */\n      dup3\n        /* \"#utility.yul\":24162:24179   */\n      and\n        /* \"#utility.yul\":24152:24179   */\n      swap2\n      pop\n        /* \"#utility.yul\":24108:24189   */\n    tag_563:\n        /* \"#utility.yul\":24236:24238   */\n      0x20\n        /* \"#utility.yul\":24228:24234   */\n      dup3\n        /* \"#utility.yul\":24225:24239   */\n      lt\n        /* \"#utility.yul\":24205:24223   */\n      dup2\n        /* \"#utility.yul\":24202:24240   */\n      eq\n        /* \"#utility.yul\":24199:24283   */\n      iszero\n      tag_564\n      jumpi\n        /* \"#utility.yul\":24255:24273   */\n      tag_565\n      tag_566\n      jump\t// in\n    tag_565:\n        /* \"#utility.yul\":24199:24283   */\n    tag_564:\n        /* \"#utility.yul\":24020:24289   */\n      pop\n        /* \"#utility.yul\":23969:24289   */\n      swap2\n      swap1\n      pop\n      jump\t// out\n        /* \"#utility.yul\":24295:24576   */\n    tag_510:\n        /* \"#utility.yul\":24378:24405   */\n      tag_568\n        /* \"#utility.yul\":24400:24404   */\n      dup3\n        /* \"#utility.yul\":24378:24405   */\n      tag_375\n      jump\t// in\n    tag_568:\n        /* \"#utility.yul\":24370:24376   */\n      dup2\n        /* \"#utility.yul\":24366:24406   */\n      add\n        /* \"#utility.yul\":24508:24514   */\n      dup2\n        /* \"#utility.yul\":24496:24506   */\n      dup2\n        /* \"#utility.yul\":24493:24515   */\n      lt\n        /* \"#utility.yul\":24472:24490   */\n      0xffffffffffffffff\n        /* \"#utility.yul\":24460:24470   */\n      dup3\n        /* \"#utility.yul\":24457:24491   */\n      gt\n        /* \"#utility.yul\":24454:24516   */\n      or\n        /* \"#utility.yul\":24451:24539   */\n      iszero\n      tag_569\n      jumpi\n        /* \"#utility.yul\":24519:24537   */\n      tag_570\n      tag_515\n      jump\t// in\n    tag_570:\n        /* \"#utility.yul\":24451:24539   */\n    tag_569:\n        /* \"#utility.yul\":24559:24569   */\n      dup1\n        /* \"#utility.yul\":24555:24557   */\n      0x40\n        /* \"#utility.yul\":24548:24570   */\n      mstore\n        /* \"#utility.yul\":24338:24576   */\n      pop\n        /* \"#utility.yul\":24295:24576   */\n      pop\n      pop\n      jump\t// out\n        /* \"#utility.yul\":24582:24815   */\n    tag_145:\n        /* \"#utility.yul\":24621:24624   */\n      0x00\n        /* \"#utility.yul\":24644:24668   */\n      tag_572\n        /* \"#utility.yul\":24662:24667   */\n      dup3\n        /* \"#utility.yul\":24644:24668   */\n      tag_462\n      jump\t// in\n    tag_572:\n        /* \"#utility.yul\":24635:24668   */\n      swap2\n      pop\n        /* \"#utility.yul\":24690:24756   */\n      0xffffffffffffffffffffffffffffffffffffffffffffffffffffffffffffffff\n        /* \"#utility.yul\":24683:24688   */\n      dup3\n        /* \"#utility.yul\":24680:24757   */\n      eq\n        /* \"#utility.yul\":24677:24780   */\n      iszero\n      tag_573\n      jumpi\n        /* \"#utility.yul\":24760:24778   */\n      tag_574\n      tag_527\n      jump\t// in\n    tag_574:\n        /* \"#utility.yul\":24677:24780   */\n    tag_573:\n        /* \"#utility.yul\":24807:24808   */\n      0x01\n        /* \"#utility.yul\":24800:24805   */\n      dup3\n        /* \"#utility.yul\":24796:24809   */\n      add\n        /* \"#utility.yul\":24789:24809   */\n      swap1\n      pop\n        /* \"#utility.yul\":24582:24815   */\n      swap2\n      swap1\n      pop\n      jump\t// out\n        /* \"#utility.yul\":24821:25001   */\n    tag_527:\n        /* \"#utility.yul\":24869:24946   */\n      0x4e487b7100000000000000000000000000000000000000000000000000000000\n        /* \"#utility.yul\":24866:24867   */\n      0x00\n        /* \"#utility.yul\":24859:24947   */\n      mstore\n        /* \"#utility.yul\":24966:24970   */\n      0x11\n        /* \"#utility.yul\":24963:24964   */\n      0x04\n        /* \"#utility.yul\":24956:24971   */\n      mstore\n        /* \"#utility.yul\":24990:24994   */\n      0x24\n        /* \"#utility.yul\":24987:24988   */\n      0x00\n        /* \"#utility.yul\":24980:24995   */\n      revert\n        /* \"#utility.yul\":25007:25187   */\n    tag_566:\n        /* \"#utility.yul\":25055:25132   */\n      0x4e487b7100000000000000000000000000000000000000000000000000000000\n        /* \"#utility.yul\":25052:25053   */\n      0x00\n        /* \"#utility.yul\":25045:25133   */\n      mstore\n        /* \"#utility.yul\":25152:25156   */\n      0x22\n        /* \"#utility.yul\":25149:25150   */\n      0x04\n        /* \"#utility.yul\":25142:25157   */\n      mstore\n        /* \"#utility.yul\":25176:25180   */\n      0x24\n        /* \"#utility.yul\":25173:25174   */\n      0x00\n        /* \"#utility.yul\":25166:25181   */\n      revert\n        /* \"#utility.yul\":25193:25373   */\n    tag_515:\n        /* \"#utility.yul\":25241:25318   */\n      0x4e487b7100000000000000000000000000000000000000000000000000000000\n        /* \"#utility.yul\":25238:25239   */\n      0x00\n        /* \"#utility.yul\":25231:25319   */\n      mstore\n        /* \"#utility.yul\":25338:25342   */\n      0x41\n        /* \"#utility.yul\":25335:25336   */\n      0x04\n        /* \"#utility.yul\":25328:25343   */\n      mstore\n        /* \"#utility.yul\":25362:25366   */\n      0x24\n        /* \"#utility.yul\":25359:25360   */\n      0x00\n        /* \"#utility.yul\":25352:25367   */\n      revert\n        /* \"#utility.yul\":25379:25496   */\n    tag_304:\n        /* \"#utility.yul\":25488:25489   */\n      0x00\n        /* \"#utility.yul\":25485:25486   */\n      dup1\n        /* \"#utility.yul\":25478:25490   */\n      revert\n        /* \"#utility.yul\":25502:25619   */\n    tag_282:\n        /* \"#utility.yul\":25611:25612   */\n      0x00\n        /* \"#utility.yul\":25608:25609   */\n      dup1\n        /* \"#utility.yul\":25601:25613   */\n      revert\n        /* \"#utility.yul\":25625:25742   */\n    tag_334:\n        /* \"#utility.yul\":25734:25735   */\n      0x00\n        /* \"#utility.yul\":25731:25732   */\n      dup1\n        /* \"#utility.yul\":25724:25736   */\n      revert\n        /* \"#utility.yul\":25748:25865   */\n    tag_313:\n        /* \"#utility.yul\":25857:25858   */\n      0x00\n        /* \"#utility.yul\":25854:25855   */\n      dup1\n        /* \"#utility.yul\":25847:25859   */\n      revert\n        /* \"#utility.yul\":25871:25973   */\n    tag_375:\n        /* \"#utility.yul\":25912:25918   */\n      0x00\n        /* \"#utility.yul\":25963:25965   */\n      0x1f\n        /* \"#utility.yul\":25959:25966   */\n      not\n        /* \"#utility.yul\":25954:25956   */\n      0x1f\n        /* \"#utility.yul\":25947:25952   */\n      dup4\n        /* \"#utility.yul\":25943:25957   */\n      add\n        /* \"#utility.yul\":25939:25967   */\n      and\n        /* \"#utility.yul\":25929:25967   */\n      swap1\n      pop\n        /* \"#utility.yul\":25871:25973   */\n      swap2\n      swap1\n      pop\n      jump\t// out\n        /* \"#utility.yul\":25979:26200   */\n    tag_388:\n        /* \"#utility.yul\":26119:26153   */\n      0x455243373231413a206f776e657220696e646578206f7574206f6620626f756e\n        /* \"#utility.yul\":26115:26116   */\n      0x00\n        /* \"#utility.yul\":26107:26113   */\n      dup3\n        /* \"#utility.yul\":26103:26117   */\n      add\n        /* \"#utility.yul\":26096:26154   */\n      mstore\n        /* \"#utility.yul\":26188:26192   */\n      0x6473000000000000000000000000000000000000000000000000000000000000\n        /* \"#utility.yul\":26183:26185   */\n      0x20\n        /* \"#utility.yul\":26175:26181   */\n      dup3\n        /* \"#utility.yul\":26171:26186   */\n      add\n        /* \"#utility.yul\":26164:26193   */\n      mstore\n        /* \"#utility.yul\":25979:26200   */\n      pop\n      jump\t// out\n        /* \"#utility.yul\":26206:26435   */\n    tag_393:\n        /* \"#utility.yul\":26346:26380   */\n      0x455243373231413a206f776e657220717565727920666f72206e6f6e65786973\n        /* \"#utility.yul\":26342:26343   */\n      0x00\n        /* \"#utility.yul\":26334:26340   */\n      dup3\n        /* \"#utility.yul\":26330:26344   */\n      add\n        /* \"#utility.yul\":26323:26381   */\n      mstore\n        /* \"#utility.yul\":26415:26427   */\n      0x74656e7420746f6b656e00000000000000000000000000000000000000000000\n        /* \"#utility.yul\":26410:26412   */\n      0x20\n        /* \"#utility.yul\":26402:26408   */\n      dup3\n        /* \"#utility.yul\":26398:26413   */\n      add\n        /* \"#utility.yul\":26391:26428   */\n      mstore\n        /* \"#utility.yul\":26206:26435   */\n      pop\n      jump\t// out\n        /* \"#utility.yul\":26441:26663   */\n    tag_398:\n        /* \"#utility.yul\":26581:26615   */\n      0x455243373231413a20676c6f62616c20696e646578206f7574206f6620626f75\n        /* \"#utility.yul\":26577:26578   */\n      0x00\n        /* \"#utility.yul\":26569:26575   */\n      dup3\n        /* \"#utility.yul\":26565:26579   */\n      add\n        /* \"#utility.yul\":26558:26616   */\n      mstore\n        /* \"#utility.yul\":26650:26655   */\n      0x6e64730000000000000000000000000000000000000000000000000000000000\n        /* \"#utility.yul\":26645:26647   */\n      0x20\n        /* \"#utility.yul\":26637:26643   */\n      dup3\n        /* \"#utility.yul\":26633:26648   */\n      add\n        /* \"#utility.yul\":26626:26656   */\n      mstore\n        /* \"#utility.yul\":26441:26663   */\n      pop\n      jump\t// out\n        /* \"#utility.yul\":26669:26893   */\n    tag_403:\n        /* \"#utility.yul\":26809:26843   */\n      0x455243373231413a207472616e7366657220746f20746865207a65726f206164\n        /* \"#utility.yul\":26805:26806   */\n      0x00\n        /* \"#utility.yul\":26797:26803   */\n      dup3\n        /* \"#utility.yul\":26793:26807   */\n      add\n        /* \"#utility.yul\":26786:26844   */\n      mstore\n        /* \"#utility.yul\":26878:26885   */\n      0x6472657373000000000000000000000000000000000000000000000000000000\n        /* \"#utility.yul\":26873:26875   */\n      0x20\n        /* \"#utility.yul\":26865:26871   */\n      dup3\n        /* \"#utility.yul\":26861:26876   */\n      add\n        /* \"#utility.yul\":26854:26886   */\n      mstore\n        /* \"#utility.yul\":26669:26893   */\n      pop\n      jump\t// out\n        /* \"#utility.yul\":26899:27143   */\n    tag_408:\n        /* \"#utility.yul\":27039:27073   */\n      0x455243373231413a20617070726f76652063616c6c6572206973206e6f74206f\n        /* \"#utility.yul\":27035:27036   */\n      0x00\n        /* \"#utility.yul\":27027:27033   */\n      dup3\n        /* \"#utility.yul\":27023:27037   */\n      add\n        /* \"#utility.yul\":27016:27074   */\n      mstore\n        /* \"#utility.yul\":27108:27135   */\n      0x776e6572206e6f7220617070726f76656420666f7220616c6c00000000000000\n        /* \"#utility.yul\":27103:27105   */\n      0x20\n        /* \"#utility.yul\":27095:27101   */\n      dup3\n        /* \"#utility.yul\":27091:27106   */\n      add\n        /* \"#utility.yul\":27084:27136   */\n      mstore\n        /* \"#utility.yul\":26899:27143   */\n      pop\n      jump\t// out\n        /* \"#utility.yul\":27149:27379   */\n    tag_413:\n        /* \"#utility.yul\":27289:27323   */\n      0x455243373231413a2062616c616e636520717565727920666f7220746865207a\n        /* \"#utility.yul\":27285:27286   */\n      0x00\n        /* \"#utility.yul\":27277:27283   */\n      dup3\n        /* \"#utility.yul\":27273:27287   */\n      add\n        /* \"#utility.yul\":27266:27324   */\n      mstore\n        /* \"#utility.yul\":27358:27371   */\n      0x65726f2061646472657373000000000000000000000000000000000000000000\n        /* \"#utility.yul\":27353:27355   */\n      0x20\n        /* \"#utility.yul\":27345:27351   */\n      dup3\n        /* \"#utility.yul\":27341:27356   */\n      add\n        /* \"#utility.yul\":27334:27372   */\n      mstore\n        /* \"#utility.yul\":27149:27379   */\n      pop\n      jump\t// out\n        /* \"#utility.yul\":27385:27610   */\n    tag_418:\n        /* \"#utility.yul\":27525:27559   */\n      0x455243373231413a207472616e736665722066726f6d20696e636f7272656374\n        /* \"#utility.yul\":27521:27522   */\n      0x00\n        /* \"#utility.yul\":27513:27519   */\n      dup3\n        /* \"#utility.yul\":27509:27523   */\n      add\n        /* \"#utility.yul\":27502:27560   */\n      mstore\n        /* \"#utility.yul\":27594:27602   */\n      0x206f776e65720000000000000000000000000000000000000000000000000000\n        /* \"#utility.yul\":27589:27591   */\n      0x20\n        /* \"#utility.yul\":27581:27587   */\n      dup3\n        /* \"#utility.yul\":27577:27592   */\n      add\n        /* \"#utility.yul\":27570:27603   */\n      mstore\n        /* \"#utility.yul\":27385:27610   */\n      pop\n      jump\t// out\n        /* \"#utility.yul\":27616:27850   */\n    tag_423:\n        /* \"#utility.yul\":27756:27790   */\n      0x4552433732314d657461646174613a2055524920717565727920666f72206e6f\n        /* \"#utility.yul\":27752:27753   */\n      0x00\n        /* \"#utility.yul\":27744:27750   */\n      dup3\n        /* \"#utility.yul\":27740:27754   */\n      add\n        /* \"#utility.yul\":27733:27791   */\n      mstore\n        /* \"#utility.yul\":27825:27842   */\n      0x6e6578697374656e7420746f6b656e0000000000000000000000000000000000\n        /* \"#utility.yul\":27820:27822   */\n      0x20\n        /* \"#utility.yul\":27812:27818   */\n      dup3\n        /* \"#utility.yul\":27808:27823   */\n      add\n        /* \"#utility.yul\":27801:27843   */\n      mstore\n        /* \"#utility.yul\":27616:27850   */\n      pop\n      jump\t// out\n        /* \"#utility.yul\":27856:28032   */\n    tag_428:\n        /* \"#utility.yul\":27996:28024   */\n      0x455243373231413a20617070726f766520746f2063616c6c6572000000000000\n        /* \"#utility.yul\":27992:27993   */\n      0x00\n        /* \"#utility.yul\":27984:27990   */\n      dup3\n        /* \"#utility.yul\":27980:27994   */\n      add\n        /* \"#utility.yul\":27973:28025   */\n      mstore\n        /* \"#utility.yul\":27856:28032   */\n      pop\n      jump\t// out\n        /* \"#utility.yul\":28038:28275   */\n    tag_433:\n        /* \"#utility.yul\":28178:28212   */\n      0x455243373231413a207472616e736665722063616c6c6572206973206e6f7420\n        /* \"#utility.yul\":28174:28175   */\n      0x00\n        /* \"#utility.yul\":28166:28172   */\n      dup3\n        /* \"#utility.yul\":28162:28176   */\n      add\n        /* \"#utility.yul\":28155:28213   */\n      mstore\n        /* \"#utility.yul\":28247:28267   */\n      0x6f776e6572206e6f7220617070726f7665640000000000000000000000000000\n        /* \"#utility.yul\":28242:28244   */\n      0x20\n        /* \"#utility.yul\":28234:28240   */\n      dup3\n        /* \"#utility.yul\":28230:28245   */\n      add\n        /* \"#utility.yul\":28223:28268   */\n      mstore\n        /* \"#utility.yul\":28038:28275   */\n      pop\n      jump\t// out\n        /* \"#utility.yul\":28281:28502   */\n    tag_438:\n        /* \"#utility.yul\":28421:28455   */\n      0x455243373231413a20617070726f76616c20746f2063757272656e74206f776e\n        /* \"#utility.yul\":28417:28418   */\n      0x00\n        /* \"#utility.yul\":28409:28415   */\n      dup3\n        /* \"#utility.yul\":28405:28419   */\n      add\n        /* \"#utility.yul\":28398:28456   */\n      mstore\n        /* \"#utility.yul\":28490:28494   */\n      0x6572000000000000000000000000000000000000000000000000000000000000\n        /* \"#utility.yul\":28485:28487   */\n      0x20\n        /* \"#utility.yul\":28477:28483   */\n      dup3\n        /* \"#utility.yul\":28473:28488   */\n      add\n        /* \"#utility.yul\":28466:28495   */\n      mstore\n        /* \"#utility.yul\":28281:28502   */\n      pop\n      jump\t// out\n        /* \"#utility.yul\":28508:28746   */\n    tag_443:\n        /* \"#utility.yul\":28648:28682   */\n      0x455243373231413a207472616e7366657220746f206e6f6e2045524337323152\n        /* \"#utility.yul\":28644:28645   */\n      0x00\n        /* \"#utility.yul\":28636:28642   */\n      dup3\n        /* \"#utility.yul\":28632:28646   */\n      add\n        /* \"#utility.yul\":28625:28683   */\n      mstore\n        /* \"#utility.yul\":28717:28738   */\n      0x6563656976657220696d706c656d656e74657200000000000000000000000000\n        /* \"#utility.yul\":28712:28714   */\n      0x20\n        /* \"#utility.yul\":28704:28710   */\n      dup3\n        /* \"#utility.yul\":28700:28715   */\n      add\n        /* \"#utility.yul\":28693:28739   */\n      mstore\n        /* \"#utility.yul\":28508:28746   */\n      pop\n      jump\t// out\n        /* \"#utility.yul\":28752:28985   */\n    tag_448:\n        /* \"#utility.yul\":28892:28926   */\n      0x455243373231413a20756e61626c6520746f2067657420746f6b656e206f6620\n        /* \"#utility.yul\":28888:28889   */\n      0x00\n        /* \"#utility.yul\":28880:28886   */\n      dup3\n        /* \"#utility.yul\":28876:28890   */\n      add\n        /* \"#utility.yul\":28869:28927   */\n      mstore\n        /* \"#utility.yul\":28961:28977   */\n      0x6f776e657220627920696e646578000000000000000000000000000000000000\n        /* \"#utility.yul\":28956:28958   */\n      0x20\n        /* \"#utility.yul\":28948:28954   */\n      dup3\n        /* \"#utility.yul\":28944:28959   */\n      add\n        /* \"#utility.yul\":28937:28978   */\n      mstore\n        /* \"#utility.yul\":28752:28985   */\n      pop\n      jump\t// out\n        /* \"#utility.yul\":28991:29225   */\n    tag_453:\n        /* \"#utility.yul\":29131:29165   */\n      0x455243373231413a20756e61626c6520746f2064657465726d696e6520746865\n        /* \"#utility.yul\":29127:29128   */\n      0x00\n        /* \"#utility.yul\":29119:29125   */\n      dup3\n        /* \"#utility.yul\":29115:29129   */\n      add\n        /* \"#utility.yul\":29108:29166   */\n      mstore\n        /* \"#utility.yul\":29200:29217   */\n      0x206f776e6572206f6620746f6b656e0000000000000000000000000000000000\n        /* \"#utility.yul\":29195:29197   */\n      0x20\n        /* \"#utility.yul\":29187:29193   */\n      dup3\n        /* \"#utility.yul\":29183:29198   */\n      add\n        /* \"#utility.yul\":29176:29218   */\n      mstore\n        /* \"#utility.yul\":28991:29225   */\n      pop\n      jump\t// out\n        /* \"#utility.yul\":29231:29463   */\n    tag_458:\n        /* \"#utility.yul\":29371:29405   */\n      0x455243373231413a20617070726f76656420717565727920666f72206e6f6e65\n        /* \"#utility.yul\":29367:29368   */\n      0x00\n        /* \"#utility.yul\":29359:29365   */\n      dup3\n        /* \"#utility.yul\":29355:29369   */\n      add\n        /* \"#utility.yul\":29348:29406   */\n      mstore\n        /* \"#utility.yul\":29440:29455   */\n      0x78697374656e7420746f6b656e00000000000000000000000000000000000000\n        /* \"#utility.yul\":29435:29437   */\n      0x20\n        /* \"#utility.yul\":29427:29433   */\n      dup3\n        /* \"#utility.yul\":29423:29438   */\n      add\n        /* \"#utility.yul\":29416:29456   */\n      mstore\n        /* \"#utility.yul\":29231:29463   */\n      pop\n      jump\t// out\n        /* \"#utility.yul\":29469:29591   */\n    tag_288:\n        /* \"#utility.yul\":29542:29566   */\n      tag_599\n        /* \"#utility.yul\":29560:29565   */\n      dup2\n        /* \"#utility.yul\":29542:29566   */\n      tag_361\n      jump\t// in\n    tag_599:\n        /* \"#utility.yul\":29535:29540   */\n      dup2\n        /* \"#utility.yul\":29532:29567   */\n      eq\n        /* \"#utility.yul\":29522:29585   */\n      tag_600\n      jumpi\n        /* \"#utility.yul\":29581:29582   */\n      0x00\n        /* \"#utility.yul\":29578:29579   */\n      dup1\n        /* \"#utility.yul\":29571:29583   */\n      revert\n        /* \"#utility.yul\":29522:29585   */\n    tag_600:\n        /* \"#utility.yul\":29469:29591   */\n      pop\n      jump\t// out\n        /* \"#utility.yul\":29597:29713   */\n    tag_292:\n        /* \"#utility.yul\":29667:29688   */\n      tag_602\n        /* \"#utility.yul\":29682:29687   */\n      dup2\n        /* \"#utility.yul\":29667:29688   */\n      tag_365\n      jump\t// in\n    tag_602:\n        /* \"#utility.yul\":29660:29665   */\n      dup2\n        /* \"#utility.yul\":29657:29689   */\n      eq\n        /* \"#utility.yul\":29647:29707   */\n      tag_603\n      jumpi\n        /* \"#utility.yul\":29703:29704   */\n      0x00\n        /* \"#utility.yul\":29700:29701   */\n      dup1\n        /* \"#utility.yul\":29693:29705   */\n      revert\n        /* \"#utility.yul\":29647:29707   */\n    tag_603:\n        /* \"#utility.yul\":29597:29713   */\n      pop\n      jump\t// out\n        /* \"#utility.yul\":29719:29839   */\n    tag_296:\n        /* \"#utility.yul\":29791:29814   */\n      tag_605\n        /* \"#utility.yul\":29808:29813   */\n      dup2\n        /* \"#utility.yul\":29791:29814   */\n      tag_547\n      jump\t// in\n    tag_605:\n        /* \"#utility.yul\":29784:29789   */\n      dup2\n        /* \"#utility.yul\":29781:29815   */\n      eq\n        /* \"#utility.yul\":29771:29833   */\n      tag_606\n      jumpi\n        /* \"#utility.yul\":29829:29830   */\n      0x00\n        /* \"#utility.yul\":29826:29827   */\n      dup1\n        /* \"#utility.yul\":29819:29831   */\n      revert\n        /* \"#utility.yul\":29771:29833   */\n    tag_606:\n        /* \"#utility.yul\":29719:29839   */\n      pop\n      jump\t// out\n        /* \"#utility.yul\":29845:29967   */\n    tag_309:\n        /* \"#utility.yul\":29918:29942   */\n      tag_608\n        /* \"#utility.yul\":29936:29941   */\n      dup2\n        /* \"#utility.yul\":29918:29942   */\n      tag_462\n      jump\t// in\n    tag_608:\n        /* \"#utility.yul\":29911:29916   */\n      dup2\n        /* \"#utility.yul\":29908:29943   */\n      eq\n        /* \"#utility.yul\":29898:29961   */\n      tag_609\n      jumpi\n        /* \"#utility.yul\":29957:29958   */\n      0x00\n        /* \"#utility.yul\":29954:29955   */\n      dup1\n        /* \"#utility.yul\":29947:29959   */\n      revert\n        /* \"#utility.yul\":29898:29961   */\n    tag_609:\n        /* \"#utility.yul\":29845:29967   */\n      pop\n      jump\t// out\n\n    auxdata: 0xa26469706673582212209ca65088c2dabf463ab340529072e7aaf3e25df99d79cbe8c6dda1172339010f64736f6c63430008070033\n}\n",
				"bytecode": {
					"linkReferences": {},
					"object": "60c06040526000805560006007553480156200001a57600080fd5b50604051620030743803806200307483398181016040528101906200004091906200025d565b6000811162000086576040517f08c379a00000000000000000000000000000000000000000000000000000000081526004016200007d906200037d565b60405180910390fd5b60008211620000cc576040517f08c379a0000000000000000000000000000000000000000000000000000000008152600401620000c3906200035b565b60405180910390fd5b8360019080519060200190620000e492919062000118565b508260029080519060200190620000fd92919062000118565b508160a08181525050806080818152505050505050620005f6565b82805462000126906200044f565b90600052602060002090601f0160209004810192826200014a576000855562000196565b82601f106200016557805160ff191683800117855562000196565b8280016001018555821562000196579182015b828111156200019557825182559160200191906001019062000178565b5b509050620001a59190620001a9565b5090565b5b80821115620001c4576000816000905550600101620001aa565b5090565b6000620001df620001d984620003c8565b6200039f565b905082815260208101848484011115620001fe57620001fd6200051e565b5b6200020b84828562000419565b509392505050565b600082601f8301126200022b576200022a62000519565b5b81516200023d848260208601620001c8565b91505092915050565b6000815190506200025781620005dc565b92915050565b600080600080608085870312156200027a576200027962000528565b5b600085015167ffffffffffffffff8111156200029b576200029a62000523565b5b620002a98782880162000213565b945050602085015167ffffffffffffffff811115620002cd57620002cc62000523565b5b620002db8782880162000213565b9350506040620002ee8782880162000246565b9250506060620003018782880162000246565b91505092959194509250565b60006200031c602783620003fe565b915062000329826200053e565b604082019050919050565b600062000343602e83620003fe565b915062000350826200058d565b604082019050919050565b6000602082019050818103600083015262000376816200030d565b9050919050565b60006020820190508181036000830152620003988162000334565b9050919050565b6000620003ab620003be565b9050620003b9828262000485565b919050565b6000604051905090565b600067ffffffffffffffff821115620003e657620003e5620004ea565b5b620003f1826200052d565b9050602081019050919050565b600082825260208201905092915050565b6000819050919050565b60005b83811015620004395780820151818401526020810190506200041c565b8381111562000449576000848401525b50505050565b600060028204905060018216806200046857607f821691505b602082108114156200047f576200047e620004bb565b5b50919050565b62000490826200052d565b810181811067ffffffffffffffff82111715620004b257620004b1620004ea565b5b80604052505050565b7f4e487b7100000000000000000000000000000000000000000000000000000000600052602260045260246000fd5b7f4e487b7100000000000000000000000000000000000000000000000000000000600052604160045260246000fd5b600080fd5b600080fd5b600080fd5b600080fd5b6000601f19601f8301169050919050565b7f455243373231413a206d61782062617463682073697a65206d7573742062652060008201527f6e6f6e7a65726f00000000000000000000000000000000000000000000000000602082015250565b7f455243373231413a20636f6c6c656374696f6e206d757374206861766520612060008201527f6e6f6e7a65726f20737570706c79000000000000000000000000000000000000602082015250565b620005e7816200040f565b8114620005f357600080fd5b50565b60805160a051612a5462000620600039600081816115370152611560015260005050612a546000f3fe608060405234801561001057600080fd5b506004361061010b5760003560e01c80634f6ccce7116100a2578063a22cb46511610071578063a22cb465146102de578063b88d4fde146102fa578063c87b56dd14610316578063d7224ba014610346578063e985e9c5146103645761010b565b80634f6ccce7146102305780636352211e1461026057806370a082311461029057806395d89b41146102c05761010b565b806318160ddd116100de57806318160ddd146101aa57806323b872dd146101c85780632f745c59146101e457806342842e0e146102145761010b565b806301ffc9a71461011057806306fdde0314610140578063081812fc1461015e578063095ea7b31461018e575b600080fd5b61012a60048036038101906101259190611b89565b610394565b6040516101379190611f23565b60405180910390f35b6101486104de565b6040516101559190611f3e565b60405180910390f35b61017860048036038101906101739190611be3565b610570565b6040516101859190611ebc565b60405180910390f35b6101a860048036038101906101a39190611b49565b6105f5565b005b6101b261070e565b6040516101bf9190612140565b60405180910390f35b6101e260048036038101906101dd9190611a33565b610717565b005b6101fe60048036038101906101f99190611b49565b610727565b60405161020b9190612140565b60405180910390f35b61022e60048036038101906102299190611a33565b610925565b005b61024a60048036038101906102459190611be3565b610945565b6040516102579190612140565b60405180910390f35b61027a60048036038101906102759190611be3565b610998565b6040516102879190611ebc565b60405180910390f35b6102aa60048036038101906102a591906119c6565b6109ae565b6040516102b79190612140565b60405180910390f35b6102c8610a97565b6040516102d59190611f3e565b60405180910390f35b6102f860048036038101906102f39190611b09565b610b29565b005b610314600480360381019061030f9190611a86565b610caa565b005b610330600480360381019061032b9190611be3565b610d06565b60405161033d9190611f3e565b60405180910390f35b61034e610d5f565b60405161035b9190612140565b60405180910390f35b61037e600480360381019061037991906119f3565b610d65565b60405161038b9190611f23565b60405180910390f35b60007f80ac58cd000000000000000000000000000000000000000000000000000000007bffffffffffffffffffffffffffffffffffffffffffffffffffffffff1916827bffffffffffffffffffffffffffffffffffffffffffffffffffffffff1916148061045f57507f5b5e139f000000000000000000000000000000000000000000000000000000007bffffffffffffffffffffffffffffffffffffffffffffffffffffffff1916827bffffffffffffffffffffffffffffffffffffffffffffffffffffffff1916145b806104c757507f780e9d63000000000000000000000000000000000000000000000000000000007bffffffffffffffffffffffffffffffffffffffffffffffffffffffff1916827bffffffffffffffffffffffffffffffffffffffffffffffffffffffff1916145b806104d757506104d682610df9565b5b9050919050565b6060600180546104ed906123e9565b80601f0160208091040260200160405190810160405280929190818152602001828054610519906123e9565b80156105665780601f1061053b57610100808354040283529160200191610566565b820191906000526020600020905b81548152906001019060200180831161054957829003601f168201915b5050505050905090565b600061057b82610e63565b6105ba576040517f08c379a00000000000000000000000000000000000000000000000000000000081526004016105b190612120565b60405180910390fd5b6005600083815260200190815260200160002060009054906101000a900473ffffffffffffffffffffffffffffffffffffffff169050919050565b600061060082610998565b90508073ffffffffffffffffffffffffffffffffffffffff168373ffffffffffffffffffffffffffffffffffffffff161415610671576040517f08c379a0000000000000000000000000000000000000000000000000000000008152600401610668906120a0565b60405180910390fd5b8073ffffffffffffffffffffffffffffffffffffffff16610690610e70565b73ffffffffffffffffffffffffffffffffffffffff1614806106bf57506106be816106b9610e70565b610d65565b5b6106fe576040517f08c379a00000000000000000000000000000000000000000000000000000000081526004016106f590611fe0565b60405180910390fd5b610709838383610e78565b505050565b60008054905090565b610722838383610f2a565b505050565b6000610732836109ae565b8210610773576040517f08c379a000000000000000000000000000000000000000000000000000000000815260040161076a90611f60565b60405180910390fd5b600061077d61070e565b905060008060005b838110156108e3576000600360008381526020019081526020016000206040518060400160405290816000820160009054906101000a900473ffffffffffffffffffffffffffffffffffffffff1673ffffffffffffffffffffffffffffffffffffffff1673ffffffffffffffffffffffffffffffffffffffff1681526020016000820160149054906101000a900467ffffffffffffffff1667ffffffffffffffff1667ffffffffffffffff16815250509050600073ffffffffffffffffffffffffffffffffffffffff16816000015173ffffffffffffffffffffffffffffffffffffffff161461087757806000015192505b8773ffffffffffffffffffffffffffffffffffffffff168373ffffffffffffffffffffffffffffffffffffffff1614156108cf57868414156108c057819550505050505061091f565b83806108cb9061244c565b9450505b5080806108db9061244c565b915050610785565b506040517f08c379a0000000000000000000000000000000000000000000000000000000008152600401610916906120e0565b60405180910390fd5b92915050565b61094083838360405180602001604052806000815250610caa565b505050565b600061094f61070e565b8210610990576040517f08c379a000000000000000000000000000000000000000000000000000000000815260040161098790611fa0565b60405180910390fd5b819050919050565b60006109a3826114e3565b600001519050919050565b60008073ffffffffffffffffffffffffffffffffffffffff168273ffffffffffffffffffffffffffffffffffffffff161415610a1f576040517f08c379a0000000000000000000000000000000000000000000000000000000008152600401610a1690612000565b60405180910390fd5b600460008373ffffffffffffffffffffffffffffffffffffffff1673ffffffffffffffffffffffffffffffffffffffff16815260200190815260200160002060000160009054906101000a90046fffffffffffffffffffffffffffffffff166fffffffffffffffffffffffffffffffff169050919050565b606060028054610aa6906123e9565b80601f0160208091040260200160405190810160405280929190818152602001828054610ad2906123e9565b8015610b1f5780601f10610af457610100808354040283529160200191610b1f565b820191906000526020600020905b815481529060010190602001808311610b0257829003601f168201915b5050505050905090565b610b31610e70565b73ffffffffffffffffffffffffffffffffffffffff168273ffffffffffffffffffffffffffffffffffffffff161415610b9f576040517f08c379a0000000000000000000000000000000000000000000000000000000008152600401610b9690612060565b60405180910390fd5b8060066000610bac610e70565b73ffffffffffffffffffffffffffffffffffffffff1673ffffffffffffffffffffffffffffffffffffffff16815260200190815260200160002060008473ffffffffffffffffffffffffffffffffffffffff1673ffffffffffffffffffffffffffffffffffffffff16815260200190815260200160002060006101000a81548160ff0219169083151502179055508173ffffffffffffffffffffffffffffffffffffffff16610c59610e70565b73ffffffffffffffffffffffffffffffffffffffff167f17307eab39ab6107e8899845ad3d59bd9653f200f220920489ca2b5937696c3183604051610c9e9190611f23565b60405180910390a35050565b610cb5848484610f2a565b610cc1848484846116e6565b610d00576040517f08c379a0000000000000000000000000000000000000000000000000000000008152600401610cf7906120c0565b60405180910390fd5b50505050565b6060610d1182610e63565b610d50576040517f08c379a0000000000000000000000000000000000000000000000000000000008152600401610d4790612040565b60405180910390fd5b610d5861187d565b9050919050565b60075481565b6000600660008473ffffffffffffffffffffffffffffffffffffffff1673ffffffffffffffffffffffffffffffffffffffff16815260200190815260200160002060008373ffffffffffffffffffffffffffffffffffffffff1673ffffffffffffffffffffffffffffffffffffffff16815260200190815260200160002060009054906101000a900460ff16905092915050565b60007f01ffc9a7000000000000000000000000000000000000000000000000000000007bffffffffffffffffffffffffffffffffffffffffffffffffffffffff1916827bffffffffffffffffffffffffffffffffffffffffffffffffffffffff1916149050919050565b6000805482109050919050565b600033905090565b826005600084815260200190815260200160002060006101000a81548173ffffffffffffffffffffffffffffffffffffffff021916908373ffffffffffffffffffffffffffffffffffffffff160217905550818373ffffffffffffffffffffffffffffffffffffffff168273ffffffffffffffffffffffffffffffffffffffff167f8c5be1e5ebec7d5bd14f71427d1e84f3dd0314c0f7b2291e5b200ac8c7c3b92560405160405180910390a4505050565b6000610f35826114e3565b90506000816000015173ffffffffffffffffffffffffffffffffffffffff16610f5c610e70565b73ffffffffffffffffffffffffffffffffffffffff161480610fb85750610f81610e70565b73ffffffffffffffffffffffffffffffffffffffff16610fa084610570565b73ffffffffffffffffffffffffffffffffffffffff16145b80610fd45750610fd38260000151610fce610e70565b610d65565b5b905080611016576040517f08c379a000000000000000000000000000000000000000000000000000000000815260040161100d90612080565b60405180910390fd5b8473ffffffffffffffffffffffffffffffffffffffff16826000015173ffffffffffffffffffffffffffffffffffffffff1614611088576040517f08c379a000000000000000000000000000000000000000000000000000000000815260040161107f90612020565b60405180910390fd5b600073ffffffffffffffffffffffffffffffffffffffff168473ffffffffffffffffffffffffffffffffffffffff1614156110f8576040517f08c379a00000000000000000000000000000000000000000000000000000000081526004016110ef90611fc0565b60405180910390fd5b6111058585856001611894565b6111156000848460000151610e78565b6001600460008773ffffffffffffffffffffffffffffffffffffffff1673ffffffffffffffffffffffffffffffffffffffff16815260200190815260200160002060000160008282829054906101000a90046fffffffffffffffffffffffffffffffff166111839190612285565b92506101000a8154816fffffffffffffffffffffffffffffffff02191690836fffffffffffffffffffffffffffffffff1602179055506001600460008673ffffffffffffffffffffffffffffffffffffffff1673ffffffffffffffffffffffffffffffffffffffff16815260200190815260200160002060000160008282829054906101000a90046fffffffffffffffffffffffffffffffff1661122791906121e9565b92506101000a8154816fffffffffffffffffffffffffffffffff02191690836fffffffffffffffffffffffffffffffff16021790555060405180604001604052808573ffffffffffffffffffffffffffffffffffffffff1681526020014267ffffffffffffffff168152506003600085815260200190815260200160002060008201518160000160006101000a81548173ffffffffffffffffffffffffffffffffffffffff021916908373ffffffffffffffffffffffffffffffffffffffff16021790555060208201518160000160146101000a81548167ffffffffffffffff021916908367ffffffffffffffff160217905550905050600060018461132d919061222f565b9050600073ffffffffffffffffffffffffffffffffffffffff166003600083815260200190815260200160002060000160009054906101000a900473ffffffffffffffffffffffffffffffffffffffff1673ffffffffffffffffffffffffffffffffffffffff161415611473576113a381610e63565b15611472576040518060400160405280846000015173ffffffffffffffffffffffffffffffffffffffff168152602001846020015167ffffffffffffffff168152506003600083815260200190815260200160002060008201518160000160006101000a81548173ffffffffffffffffffffffffffffffffffffffff021916908373ffffffffffffffffffffffffffffffffffffffff16021790555060208201518160000160146101000a81548167ffffffffffffffff021916908367ffffffffffffffff1602179055509050505b5b838573ffffffffffffffffffffffffffffffffffffffff168773ffffffffffffffffffffffffffffffffffffffff167fddf252ad1be2c89b69c2b068fc378daa952ba7f163c4a11628f55a4df523b3ef60405160405180910390a46114db868686600161189a565b505050505050565b6114eb6118b3565b6114f482610e63565b611533576040517f08c379a000000000000000000000000000000000000000000000000000000000815260040161152a90611f80565b60405180910390fd5b60007f000000000000000000000000000000000000000000000000000000000000000083106115975760017f00000000000000000000000000000000000000000000000000000000000000008461158a91906122b9565b611594919061222f565b90505b60008390505b8181106116a5576000600360008381526020019081526020016000206040518060400160405290816000820160009054906101000a900473ffffffffffffffffffffffffffffffffffffffff1673ffffffffffffffffffffffffffffffffffffffff1673ffffffffffffffffffffffffffffffffffffffff1681526020016000820160149054906101000a900467ffffffffffffffff1667ffffffffffffffff1667ffffffffffffffff16815250509050600073ffffffffffffffffffffffffffffffffffffffff16816000015173ffffffffffffffffffffffffffffffffffffffff1614611691578093505050506116e1565b50808061169d906123bf565b91505061159d565b506040517f08c379a00000000000000000000000000000000000000000000000000000000081526004016116d890612100565b60405180910390fd5b919050565b60006117078473ffffffffffffffffffffffffffffffffffffffff166118a0565b15611870578373ffffffffffffffffffffffffffffffffffffffff1663150b7a02611730610e70565b8786866040518563ffffffff1660e01b81526004016117529493929190611ed7565b602060405180830381600087803b15801561176c57600080fd5b505af192505050801561179d57506040513d601f19601f8201168201806040525081019061179a9190611bb6565b60015b611820573d80600081146117cd576040519150601f19603f3d011682016040523d82523d6000602084013e6117d2565b606091505b50600081511415611818576040517f08c379a000000000000000000000000000000000000000000000000000000000815260040161180f906120c0565b60405180910390fd5b805181602001fd5b63150b7a0260e01b7bffffffffffffffffffffffffffffffffffffffffffffffffffffffff1916817bffffffffffffffffffffffffffffffffffffffffffffffffffffffff191614915050611875565b600190505b949350505050565b606060405180602001604052806000815250905090565b50505050565b50505050565b600080823b905060008111915050919050565b6040518060400160405280600073ffffffffffffffffffffffffffffffffffffffff168152602001600067ffffffffffffffff1681525090565b60006119006118fb84612180565b61215b565b90508281526020810184848401111561191c5761191b612527565b5b61192784828561237d565b509392505050565b60008135905061193e816129c2565b92915050565b600081359050611953816129d9565b92915050565b600081359050611968816129f0565b92915050565b60008151905061197d816129f0565b92915050565b600082601f83011261199857611997612522565b5b81356119a88482602086016118ed565b91505092915050565b6000813590506119c081612a07565b92915050565b6000602082840312156119dc576119db612531565b5b60006119ea8482850161192f565b91505092915050565b60008060408385031215611a0a57611a09612531565b5b6000611a188582860161192f565b9250506020611a298582860161192f565b9150509250929050565b600080600060608486031215611a4c57611a4b612531565b5b6000611a5a8682870161192f565b9350506020611a6b8682870161192f565b9250506040611a7c868287016119b1565b9150509250925092565b60008060008060808587031215611aa057611a9f612531565b5b6000611aae8782880161192f565b9450506020611abf8782880161192f565b9350506040611ad0878288016119b1565b925050606085013567ffffffffffffffff811115611af157611af061252c565b5b611afd87828801611983565b91505092959194509250565b60008060408385031215611b2057611b1f612531565b5b6000611b2e8582860161192f565b9250506020611b3f85828601611944565b9150509250929050565b60008060408385031215611b6057611b5f612531565b5b6000611b6e8582860161192f565b9250506020611b7f858286016119b1565b9150509250929050565b600060208284031215611b9f57611b9e612531565b5b6000611bad84828501611959565b91505092915050565b600060208284031215611bcc57611bcb612531565b5b6000611bda8482850161196e565b91505092915050565b600060208284031215611bf957611bf8612531565b5b6000611c07848285016119b1565b91505092915050565b611c19816122ed565b82525050565b611c28816122ff565b82525050565b6000611c39826121b1565b611c4381856121c7565b9350611c5381856020860161238c565b611c5c81612536565b840191505092915050565b6000611c72826121bc565b611c7c81856121d8565b9350611c8c81856020860161238c565b611c9581612536565b840191505092915050565b6000611cad6022836121d8565b9150611cb882612547565b604082019050919050565b6000611cd0602a836121d8565b9150611cdb82612596565b604082019050919050565b6000611cf36023836121d8565b9150611cfe826125e5565b604082019050919050565b6000611d166025836121d8565b9150611d2182612634565b604082019050919050565b6000611d396039836121d8565b9150611d4482612683565b604082019050919050565b6000611d5c602b836121d8565b9150611d67826126d2565b604082019050919050565b6000611d7f6026836121d8565b9150611d8a82612721565b604082019050919050565b6000611da2602f836121d8565b9150611dad82612770565b604082019050919050565b6000611dc5601a836121d8565b9150611dd0826127bf565b602082019050919050565b6000611de86032836121d8565b9150611df3826127e8565b604082019050919050565b6000611e0b6022836121d8565b9150611e1682612837565b604082019050919050565b6000611e2e6033836121d8565b9150611e3982612886565b604082019050919050565b6000611e51602e836121d8565b9150611e5c826128d5565b604082019050919050565b6000611e74602f836121d8565b9150611e7f82612924565b604082019050919050565b6000611e97602d836121d8565b9150611ea282612973565b604082019050919050565b611eb681612373565b82525050565b6000602082019050611ed16000830184611c10565b92915050565b6000608082019050611eec6000830187611c10565b611ef96020830186611c10565b611f066040830185611ead565b8181036060830152611f188184611c2e565b905095945050505050565b6000602082019050611f386000830184611c1f565b92915050565b60006020820190508181036000830152611f588184611c67565b905092915050565b60006020820190508181036000830152611f7981611ca0565b9050919050565b60006020820190508181036000830152611f9981611cc3565b9050919050565b60006020820190508181036000830152611fb981611ce6565b9050919050565b60006020820190508181036000830152611fd981611d09565b9050919050565b60006020820190508181036000830152611ff981611d2c565b9050919050565b6000602082019050818103600083015261201981611d4f565b9050919050565b6000602082019050818103600083015261203981611d72565b9050919050565b6000602082019050818103600083015261205981611d95565b9050919050565b6000602082019050818103600083015261207981611db8565b9050919050565b6000602082019050818103600083015261209981611ddb565b9050919050565b600060208201905081810360008301526120b981611dfe565b9050919050565b600060208201905081810360008301526120d981611e21565b9050919050565b600060208201905081810360008301526120f981611e44565b9050919050565b6000602082019050818103600083015261211981611e67565b9050919050565b6000602082019050818103600083015261213981611e8a565b9050919050565b60006020820190506121556000830184611ead565b92915050565b6000612165612176565b9050612171828261241b565b919050565b6000604051905090565b600067ffffffffffffffff82111561219b5761219a6124f3565b5b6121a482612536565b9050602081019050919050565b600081519050919050565b600081519050919050565b600082825260208201905092915050565b600082825260208201905092915050565b60006121f482612337565b91506121ff83612337565b9250826fffffffffffffffffffffffffffffffff0382111561222457612223612495565b5b828201905092915050565b600061223a82612373565b915061224583612373565b9250827fffffffffffffffffffffffffffffffffffffffffffffffffffffffffffffffff0382111561227a57612279612495565b5b828201905092915050565b600061229082612337565b915061229b83612337565b9250828210156122ae576122ad612495565b5b828203905092915050565b60006122c482612373565b91506122cf83612373565b9250828210156122e2576122e1612495565b5b828203905092915050565b60006122f882612353565b9050919050565b60008115159050919050565b60007fffffffff0000000000000000000000000000000000000000000000000000000082169050919050565b60006fffffffffffffffffffffffffffffffff82169050919050565b600073ffffffffffffffffffffffffffffffffffffffff82169050919050565b6000819050919050565b82818337600083830152505050565b60005b838110156123aa57808201518184015260208101905061238f565b838111156123b9576000848401525b50505050565b60006123ca82612373565b915060008214156123de576123dd612495565b5b600182039050919050565b6000600282049050600182168061240157607f821691505b60208210811415612415576124146124c4565b5b50919050565b61242482612536565b810181811067ffffffffffffffff82111715612443576124426124f3565b5b80604052505050565b600061245782612373565b91507fffffffffffffffffffffffffffffffffffffffffffffffffffffffffffffffff82141561248a57612489612495565b5b600182019050919050565b7f4e487b7100000000000000000000000000000000000000000000000000000000600052601160045260246000fd5b7f4e487b7100000000000000000000000000000000000000000000000000000000600052602260045260246000fd5b7f4e487b7100000000000000000000000000000000000000000000000000000000600052604160045260246000fd5b600080fd5b600080fd5b600080fd5b600080fd5b6000601f19601f8301169050919050565b7f455243373231413a206f776e657220696e646578206f7574206f6620626f756e60008201527f6473000000000000000000000000000000000000000000000000000000000000602082015250565b7f455243373231413a206f776e657220717565727920666f72206e6f6e6578697360008201527f74656e7420746f6b656e00000000000000000000000000000000000000000000602082015250565b7f455243373231413a20676c6f62616c20696e646578206f7574206f6620626f7560008201527f6e64730000000000000000000000000000000000000000000000000000000000602082015250565b7f455243373231413a207472616e7366657220746f20746865207a65726f20616460008201527f6472657373000000000000000000000000000000000000000000000000000000602082015250565b7f455243373231413a20617070726f76652063616c6c6572206973206e6f74206f60008201527f776e6572206e6f7220617070726f76656420666f7220616c6c00000000000000602082015250565b7f455243373231413a2062616c616e636520717565727920666f7220746865207a60008201527f65726f2061646472657373000000000000000000000000000000000000000000602082015250565b7f455243373231413a207472616e736665722066726f6d20696e636f727265637460008201527f206f776e65720000000000000000000000000000000000000000000000000000602082015250565b7f4552433732314d657461646174613a2055524920717565727920666f72206e6f60008201527f6e6578697374656e7420746f6b656e0000000000000000000000000000000000602082015250565b7f455243373231413a20617070726f766520746f2063616c6c6572000000000000600082015250565b7f455243373231413a207472616e736665722063616c6c6572206973206e6f742060008201527f6f776e6572206e6f7220617070726f7665640000000000000000000000000000602082015250565b7f455243373231413a20617070726f76616c20746f2063757272656e74206f776e60008201527f6572000000000000000000000000000000000000000000000000000000000000602082015250565b7f455243373231413a207472616e7366657220746f206e6f6e204552433732315260008201527f6563656976657220696d706c656d656e74657200000000000000000000000000602082015250565b7f455243373231413a20756e61626c6520746f2067657420746f6b656e206f662060008201527f6f776e657220627920696e646578000000000000000000000000000000000000602082015250565b7f455243373231413a20756e61626c6520746f2064657465726d696e652074686560008201527f206f776e6572206f6620746f6b656e0000000000000000000000000000000000602082015250565b7f455243373231413a20617070726f76656420717565727920666f72206e6f6e6560008201527f78697374656e7420746f6b656e00000000000000000000000000000000000000602082015250565b6129cb816122ed565b81146129d657600080fd5b50565b6129e2816122ff565b81146129ed57600080fd5b50565b6129f98161230b565b8114612a0457600080fd5b50565b612a1081612373565b8114612a1b57600080fd5b5056fea26469706673582212209ca65088c2dabf463ab340529072e7aaf3e25df99d79cbe8c6dda1172339010f64736f6c63430008070033",
					"opcodes": "PUSH1 0xC0 PUSH1 0x40 MSTORE PUSH1 0x0 DUP1 SSTORE PUSH1 0x0 PUSH1 0x7 SSTORE CALLVALUE DUP1 ISZERO PUSH3 0x1A JUMPI PUSH1 0x0 DUP1 REVERT JUMPDEST POP PUSH1 0x40 MLOAD PUSH3 0x3074 CODESIZE SUB DUP1 PUSH3 0x3074 DUP4 CODECOPY DUP2 DUP2 ADD PUSH1 0x40 MSTORE DUP2 ADD SWAP1 PUSH3 0x40 SWAP2 SWAP1 PUSH3 0x25D JUMP JUMPDEST PUSH1 0x0 DUP2 GT PUSH3 0x86 JUMPI PUSH1 0x40 MLOAD PUSH32 0x8C379A000000000000000000000000000000000000000000000000000000000 DUP2 MSTORE PUSH1 0x4 ADD PUSH3 0x7D SWAP1 PUSH3 0x37D JUMP JUMPDEST PUSH1 0x40 MLOAD DUP1 SWAP2 SUB SWAP1 REVERT JUMPDEST PUSH1 0x0 DUP3 GT PUSH3 0xCC JUMPI PUSH1 0x40 MLOAD PUSH32 0x8C379A000000000000000000000000000000000000000000000000000000000 DUP2 MSTORE PUSH1 0x4 ADD PUSH3 0xC3 SWAP1 PUSH3 0x35B JUMP JUMPDEST PUSH1 0x40 MLOAD DUP1 SWAP2 SUB SWAP1 REVERT JUMPDEST DUP4 PUSH1 0x1 SWAP1 DUP1 MLOAD SWAP1 PUSH1 0x20 ADD SWAP1 PUSH3 0xE4 SWAP3 SWAP2 SWAP1 PUSH3 0x118 JUMP JUMPDEST POP DUP3 PUSH1 0x2 SWAP1 DUP1 MLOAD SWAP1 PUSH1 0x20 ADD SWAP1 PUSH3 0xFD SWAP3 SWAP2 SWAP1 PUSH3 0x118 JUMP JUMPDEST POP DUP2 PUSH1 0xA0 DUP2 DUP2 MSTORE POP POP DUP1 PUSH1 0x80 DUP2 DUP2 MSTORE POP POP POP POP POP POP PUSH3 0x5F6 JUMP JUMPDEST DUP3 DUP1 SLOAD PUSH3 0x126 SWAP1 PUSH3 0x44F JUMP JUMPDEST SWAP1 PUSH1 0x0 MSTORE PUSH1 0x20 PUSH1 0x0 KECCAK256 SWAP1 PUSH1 0x1F ADD PUSH1 0x20 SWAP1 DIV DUP2 ADD SWAP3 DUP3 PUSH3 0x14A JUMPI PUSH1 0x0 DUP6 SSTORE PUSH3 0x196 JUMP JUMPDEST DUP3 PUSH1 0x1F LT PUSH3 0x165 JUMPI DUP1 MLOAD PUSH1 0xFF NOT AND DUP4 DUP1 ADD OR DUP6 SSTORE PUSH3 0x196 JUMP JUMPDEST DUP3 DUP1 ADD PUSH1 0x1 ADD DUP6 SSTORE DUP3 ISZERO PUSH3 0x196 JUMPI SWAP2 DUP3 ADD JUMPDEST DUP3 DUP2 GT ISZERO PUSH3 0x195 JUMPI DUP3 MLOAD DUP3 SSTORE SWAP2 PUSH1 0x20 ADD SWAP2 SWAP1 PUSH1 0x1 ADD SWAP1 PUSH3 0x178 JUMP JUMPDEST JUMPDEST POP SWAP1 POP PUSH3 0x1A5 SWAP2 SWAP1 PUSH3 0x1A9 JUMP JUMPDEST POP SWAP1 JUMP JUMPDEST JUMPDEST DUP1 DUP3 GT ISZERO PUSH3 0x1C4 JUMPI PUSH1 0x0 DUP2 PUSH1 0x0 SWAP1 SSTORE POP PUSH1 0x1 ADD PUSH3 0x1AA JUMP JUMPDEST POP SWAP1 JUMP JUMPDEST PUSH1 0x0 PUSH3 0x1DF PUSH3 0x1D9 DUP5 PUSH3 0x3C8 JUMP JUMPDEST PUSH3 0x39F JUMP JUMPDEST SWAP1 POP DUP3 DUP2 MSTORE PUSH1 0x20 DUP2 ADD DUP5 DUP5 DUP5 ADD GT ISZERO PUSH3 0x1FE JUMPI PUSH3 0x1FD PUSH3 0x51E JUMP JUMPDEST JUMPDEST PUSH3 0x20B DUP5 DUP3 DUP6 PUSH3 0x419 JUMP JUMPDEST POP SWAP4 SWAP3 POP POP POP JUMP JUMPDEST PUSH1 0x0 DUP3 PUSH1 0x1F DUP4 ADD SLT PUSH3 0x22B JUMPI PUSH3 0x22A PUSH3 0x519 JUMP JUMPDEST JUMPDEST DUP2 MLOAD PUSH3 0x23D DUP5 DUP3 PUSH1 0x20 DUP7 ADD PUSH3 0x1C8 JUMP JUMPDEST SWAP2 POP POP SWAP3 SWAP2 POP POP JUMP JUMPDEST PUSH1 0x0 DUP2 MLOAD SWAP1 POP PUSH3 0x257 DUP2 PUSH3 0x5DC JUMP JUMPDEST SWAP3 SWAP2 POP POP JUMP JUMPDEST PUSH1 0x0 DUP1 PUSH1 0x0 DUP1 PUSH1 0x80 DUP6 DUP8 SUB SLT ISZERO PUSH3 0x27A JUMPI PUSH3 0x279 PUSH3 0x528 JUMP JUMPDEST JUMPDEST PUSH1 0x0 DUP6 ADD MLOAD PUSH8 0xFFFFFFFFFFFFFFFF DUP2 GT ISZERO PUSH3 0x29B JUMPI PUSH3 0x29A PUSH3 0x523 JUMP JUMPDEST JUMPDEST PUSH3 0x2A9 DUP8 DUP3 DUP9 ADD PUSH3 0x213 JUMP JUMPDEST SWAP5 POP POP PUSH1 0x20 DUP6 ADD MLOAD PUSH8 0xFFFFFFFFFFFFFFFF DUP2 GT ISZERO PUSH3 0x2CD JUMPI PUSH3 0x2CC PUSH3 0x523 JUMP JUMPDEST JUMPDEST PUSH3 0x2DB DUP8 DUP3 DUP9 ADD PUSH3 0x213 JUMP JUMPDEST SWAP4 POP POP PUSH1 0x40 PUSH3 0x2EE DUP8 DUP3 DUP9 ADD PUSH3 0x246 JUMP JUMPDEST SWAP3 POP POP PUSH1 0x60 PUSH3 0x301 DUP8 DUP3 DUP9 ADD PUSH3 0x246 JUMP JUMPDEST SWAP2 POP POP SWAP3 SWAP6 SWAP2 SWAP5 POP SWAP3 POP JUMP JUMPDEST PUSH1 0x0 PUSH3 0x31C PUSH1 0x27 DUP4 PUSH3 0x3FE JUMP JUMPDEST SWAP2 POP PUSH3 0x329 DUP3 PUSH3 0x53E JUMP JUMPDEST PUSH1 0x40 DUP3 ADD SWAP1 POP SWAP2 SWAP1 POP JUMP JUMPDEST PUSH1 0x0 PUSH3 0x343 PUSH1 0x2E DUP4 PUSH3 0x3FE JUMP JUMPDEST SWAP2 POP PUSH3 0x350 DUP3 PUSH3 0x58D JUMP JUMPDEST PUSH1 0x40 DUP3 ADD SWAP1 POP SWAP2 SWAP1 POP JUMP JUMPDEST PUSH1 0x0 PUSH1 0x20 DUP3 ADD SWAP1 POP DUP2 DUP2 SUB PUSH1 0x0 DUP4 ADD MSTORE PUSH3 0x376 DUP2 PUSH3 0x30D JUMP JUMPDEST SWAP1 POP SWAP2 SWAP1 POP JUMP JUMPDEST PUSH1 0x0 PUSH1 0x20 DUP3 ADD SWAP1 POP DUP2 DUP2 SUB PUSH1 0x0 DUP4 ADD MSTORE PUSH3 0x398 DUP2 PUSH3 0x334 JUMP JUMPDEST SWAP1 POP SWAP2 SWAP1 POP JUMP JUMPDEST PUSH1 0x0 PUSH3 0x3AB PUSH3 0x3BE JUMP JUMPDEST SWAP1 POP PUSH3 0x3B9 DUP3 DUP3 PUSH3 0x485 JUMP JUMPDEST SWAP2 SWAP1 POP JUMP JUMPDEST PUSH1 0x0 PUSH1 0x40 MLOAD SWAP1 POP SWAP1 JUMP JUMPDEST PUSH1 0x0 PUSH8 0xFFFFFFFFFFFFFFFF DUP3 GT ISZERO PUSH3 0x3E6 JUMPI PUSH3 0x3E5 PUSH3 0x4EA JUMP JUMPDEST JUMPDEST PUSH3 0x3F1 DUP3 PUSH3 0x52D JUMP JUMPDEST SWAP1 POP PUSH1 0x20 DUP2 ADD SWAP1 POP SWAP2 SWAP1 POP JUMP JUMPDEST PUSH1 0x0 DUP3 DUP3 MSTORE PUSH1 0x20 DUP3 ADD SWAP1 POP SWAP3 SWAP2 POP POP JUMP JUMPDEST PUSH1 0x0 DUP2 SWAP1 POP SWAP2 SWAP1 POP JUMP JUMPDEST PUSH1 0x0 JUMPDEST DUP4 DUP2 LT ISZERO PUSH3 0x439 JUMPI DUP1 DUP3 ADD MLOAD DUP2 DUP5 ADD MSTORE PUSH1 0x20 DUP2 ADD SWAP1 POP PUSH3 0x41C JUMP JUMPDEST DUP4 DUP2 GT ISZERO PUSH3 0x449 JUMPI PUSH1 0x0 DUP5 DUP5 ADD MSTORE JUMPDEST POP POP POP POP JUMP JUMPDEST PUSH1 0x0 PUSH1 0x2 DUP3 DIV SWAP1 POP PUSH1 0x1 DUP3 AND DUP1 PUSH3 0x468 JUMPI PUSH1 0x7F DUP3 AND SWAP2 POP JUMPDEST PUSH1 0x20 DUP3 LT DUP2 EQ ISZERO PUSH3 0x47F JUMPI PUSH3 0x47E PUSH3 0x4BB JUMP JUMPDEST JUMPDEST POP SWAP2 SWAP1 POP JUMP JUMPDEST PUSH3 0x490 DUP3 PUSH3 0x52D JUMP JUMPDEST DUP2 ADD DUP2 DUP2 LT PUSH8 0xFFFFFFFFFFFFFFFF DUP3 GT OR ISZERO PUSH3 0x4B2 JUMPI PUSH3 0x4B1 PUSH3 0x4EA JUMP JUMPDEST JUMPDEST DUP1 PUSH1 0x40 MSTORE POP POP POP JUMP JUMPDEST PUSH32 0x4E487B7100000000000000000000000000000000000000000000000000000000 PUSH1 0x0 MSTORE PUSH1 0x22 PUSH1 0x4 MSTORE PUSH1 0x24 PUSH1 0x0 REVERT JUMPDEST PUSH32 0x4E487B7100000000000000000000000000000000000000000000000000000000 PUSH1 0x0 MSTORE PUSH1 0x41 PUSH1 0x4 MSTORE PUSH1 0x24 PUSH1 0x0 REVERT JUMPDEST PUSH1 0x0 DUP1 REVERT JUMPDEST PUSH1 0x0 DUP1 REVERT JUMPDEST PUSH1 0x0 DUP1 REVERT JUMPDEST PUSH1 0x0 DUP1 REVERT JUMPDEST PUSH1 0x0 PUSH1 0x1F NOT PUSH1 0x1F DUP4 ADD AND SWAP1 POP SWAP2 SWAP1 POP JUMP JUMPDEST PUSH32 0x455243373231413A206D61782062617463682073697A65206D75737420626520 PUSH1 0x0 DUP3 ADD MSTORE PUSH32 0x6E6F6E7A65726F00000000000000000000000000000000000000000000000000 PUSH1 0x20 DUP3 ADD MSTORE POP JUMP JUMPDEST PUSH32 0x455243373231413A20636F6C6C656374696F6E206D7573742068617665206120 PUSH1 0x0 DUP3 ADD MSTORE PUSH32 0x6E6F6E7A65726F20737570706C79000000000000000000000000000000000000 PUSH1 0x20 DUP3 ADD MSTORE POP JUMP JUMPDEST PUSH3 0x5E7 DUP2 PUSH3 0x40F JUMP JUMPDEST DUP2 EQ PUSH3 0x5F3 JUMPI PUSH1 0x0 DUP1 REVERT JUMPDEST POP JUMP JUMPDEST PUSH1 0x80 MLOAD PUSH1 0xA0 MLOAD PUSH2 0x2A54 PUSH3 0x620 PUSH1 0x0 CODECOPY PUSH1 0x0 DUP2 DUP2 PUSH2 0x1537 ADD MSTORE PUSH2 0x1560 ADD MSTORE PUSH1 0x0 POP POP PUSH2 0x2A54 PUSH1 0x0 RETURN INVALID PUSH1 0x80 PUSH1 0x40 MSTORE CALLVALUE DUP1 ISZERO PUSH2 0x10 JUMPI PUSH1 0x0 DUP1 REVERT JUMPDEST POP PUSH1 0x4 CALLDATASIZE LT PUSH2 0x10B JUMPI PUSH1 0x0 CALLDATALOAD PUSH1 0xE0 SHR DUP1 PUSH4 0x4F6CCCE7 GT PUSH2 0xA2 JUMPI DUP1 PUSH4 0xA22CB465 GT PUSH2 0x71 JUMPI DUP1 PUSH4 0xA22CB465 EQ PUSH2 0x2DE JUMPI DUP1 PUSH4 0xB88D4FDE EQ PUSH2 0x2FA JUMPI DUP1 PUSH4 0xC87B56DD EQ PUSH2 0x316 JUMPI DUP1 PUSH4 0xD7224BA0 EQ PUSH2 0x346 JUMPI DUP1 PUSH4 0xE985E9C5 EQ PUSH2 0x364 JUMPI PUSH2 0x10B JUMP JUMPDEST DUP1 PUSH4 0x4F6CCCE7 EQ PUSH2 0x230 JUMPI DUP1 PUSH4 0x6352211E EQ PUSH2 0x260 JUMPI DUP1 PUSH4 0x70A08231 EQ PUSH2 0x290 JUMPI DUP1 PUSH4 0x95D89B41 EQ PUSH2 0x2C0 JUMPI PUSH2 0x10B JUMP JUMPDEST DUP1 PUSH4 0x18160DDD GT PUSH2 0xDE JUMPI DUP1 PUSH4 0x18160DDD EQ PUSH2 0x1AA JUMPI DUP1 PUSH4 0x23B872DD EQ PUSH2 0x1C8 JUMPI DUP1 PUSH4 0x2F745C59 EQ PUSH2 0x1E4 JUMPI DUP1 PUSH4 0x42842E0E EQ PUSH2 0x214 JUMPI PUSH2 0x10B JUMP JUMPDEST DUP1 PUSH4 0x1FFC9A7 EQ PUSH2 0x110 JUMPI DUP1 PUSH4 0x6FDDE03 EQ PUSH2 0x140 JUMPI DUP1 PUSH4 0x81812FC EQ PUSH2 0x15E JUMPI DUP1 PUSH4 0x95EA7B3 EQ PUSH2 0x18E JUMPI JUMPDEST PUSH1 0x0 DUP1 REVERT JUMPDEST PUSH2 0x12A PUSH1 0x4 DUP1 CALLDATASIZE SUB DUP2 ADD SWAP1 PUSH2 0x125 SWAP2 SWAP1 PUSH2 0x1B89 JUMP JUMPDEST PUSH2 0x394 JUMP JUMPDEST PUSH1 0x40 MLOAD PUSH2 0x137 SWAP2 SWAP1 PUSH2 0x1F23 JUMP JUMPDEST PUSH1 0x40 MLOAD DUP1 SWAP2 SUB SWAP1 RETURN JUMPDEST PUSH2 0x148 PUSH2 0x4DE JUMP JUMPDEST PUSH1 0x40 MLOAD PUSH2 0x155 SWAP2 SWAP1 PUSH2 0x1F3E JUMP JUMPDEST PUSH1 0x40 MLOAD DUP1 SWAP2 SUB SWAP1 RETURN JUMPDEST PUSH2 0x178 PUSH1 0x4 DUP1 CALLDATASIZE SUB DUP2 ADD SWAP1 PUSH2 0x173 SWAP2 SWAP1 PUSH2 0x1BE3 JUMP JUMPDEST PUSH2 0x570 JUMP JUMPDEST PUSH1 0x40 MLOAD PUSH2 0x185 SWAP2 SWAP1 PUSH2 0x1EBC JUMP JUMPDEST PUSH1 0x40 MLOAD DUP1 SWAP2 SUB SWAP1 RETURN JUMPDEST PUSH2 0x1A8 PUSH1 0x4 DUP1 CALLDATASIZE SUB DUP2 ADD SWAP1 PUSH2 0x1A3 SWAP2 SWAP1 PUSH2 0x1B49 JUMP JUMPDEST PUSH2 0x5F5 JUMP JUMPDEST STOP JUMPDEST PUSH2 0x1B2 PUSH2 0x70E JUMP JUMPDEST PUSH1 0x40 MLOAD PUSH2 0x1BF SWAP2 SWAP1 PUSH2 0x2140 JUMP JUMPDEST PUSH1 0x40 MLOAD DUP1 SWAP2 SUB SWAP1 RETURN JUMPDEST PUSH2 0x1E2 PUSH1 0x4 DUP1 CALLDATASIZE SUB DUP2 ADD SWAP1 PUSH2 0x1DD SWAP2 SWAP1 PUSH2 0x1A33 JUMP JUMPDEST PUSH2 0x717 JUMP JUMPDEST STOP JUMPDEST PUSH2 0x1FE PUSH1 0x4 DUP1 CALLDATASIZE SUB DUP2 ADD SWAP1 PUSH2 0x1F9 SWAP2 SWAP1 PUSH2 0x1B49 JUMP JUMPDEST PUSH2 0x727 JUMP JUMPDEST PUSH1 0x40 MLOAD PUSH2 0x20B SWAP2 SWAP1 PUSH2 0x2140 JUMP JUMPDEST PUSH1 0x40 MLOAD DUP1 SWAP2 SUB SWAP1 RETURN JUMPDEST PUSH2 0x22E PUSH1 0x4 DUP1 CALLDATASIZE SUB DUP2 ADD SWAP1 PUSH2 0x229 SWAP2 SWAP1 PUSH2 0x1A33 JUMP JUMPDEST PUSH2 0x925 JUMP JUMPDEST STOP JUMPDEST PUSH2 0x24A PUSH1 0x4 DUP1 CALLDATASIZE SUB DUP2 ADD SWAP1 PUSH2 0x245 SWAP2 SWAP1 PUSH2 0x1BE3 JUMP JUMPDEST PUSH2 0x945 JUMP JUMPDEST PUSH1 0x40 MLOAD PUSH2 0x257 SWAP2 SWAP1 PUSH2 0x2140 JUMP JUMPDEST PUSH1 0x40 MLOAD DUP1 SWAP2 SUB SWAP1 RETURN JUMPDEST PUSH2 0x27A PUSH1 0x4 DUP1 CALLDATASIZE SUB DUP2 ADD SWAP1 PUSH2 0x275 SWAP2 SWAP1 PUSH2 0x1BE3 JUMP JUMPDEST PUSH2 0x998 JUMP JUMPDEST PUSH1 0x40 MLOAD PUSH2 0x287 SWAP2 SWAP1 PUSH2 0x1EBC JUMP JUMPDEST PUSH1 0x40 MLOAD DUP1 SWAP2 SUB SWAP1 RETURN JUMPDEST PUSH2 0x2AA PUSH1 0x4 DUP1 CALLDATASIZE SUB DUP2 ADD SWAP1 PUSH2 0x2A5 SWAP2 SWAP1 PUSH2 0x19C6 JUMP JUMPDEST PUSH2 0x9AE JUMP JUMPDEST PUSH1 0x40 MLOAD PUSH2 0x2B7 SWAP2 SWAP1 PUSH2 0x2140 JUMP JUMPDEST PUSH1 0x40 MLOAD DUP1 SWAP2 SUB SWAP1 RETURN JUMPDEST PUSH2 0x2C8 PUSH2 0xA97 JUMP JUMPDEST PUSH1 0x40 MLOAD PUSH2 0x2D5 SWAP2 SWAP1 PUSH2 0x1F3E JUMP JUMPDEST PUSH1 0x40 MLOAD DUP1 SWAP2 SUB SWAP1 RETURN JUMPDEST PUSH2 0x2F8 PUSH1 0x4 DUP1 CALLDATASIZE SUB DUP2 ADD SWAP1 PUSH2 0x2F3 SWAP2 SWAP1 PUSH2 0x1B09 JUMP JUMPDEST PUSH2 0xB29 JUMP JUMPDEST STOP JUMPDEST PUSH2 0x314 PUSH1 0x4 DUP1 CALLDATASIZE SUB DUP2 ADD SWAP1 PUSH2 0x30F SWAP2 SWAP1 PUSH2 0x1A86 JUMP JUMPDEST PUSH2 0xCAA JUMP JUMPDEST STOP JUMPDEST PUSH2 0x330 PUSH1 0x4 DUP1 CALLDATASIZE SUB DUP2 ADD SWAP1 PUSH2 0x32B SWAP2 SWAP1 PUSH2 0x1BE3 JUMP JUMPDEST PUSH2 0xD06 JUMP JUMPDEST PUSH1 0x40 MLOAD PUSH2 0x33D SWAP2 SWAP1 PUSH2 0x1F3E JUMP JUMPDEST PUSH1 0x40 MLOAD DUP1 SWAP2 SUB SWAP1 RETURN JUMPDEST PUSH2 0x34E PUSH2 0xD5F JUMP JUMPDEST PUSH1 0x40 MLOAD PUSH2 0x35B SWAP2 SWAP1 PUSH2 0x2140 JUMP JUMPDEST PUSH1 0x40 MLOAD DUP1 SWAP2 SUB SWAP1 RETURN JUMPDEST PUSH2 0x37E PUSH1 0x4 DUP1 CALLDATASIZE SUB DUP2 ADD SWAP1 PUSH2 0x379 SWAP2 SWAP1 PUSH2 0x19F3 JUMP JUMPDEST PUSH2 0xD65 JUMP JUMPDEST PUSH1 0x40 MLOAD PUSH2 0x38B SWAP2 SWAP1 PUSH2 0x1F23 JUMP JUMPDEST PUSH1 0x40 MLOAD DUP1 SWAP2 SUB SWAP1 RETURN JUMPDEST PUSH1 0x0 PUSH32 0x80AC58CD00000000000000000000000000000000000000000000000000000000 PUSH28 0xFFFFFFFFFFFFFFFFFFFFFFFFFFFFFFFFFFFFFFFFFFFFFFFFFFFFFFFF NOT AND DUP3 PUSH28 0xFFFFFFFFFFFFFFFFFFFFFFFFFFFFFFFFFFFFFFFFFFFFFFFFFFFFFFFF NOT AND EQ DUP1 PUSH2 0x45F JUMPI POP PUSH32 0x5B5E139F00000000000000000000000000000000000000000000000000000000 PUSH28 0xFFFFFFFFFFFFFFFFFFFFFFFFFFFFFFFFFFFFFFFFFFFFFFFFFFFFFFFF NOT AND DUP3 PUSH28 0xFFFFFFFFFFFFFFFFFFFFFFFFFFFFFFFFFFFFFFFFFFFFFFFFFFFFFFFF NOT AND EQ JUMPDEST DUP1 PUSH2 0x4C7 JUMPI POP PUSH32 0x780E9D6300000000000000000000000000000000000000000000000000000000 PUSH28 0xFFFFFFFFFFFFFFFFFFFFFFFFFFFFFFFFFFFFFFFFFFFFFFFFFFFFFFFF NOT AND DUP3 PUSH28 0xFFFFFFFFFFFFFFFFFFFFFFFFFFFFFFFFFFFFFFFFFFFFFFFFFFFFFFFF NOT AND EQ JUMPDEST DUP1 PUSH2 0x4D7 JUMPI POP PUSH2 0x4D6 DUP3 PUSH2 0xDF9 JUMP JUMPDEST JUMPDEST SWAP1 POP SWAP2 SWAP1 POP JUMP JUMPDEST PUSH1 0x60 PUSH1 0x1 DUP1 SLOAD PUSH2 0x4ED SWAP1 PUSH2 0x23E9 JUMP JUMPDEST DUP1 PUSH1 0x1F ADD PUSH1 0x20 DUP1 SWAP2 DIV MUL PUSH1 0x20 ADD PUSH1 0x40 MLOAD SWAP1 DUP2 ADD PUSH1 0x40 MSTORE DUP1 SWAP3 SWAP2 SWAP1 DUP2 DUP2 MSTORE PUSH1 0x20 ADD DUP3 DUP1 SLOAD PUSH2 0x519 SWAP1 PUSH2 0x23E9 JUMP JUMPDEST DUP1 ISZERO PUSH2 0x566 JUMPI DUP1 PUSH1 0x1F LT PUSH2 0x53B JUMPI PUSH2 0x100 DUP1 DUP4 SLOAD DIV MUL DUP4 MSTORE SWAP2 PUSH1 0x20 ADD SWAP2 PUSH2 0x566 JUMP JUMPDEST DUP3 ADD SWAP2 SWAP1 PUSH1 0x0 MSTORE PUSH1 0x20 PUSH1 0x0 KECCAK256 SWAP1 JUMPDEST DUP2 SLOAD DUP2 MSTORE SWAP1 PUSH1 0x1 ADD SWAP1 PUSH1 0x20 ADD DUP1 DUP4 GT PUSH2 0x549 JUMPI DUP3 SWAP1 SUB PUSH1 0x1F AND DUP3 ADD SWAP2 JUMPDEST POP POP POP POP POP SWAP1 POP SWAP1 JUMP JUMPDEST PUSH1 0x0 PUSH2 0x57B DUP3 PUSH2 0xE63 JUMP JUMPDEST PUSH2 0x5BA JUMPI PUSH1 0x40 MLOAD PUSH32 0x8C379A000000000000000000000000000000000000000000000000000000000 DUP2 MSTORE PUSH1 0x4 ADD PUSH2 0x5B1 SWAP1 PUSH2 0x2120 JUMP JUMPDEST PUSH1 0x40 MLOAD DUP1 SWAP2 SUB SWAP1 REVERT JUMPDEST PUSH1 0x5 PUSH1 0x0 DUP4 DUP2 MSTORE PUSH1 0x20 ADD SWAP1 DUP2 MSTORE PUSH1 0x20 ADD PUSH1 0x0 KECCAK256 PUSH1 0x0 SWAP1 SLOAD SWAP1 PUSH2 0x100 EXP SWAP1 DIV PUSH20 0xFFFFFFFFFFFFFFFFFFFFFFFFFFFFFFFFFFFFFFFF AND SWAP1 POP SWAP2 SWAP1 POP JUMP JUMPDEST PUSH1 0x0 PUSH2 0x600 DUP3 PUSH2 0x998 JUMP JUMPDEST SWAP1 POP DUP1 PUSH20 0xFFFFFFFFFFFFFFFFFFFFFFFFFFFFFFFFFFFFFFFF AND DUP4 PUSH20 0xFFFFFFFFFFFFFFFFFFFFFFFFFFFFFFFFFFFFFFFF AND EQ ISZERO PUSH2 0x671 JUMPI PUSH1 0x40 MLOAD PUSH32 0x8C379A000000000000000000000000000000000000000000000000000000000 DUP2 MSTORE PUSH1 0x4 ADD PUSH2 0x668 SWAP1 PUSH2 0x20A0 JUMP JUMPDEST PUSH1 0x40 MLOAD DUP1 SWAP2 SUB SWAP1 REVERT JUMPDEST DUP1 PUSH20 0xFFFFFFFFFFFFFFFFFFFFFFFFFFFFFFFFFFFFFFFF AND PUSH2 0x690 PUSH2 0xE70 JUMP JUMPDEST PUSH20 0xFFFFFFFFFFFFFFFFFFFFFFFFFFFFFFFFFFFFFFFF AND EQ DUP1 PUSH2 0x6BF JUMPI POP PUSH2 0x6BE DUP2 PUSH2 0x6B9 PUSH2 0xE70 JUMP JUMPDEST PUSH2 0xD65 JUMP JUMPDEST JUMPDEST PUSH2 0x6FE JUMPI PUSH1 0x40 MLOAD PUSH32 0x8C379A000000000000000000000000000000000000000000000000000000000 DUP2 MSTORE PUSH1 0x4 ADD PUSH2 0x6F5 SWAP1 PUSH2 0x1FE0 JUMP JUMPDEST PUSH1 0x40 MLOAD DUP1 SWAP2 SUB SWAP1 REVERT JUMPDEST PUSH2 0x709 DUP4 DUP4 DUP4 PUSH2 0xE78 JUMP JUMPDEST POP POP POP JUMP JUMPDEST PUSH1 0x0 DUP1 SLOAD SWAP1 POP SWAP1 JUMP JUMPDEST PUSH2 0x722 DUP4 DUP4 DUP4 PUSH2 0xF2A JUMP JUMPDEST POP POP POP JUMP JUMPDEST PUSH1 0x0 PUSH2 0x732 DUP4 PUSH2 0x9AE JUMP JUMPDEST DUP3 LT PUSH2 0x773 JUMPI PUSH1 0x40 MLOAD PUSH32 0x8C379A000000000000000000000000000000000000000000000000000000000 DUP2 MSTORE PUSH1 0x4 ADD PUSH2 0x76A SWAP1 PUSH2 0x1F60 JUMP JUMPDEST PUSH1 0x40 MLOAD DUP1 SWAP2 SUB SWAP1 REVERT JUMPDEST PUSH1 0x0 PUSH2 0x77D PUSH2 0x70E JUMP JUMPDEST SWAP1 POP PUSH1 0x0 DUP1 PUSH1 0x0 JUMPDEST DUP4 DUP2 LT ISZERO PUSH2 0x8E3 JUMPI PUSH1 0x0 PUSH1 0x3 PUSH1 0x0 DUP4 DUP2 MSTORE PUSH1 0x20 ADD SWAP1 DUP2 MSTORE PUSH1 0x20 ADD PUSH1 0x0 KECCAK256 PUSH1 0x40 MLOAD DUP1 PUSH1 0x40 ADD PUSH1 0x40 MSTORE SWAP1 DUP2 PUSH1 0x0 DUP3 ADD PUSH1 0x0 SWAP1 SLOAD SWAP1 PUSH2 0x100 EXP SWAP1 DIV PUSH20 0xFFFFFFFFFFFFFFFFFFFFFFFFFFFFFFFFFFFFFFFF AND PUSH20 0xFFFFFFFFFFFFFFFFFFFFFFFFFFFFFFFFFFFFFFFF AND PUSH20 0xFFFFFFFFFFFFFFFFFFFFFFFFFFFFFFFFFFFFFFFF AND DUP2 MSTORE PUSH1 0x20 ADD PUSH1 0x0 DUP3 ADD PUSH1 0x14 SWAP1 SLOAD SWAP1 PUSH2 0x100 EXP SWAP1 DIV PUSH8 0xFFFFFFFFFFFFFFFF AND PUSH8 0xFFFFFFFFFFFFFFFF AND PUSH8 0xFFFFFFFFFFFFFFFF AND DUP2 MSTORE POP POP SWAP1 POP PUSH1 0x0 PUSH20 0xFFFFFFFFFFFFFFFFFFFFFFFFFFFFFFFFFFFFFFFF AND DUP2 PUSH1 0x0 ADD MLOAD PUSH20 0xFFFFFFFFFFFFFFFFFFFFFFFFFFFFFFFFFFFFFFFF AND EQ PUSH2 0x877 JUMPI DUP1 PUSH1 0x0 ADD MLOAD SWAP3 POP JUMPDEST DUP8 PUSH20 0xFFFFFFFFFFFFFFFFFFFFFFFFFFFFFFFFFFFFFFFF AND DUP4 PUSH20 0xFFFFFFFFFFFFFFFFFFFFFFFFFFFFFFFFFFFFFFFF AND EQ ISZERO PUSH2 0x8CF JUMPI DUP7 DUP5 EQ ISZERO PUSH2 0x8C0 JUMPI DUP2 SWAP6 POP POP POP POP POP POP PUSH2 0x91F JUMP JUMPDEST DUP4 DUP1 PUSH2 0x8CB SWAP1 PUSH2 0x244C JUMP JUMPDEST SWAP5 POP POP JUMPDEST POP DUP1 DUP1 PUSH2 0x8DB SWAP1 PUSH2 0x244C JUMP JUMPDEST SWAP2 POP POP PUSH2 0x785 JUMP JUMPDEST POP PUSH1 0x40 MLOAD PUSH32 0x8C379A000000000000000000000000000000000000000000000000000000000 DUP2 MSTORE PUSH1 0x4 ADD PUSH2 0x916 SWAP1 PUSH2 0x20E0 JUMP JUMPDEST PUSH1 0x40 MLOAD DUP1 SWAP2 SUB SWAP1 REVERT JUMPDEST SWAP3 SWAP2 POP POP JUMP JUMPDEST PUSH2 0x940 DUP4 DUP4 DUP4 PUSH1 0x40 MLOAD DUP1 PUSH1 0x20 ADD PUSH1 0x40 MSTORE DUP1 PUSH1 0x0 DUP2 MSTORE POP PUSH2 0xCAA JUMP JUMPDEST POP POP POP JUMP JUMPDEST PUSH1 0x0 PUSH2 0x94F PUSH2 0x70E JUMP JUMPDEST DUP3 LT PUSH2 0x990 JUMPI PUSH1 0x40 MLOAD PUSH32 0x8C379A000000000000000000000000000000000000000000000000000000000 DUP2 MSTORE PUSH1 0x4 ADD PUSH2 0x987 SWAP1 PUSH2 0x1FA0 JUMP JUMPDEST PUSH1 0x40 MLOAD DUP1 SWAP2 SUB SWAP1 REVERT JUMPDEST DUP2 SWAP1 POP SWAP2 SWAP1 POP JUMP JUMPDEST PUSH1 0x0 PUSH2 0x9A3 DUP3 PUSH2 0x14E3 JUMP JUMPDEST PUSH1 0x0 ADD MLOAD SWAP1 POP SWAP2 SWAP1 POP JUMP JUMPDEST PUSH1 0x0 DUP1 PUSH20 0xFFFFFFFFFFFFFFFFFFFFFFFFFFFFFFFFFFFFFFFF AND DUP3 PUSH20 0xFFFFFFFFFFFFFFFFFFFFFFFFFFFFFFFFFFFFFFFF AND EQ ISZERO PUSH2 0xA1F JUMPI PUSH1 0x40 MLOAD PUSH32 0x8C379A000000000000000000000000000000000000000000000000000000000 DUP2 MSTORE PUSH1 0x4 ADD PUSH2 0xA16 SWAP1 PUSH2 0x2000 JUMP JUMPDEST PUSH1 0x40 MLOAD DUP1 SWAP2 SUB SWAP1 REVERT JUMPDEST PUSH1 0x4 PUSH1 0x0 DUP4 PUSH20 0xFFFFFFFFFFFFFFFFFFFFFFFFFFFFFFFFFFFFFFFF AND PUSH20 0xFFFFFFFFFFFFFFFFFFFFFFFFFFFFFFFFFFFFFFFF AND DUP2 MSTORE PUSH1 0x20 ADD SWAP1 DUP2 MSTORE PUSH1 0x20 ADD PUSH1 0x0 KECCAK256 PUSH1 0x0 ADD PUSH1 0x0 SWAP1 SLOAD SWAP1 PUSH2 0x100 EXP SWAP1 DIV PUSH16 0xFFFFFFFFFFFFFFFFFFFFFFFFFFFFFFFF AND PUSH16 0xFFFFFFFFFFFFFFFFFFFFFFFFFFFFFFFF AND SWAP1 POP SWAP2 SWAP1 POP JUMP JUMPDEST PUSH1 0x60 PUSH1 0x2 DUP1 SLOAD PUSH2 0xAA6 SWAP1 PUSH2 0x23E9 JUMP JUMPDEST DUP1 PUSH1 0x1F ADD PUSH1 0x20 DUP1 SWAP2 DIV MUL PUSH1 0x20 ADD PUSH1 0x40 MLOAD SWAP1 DUP2 ADD PUSH1 0x40 MSTORE DUP1 SWAP3 SWAP2 SWAP1 DUP2 DUP2 MSTORE PUSH1 0x20 ADD DUP3 DUP1 SLOAD PUSH2 0xAD2 SWAP1 PUSH2 0x23E9 JUMP JUMPDEST DUP1 ISZERO PUSH2 0xB1F JUMPI DUP1 PUSH1 0x1F LT PUSH2 0xAF4 JUMPI PUSH2 0x100 DUP1 DUP4 SLOAD DIV MUL DUP4 MSTORE SWAP2 PUSH1 0x20 ADD SWAP2 PUSH2 0xB1F JUMP JUMPDEST DUP3 ADD SWAP2 SWAP1 PUSH1 0x0 MSTORE PUSH1 0x20 PUSH1 0x0 KECCAK256 SWAP1 JUMPDEST DUP2 SLOAD DUP2 MSTORE SWAP1 PUSH1 0x1 ADD SWAP1 PUSH1 0x20 ADD DUP1 DUP4 GT PUSH2 0xB02 JUMPI DUP3 SWAP1 SUB PUSH1 0x1F AND DUP3 ADD SWAP2 JUMPDEST POP POP POP POP POP SWAP1 POP SWAP1 JUMP JUMPDEST PUSH2 0xB31 PUSH2 0xE70 JUMP JUMPDEST PUSH20 0xFFFFFFFFFFFFFFFFFFFFFFFFFFFFFFFFFFFFFFFF AND DUP3 PUSH20 0xFFFFFFFFFFFFFFFFFFFFFFFFFFFFFFFFFFFFFFFF AND EQ ISZERO PUSH2 0xB9F JUMPI PUSH1 0x40 MLOAD PUSH32 0x8C379A000000000000000000000000000000000000000000000000000000000 DUP2 MSTORE PUSH1 0x4 ADD PUSH2 0xB96 SWAP1 PUSH2 0x2060 JUMP JUMPDEST PUSH1 0x40 MLOAD DUP1 SWAP2 SUB SWAP1 REVERT JUMPDEST DUP1 PUSH1 0x6 PUSH1 0x0 PUSH2 0xBAC PUSH2 0xE70 JUMP JUMPDEST PUSH20 0xFFFFFFFFFFFFFFFFFFFFFFFFFFFFFFFFFFFFFFFF AND PUSH20 0xFFFFFFFFFFFFFFFFFFFFFFFFFFFFFFFFFFFFFFFF AND DUP2 MSTORE PUSH1 0x20 ADD SWAP1 DUP2 MSTORE PUSH1 0x20 ADD PUSH1 0x0 KECCAK256 PUSH1 0x0 DUP5 PUSH20 0xFFFFFFFFFFFFFFFFFFFFFFFFFFFFFFFFFFFFFFFF AND PUSH20 0xFFFFFFFFFFFFFFFFFFFFFFFFFFFFFFFFFFFFFFFF AND DUP2 MSTORE PUSH1 0x20 ADD SWAP1 DUP2 MSTORE PUSH1 0x20 ADD PUSH1 0x0 KECCAK256 PUSH1 0x0 PUSH2 0x100 EXP DUP2 SLOAD DUP2 PUSH1 0xFF MUL NOT AND SWAP1 DUP4 ISZERO ISZERO MUL OR SWAP1 SSTORE POP DUP2 PUSH20 0xFFFFFFFFFFFFFFFFFFFFFFFFFFFFFFFFFFFFFFFF AND PUSH2 0xC59 PUSH2 0xE70 JUMP JUMPDEST PUSH20 0xFFFFFFFFFFFFFFFFFFFFFFFFFFFFFFFFFFFFFFFF AND PUSH32 0x17307EAB39AB6107E8899845AD3D59BD9653F200F220920489CA2B5937696C31 DUP4 PUSH1 0x40 MLOAD PUSH2 0xC9E SWAP2 SWAP1 PUSH2 0x1F23 JUMP JUMPDEST PUSH1 0x40 MLOAD DUP1 SWAP2 SUB SWAP1 LOG3 POP POP JUMP JUMPDEST PUSH2 0xCB5 DUP5 DUP5 DUP5 PUSH2 0xF2A JUMP JUMPDEST PUSH2 0xCC1 DUP5 DUP5 DUP5 DUP5 PUSH2 0x16E6 JUMP JUMPDEST PUSH2 0xD00 JUMPI PUSH1 0x40 MLOAD PUSH32 0x8C379A000000000000000000000000000000000000000000000000000000000 DUP2 MSTORE PUSH1 0x4 ADD PUSH2 0xCF7 SWAP1 PUSH2 0x20C0 JUMP JUMPDEST PUSH1 0x40 MLOAD DUP1 SWAP2 SUB SWAP1 REVERT JUMPDEST POP POP POP POP JUMP JUMPDEST PUSH1 0x60 PUSH2 0xD11 DUP3 PUSH2 0xE63 JUMP JUMPDEST PUSH2 0xD50 JUMPI PUSH1 0x40 MLOAD PUSH32 0x8C379A000000000000000000000000000000000000000000000000000000000 DUP2 MSTORE PUSH1 0x4 ADD PUSH2 0xD47 SWAP1 PUSH2 0x2040 JUMP JUMPDEST PUSH1 0x40 MLOAD DUP1 SWAP2 SUB SWAP1 REVERT JUMPDEST PUSH2 0xD58 PUSH2 0x187D JUMP JUMPDEST SWAP1 POP SWAP2 SWAP1 POP JUMP JUMPDEST PUSH1 0x7 SLOAD DUP2 JUMP JUMPDEST PUSH1 0x0 PUSH1 0x6 PUSH1 0x0 DUP5 PUSH20 0xFFFFFFFFFFFFFFFFFFFFFFFFFFFFFFFFFFFFFFFF AND PUSH20 0xFFFFFFFFFFFFFFFFFFFFFFFFFFFFFFFFFFFFFFFF AND DUP2 MSTORE PUSH1 0x20 ADD SWAP1 DUP2 MSTORE PUSH1 0x20 ADD PUSH1 0x0 KECCAK256 PUSH1 0x0 DUP4 PUSH20 0xFFFFFFFFFFFFFFFFFFFFFFFFFFFFFFFFFFFFFFFF AND PUSH20 0xFFFFFFFFFFFFFFFFFFFFFFFFFFFFFFFFFFFFFFFF AND DUP2 MSTORE PUSH1 0x20 ADD SWAP1 DUP2 MSTORE PUSH1 0x20 ADD PUSH1 0x0 KECCAK256 PUSH1 0x0 SWAP1 SLOAD SWAP1 PUSH2 0x100 EXP SWAP1 DIV PUSH1 0xFF AND SWAP1 POP SWAP3 SWAP2 POP POP JUMP JUMPDEST PUSH1 0x0 PUSH32 0x1FFC9A700000000000000000000000000000000000000000000000000000000 PUSH28 0xFFFFFFFFFFFFFFFFFFFFFFFFFFFFFFFFFFFFFFFFFFFFFFFFFFFFFFFF NOT AND DUP3 PUSH28 0xFFFFFFFFFFFFFFFFFFFFFFFFFFFFFFFFFFFFFFFFFFFFFFFFFFFFFFFF NOT AND EQ SWAP1 POP SWAP2 SWAP1 POP JUMP JUMPDEST PUSH1 0x0 DUP1 SLOAD DUP3 LT SWAP1 POP SWAP2 SWAP1 POP JUMP JUMPDEST PUSH1 0x0 CALLER SWAP1 POP SWAP1 JUMP JUMPDEST DUP3 PUSH1 0x5 PUSH1 0x0 DUP5 DUP2 MSTORE PUSH1 0x20 ADD SWAP1 DUP2 MSTORE PUSH1 0x20 ADD PUSH1 0x0 KECCAK256 PUSH1 0x0 PUSH2 0x100 EXP DUP2 SLOAD DUP2 PUSH20 0xFFFFFFFFFFFFFFFFFFFFFFFFFFFFFFFFFFFFFFFF MUL NOT AND SWAP1 DUP4 PUSH20 0xFFFFFFFFFFFFFFFFFFFFFFFFFFFFFFFFFFFFFFFF AND MUL OR SWAP1 SSTORE POP DUP2 DUP4 PUSH20 0xFFFFFFFFFFFFFFFFFFFFFFFFFFFFFFFFFFFFFFFF AND DUP3 PUSH20 0xFFFFFFFFFFFFFFFFFFFFFFFFFFFFFFFFFFFFFFFF AND PUSH32 0x8C5BE1E5EBEC7D5BD14F71427D1E84F3DD0314C0F7B2291E5B200AC8C7C3B925 PUSH1 0x40 MLOAD PUSH1 0x40 MLOAD DUP1 SWAP2 SUB SWAP1 LOG4 POP POP POP JUMP JUMPDEST PUSH1 0x0 PUSH2 0xF35 DUP3 PUSH2 0x14E3 JUMP JUMPDEST SWAP1 POP PUSH1 0x0 DUP2 PUSH1 0x0 ADD MLOAD PUSH20 0xFFFFFFFFFFFFFFFFFFFFFFFFFFFFFFFFFFFFFFFF AND PUSH2 0xF5C PUSH2 0xE70 JUMP JUMPDEST PUSH20 0xFFFFFFFFFFFFFFFFFFFFFFFFFFFFFFFFFFFFFFFF AND EQ DUP1 PUSH2 0xFB8 JUMPI POP PUSH2 0xF81 PUSH2 0xE70 JUMP JUMPDEST PUSH20 0xFFFFFFFFFFFFFFFFFFFFFFFFFFFFFFFFFFFFFFFF AND PUSH2 0xFA0 DUP5 PUSH2 0x570 JUMP JUMPDEST PUSH20 0xFFFFFFFFFFFFFFFFFFFFFFFFFFFFFFFFFFFFFFFF AND EQ JUMPDEST DUP1 PUSH2 0xFD4 JUMPI POP PUSH2 0xFD3 DUP3 PUSH1 0x0 ADD MLOAD PUSH2 0xFCE PUSH2 0xE70 JUMP JUMPDEST PUSH2 0xD65 JUMP JUMPDEST JUMPDEST SWAP1 POP DUP1 PUSH2 0x1016 JUMPI PUSH1 0x40 MLOAD PUSH32 0x8C379A000000000000000000000000000000000000000000000000000000000 DUP2 MSTORE PUSH1 0x4 ADD PUSH2 0x100D SWAP1 PUSH2 0x2080 JUMP JUMPDEST PUSH1 0x40 MLOAD DUP1 SWAP2 SUB SWAP1 REVERT JUMPDEST DUP5 PUSH20 0xFFFFFFFFFFFFFFFFFFFFFFFFFFFFFFFFFFFFFFFF AND DUP3 PUSH1 0x0 ADD MLOAD PUSH20 0xFFFFFFFFFFFFFFFFFFFFFFFFFFFFFFFFFFFFFFFF AND EQ PUSH2 0x1088 JUMPI PUSH1 0x40 MLOAD PUSH32 0x8C379A000000000000000000000000000000000000000000000000000000000 DUP2 MSTORE PUSH1 0x4 ADD PUSH2 0x107F SWAP1 PUSH2 0x2020 JUMP JUMPDEST PUSH1 0x40 MLOAD DUP1 SWAP2 SUB SWAP1 REVERT JUMPDEST PUSH1 0x0 PUSH20 0xFFFFFFFFFFFFFFFFFFFFFFFFFFFFFFFFFFFFFFFF AND DUP5 PUSH20 0xFFFFFFFFFFFFFFFFFFFFFFFFFFFFFFFFFFFFFFFF AND EQ ISZERO PUSH2 0x10F8 JUMPI PUSH1 0x40 MLOAD PUSH32 0x8C379A000000000000000000000000000000000000000000000000000000000 DUP2 MSTORE PUSH1 0x4 ADD PUSH2 0x10EF SWAP1 PUSH2 0x1FC0 JUMP JUMPDEST PUSH1 0x40 MLOAD DUP1 SWAP2 SUB SWAP1 REVERT JUMPDEST PUSH2 0x1105 DUP6 DUP6 DUP6 PUSH1 0x1 PUSH2 0x1894 JUMP JUMPDEST PUSH2 0x1115 PUSH1 0x0 DUP5 DUP5 PUSH1 0x0 ADD MLOAD PUSH2 0xE78 JUMP JUMPDEST PUSH1 0x1 PUSH1 0x4 PUSH1 0x0 DUP8 PUSH20 0xFFFFFFFFFFFFFFFFFFFFFFFFFFFFFFFFFFFFFFFF AND PUSH20 0xFFFFFFFFFFFFFFFFFFFFFFFFFFFFFFFFFFFFFFFF AND DUP2 MSTORE PUSH1 0x20 ADD SWAP1 DUP2 MSTORE PUSH1 0x20 ADD PUSH1 0x0 KECCAK256 PUSH1 0x0 ADD PUSH1 0x0 DUP3 DUP3 DUP3 SWAP1 SLOAD SWAP1 PUSH2 0x100 EXP SWAP1 DIV PUSH16 0xFFFFFFFFFFFFFFFFFFFFFFFFFFFFFFFF AND PUSH2 0x1183 SWAP2 SWAP1 PUSH2 0x2285 JUMP JUMPDEST SWAP3 POP PUSH2 0x100 EXP DUP2 SLOAD DUP2 PUSH16 0xFFFFFFFFFFFFFFFFFFFFFFFFFFFFFFFF MUL NOT AND SWAP1 DUP4 PUSH16 0xFFFFFFFFFFFFFFFFFFFFFFFFFFFFFFFF AND MUL OR SWAP1 SSTORE POP PUSH1 0x1 PUSH1 0x4 PUSH1 0x0 DUP7 PUSH20 0xFFFFFFFFFFFFFFFFFFFFFFFFFFFFFFFFFFFFFFFF AND PUSH20 0xFFFFFFFFFFFFFFFFFFFFFFFFFFFFFFFFFFFFFFFF AND DUP2 MSTORE PUSH1 0x20 ADD SWAP1 DUP2 MSTORE PUSH1 0x20 ADD PUSH1 0x0 KECCAK256 PUSH1 0x0 ADD PUSH1 0x0 DUP3 DUP3 DUP3 SWAP1 SLOAD SWAP1 PUSH2 0x100 EXP SWAP1 DIV PUSH16 0xFFFFFFFFFFFFFFFFFFFFFFFFFFFFFFFF AND PUSH2 0x1227 SWAP2 SWAP1 PUSH2 0x21E9 JUMP JUMPDEST SWAP3 POP PUSH2 0x100 EXP DUP2 SLOAD DUP2 PUSH16 0xFFFFFFFFFFFFFFFFFFFFFFFFFFFFFFFF MUL NOT AND SWAP1 DUP4 PUSH16 0xFFFFFFFFFFFFFFFFFFFFFFFFFFFFFFFF AND MUL OR SWAP1 SSTORE POP PUSH1 0x40 MLOAD DUP1 PUSH1 0x40 ADD PUSH1 0x40 MSTORE DUP1 DUP6 PUSH20 0xFFFFFFFFFFFFFFFFFFFFFFFFFFFFFFFFFFFFFFFF AND DUP2 MSTORE PUSH1 0x20 ADD TIMESTAMP PUSH8 0xFFFFFFFFFFFFFFFF AND DUP2 MSTORE POP PUSH1 0x3 PUSH1 0x0 DUP6 DUP2 MSTORE PUSH1 0x20 ADD SWAP1 DUP2 MSTORE PUSH1 0x20 ADD PUSH1 0x0 KECCAK256 PUSH1 0x0 DUP3 ADD MLOAD DUP2 PUSH1 0x0 ADD PUSH1 0x0 PUSH2 0x100 EXP DUP2 SLOAD DUP2 PUSH20 0xFFFFFFFFFFFFFFFFFFFFFFFFFFFFFFFFFFFFFFFF MUL NOT AND SWAP1 DUP4 PUSH20 0xFFFFFFFFFFFFFFFFFFFFFFFFFFFFFFFFFFFFFFFF AND MUL OR SWAP1 SSTORE POP PUSH1 0x20 DUP3 ADD MLOAD DUP2 PUSH1 0x0 ADD PUSH1 0x14 PUSH2 0x100 EXP DUP2 SLOAD DUP2 PUSH8 0xFFFFFFFFFFFFFFFF MUL NOT AND SWAP1 DUP4 PUSH8 0xFFFFFFFFFFFFFFFF AND MUL OR SWAP1 SSTORE POP SWAP1 POP POP PUSH1 0x0 PUSH1 0x1 DUP5 PUSH2 0x132D SWAP2 SWAP1 PUSH2 0x222F JUMP JUMPDEST SWAP1 POP PUSH1 0x0 PUSH20 0xFFFFFFFFFFFFFFFFFFFFFFFFFFFFFFFFFFFFFFFF AND PUSH1 0x3 PUSH1 0x0 DUP4 DUP2 MSTORE PUSH1 0x20 ADD SWAP1 DUP2 MSTORE PUSH1 0x20 ADD PUSH1 0x0 KECCAK256 PUSH1 0x0 ADD PUSH1 0x0 SWAP1 SLOAD SWAP1 PUSH2 0x100 EXP SWAP1 DIV PUSH20 0xFFFFFFFFFFFFFFFFFFFFFFFFFFFFFFFFFFFFFFFF AND PUSH20 0xFFFFFFFFFFFFFFFFFFFFFFFFFFFFFFFFFFFFFFFF AND EQ ISZERO PUSH2 0x1473 JUMPI PUSH2 0x13A3 DUP2 PUSH2 0xE63 JUMP JUMPDEST ISZERO PUSH2 0x1472 JUMPI PUSH1 0x40 MLOAD DUP1 PUSH1 0x40 ADD PUSH1 0x40 MSTORE DUP1 DUP5 PUSH1 0x0 ADD MLOAD PUSH20 0xFFFFFFFFFFFFFFFFFFFFFFFFFFFFFFFFFFFFFFFF AND DUP2 MSTORE PUSH1 0x20 ADD DUP5 PUSH1 0x20 ADD MLOAD PUSH8 0xFFFFFFFFFFFFFFFF AND DUP2 MSTORE POP PUSH1 0x3 PUSH1 0x0 DUP4 DUP2 MSTORE PUSH1 0x20 ADD SWAP1 DUP2 MSTORE PUSH1 0x20 ADD PUSH1 0x0 KECCAK256 PUSH1 0x0 DUP3 ADD MLOAD DUP2 PUSH1 0x0 ADD PUSH1 0x0 PUSH2 0x100 EXP DUP2 SLOAD DUP2 PUSH20 0xFFFFFFFFFFFFFFFFFFFFFFFFFFFFFFFFFFFFFFFF MUL NOT AND SWAP1 DUP4 PUSH20 0xFFFFFFFFFFFFFFFFFFFFFFFFFFFFFFFFFFFFFFFF AND MUL OR SWAP1 SSTORE POP PUSH1 0x20 DUP3 ADD MLOAD DUP2 PUSH1 0x0 ADD PUSH1 0x14 PUSH2 0x100 EXP DUP2 SLOAD DUP2 PUSH8 0xFFFFFFFFFFFFFFFF MUL NOT AND SWAP1 DUP4 PUSH8 0xFFFFFFFFFFFFFFFF AND MUL OR SWAP1 SSTORE POP SWAP1 POP POP JUMPDEST JUMPDEST DUP4 DUP6 PUSH20 0xFFFFFFFFFFFFFFFFFFFFFFFFFFFFFFFFFFFFFFFF AND DUP8 PUSH20 0xFFFFFFFFFFFFFFFFFFFFFFFFFFFFFFFFFFFFFFFF AND PUSH32 0xDDF252AD1BE2C89B69C2B068FC378DAA952BA7F163C4A11628F55A4DF523B3EF PUSH1 0x40 MLOAD PUSH1 0x40 MLOAD DUP1 SWAP2 SUB SWAP1 LOG4 PUSH2 0x14DB DUP7 DUP7 DUP7 PUSH1 0x1 PUSH2 0x189A JUMP JUMPDEST POP POP POP POP POP POP JUMP JUMPDEST PUSH2 0x14EB PUSH2 0x18B3 JUMP JUMPDEST PUSH2 0x14F4 DUP3 PUSH2 0xE63 JUMP JUMPDEST PUSH2 0x1533 JUMPI PUSH1 0x40 MLOAD PUSH32 0x8C379A000000000000000000000000000000000000000000000000000000000 DUP2 MSTORE PUSH1 0x4 ADD PUSH2 0x152A SWAP1 PUSH2 0x1F80 JUMP JUMPDEST PUSH1 0x40 MLOAD DUP1 SWAP2 SUB SWAP1 REVERT JUMPDEST PUSH1 0x0 PUSH32 0x0 DUP4 LT PUSH2 0x1597 JUMPI PUSH1 0x1 PUSH32 0x0 DUP5 PUSH2 0x158A SWAP2 SWAP1 PUSH2 0x22B9 JUMP JUMPDEST PUSH2 0x1594 SWAP2 SWAP1 PUSH2 0x222F JUMP JUMPDEST SWAP1 POP JUMPDEST PUSH1 0x0 DUP4 SWAP1 POP JUMPDEST DUP2 DUP2 LT PUSH2 0x16A5 JUMPI PUSH1 0x0 PUSH1 0x3 PUSH1 0x0 DUP4 DUP2 MSTORE PUSH1 0x20 ADD SWAP1 DUP2 MSTORE PUSH1 0x20 ADD PUSH1 0x0 KECCAK256 PUSH1 0x40 MLOAD DUP1 PUSH1 0x40 ADD PUSH1 0x40 MSTORE SWAP1 DUP2 PUSH1 0x0 DUP3 ADD PUSH1 0x0 SWAP1 SLOAD SWAP1 PUSH2 0x100 EXP SWAP1 DIV PUSH20 0xFFFFFFFFFFFFFFFFFFFFFFFFFFFFFFFFFFFFFFFF AND PUSH20 0xFFFFFFFFFFFFFFFFFFFFFFFFFFFFFFFFFFFFFFFF AND PUSH20 0xFFFFFFFFFFFFFFFFFFFFFFFFFFFFFFFFFFFFFFFF AND DUP2 MSTORE PUSH1 0x20 ADD PUSH1 0x0 DUP3 ADD PUSH1 0x14 SWAP1 SLOAD SWAP1 PUSH2 0x100 EXP SWAP1 DIV PUSH8 0xFFFFFFFFFFFFFFFF AND PUSH8 0xFFFFFFFFFFFFFFFF AND PUSH8 0xFFFFFFFFFFFFFFFF AND DUP2 MSTORE POP POP SWAP1 POP PUSH1 0x0 PUSH20 0xFFFFFFFFFFFFFFFFFFFFFFFFFFFFFFFFFFFFFFFF AND DUP2 PUSH1 0x0 ADD MLOAD PUSH20 0xFFFFFFFFFFFFFFFFFFFFFFFFFFFFFFFFFFFFFFFF AND EQ PUSH2 0x1691 JUMPI DUP1 SWAP4 POP POP POP POP PUSH2 0x16E1 JUMP JUMPDEST POP DUP1 DUP1 PUSH2 0x169D SWAP1 PUSH2 0x23BF JUMP JUMPDEST SWAP2 POP POP PUSH2 0x159D JUMP JUMPDEST POP PUSH1 0x40 MLOAD PUSH32 0x8C379A000000000000000000000000000000000000000000000000000000000 DUP2 MSTORE PUSH1 0x4 ADD PUSH2 0x16D8 SWAP1 PUSH2 0x2100 JUMP JUMPDEST PUSH1 0x40 MLOAD DUP1 SWAP2 SUB SWAP1 REVERT JUMPDEST SWAP2 SWAP1 POP JUMP JUMPDEST PUSH1 0x0 PUSH2 0x1707 DUP5 PUSH20 0xFFFFFFFFFFFFFFFFFFFFFFFFFFFFFFFFFFFFFFFF AND PUSH2 0x18A0 JUMP JUMPDEST ISZERO PUSH2 0x1870 JUMPI DUP4 PUSH20 0xFFFFFFFFFFFFFFFFFFFFFFFFFFFFFFFFFFFFFFFF AND PUSH4 0x150B7A02 PUSH2 0x1730 PUSH2 0xE70 JUMP JUMPDEST DUP8 DUP7 DUP7 PUSH1 0x40 MLOAD DUP6 PUSH4 0xFFFFFFFF AND PUSH1 0xE0 SHL DUP2 MSTORE PUSH1 0x4 ADD PUSH2 0x1752 SWAP5 SWAP4 SWAP3 SWAP2 SWAP1 PUSH2 0x1ED7 JUMP JUMPDEST PUSH1 0x20 PUSH1 0x40 MLOAD DUP1 DUP4 SUB DUP2 PUSH1 0x0 DUP8 DUP1 EXTCODESIZE ISZERO DUP1 ISZERO PUSH2 0x176C JUMPI PUSH1 0x0 DUP1 REVERT JUMPDEST POP GAS CALL SWAP3 POP POP POP DUP1 ISZERO PUSH2 0x179D JUMPI POP PUSH1 0x40 MLOAD RETURNDATASIZE PUSH1 0x1F NOT PUSH1 0x1F DUP3 ADD AND DUP3 ADD DUP1 PUSH1 0x40 MSTORE POP DUP2 ADD SWAP1 PUSH2 0x179A SWAP2 SWAP1 PUSH2 0x1BB6 JUMP JUMPDEST PUSH1 0x1 JUMPDEST PUSH2 0x1820 JUMPI RETURNDATASIZE DUP1 PUSH1 0x0 DUP2 EQ PUSH2 0x17CD JUMPI PUSH1 0x40 MLOAD SWAP2 POP PUSH1 0x1F NOT PUSH1 0x3F RETURNDATASIZE ADD AND DUP3 ADD PUSH1 0x40 MSTORE RETURNDATASIZE DUP3 MSTORE RETURNDATASIZE PUSH1 0x0 PUSH1 0x20 DUP5 ADD RETURNDATACOPY PUSH2 0x17D2 JUMP JUMPDEST PUSH1 0x60 SWAP2 POP JUMPDEST POP PUSH1 0x0 DUP2 MLOAD EQ ISZERO PUSH2 0x1818 JUMPI PUSH1 0x40 MLOAD PUSH32 0x8C379A000000000000000000000000000000000000000000000000000000000 DUP2 MSTORE PUSH1 0x4 ADD PUSH2 0x180F SWAP1 PUSH2 0x20C0 JUMP JUMPDEST PUSH1 0x40 MLOAD DUP1 SWAP2 SUB SWAP1 REVERT JUMPDEST DUP1 MLOAD DUP2 PUSH1 0x20 ADD REVERT JUMPDEST PUSH4 0x150B7A02 PUSH1 0xE0 SHL PUSH28 0xFFFFFFFFFFFFFFFFFFFFFFFFFFFFFFFFFFFFFFFFFFFFFFFFFFFFFFFF NOT AND DUP2 PUSH28 0xFFFFFFFFFFFFFFFFFFFFFFFFFFFFFFFFFFFFFFFFFFFFFFFFFFFFFFFF NOT AND EQ SWAP2 POP POP PUSH2 0x1875 JUMP JUMPDEST PUSH1 0x1 SWAP1 POP JUMPDEST SWAP5 SWAP4 POP POP POP POP JUMP JUMPDEST PUSH1 0x60 PUSH1 0x40 MLOAD DUP1 PUSH1 0x20 ADD PUSH1 0x40 MSTORE DUP1 PUSH1 0x0 DUP2 MSTORE POP SWAP1 POP SWAP1 JUMP JUMPDEST POP POP POP POP JUMP JUMPDEST POP POP POP POP JUMP JUMPDEST PUSH1 0x0 DUP1 DUP3 EXTCODESIZE SWAP1 POP PUSH1 0x0 DUP2 GT SWAP2 POP POP SWAP2 SWAP1 POP JUMP JUMPDEST PUSH1 0x40 MLOAD DUP1 PUSH1 0x40 ADD PUSH1 0x40 MSTORE DUP1 PUSH1 0x0 PUSH20 0xFFFFFFFFFFFFFFFFFFFFFFFFFFFFFFFFFFFFFFFF AND DUP2 MSTORE PUSH1 0x20 ADD PUSH1 0x0 PUSH8 0xFFFFFFFFFFFFFFFF AND DUP2 MSTORE POP SWAP1 JUMP JUMPDEST PUSH1 0x0 PUSH2 0x1900 PUSH2 0x18FB DUP5 PUSH2 0x2180 JUMP JUMPDEST PUSH2 0x215B JUMP JUMPDEST SWAP1 POP DUP3 DUP2 MSTORE PUSH1 0x20 DUP2 ADD DUP5 DUP5 DUP5 ADD GT ISZERO PUSH2 0x191C JUMPI PUSH2 0x191B PUSH2 0x2527 JUMP JUMPDEST JUMPDEST PUSH2 0x1927 DUP5 DUP3 DUP6 PUSH2 0x237D JUMP JUMPDEST POP SWAP4 SWAP3 POP POP POP JUMP JUMPDEST PUSH1 0x0 DUP2 CALLDATALOAD SWAP1 POP PUSH2 0x193E DUP2 PUSH2 0x29C2 JUMP JUMPDEST SWAP3 SWAP2 POP POP JUMP JUMPDEST PUSH1 0x0 DUP2 CALLDATALOAD SWAP1 POP PUSH2 0x1953 DUP2 PUSH2 0x29D9 JUMP JUMPDEST SWAP3 SWAP2 POP POP JUMP JUMPDEST PUSH1 0x0 DUP2 CALLDATALOAD SWAP1 POP PUSH2 0x1968 DUP2 PUSH2 0x29F0 JUMP JUMPDEST SWAP3 SWAP2 POP POP JUMP JUMPDEST PUSH1 0x0 DUP2 MLOAD SWAP1 POP PUSH2 0x197D DUP2 PUSH2 0x29F0 JUMP JUMPDEST SWAP3 SWAP2 POP POP JUMP JUMPDEST PUSH1 0x0 DUP3 PUSH1 0x1F DUP4 ADD SLT PUSH2 0x1998 JUMPI PUSH2 0x1997 PUSH2 0x2522 JUMP JUMPDEST JUMPDEST DUP2 CALLDATALOAD PUSH2 0x19A8 DUP5 DUP3 PUSH1 0x20 DUP7 ADD PUSH2 0x18ED JUMP JUMPDEST SWAP2 POP POP SWAP3 SWAP2 POP POP JUMP JUMPDEST PUSH1 0x0 DUP2 CALLDATALOAD SWAP1 POP PUSH2 0x19C0 DUP2 PUSH2 0x2A07 JUMP JUMPDEST SWAP3 SWAP2 POP POP JUMP JUMPDEST PUSH1 0x0 PUSH1 0x20 DUP3 DUP5 SUB SLT ISZERO PUSH2 0x19DC JUMPI PUSH2 0x19DB PUSH2 0x2531 JUMP JUMPDEST JUMPDEST PUSH1 0x0 PUSH2 0x19EA DUP5 DUP3 DUP6 ADD PUSH2 0x192F JUMP JUMPDEST SWAP2 POP POP SWAP3 SWAP2 POP POP JUMP JUMPDEST PUSH1 0x0 DUP1 PUSH1 0x40 DUP4 DUP6 SUB SLT ISZERO PUSH2 0x1A0A JUMPI PUSH2 0x1A09 PUSH2 0x2531 JUMP JUMPDEST JUMPDEST PUSH1 0x0 PUSH2 0x1A18 DUP6 DUP3 DUP7 ADD PUSH2 0x192F JUMP JUMPDEST SWAP3 POP POP PUSH1 0x20 PUSH2 0x1A29 DUP6 DUP3 DUP7 ADD PUSH2 0x192F JUMP JUMPDEST SWAP2 POP POP SWAP3 POP SWAP3 SWAP1 POP JUMP JUMPDEST PUSH1 0x0 DUP1 PUSH1 0x0 PUSH1 0x60 DUP5 DUP7 SUB SLT ISZERO PUSH2 0x1A4C JUMPI PUSH2 0x1A4B PUSH2 0x2531 JUMP JUMPDEST JUMPDEST PUSH1 0x0 PUSH2 0x1A5A DUP7 DUP3 DUP8 ADD PUSH2 0x192F JUMP JUMPDEST SWAP4 POP POP PUSH1 0x20 PUSH2 0x1A6B DUP7 DUP3 DUP8 ADD PUSH2 0x192F JUMP JUMPDEST SWAP3 POP POP PUSH1 0x40 PUSH2 0x1A7C DUP7 DUP3 DUP8 ADD PUSH2 0x19B1 JUMP JUMPDEST SWAP2 POP POP SWAP3 POP SWAP3 POP SWAP3 JUMP JUMPDEST PUSH1 0x0 DUP1 PUSH1 0x0 DUP1 PUSH1 0x80 DUP6 DUP8 SUB SLT ISZERO PUSH2 0x1AA0 JUMPI PUSH2 0x1A9F PUSH2 0x2531 JUMP JUMPDEST JUMPDEST PUSH1 0x0 PUSH2 0x1AAE DUP8 DUP3 DUP9 ADD PUSH2 0x192F JUMP JUMPDEST SWAP5 POP POP PUSH1 0x20 PUSH2 0x1ABF DUP8 DUP3 DUP9 ADD PUSH2 0x192F JUMP JUMPDEST SWAP4 POP POP PUSH1 0x40 PUSH2 0x1AD0 DUP8 DUP3 DUP9 ADD PUSH2 0x19B1 JUMP JUMPDEST SWAP3 POP POP PUSH1 0x60 DUP6 ADD CALLDATALOAD PUSH8 0xFFFFFFFFFFFFFFFF DUP2 GT ISZERO PUSH2 0x1AF1 JUMPI PUSH2 0x1AF0 PUSH2 0x252C JUMP JUMPDEST JUMPDEST PUSH2 0x1AFD DUP8 DUP3 DUP9 ADD PUSH2 0x1983 JUMP JUMPDEST SWAP2 POP POP SWAP3 SWAP6 SWAP2 SWAP5 POP SWAP3 POP JUMP JUMPDEST PUSH1 0x0 DUP1 PUSH1 0x40 DUP4 DUP6 SUB SLT ISZERO PUSH2 0x1B20 JUMPI PUSH2 0x1B1F PUSH2 0x2531 JUMP JUMPDEST JUMPDEST PUSH1 0x0 PUSH2 0x1B2E DUP6 DUP3 DUP7 ADD PUSH2 0x192F JUMP JUMPDEST SWAP3 POP POP PUSH1 0x20 PUSH2 0x1B3F DUP6 DUP3 DUP7 ADD PUSH2 0x1944 JUMP JUMPDEST SWAP2 POP POP SWAP3 POP SWAP3 SWAP1 POP JUMP JUMPDEST PUSH1 0x0 DUP1 PUSH1 0x40 DUP4 DUP6 SUB SLT ISZERO PUSH2 0x1B60 JUMPI PUSH2 0x1B5F PUSH2 0x2531 JUMP JUMPDEST JUMPDEST PUSH1 0x0 PUSH2 0x1B6E DUP6 DUP3 DUP7 ADD PUSH2 0x192F JUMP JUMPDEST SWAP3 POP POP PUSH1 0x20 PUSH2 0x1B7F DUP6 DUP3 DUP7 ADD PUSH2 0x19B1 JUMP JUMPDEST SWAP2 POP POP SWAP3 POP SWAP3 SWAP1 POP JUMP JUMPDEST PUSH1 0x0 PUSH1 0x20 DUP3 DUP5 SUB SLT ISZERO PUSH2 0x1B9F JUMPI PUSH2 0x1B9E PUSH2 0x2531 JUMP JUMPDEST JUMPDEST PUSH1 0x0 PUSH2 0x1BAD DUP5 DUP3 DUP6 ADD PUSH2 0x1959 JUMP JUMPDEST SWAP2 POP POP SWAP3 SWAP2 POP POP JUMP JUMPDEST PUSH1 0x0 PUSH1 0x20 DUP3 DUP5 SUB SLT ISZERO PUSH2 0x1BCC JUMPI PUSH2 0x1BCB PUSH2 0x2531 JUMP JUMPDEST JUMPDEST PUSH1 0x0 PUSH2 0x1BDA DUP5 DUP3 DUP6 ADD PUSH2 0x196E JUMP JUMPDEST SWAP2 POP POP SWAP3 SWAP2 POP POP JUMP JUMPDEST PUSH1 0x0 PUSH1 0x20 DUP3 DUP5 SUB SLT ISZERO PUSH2 0x1BF9 JUMPI PUSH2 0x1BF8 PUSH2 0x2531 JUMP JUMPDEST JUMPDEST PUSH1 0x0 PUSH2 0x1C07 DUP5 DUP3 DUP6 ADD PUSH2 0x19B1 JUMP JUMPDEST SWAP2 POP POP SWAP3 SWAP2 POP POP JUMP JUMPDEST PUSH2 0x1C19 DUP2 PUSH2 0x22ED JUMP JUMPDEST DUP3 MSTORE POP POP JUMP JUMPDEST PUSH2 0x1C28 DUP2 PUSH2 0x22FF JUMP JUMPDEST DUP3 MSTORE POP POP JUMP JUMPDEST PUSH1 0x0 PUSH2 0x1C39 DUP3 PUSH2 0x21B1 JUMP JUMPDEST PUSH2 0x1C43 DUP2 DUP6 PUSH2 0x21C7 JUMP JUMPDEST SWAP4 POP PUSH2 0x1C53 DUP2 DUP6 PUSH1 0x20 DUP7 ADD PUSH2 0x238C JUMP JUMPDEST PUSH2 0x1C5C DUP2 PUSH2 0x2536 JUMP JUMPDEST DUP5 ADD SWAP2 POP POP SWAP3 SWAP2 POP POP JUMP JUMPDEST PUSH1 0x0 PUSH2 0x1C72 DUP3 PUSH2 0x21BC JUMP JUMPDEST PUSH2 0x1C7C DUP2 DUP6 PUSH2 0x21D8 JUMP JUMPDEST SWAP4 POP PUSH2 0x1C8C DUP2 DUP6 PUSH1 0x20 DUP7 ADD PUSH2 0x238C JUMP JUMPDEST PUSH2 0x1C95 DUP2 PUSH2 0x2536 JUMP JUMPDEST DUP5 ADD SWAP2 POP POP SWAP3 SWAP2 POP POP JUMP JUMPDEST PUSH1 0x0 PUSH2 0x1CAD PUSH1 0x22 DUP4 PUSH2 0x21D8 JUMP JUMPDEST SWAP2 POP PUSH2 0x1CB8 DUP3 PUSH2 0x2547 JUMP JUMPDEST PUSH1 0x40 DUP3 ADD SWAP1 POP SWAP2 SWAP1 POP JUMP JUMPDEST PUSH1 0x0 PUSH2 0x1CD0 PUSH1 0x2A DUP4 PUSH2 0x21D8 JUMP JUMPDEST SWAP2 POP PUSH2 0x1CDB DUP3 PUSH2 0x2596 JUMP JUMPDEST PUSH1 0x40 DUP3 ADD SWAP1 POP SWAP2 SWAP1 POP JUMP JUMPDEST PUSH1 0x0 PUSH2 0x1CF3 PUSH1 0x23 DUP4 PUSH2 0x21D8 JUMP JUMPDEST SWAP2 POP PUSH2 0x1CFE DUP3 PUSH2 0x25E5 JUMP JUMPDEST PUSH1 0x40 DUP3 ADD SWAP1 POP SWAP2 SWAP1 POP JUMP JUMPDEST PUSH1 0x0 PUSH2 0x1D16 PUSH1 0x25 DUP4 PUSH2 0x21D8 JUMP JUMPDEST SWAP2 POP PUSH2 0x1D21 DUP3 PUSH2 0x2634 JUMP JUMPDEST PUSH1 0x40 DUP3 ADD SWAP1 POP SWAP2 SWAP1 POP JUMP JUMPDEST PUSH1 0x0 PUSH2 0x1D39 PUSH1 0x39 DUP4 PUSH2 0x21D8 JUMP JUMPDEST SWAP2 POP PUSH2 0x1D44 DUP3 PUSH2 0x2683 JUMP JUMPDEST PUSH1 0x40 DUP3 ADD SWAP1 POP SWAP2 SWAP1 POP JUMP JUMPDEST PUSH1 0x0 PUSH2 0x1D5C PUSH1 0x2B DUP4 PUSH2 0x21D8 JUMP JUMPDEST SWAP2 POP PUSH2 0x1D67 DUP3 PUSH2 0x26D2 JUMP JUMPDEST PUSH1 0x40 DUP3 ADD SWAP1 POP SWAP2 SWAP1 POP JUMP JUMPDEST PUSH1 0x0 PUSH2 0x1D7F PUSH1 0x26 DUP4 PUSH2 0x21D8 JUMP JUMPDEST SWAP2 POP PUSH2 0x1D8A DUP3 PUSH2 0x2721 JUMP JUMPDEST PUSH1 0x40 DUP3 ADD SWAP1 POP SWAP2 SWAP1 POP JUMP JUMPDEST PUSH1 0x0 PUSH2 0x1DA2 PUSH1 0x2F DUP4 PUSH2 0x21D8 JUMP JUMPDEST SWAP2 POP PUSH2 0x1DAD DUP3 PUSH2 0x2770 JUMP JUMPDEST PUSH1 0x40 DUP3 ADD SWAP1 POP SWAP2 SWAP1 POP JUMP JUMPDEST PUSH1 0x0 PUSH2 0x1DC5 PUSH1 0x1A DUP4 PUSH2 0x21D8 JUMP JUMPDEST SWAP2 POP PUSH2 0x1DD0 DUP3 PUSH2 0x27BF JUMP JUMPDEST PUSH1 0x20 DUP3 ADD SWAP1 POP SWAP2 SWAP1 POP JUMP JUMPDEST PUSH1 0x0 PUSH2 0x1DE8 PUSH1 0x32 DUP4 PUSH2 0x21D8 JUMP JUMPDEST SWAP2 POP PUSH2 0x1DF3 DUP3 PUSH2 0x27E8 JUMP JUMPDEST PUSH1 0x40 DUP3 ADD SWAP1 POP SWAP2 SWAP1 POP JUMP JUMPDEST PUSH1 0x0 PUSH2 0x1E0B PUSH1 0x22 DUP4 PUSH2 0x21D8 JUMP JUMPDEST SWAP2 POP PUSH2 0x1E16 DUP3 PUSH2 0x2837 JUMP JUMPDEST PUSH1 0x40 DUP3 ADD SWAP1 POP SWAP2 SWAP1 POP JUMP JUMPDEST PUSH1 0x0 PUSH2 0x1E2E PUSH1 0x33 DUP4 PUSH2 0x21D8 JUMP JUMPDEST SWAP2 POP PUSH2 0x1E39 DUP3 PUSH2 0x2886 JUMP JUMPDEST PUSH1 0x40 DUP3 ADD SWAP1 POP SWAP2 SWAP1 POP JUMP JUMPDEST PUSH1 0x0 PUSH2 0x1E51 PUSH1 0x2E DUP4 PUSH2 0x21D8 JUMP JUMPDEST SWAP2 POP PUSH2 0x1E5C DUP3 PUSH2 0x28D5 JUMP JUMPDEST PUSH1 0x40 DUP3 ADD SWAP1 POP SWAP2 SWAP1 POP JUMP JUMPDEST PUSH1 0x0 PUSH2 0x1E74 PUSH1 0x2F DUP4 PUSH2 0x21D8 JUMP JUMPDEST SWAP2 POP PUSH2 0x1E7F DUP3 PUSH2 0x2924 JUMP JUMPDEST PUSH1 0x40 DUP3 ADD SWAP1 POP SWAP2 SWAP1 POP JUMP JUMPDEST PUSH1 0x0 PUSH2 0x1E97 PUSH1 0x2D DUP4 PUSH2 0x21D8 JUMP JUMPDEST SWAP2 POP PUSH2 0x1EA2 DUP3 PUSH2 0x2973 JUMP JUMPDEST PUSH1 0x40 DUP3 ADD SWAP1 POP SWAP2 SWAP1 POP JUMP JUMPDEST PUSH2 0x1EB6 DUP2 PUSH2 0x2373 JUMP JUMPDEST DUP3 MSTORE POP POP JUMP JUMPDEST PUSH1 0x0 PUSH1 0x20 DUP3 ADD SWAP1 POP PUSH2 0x1ED1 PUSH1 0x0 DUP4 ADD DUP5 PUSH2 0x1C10 JUMP JUMPDEST SWAP3 SWAP2 POP POP JUMP JUMPDEST PUSH1 0x0 PUSH1 0x80 DUP3 ADD SWAP1 POP PUSH2 0x1EEC PUSH1 0x0 DUP4 ADD DUP8 PUSH2 0x1C10 JUMP JUMPDEST PUSH2 0x1EF9 PUSH1 0x20 DUP4 ADD DUP7 PUSH2 0x1C10 JUMP JUMPDEST PUSH2 0x1F06 PUSH1 0x40 DUP4 ADD DUP6 PUSH2 0x1EAD JUMP JUMPDEST DUP2 DUP2 SUB PUSH1 0x60 DUP4 ADD MSTORE PUSH2 0x1F18 DUP2 DUP5 PUSH2 0x1C2E JUMP JUMPDEST SWAP1 POP SWAP6 SWAP5 POP POP POP POP POP JUMP JUMPDEST PUSH1 0x0 PUSH1 0x20 DUP3 ADD SWAP1 POP PUSH2 0x1F38 PUSH1 0x0 DUP4 ADD DUP5 PUSH2 0x1C1F JUMP JUMPDEST SWAP3 SWAP2 POP POP JUMP JUMPDEST PUSH1 0x0 PUSH1 0x20 DUP3 ADD SWAP1 POP DUP2 DUP2 SUB PUSH1 0x0 DUP4 ADD MSTORE PUSH2 0x1F58 DUP2 DUP5 PUSH2 0x1C67 JUMP JUMPDEST SWAP1 POP SWAP3 SWAP2 POP POP JUMP JUMPDEST PUSH1 0x0 PUSH1 0x20 DUP3 ADD SWAP1 POP DUP2 DUP2 SUB PUSH1 0x0 DUP4 ADD MSTORE PUSH2 0x1F79 DUP2 PUSH2 0x1CA0 JUMP JUMPDEST SWAP1 POP SWAP2 SWAP1 POP JUMP JUMPDEST PUSH1 0x0 PUSH1 0x20 DUP3 ADD SWAP1 POP DUP2 DUP2 SUB PUSH1 0x0 DUP4 ADD MSTORE PUSH2 0x1F99 DUP2 PUSH2 0x1CC3 JUMP JUMPDEST SWAP1 POP SWAP2 SWAP1 POP JUMP JUMPDEST PUSH1 0x0 PUSH1 0x20 DUP3 ADD SWAP1 POP DUP2 DUP2 SUB PUSH1 0x0 DUP4 ADD MSTORE PUSH2 0x1FB9 DUP2 PUSH2 0x1CE6 JUMP JUMPDEST SWAP1 POP SWAP2 SWAP1 POP JUMP JUMPDEST PUSH1 0x0 PUSH1 0x20 DUP3 ADD SWAP1 POP DUP2 DUP2 SUB PUSH1 0x0 DUP4 ADD MSTORE PUSH2 0x1FD9 DUP2 PUSH2 0x1D09 JUMP JUMPDEST SWAP1 POP SWAP2 SWAP1 POP JUMP JUMPDEST PUSH1 0x0 PUSH1 0x20 DUP3 ADD SWAP1 POP DUP2 DUP2 SUB PUSH1 0x0 DUP4 ADD MSTORE PUSH2 0x1FF9 DUP2 PUSH2 0x1D2C JUMP JUMPDEST SWAP1 POP SWAP2 SWAP1 POP JUMP JUMPDEST PUSH1 0x0 PUSH1 0x20 DUP3 ADD SWAP1 POP DUP2 DUP2 SUB PUSH1 0x0 DUP4 ADD MSTORE PUSH2 0x2019 DUP2 PUSH2 0x1D4F JUMP JUMPDEST SWAP1 POP SWAP2 SWAP1 POP JUMP JUMPDEST PUSH1 0x0 PUSH1 0x20 DUP3 ADD SWAP1 POP DUP2 DUP2 SUB PUSH1 0x0 DUP4 ADD MSTORE PUSH2 0x2039 DUP2 PUSH2 0x1D72 JUMP JUMPDEST SWAP1 POP SWAP2 SWAP1 POP JUMP JUMPDEST PUSH1 0x0 PUSH1 0x20 DUP3 ADD SWAP1 POP DUP2 DUP2 SUB PUSH1 0x0 DUP4 ADD MSTORE PUSH2 0x2059 DUP2 PUSH2 0x1D95 JUMP JUMPDEST SWAP1 POP SWAP2 SWAP1 POP JUMP JUMPDEST PUSH1 0x0 PUSH1 0x20 DUP3 ADD SWAP1 POP DUP2 DUP2 SUB PUSH1 0x0 DUP4 ADD MSTORE PUSH2 0x2079 DUP2 PUSH2 0x1DB8 JUMP JUMPDEST SWAP1 POP SWAP2 SWAP1 POP JUMP JUMPDEST PUSH1 0x0 PUSH1 0x20 DUP3 ADD SWAP1 POP DUP2 DUP2 SUB PUSH1 0x0 DUP4 ADD MSTORE PUSH2 0x2099 DUP2 PUSH2 0x1DDB JUMP JUMPDEST SWAP1 POP SWAP2 SWAP1 POP JUMP JUMPDEST PUSH1 0x0 PUSH1 0x20 DUP3 ADD SWAP1 POP DUP2 DUP2 SUB PUSH1 0x0 DUP4 ADD MSTORE PUSH2 0x20B9 DUP2 PUSH2 0x1DFE JUMP JUMPDEST SWAP1 POP SWAP2 SWAP1 POP JUMP JUMPDEST PUSH1 0x0 PUSH1 0x20 DUP3 ADD SWAP1 POP DUP2 DUP2 SUB PUSH1 0x0 DUP4 ADD MSTORE PUSH2 0x20D9 DUP2 PUSH2 0x1E21 JUMP JUMPDEST SWAP1 POP SWAP2 SWAP1 POP JUMP JUMPDEST PUSH1 0x0 PUSH1 0x20 DUP3 ADD SWAP1 POP DUP2 DUP2 SUB PUSH1 0x0 DUP4 ADD MSTORE PUSH2 0x20F9 DUP2 PUSH2 0x1E44 JUMP JUMPDEST SWAP1 POP SWAP2 SWAP1 POP JUMP JUMPDEST PUSH1 0x0 PUSH1 0x20 DUP3 ADD SWAP1 POP DUP2 DUP2 SUB PUSH1 0x0 DUP4 ADD MSTORE PUSH2 0x2119 DUP2 PUSH2 0x1E67 JUMP JUMPDEST SWAP1 POP SWAP2 SWAP1 POP JUMP JUMPDEST PUSH1 0x0 PUSH1 0x20 DUP3 ADD SWAP1 POP DUP2 DUP2 SUB PUSH1 0x0 DUP4 ADD MSTORE PUSH2 0x2139 DUP2 PUSH2 0x1E8A JUMP JUMPDEST SWAP1 POP SWAP2 SWAP1 POP JUMP JUMPDEST PUSH1 0x0 PUSH1 0x20 DUP3 ADD SWAP1 POP PUSH2 0x2155 PUSH1 0x0 DUP4 ADD DUP5 PUSH2 0x1EAD JUMP JUMPDEST SWAP3 SWAP2 POP POP JUMP JUMPDEST PUSH1 0x0 PUSH2 0x2165 PUSH2 0x2176 JUMP JUMPDEST SWAP1 POP PUSH2 0x2171 DUP3 DUP3 PUSH2 0x241B JUMP JUMPDEST SWAP2 SWAP1 POP JUMP JUMPDEST PUSH1 0x0 PUSH1 0x40 MLOAD SWAP1 POP SWAP1 JUMP JUMPDEST PUSH1 0x0 PUSH8 0xFFFFFFFFFFFFFFFF DUP3 GT ISZERO PUSH2 0x219B JUMPI PUSH2 0x219A PUSH2 0x24F3 JUMP JUMPDEST JUMPDEST PUSH2 0x21A4 DUP3 PUSH2 0x2536 JUMP JUMPDEST SWAP1 POP PUSH1 0x20 DUP2 ADD SWAP1 POP SWAP2 SWAP1 POP JUMP JUMPDEST PUSH1 0x0 DUP2 MLOAD SWAP1 POP SWAP2 SWAP1 POP JUMP JUMPDEST PUSH1 0x0 DUP2 MLOAD SWAP1 POP SWAP2 SWAP1 POP JUMP JUMPDEST PUSH1 0x0 DUP3 DUP3 MSTORE PUSH1 0x20 DUP3 ADD SWAP1 POP SWAP3 SWAP2 POP POP JUMP JUMPDEST PUSH1 0x0 DUP3 DUP3 MSTORE PUSH1 0x20 DUP3 ADD SWAP1 POP SWAP3 SWAP2 POP POP JUMP JUMPDEST PUSH1 0x0 PUSH2 0x21F4 DUP3 PUSH2 0x2337 JUMP JUMPDEST SWAP2 POP PUSH2 0x21FF DUP4 PUSH2 0x2337 JUMP JUMPDEST SWAP3 POP DUP3 PUSH16 0xFFFFFFFFFFFFFFFFFFFFFFFFFFFFFFFF SUB DUP3 GT ISZERO PUSH2 0x2224 JUMPI PUSH2 0x2223 PUSH2 0x2495 JUMP JUMPDEST JUMPDEST DUP3 DUP3 ADD SWAP1 POP SWAP3 SWAP2 POP POP JUMP JUMPDEST PUSH1 0x0 PUSH2 0x223A DUP3 PUSH2 0x2373 JUMP JUMPDEST SWAP2 POP PUSH2 0x2245 DUP4 PUSH2 0x2373 JUMP JUMPDEST SWAP3 POP DUP3 PUSH32 0xFFFFFFFFFFFFFFFFFFFFFFFFFFFFFFFFFFFFFFFFFFFFFFFFFFFFFFFFFFFFFFFF SUB DUP3 GT ISZERO PUSH2 0x227A JUMPI PUSH2 0x2279 PUSH2 0x2495 JUMP JUMPDEST JUMPDEST DUP3 DUP3 ADD SWAP1 POP SWAP3 SWAP2 POP POP JUMP JUMPDEST PUSH1 0x0 PUSH2 0x2290 DUP3 PUSH2 0x2337 JUMP JUMPDEST SWAP2 POP PUSH2 0x229B DUP4 PUSH2 0x2337 JUMP JUMPDEST SWAP3 POP DUP3 DUP3 LT ISZERO PUSH2 0x22AE JUMPI PUSH2 0x22AD PUSH2 0x2495 JUMP JUMPDEST JUMPDEST DUP3 DUP3 SUB SWAP1 POP SWAP3 SWAP2 POP POP JUMP JUMPDEST PUSH1 0x0 PUSH2 0x22C4 DUP3 PUSH2 0x2373 JUMP JUMPDEST SWAP2 POP PUSH2 0x22CF DUP4 PUSH2 0x2373 JUMP JUMPDEST SWAP3 POP DUP3 DUP3 LT ISZERO PUSH2 0x22E2 JUMPI PUSH2 0x22E1 PUSH2 0x2495 JUMP JUMPDEST JUMPDEST DUP3 DUP3 SUB SWAP1 POP SWAP3 SWAP2 POP POP JUMP JUMPDEST PUSH1 0x0 PUSH2 0x22F8 DUP3 PUSH2 0x2353 JUMP JUMPDEST SWAP1 POP SWAP2 SWAP1 POP JUMP JUMPDEST PUSH1 0x0 DUP2 ISZERO ISZERO SWAP1 POP SWAP2 SWAP1 POP JUMP JUMPDEST PUSH1 0x0 PUSH32 0xFFFFFFFF00000000000000000000000000000000000000000000000000000000 DUP3 AND SWAP1 POP SWAP2 SWAP1 POP JUMP JUMPDEST PUSH1 0x0 PUSH16 0xFFFFFFFFFFFFFFFFFFFFFFFFFFFFFFFF DUP3 AND SWAP1 POP SWAP2 SWAP1 POP JUMP JUMPDEST PUSH1 0x0 PUSH20 0xFFFFFFFFFFFFFFFFFFFFFFFFFFFFFFFFFFFFFFFF DUP3 AND SWAP1 POP SWAP2 SWAP1 POP JUMP JUMPDEST PUSH1 0x0 DUP2 SWAP1 POP SWAP2 SWAP1 POP JUMP JUMPDEST DUP3 DUP2 DUP4 CALLDATACOPY PUSH1 0x0 DUP4 DUP4 ADD MSTORE POP POP POP JUMP JUMPDEST PUSH1 0x0 JUMPDEST DUP4 DUP2 LT ISZERO PUSH2 0x23AA JUMPI DUP1 DUP3 ADD MLOAD DUP2 DUP5 ADD MSTORE PUSH1 0x20 DUP2 ADD SWAP1 POP PUSH2 0x238F JUMP JUMPDEST DUP4 DUP2 GT ISZERO PUSH2 0x23B9 JUMPI PUSH1 0x0 DUP5 DUP5 ADD MSTORE JUMPDEST POP POP POP POP JUMP JUMPDEST PUSH1 0x0 PUSH2 0x23CA DUP3 PUSH2 0x2373 JUMP JUMPDEST SWAP2 POP PUSH1 0x0 DUP3 EQ ISZERO PUSH2 0x23DE JUMPI PUSH2 0x23DD PUSH2 0x2495 JUMP JUMPDEST JUMPDEST PUSH1 0x1 DUP3 SUB SWAP1 POP SWAP2 SWAP1 POP JUMP JUMPDEST PUSH1 0x0 PUSH1 0x2 DUP3 DIV SWAP1 POP PUSH1 0x1 DUP3 AND DUP1 PUSH2 0x2401 JUMPI PUSH1 0x7F DUP3 AND SWAP2 POP JUMPDEST PUSH1 0x20 DUP3 LT DUP2 EQ ISZERO PUSH2 0x2415 JUMPI PUSH2 0x2414 PUSH2 0x24C4 JUMP JUMPDEST JUMPDEST POP SWAP2 SWAP1 POP JUMP JUMPDEST PUSH2 0x2424 DUP3 PUSH2 0x2536 JUMP JUMPDEST DUP2 ADD DUP2 DUP2 LT PUSH8 0xFFFFFFFFFFFFFFFF DUP3 GT OR ISZERO PUSH2 0x2443 JUMPI PUSH2 0x2442 PUSH2 0x24F3 JUMP JUMPDEST JUMPDEST DUP1 PUSH1 0x40 MSTORE POP POP POP JUMP JUMPDEST PUSH1 0x0 PUSH2 0x2457 DUP3 PUSH2 0x2373 JUMP JUMPDEST SWAP2 POP PUSH32 0xFFFFFFFFFFFFFFFFFFFFFFFFFFFFFFFFFFFFFFFFFFFFFFFFFFFFFFFFFFFFFFFF DUP3 EQ ISZERO PUSH2 0x248A JUMPI PUSH2 0x2489 PUSH2 0x2495 JUMP JUMPDEST JUMPDEST PUSH1 0x1 DUP3 ADD SWAP1 POP SWAP2 SWAP1 POP JUMP JUMPDEST PUSH32 0x4E487B7100000000000000000000000000000000000000000000000000000000 PUSH1 0x0 MSTORE PUSH1 0x11 PUSH1 0x4 MSTORE PUSH1 0x24 PUSH1 0x0 REVERT JUMPDEST PUSH32 0x4E487B7100000000000000000000000000000000000000000000000000000000 PUSH1 0x0 MSTORE PUSH1 0x22 PUSH1 0x4 MSTORE PUSH1 0x24 PUSH1 0x0 REVERT JUMPDEST PUSH32 0x4E487B7100000000000000000000000000000000000000000000000000000000 PUSH1 0x0 MSTORE PUSH1 0x41 PUSH1 0x4 MSTORE PUSH1 0x24 PUSH1 0x0 REVERT JUMPDEST PUSH1 0x0 DUP1 REVERT JUMPDEST PUSH1 0x0 DUP1 REVERT JUMPDEST PUSH1 0x0 DUP1 REVERT JUMPDEST PUSH1 0x0 DUP1 REVERT JUMPDEST PUSH1 0x0 PUSH1 0x1F NOT PUSH1 0x1F DUP4 ADD AND SWAP1 POP SWAP2 SWAP1 POP JUMP JUMPDEST PUSH32 0x455243373231413A206F776E657220696E646578206F7574206F6620626F756E PUSH1 0x0 DUP3 ADD MSTORE PUSH32 0x6473000000000000000000000000000000000000000000000000000000000000 PUSH1 0x20 DUP3 ADD MSTORE POP JUMP JUMPDEST PUSH32 0x455243373231413A206F776E657220717565727920666F72206E6F6E65786973 PUSH1 0x0 DUP3 ADD MSTORE PUSH32 0x74656E7420746F6B656E00000000000000000000000000000000000000000000 PUSH1 0x20 DUP3 ADD MSTORE POP JUMP JUMPDEST PUSH32 0x455243373231413A20676C6F62616C20696E646578206F7574206F6620626F75 PUSH1 0x0 DUP3 ADD MSTORE PUSH32 0x6E64730000000000000000000000000000000000000000000000000000000000 PUSH1 0x20 DUP3 ADD MSTORE POP JUMP JUMPDEST PUSH32 0x455243373231413A207472616E7366657220746F20746865207A65726F206164 PUSH1 0x0 DUP3 ADD MSTORE PUSH32 0x6472657373000000000000000000000000000000000000000000000000000000 PUSH1 0x20 DUP3 ADD MSTORE POP JUMP JUMPDEST PUSH32 0x455243373231413A20617070726F76652063616C6C6572206973206E6F74206F PUSH1 0x0 DUP3 ADD MSTORE PUSH32 0x776E6572206E6F7220617070726F76656420666F7220616C6C00000000000000 PUSH1 0x20 DUP3 ADD MSTORE POP JUMP JUMPDEST PUSH32 0x455243373231413A2062616C616E636520717565727920666F7220746865207A PUSH1 0x0 DUP3 ADD MSTORE PUSH32 0x65726F2061646472657373000000000000000000000000000000000000000000 PUSH1 0x20 DUP3 ADD MSTORE POP JUMP JUMPDEST PUSH32 0x455243373231413A207472616E736665722066726F6D20696E636F7272656374 PUSH1 0x0 DUP3 ADD MSTORE PUSH32 0x206F776E65720000000000000000000000000000000000000000000000000000 PUSH1 0x20 DUP3 ADD MSTORE POP JUMP JUMPDEST PUSH32 0x4552433732314D657461646174613A2055524920717565727920666F72206E6F PUSH1 0x0 DUP3 ADD MSTORE PUSH32 0x6E6578697374656E7420746F6B656E0000000000000000000000000000000000 PUSH1 0x20 DUP3 ADD MSTORE POP JUMP JUMPDEST PUSH32 0x455243373231413A20617070726F766520746F2063616C6C6572000000000000 PUSH1 0x0 DUP3 ADD MSTORE POP JUMP JUMPDEST PUSH32 0x455243373231413A207472616E736665722063616C6C6572206973206E6F7420 PUSH1 0x0 DUP3 ADD MSTORE PUSH32 0x6F776E6572206E6F7220617070726F7665640000000000000000000000000000 PUSH1 0x20 DUP3 ADD MSTORE POP JUMP JUMPDEST PUSH32 0x455243373231413A20617070726F76616C20746F2063757272656E74206F776E PUSH1 0x0 DUP3 ADD MSTORE PUSH32 0x6572000000000000000000000000000000000000000000000000000000000000 PUSH1 0x20 DUP3 ADD MSTORE POP JUMP JUMPDEST PUSH32 0x455243373231413A207472616E7366657220746F206E6F6E2045524337323152 PUSH1 0x0 DUP3 ADD MSTORE PUSH32 0x6563656976657220696D706C656D656E74657200000000000000000000000000 PUSH1 0x20 DUP3 ADD MSTORE POP JUMP JUMPDEST PUSH32 0x455243373231413A20756E61626C6520746F2067657420746F6B656E206F6620 PUSH1 0x0 DUP3 ADD MSTORE PUSH32 0x6F776E657220627920696E646578000000000000000000000000000000000000 PUSH1 0x20 DUP3 ADD MSTORE POP JUMP JUMPDEST PUSH32 0x455243373231413A20756E61626C6520746F2064657465726D696E6520746865 PUSH1 0x0 DUP3 ADD MSTORE PUSH32 0x206F776E6572206F6620746F6B656E0000000000000000000000000000000000 PUSH1 0x20 DUP3 ADD MSTORE POP JUMP JUMPDEST PUSH32 0x455243373231413A20617070726F76656420717565727920666F72206E6F6E65 PUSH1 0x0 DUP3 ADD MSTORE PUSH32 0x78697374656E7420746F6B656E00000000000000000000000000000000000000 PUSH1 0x20 DUP3 ADD MSTORE POP JUMP JUMPDEST PUSH2 0x29CB DUP2 PUSH2 0x22ED JUMP JUMPDEST DUP2 EQ PUSH2 0x29D6 JUMPI PUSH1 0x0 DUP1 REVERT JUMPDEST POP JUMP JUMPDEST PUSH2 0x29E2 DUP2 PUSH2 0x22FF JUMP JUMPDEST DUP2 EQ PUSH2 0x29ED JUMPI PUSH1 0x0 DUP1 REVERT JUMPDEST POP JUMP JUMPDEST PUSH2 0x29F9 DUP2 PUSH2 0x230B JUMP JUMPDEST DUP2 EQ PUSH2 0x2A04 JUMPI PUSH1 0x0 DUP1 REVERT JUMPDEST POP JUMP JUMPDEST PUSH2 0x2A10 DUP2 PUSH2 0x2373 JUMP JUMPDEST DUP2 EQ PUSH2 0x2A1B JUMPI PUSH1 0x0 DUP1 REVERT JUMPDEST POP JUMP INVALID LOG2 PUSH5 0x6970667358 0x22 SLT KECCAK256 SWAP13 0xA6 POP DUP9 0xC2 0xDA 0xBF CHAINID GASPRICE 0xB3 BLOCKHASH MSTORE SWAP1 PUSH19 0xE7AAF3E25DF99D79CBE8C6DDA1172339010F64 PUSH20 0x6F6C634300080700330000000000000000000000 "
				},
				"gasEstimates": {
					"creation": {
						"codeDepositCost": "2167200",
						"executionCost": "infinite",
						"totalCost": "infinite"
					},
					"external": {
						"approve(address,uint256)": "infinite",
						"balanceOf(address)": "2994",
						"getApproved(uint256)": "5099",
						"isApprovedForAll(address,address)": "infinite",
						"name()": "infinite",
						"nextOwnerToExplicitlySet()": "2517",
						"ownerOf(uint256)": "infinite",
						"safeTransferFrom(address,address,uint256)": "infinite",
						"safeTransferFrom(address,address,uint256,bytes)": "infinite",
						"setApprovalForAll(address,bool)": "infinite",
						"supportsInterface(bytes4)": "843",
						"symbol()": "infinite",
						"tokenByIndex(uint256)": "infinite",
						"tokenOfOwnerByIndex(address,uint256)": "infinite",
						"tokenURI(uint256)": "3181",
						"totalSupply()": "2460",
						"transferFrom(address,address,uint256)": "infinite"
					},
					"internal": {
						"_afterTokenTransfers(address,address,uint256,uint256)": "17",
						"_approve(address,uint256,address)": "26292",
						"_baseURI()": "infinite",
						"_beforeTokenTransfers(address,address,uint256,uint256)": "17",
						"_checkOnERC721Received(address,address,uint256,bytes memory)": "infinite",
						"_exists(uint256)": "2134",
						"_numberMinted(address)": "infinite",
						"_safeMint(address,uint256)": "infinite",
						"_safeMint(address,uint256,bytes memory)": "infinite",
						"_setOwnersExplicit(uint256)": "infinite",
						"_transfer(address,address,uint256)": "infinite",
						"ownershipOf(uint256)": "infinite"
					}
				},
				"methodIdentifiers": {
					"approve(address,uint256)": "095ea7b3",
					"balanceOf(address)": "70a08231",
					"getApproved(uint256)": "081812fc",
					"isApprovedForAll(address,address)": "e985e9c5",
					"name()": "06fdde03",
					"nextOwnerToExplicitlySet()": "d7224ba0",
					"ownerOf(uint256)": "6352211e",
					"safeTransferFrom(address,address,uint256)": "42842e0e",
					"safeTransferFrom(address,address,uint256,bytes)": "b88d4fde",
					"setApprovalForAll(address,bool)": "a22cb465",
					"supportsInterface(bytes4)": "01ffc9a7",
					"symbol()": "95d89b41",
					"tokenByIndex(uint256)": "4f6ccce7",
					"tokenOfOwnerByIndex(address,uint256)": "2f745c59",
					"tokenURI(uint256)": "c87b56dd",
					"totalSupply()": "18160ddd",
					"transferFrom(address,address,uint256)": "23b872dd"
				}
			},
			"storageLayout": {
				"storage": [
					{
						"astId": 789,
						"contract": "contracts/ERC721A.sol:ERC721A",
						"label": "currentIndex",
						"offset": 0,
						"slot": "0",
						"type": "t_uint256"
					},
					{
						"astId": 795,
						"contract": "contracts/ERC721A.sol:ERC721A",
						"label": "_name",
						"offset": 0,
						"slot": "1",
						"type": "t_string_storage"
					},
					{
						"astId": 797,
						"contract": "contracts/ERC721A.sol:ERC721A",
						"label": "_symbol",
						"offset": 0,
						"slot": "2",
						"type": "t_string_storage"
					},
					{
						"astId": 802,
						"contract": "contracts/ERC721A.sol:ERC721A",
						"label": "_ownerships",
						"offset": 0,
						"slot": "3",
						"type": "t_mapping(t_uint256,t_struct(TokenOwnership)781_storage)"
					},
					{
						"astId": 807,
						"contract": "contracts/ERC721A.sol:ERC721A",
						"label": "_addressData",
						"offset": 0,
						"slot": "4",
						"type": "t_mapping(t_address,t_struct(AddressData)786_storage)"
					},
					{
						"astId": 811,
						"contract": "contracts/ERC721A.sol:ERC721A",
						"label": "_tokenApprovals",
						"offset": 0,
						"slot": "5",
						"type": "t_mapping(t_uint256,t_address)"
					},
					{
						"astId": 817,
						"contract": "contracts/ERC721A.sol:ERC721A",
						"label": "_operatorApprovals",
						"offset": 0,
						"slot": "6",
						"type": "t_mapping(t_address,t_mapping(t_address,t_bool))"
					},
					{
						"astId": 1738,
						"contract": "contracts/ERC721A.sol:ERC721A",
						"label": "nextOwnerToExplicitlySet",
						"offset": 0,
						"slot": "7",
						"type": "t_uint256"
					}
				],
				"types": {
					"t_address": {
						"encoding": "inplace",
						"label": "address",
						"numberOfBytes": "20"
					},
					"t_bool": {
						"encoding": "inplace",
						"label": "bool",
						"numberOfBytes": "1"
					},
					"t_mapping(t_address,t_bool)": {
						"encoding": "mapping",
						"key": "t_address",
						"label": "mapping(address => bool)",
						"numberOfBytes": "32",
						"value": "t_bool"
					},
					"t_mapping(t_address,t_mapping(t_address,t_bool))": {
						"encoding": "mapping",
						"key": "t_address",
						"label": "mapping(address => mapping(address => bool))",
						"numberOfBytes": "32",
						"value": "t_mapping(t_address,t_bool)"
					},
					"t_mapping(t_address,t_struct(AddressData)786_storage)": {
						"encoding": "mapping",
						"key": "t_address",
						"label": "mapping(address => struct ERC721A.AddressData)",
						"numberOfBytes": "32",
						"value": "t_struct(AddressData)786_storage"
					},
					"t_mapping(t_uint256,t_address)": {
						"encoding": "mapping",
						"key": "t_uint256",
						"label": "mapping(uint256 => address)",
						"numberOfBytes": "32",
						"value": "t_address"
					},
					"t_mapping(t_uint256,t_struct(TokenOwnership)781_storage)": {
						"encoding": "mapping",
						"key": "t_uint256",
						"label": "mapping(uint256 => struct ERC721A.TokenOwnership)",
						"numberOfBytes": "32",
						"value": "t_struct(TokenOwnership)781_storage"
					},
					"t_string_storage": {
						"encoding": "bytes",
						"label": "string",
						"numberOfBytes": "32"
					},
					"t_struct(AddressData)786_storage": {
						"encoding": "inplace",
						"label": "struct ERC721A.AddressData",
						"members": [
							{
								"astId": 783,
								"contract": "contracts/ERC721A.sol:ERC721A",
								"label": "balance",
								"offset": 0,
								"slot": "0",
								"type": "t_uint128"
							},
							{
								"astId": 785,
								"contract": "contracts/ERC721A.sol:ERC721A",
								"label": "numberMinted",
								"offset": 16,
								"slot": "0",
								"type": "t_uint128"
							}
						],
						"numberOfBytes": "32"
					},
					"t_struct(TokenOwnership)781_storage": {
						"encoding": "inplace",
						"label": "struct ERC721A.TokenOwnership",
						"members": [
							{
								"astId": 778,
								"contract": "contracts/ERC721A.sol:ERC721A",
								"label": "addr",
								"offset": 0,
								"slot": "0",
								"type": "t_address"
							},
							{
								"astId": 780,
								"contract": "contracts/ERC721A.sol:ERC721A",
								"label": "startTimestamp",
								"offset": 20,
								"slot": "0",
								"type": "t_uint64"
							}
						],
						"numberOfBytes": "32"
					},
					"t_uint128": {
						"encoding": "inplace",
						"label": "uint128",
						"numberOfBytes": "16"
					},
					"t_uint256": {
						"encoding": "inplace",
						"label": "uint256",
						"numberOfBytes": "32"
					},
					"t_uint64": {
						"encoding": "inplace",
						"label": "uint64",
						"numberOfBytes": "8"
					}
				}
			},
			"userdoc": {
				"kind": "user",
				"methods": {},
				"version": 1
			}
		}
	}
}